:100000000C9489080C94CD080C94CD080C94CD0860
:100010000C94CD080C94CD080C94CD080C94CD080C
:100020000C94CD080C94CD080C94A7100C94791165
:100030000C94CD080C94CD080C94CD080C94CD08EC
:100040000C94CD080C949F2C0C94CD080C94CD08E6
:100050000C94CD080C941E210C94CD080C94CD0862
:100060000C94CD080C94CD080C94CD080C94CD08BC
:100070000C94CD080C94CD080C94CD080C94CD08AC
:100080000C94CD080C94CD080C94CD080C94CD089C
:100090000C94CD080C94CD080C94CD080C94CD088C
:1000A0000C94CD080C94CD080C94CD08DE110012F0
:1000B000EB120012EB1242126512EB12BA12CD12C1
:1000C000C615C615F415F415491685167618761852
:1000D0009D16761894179417501876187618641889
:1000E000ED29152A5028FE2AFE2A9E29FE2AFE2ADC
:1000F000412AFE2A542AC92AFE2AFE2AFE2AFE2A5C
:100100009E2A852AFE2A6E2AFE2A2E2AFE2A4528A3
:10011000F82AF82AF82AF82AF82AF82AF82AF82ACF
:10012000F82AF62AFE2AF62AFE2AFE2AFE2AFE2AA5
:10013000FE2AFE2AFE2AFE2AFE2AFE2AFE2AF62A87
:10014000FE2AFE2A9E297F29FA2AFA2AFA2AFA2A60
:10015000FA2AFA2AFA2AFA2AFA2AFA2AFA2AFA2A7F
:10016000DB2AFE2A012A6E6F7420737570706F721D
:100170007465642E0A004A756D7020746F20626F7A
:100180006F746C6F616465722E2E2E20000000F17A
:10019000A1F1A2F1A3000000000000000000000097
:1001A0000000000000000000F0000001F0CD1E1F64
:1001B00020212223242526272D2E31352B141A0801
:1001C00015171C180C12132F30002AE0041607090B
:1001D0000A0B0D0E0F3334002800E11D1B06190514
:1001E0001110363738E55200003DC3C1E3002C0042
:1001F000E6C2000050514F00013A3B3C3D3E3F40BB
:1002000041424344459A000100004D0000004B006C
:1002100000000000004C014A004E00005051524FB7
:1002200000000000000100000000000000000000CD
:1002300001000000010101010001000101000000B6
:10024000000000CF696A00000000ACAEABA8AAA90C
:1002500000B001000052000000000000000000009B
:100260000001000000000000494A4B2A0000000085
:10027000010000000000004C4D4E00010000000194
:100280000101010001000101000000000000CF3A5F
:100290003B3C3D3E3F404142434445AAA90100004A
:1002A0004D0000004B4600000000004C014A004E8B
:1002B00000005051524F00000000000100000000FB
:1002C00000000000000001AD00000101010100017B
:1002D0000001010000ACAEAB000A002530313662EF
:1002E000003A200025303258000A722F6320303146
:1002F00032333435363738394142434445460A00B3
:100300000A002530325800626F756E6365213A200D
:10031000005B735D004B6579626F6172642073747A
:100320006172742E0A0055534220636F6E666967CE
:10033000757265642E0A005B575D005B535D005B60
:10034000525D005B445D005B435D000C0348003080
:1003500000300030003100000020036800690067B1
:1003600000670073005F006B006500790062006F3A
:1003700000610072006400730000000403090409B6
:10038000028D00050100A0320904000001030101F3
:1003900000092111010001223F0007058103080027
:1003A0000A090401000103010200092111010001F1
:1003B000224D000705820308000A09040200010318
:1003C0000000000921110100012236000705830306
:1003D00008000A09040300020300000009211101BA
:1003E0000001222000070584032000010705040303
:1003F000200001090404000103000000092111018B
:1004000000012239000705850310000112011001C7
:1004100000000008EDFE636001000102000105011B
:100420000906A101050719E029E71500250195082E
:1004300075018102050819012905950575019102CB
:10044000950175039101050719002977150025010C
:10045000957875018102C00631FF0974A101097503
:10046000150025FF9520750881020976150025FFE6
:10047000952075089102C005010980A10185021629
:10048000010026B7001A01002AB7007510950181F6
:1004900000C0050C0901A1018503160100269C027C
:1004A0001A01002A9C02751095018100C0050109FE
:1004B00002A1010901A1000509190129051500255D
:1004C00001950575018102950175038101050109F9
:1004D0003009311581257F95027508810609381587
:1004E00081257F950175088106050C0A3802158162
:1004F000257F950175088106C0C005010906A10187
:10050000050719E029E71500250195087501810205
:1005100095017508810105081901290595057501E1
:1005200091029501750391010507190029FF150036
:1005300025FF950675088100C00A00253032582035
:10054000006B6579626F6172645F7265706F72745F
:100550003A20000A0025303258006B6579626F61DD
:1005600072645F7365745F6C65643A200064656CE7
:100570005F6B65795F6269743A2063616E277420EE
:1005800064656C3A20253032580A006164645F6B00
:1005900065795F6269743A2063616E2774206164D3
:1005A000643A20253032580A00646F6E652E0A00C6
:1005B000626F6F676D61676963207363616E3A2074
:1005C0002E2E2E2000290A002575002F00257500EB
:1005D0005D280025640020002564002000256400BB
:1005E00020002564007C0025303258006D6F757343
:1005F000656B6579205B62746E7C7820792076204B
:10060000685D287265702F61636C293A205B000A6F
:10061000002575006D6B5F776865656C5F74696D4B
:10062000655F746F5F6D6178203D20000A0025755D
:10063000006D6B5F776865656C5F6D61785F737087
:10064000656564203D20000A002575006D6B5F74B0
:10065000696D655F746F5F6D6178203D20000A00F1
:100660002575006D6B5F6D61785F737065656420E3
:100670003D20000A002575006D6B5F696E74657220
:1006800076616C203D20000A002575006D6B5F646B
:10069000656C6179203D20000A002575006D6B5F57
:1006A000776865656C5F74696D655F746F5F6D61B8
:1006B00078203D20000A002575006D6B5F77686526
:1006C000656C5F6D61785F7370656564203D2000C7
:1006D0000A002575006D6B5F74696D655F746F5FEF
:1006E0006D6178203D20000A002575006D6B5F6DFF
:1006F00061785F7370656564203D20000A00257590
:10070000006D6B5F696E74657276616C203D2000D0
:100710000A002575006D6B5F64656C6179203D2072
:10072000000A00257500363A206D6B5F77686565B5
:100730006C5F74696D655F746F5F6D61783A2000FE
:100740000A00257500353A206D6B5F776865656C2A
:100750005F6D61785F73706565643A20000A0025FB
:100760007500343A206D6B5F74696D655F746F5FFF
:100770006D61783A20000A00257500333A206D6BD0
:100780005F6D61785F73706565643A20000A0025CB
:100790007500323A206D6B5F696E74657276616CBC
:1007A000286D73293A20000A00257500313A206D22
:1007B0006B5F64656C6179282A31306D73293A204A
:1007C000000A0A2D2D2D2D2D204D6F7573656B653B
:1007D0007920506172616D6574657273202D2D2DC5
:1007E0002D2D0A003E20002575004D003F00736549
:1007F000742064656661756C742076616C756573D0
:100800002E0A000A0025750073656C6563746564C3
:1008100020706172616D657465723A2000433E20FC
:10082000000A51756974204D6F7573656B65792089
:10083000436F6E736F6C650A00536565206874744E
:10084000703A2F2F656E2E77696B697065646961E8
:100850002E6F72672F77696B692F4D6F7573655FA8
:100860006B6579730A000A002575002C207768658E
:10087000656C3D0025750077686572652064656C60
:1008800074613A20637572736F723D000A7370650C
:100890006564203D2064656C7461202A206D617858
:1008A0005F7370656564202A2028726570656174C5
:1008B000202F2074696D655F746F5F6D6178290A00
:1008C000007067646F776E3A09646563726561737F
:1008D0006520706172616D6574657273282D3130A9
:1008E000290A00706775703A09696E6372656173F1
:1008F0006520706172616D6574657273282B31308B
:10090000290A00646F776E3A0964656372656173E2
:100910006520706172616D6574657273282D31296F
:100920000A0075703A09696E6372656173652070BB
:100930006172616D6574657273282B31290A0064D8
:100940003A097365742064656661756C742076611C
:100950006C7565730A00703A097072696E74207064
:100960006172616D65746572730A00363A09736568
:100970006C656374206D6B5F776865656C5F746927
:100980006D655F746F5F6D61780A00353A09736554
:100990006C656374206D6B5F776865656C5F6D6116
:1009A000785F73706565640A00343A0973656C6535
:1009B0006374206D6B5F74696D655F746F5F6D61EB
:1009C000780A00333A0973656C656374206D6B5F58
:1009D0006D61785F73706565640A00323A0973650A
:1009E0006C656374206D6B5F696E74657276616CA3
:1009F000286D73290A00313A0973656C65637420A8
:100A00006D6B5F64656C6179282A31306D73290ADA
:100A1000004553432F713A09717569740A000A0A37
:100A20002D2D2D2D2D204D6F7573656B6579205003
:100A30006172616D65746572732048656C70202DFC
:100A40002D2D2D2D0A003F004D303E000A456E74BD
:100A50006572204D6F7573656B657920436F6E739A
:100A60006F6C650A000A5175697420436F6E736F6D
:100A70006C65204D6F64650A00433E20000A002526
:100A8000750020746F2000257500737769746368A2
:100A90005F64656661756C745F6C617965723A203C
:100AA000006D3A096D6F7573656B65790A00455382
:100AB000432F713A09717569740A000A0A2D2D2DA8
:100AC0002D2D20436F6E736F6C652048656C702010
:100AD0002D2D2D2D2D0A00506175733A096A756D03
:100AE0007020746F20626F6F746C6F616465720A3E
:100AF00000436170733A094C6F636B204B657962F8
:100B00006F617264284368696C642050726F6F660D
:100B1000290A00505363723A09706F776572206436
:100B20006F776E2F72656D6F74652077616B652DC1
:100B300075700A00342F46343A0973776974636814
:100B400020746F204C6179657234200A00332F467F
:100B5000333A0973776974636820746F204C617944
:100B6000657233200A00322F46323A09737769746E
:100B7000636820746F204C6179657232200A0031FD
:100B80002F46313A0973776974636820746F204C7B
:100B90006179657231200A00302F4631303A09738D
:100BA000776974636820746F204C617965723020B6
:100BB0000A006E3A09746F67676C65204E4B524F9E
:100BC0000A00653A097072696E7420656570726F0B
:100BD0006D20636F6E6669670A00733A0970726907
:100BE0006E74207374617475730A00743A097072BC
:100BF000696E742074696D657220636F756E740A16
:100C000000763A097072696E74206465766963656E
:100C10002076657273696F6E202620696E666F0A92
:100C2000007A3A09746F67676C6520736C6565704C
:100C3000204C454420746573740A006D3A09746F42
:100C400067676C65206D6F75736520646562756795
:100C50000A006B3A09746F67676C65206B6579628F
:100C60006F6172642064656275670A00783A09747E
:100C70006F67676C65206D61747269782064656266
:100C800075670A00643A09746F67676C652064656C
:100C900062756720656E61626C650A00633A09657A
:100CA0006E74657220636F6E736F6C65206D6F6418
:100CB000650A000A0A2D2D2D2D2D20436F6D6D61C3
:100CC0006E642048656C70202D2D2D2D2D0A000A94
:100CD000002575002E6E6B726F3A20000A00257594
:100CE000002E737761705F6261636B736C61736810
:100CF0005F6261636B73706163653A20000A00256F
:100D000075002E737761705F67726176655F6573DA
:100D1000633A20000A002575002E6E6F5F677569C3
:100D20003A20000A002575002E737761705F7261AA
:100D30006C745F726775693A20000A002575002E91
:100D4000737761705F6C616C745F6C6775693A2072
:100D5000000A002575002E636170736C6F636B5F12
:100D6000746F5F636F6E74726F6C3A20000A0025B7
:100D700075002E737761705F636F6E74726F6C5F56
:100D8000636170736C6F636B3A20000A0025303228
:100D900058006B65796D61705F636F6E6669672E71
:100DA0007261773A20000A002575002E6D6F757309
:100DB000653A20000A002575002E6B6579626F6127
:100DC00072643A20000A002575002E6D6174726904
:100DD000783A20000A002575002E656E61626C6508
:100DE0003A20000A00253032580064656275675F5A
:100DF000636F6E6669672E7261773A20000A00257C
:100E0000750064656661756C745F6C617965723AD2
:100E100020003F004E4B524F3A2064697361626C70
:100E200065640A004E4B524F3A20656E61626C65F4
:100E3000640A006B6579626F6172645F69646C65F6
:100E40003A2025580A006B6579626F6172645F70A1
:100E5000726F746F636F6C3A2025580A00686F7365
:100E6000745F6B6579626F6172645F6C656473282F
:100E7000293A2025580A000A0A2D2D2D2D2D205300
:100E80007461747573202D2D2D2D2D0A0074696DDC
:100E900065725F636F756E743A202530346C580A42
:100EA000004743433A20342E382E31204156522DEC
:100EB0004C4942433A20312E382E3073766E204111
:100EC00056525F415243483A20617672350A004FCC
:100ED0005054494F4E533A204C55464120424F4FB3
:100EE000544D41474943204D4F5553454B4559209B
:100EF00045585452414B455920434F4E534F4C4552
:100F000020434F4D4D414E44204E4B524F203430E4
:100F100039360A004255494C443A20303132643661
:100F200036632D6469727479202831333A33343A48
:100F30003432205365702032342032303139290A5E
:100F4000005649443A203078464545442868696748
:100F500067735F6B6579626F6172647329205049B2
:100F6000443A203078363036332848303030312912
:100F7000205645523A203078303030310A0044450E
:100F800053433A206D6C36350A000A0A2D2D2D2D5B
:100F90002D2056657273696F6E202D2D2D2D2D0A13
:100FA000000A44454255473A206D6F7573652064C9
:100FB000697361626C65642E0A000A4445425547B4
:100FC0003A206D6F75736520656E61626C65642E85
:100FD0000A000A44454255473A206B6579626F61C1
:100FE00072642064697361626C65642E0A000A444D
:100FF000454255473A206B6579626F61726420659E
:101000006E61626C65642E0A000A44454255473A97
:10101000206D61747269782064697361626C6564C3
:101020002E0A000A44454255473A206D61747269A0
:101030007820656E61626C65642E0A000A44454240
:1010400055473A20656E61626C65642E0A000A4459
:10105000454255473A2064697361626C65642E0AA3
:10106000006E6F7420737570706F727465642E0AF1
:10107000000A0A4A756D7020746F20626F6F746C7D
:101080006F616465722E2E2E2000433E20000A45BB
:101090006E74657220436F6E736F6C65204D6F6464
:1010A000650A00556E6C6F636B65642E0A004C6FA9
:1010B000636B65642E0A006565636F6E6669673AE7
:1010C0000A00536C656570204C4544207465737448
:1010D0000A000000000000000000000000010204FF
:1010E000060A0F17202C3A4A5D71879DB3C7DAE9CB
:1010F000F5FCFFFCF5E9DAC7B39D87715D4A3A2C30
:1011000020170F0A06040201000000000000000082
:10111000000011241FBECFEFDAE0DEBFCDBF04B662
:1011200003FE24C08091E8019091E901A091EA01B9
:10113000B091EB018730904BA740B04BB9F41092BF
:10114000E8011092E9011092EA011092EB0114BE3D
:1011500084B7877F84BF88E10FB6F89480936000DE
:10116000109260000FBEE0E0F8E3099511E0A0E006
:10117000B1E0E2ECFCE502C005900D92A833B107A6
:10118000D9F721E0A8E3B1E001C01D92A83EB20763
:10119000E1F70E94DD0D0C945F2E0C940000FF938C
:1011A000EF93E091C501F091C601309709F00995E0
:1011B000EF91FF910895FC018591803011F0EFDFF0
:1011C000FBCF0895FF27E0E230E247FF0CC04195D6
:1011D00097FF09C0EDE26095709580959095611D2F
:1011E000711D811D911D27FF02C0219530E350E242
:1011F000AA27660F771F881F991FAA1FA41710F030
:10120000A41B63955A95A9F7AA3008F0A95FA05DC1
:10121000AF93F395611571058105910541F7ED32A5
:1012200011F4EF93F395F21718F43F93F395FBCF76
:101230008F91B5DFFA95E1F70895E991F9918591DC
:10124000803021F0853219F0AADFF9CF089520E02F
:10125000E89455915532C1F3503311F46894559187
:101260005A3348F4505390F3220F022E220F220FCC
:10127000200D250FF4CF0EF42195899199915336C5
:1012800019F3533729F1533559F1BC0188279927B0
:10129000E8945C3621F4899199916894559154367B
:1012A00039F446EF7EF077FF0DC08FEF9FEF0AC055
:1012B00055374AE039F0583540E121F0523642E0E6
:1012C00009F00895FF93EF937DDFEF91FF91B7CF82
:1012D000FF93EF93FC0181918030B9F360DFFBCF86
:1012E000FF93EF9368DFF1CFDF93CF93CDB7DEB7F6
:1012F0002596A3DFCF91DF910895089508950E9468
:10130000991E81FD06C00E94991E85FB882780F9E1
:1013100001C081E0817008950E94991E83FD0AC07A
:101320000E94991E992787FD9095892F881F8827ED
:10133000881F089581E00895882379F00E947F092D
:10134000882311F085E305C00E948C098111FACF32
:1013500089E20E94FE1D0C94D51E0C948518FC0198
:101360008281662319F0613019F008950C949C096C
:101370000E9497188091C30180FF04C086E791E026
:101380000E94DB08FFEF20E782E0F1502040804020
:10139000E1F700C000000E9443218091C30180FF5B
:1013A00004C086E691E00C94DB0808959FE0799FE5
:1013B000F00111249BE4899FE00DF11D1124E60F3B
:1013C000F11DE355FE4F84910895E82FF0E0EE0FF4
:1013D000FF1FE35FFF4F85919491089580B38C7850
:1013E00080BB81B38C7881BB08950E94EE0984B1E3
:1013F00014B885B18FEF85B98AB180778AB98BB17E
:101400008F688BB93E98469A87988F9AE2E4F1E00C
:10141000A8E3B1E0119211921D921D9281E0EC348B
:10142000F807C1F70895EF92FF920F931F93CF93A0
:10143000DF93C8E3D1E010E005E0E2E0EE2EE3E068
:10144000FE2E123071F018F4113041F004C0133048
:1014500059F0143061F0809A88980BC0819A89986D
:1014600008C0849A8C9805C0859A8D9802C0869A87
:101470008E9880EA8A95F1F729B1332727FD3095B8
:1014800020953095832F881F8827881F90E01C9B0C
:1014900003C020E030E002C022E030E0282B392BEE
:1014A0001D9B03C040E050E002C044E050E0242B0C
:1014B000352B1E9B03C040E050E002C048E050E0E6
:1014C000242B352B8FB1992787FD9095809590958A
:1014D0008827990F881F992774E0880F991F7A959C
:1014E000E1F7282B392B369B03C060E070E002C087
:1014F00060E270E0262B372B4B9B03C060E070E06E
:1015000002C060E470E0262B372B4A9B03C040E00A
:1015100050E002C040E850E0242B352B499B03C02B
:1015200080E090E002C080E091E0282B392B489BBE
:1015300003C080E090E002C080E092E0282B392BCD
:1015400083B1992787FD9095809590958827990F6D
:10155000881F9927982F8827990F990F282B392BA7
:101560001B9B03C040E050E002C040E058E0242B49
:10157000352B1A9B03C040E050E002C040E050E130
:10158000242B352B199B03C080E090E002C080E043
:1015900090E2282B392B189B03C080E090E002C01A
:1015A00080E090E4282B392B88819981821793075A
:1015B00041F13983288380910001882301F18091D2
:1015C000C30180FF04C087E093E00E94DB088091A4
:1015D000C30180FF0CC0809100011F928F93FF9286
:1015E000EF920E9474090F900F900F900F908091CE
:1015F000C30180FF04C080E093E00E94DB080093F9
:1016000000010E94EE091F5F2296153009F019CFE4
:10161000809100018823C1F08150809300018823CC
:1016200039F08FE99FE00197F1F700C000000CC08E
:10163000A2E4B1E0E8E3F1E0819191918D939D9373
:1016400091E0E234F907C1F781E0DF91CF911F917A
:101650000F91FF90EF900895E82FF0E0EE0FFF1F3D
:10166000EE5BFE4F808191810895CF92DF92EF92E1
:10167000FF920F931F93CF93DF9389EE92E00E9426
:10168000DB08C2E4EC2EC1E0FC2EC0E0D0E014EE9A
:10169000C12E12E0D12E0BED12E0DF93CF93DF923B
:1016A000CF920E94740981EE92E00E94DB08F7015C
:1016B000819191917F010E9489209F938F931F9325
:1016C0000F930E94740989ED92E00E94DB08219635
:1016D0008DB79EB708960FB6F8949EBF0FBE8DBF0C
:1016E000C530D105D1F6DF91CF911F910F91FF90B9
:1016F000EF90DF90CF900895089580915E01089556
:101700009091DF01943009F04DC09091E9009F70F5
:101710002091EC0020FF02C020E801C020E0292B2E
:1017200094E09093E9009091EB0090FF38C0909185
:10173000EE0097FF34C090914D01992321F09091D4
:10174000E80095FF2CC010924D0196E03091E80022
:1017500035FD15C03091DF01343009F53091EB00D3
:1017600035FD1DC0915021F481E080934D0117C0DB
:10177000EFE9FFE03197F1F700C00000E7CF809379
:10178000F1008091E80085FD05C08091E8008E772A
:101790008093E8002F702093E90080E008952F7077
:1017A0002093E9008FEF0895CF93DF9300D01F922D
:1017B000CDB7DEB72091DF01243019F523E029836E
:1017C0009B838A832093E9008FEF9091E8008150FA
:1017D00095FD06C095ED9A95F1F700008111F5CFC2
:1017E0008091E80085FF0DC040E050E063E070E0CC
:1017F000CE0101960E949A0E8091E8008E77809328
:10180000E8000F900F900F90DF91CF910895CF9344
:10181000DF9300D01F92CDB7DEB72091DF012430D7
:1018200021F522E029839B838A8383E08093E9006A
:101830008FEF9091E800815095FD06C095ED9A9547
:10184000F1F700008111F5CF8091E80085FF0DC010
:1018500040E050E063E070E0CE0101960E949A0EF5
:101860008091E8008E778093E8000F900F900F90A2
:10187000DF91CF9108952091DF012430F1F422E02F
:101880002093E9002FEF3091E800215035FD06C08C
:1018900035ED3A95F1F700002111F5CF2091E800E0
:1018A00025FF0BC040E050E065E070E00E949A0E1A
:1018B0008091E8008E778093E8000895CF93DF93BE
:1018C000EC018091DF01843009F043C080910C016C
:1018D0008823C1F085E08093E9008FEF9091E800C4
:1018E000815095FD06C095E19A95F1F700008111B0
:1018F000F5CF8091E80085FF2CC040E050E060E12A
:1019000070E017C081E08093E9008FEF9091E800CC
:10191000815095FD06C095ED9A95F1F70000811173
:10192000F5CF8091E80085FF14C040E050E068E00A
:1019300070E0CE010E949A0E8091E8008E7780932D
:10194000E80080E1FE01AEE4B1E001900D928A95DD
:10195000E1F7DF91CF91089587E493E00E94DB08DF
:101960008091DE01811109C00E942C100E94891013
:101970008091E20084608093E200089583E493E024
:101980000E94DB081092DE0108958FE393E00C942F
:10199000DB088BE393E00E94DB080E947E090C9435
:1019A0008C2C87E393E00E94DB080E94DE200E94DB
:1019B000922C0E940D130C947C0B8091DF018430DB
:1019C00049F58091E9008F709091EC0090FF02C082
:1019D00090E801C090E0982B84E08093E90080912A
:1019E000EB0080FF14C08091EE0087FF10C0809153
:1019F000E80085FF03C01092F100F9CF8091E80064
:101A000080FF05C08091E8008E778093E8009F708A
:101A10009093E900089542E061EC81E00E94A60FF6
:101A200042E061EC82E00E94A60F42E061EC83E0BC
:101A30000E94A60F46E261EC84E00E94A60F42E1FC
:101A400061EC85E00C94A60F8091E101833009F4EC
:101A500055C030F4813071F0823009F495C008959A
:101A60008A3009F481C08B3009F460C0893009F0F4
:101A7000A3C020C08091E001813A09F09DC080910F
:101A8000E800877F8093E8008091E4019091E50170
:101A9000892B21F060E080E090E003C060E18EE4FB
:101AA00091E070E00E94E30E8091E8008B778093D4
:101AB000E80008958091E001813209F07DC08091B5
:101AC000E4019091E501009719F0049709F074C0C2
:101AD0008091E800877F8093E8008091E80082FD94
:101AE00005C08091DF018111F8CF66C08091F100BF
:101AF00080935E018091E8008B775AC08091E0016D
:101B0000813A09F059C08091E4019091E501892B57
:101B100009F052C08091E800877F8093E8008091AF
:101B2000E80080FFFCCF80910B013DC08091E00177
:101B3000813209F041C08091E4019091E501892B47
:101B4000D9F58091E800877F8093E8000E94DB0F41
:101B50009091E20181E0911101C080E080930B013E
:101B600080930C010C9497188091E001813221F54B
:101B70008091E800877F8093E8000E94DB0F8091CE
:101B8000E30180934C0108958091E001813AA1F432
:101B90008091E800877F8093E8008091E80080FFD3
:101BA000FCCF80914C018093F1008091E8008E770A
:101BB0008093E8000C94DB0F089584B7877F84BF7F
:101BC00088E10FB6F89480936000109260000FBE19
:101BD00090E080E80FB6F8948093610090936100E4
:101BE0000FBE0E942C100E9489108091E200846038
:101BF0008093E20080E89BE00E941F20789480910F
:101C0000DF018430E1F786E293E00E94DB080E9466
:101C1000951381E091E00E9403130E947A2C85E1E4
:101C200093E00E94DB088091DF01853089F481E137
:101C300093E00E94DB080E94A3208091DD018823AD
:101C400091F30E94C920882371F30E94840EEBCF88
:101C50000E94C313E8CF292F332723303105A9F081
:101C60006CF42130310509F442C02230310509F00D
:101C700043C08DE890E02FE733E042C021323105C8
:101C8000C9F02232310519F137C099278130910509
:101C900041F08230910541F0892B71F5EBE7F3E0DB
:101CA00005C0E9E5F3E002C0EBE4F3E0849190E0E5
:101CB0009F0126C0653000F5E62FF0E0EE0FFF1F14
:101CC000EC5DFE4F2081318189E090E019C06530E4
:101CD00098F4E62FF0E0DF01AA0FBB1FA65EBE4F0F
:101CE0002D913C91EB5EFE4F808190E009C082E136
:101CF00090E02CE034E004C080E090E020E030E0B0
:101D0000FA0131832083089580E189BD82E189BD94
:101D100009B400FEFDCF8091D8008F7D8093D8005C
:101D20008091E00082608093E0008091E00081FD7E
:101D3000FCCF0895CF92DF92EF92FF920F931F9303
:101D4000CF93DF937C018B01EA010E94FC0F81118C
:101D500031C0209731F088819981081B190BE80E5A
:101D6000F91EC12CD12C0115110519F18091E80043
:101D700085FD14C08091E8008E778093E80020975D
:101D800041F0888199818C0D9D1D9983888385E020
:101D900011C00E94FC0F882331F30CC0F701819120
:101DA0007F018093F10001501109FFEFCF1ADF0A84
:101DB000DACF80E0DF91CF911F910F91FF90EF90EC
:101DC000DF90CF9008952091E6013091E70126172A
:101DD000370748F06115710539F42091E8002E7736
:101DE0002093E80001C0B901FC0120E061157105F4
:101DF000B9F18091DF01882309F440C0853009F4EE
:101E00003FC08091E80083FD3DC08091E80082FFE3
:101E100006C08091E80082FF26C080E0089580918E
:101E2000E80080FFE3CF2091F3008091F20090E082
:101E3000922B6115710551F08830910538F421918C
:101E40002093F100615071090196F3CF21E00897CA
:101E500009F020E08091E8008E778093E800C6CFFB
:101E60002111C7CFD6CF8091DF01882339F085308B
:101E700039F08091E80083FFCCCF04C082E0089560
:101E800083E0089581E008952091E6013091E70113
:101E90002617370748F06115710539F42091E800DD
:101EA0002E772093E80001C0B901FC0120E0611504
:101EB0007105C1F18091DF01882309F441C08530AB
:101EC00009F440C08091E80083FD3EC08091E800A5
:101ED00082FF06C08091E80082FF27C080E008955D
:101EE0008091E80080FFE3CF2091F3008091F20021
:101EF00090E0922B6115710559F08830910540F4FE
:101F000024912093F1003196615071090196F2CF2E
:101F100021E0089709F020E08091E8008E77809317
:101F2000E800C5CF2111C6CFD5CF8091DF0188232E
:101F300039F0853039F08091E80083FFCBCF04C0C1
:101F400082E0089583E0089581E00895982F973006
:101F500058F59093E900981739F07091EC002091B2
:101F6000ED005091F00003C0242F762F50E021FFA8
:101F700019C03091EB003E7F3093EB003091ED00C3
:101F80003D7F3093ED003091EB0031603093EB00FA
:101F90007093EC002093ED005093F0002091EE0040
:101FA00027FF07C09F5FD3CF8F708093E90081E048
:101FB000089580E008958091E00187FD05C080913B
:101FC000E80080FF0EC012C08091E80082FD05C0CD
:101FD0008091DF018111F8CF08958091E8008B771F
:101FE00008C08091DF018111EACF08958091E80057
:101FF0008E778093E80008958091E4009091E50049
:1020000045E62091EC0020FF21C02091E80020FD52
:1020100021C02091DF01222389F0253089F0209111
:10202000EB0025FD0FC02091E4003091E50028175A
:10203000390739F3415041F0C901E3CF82E00895F7
:1020400083E0089581E0089584E008952091E800F8
:1020500022FFDFCF80E008950E949A100E94A21014
:10206000E0EEF0E0808181608083E8EDF0E0808147
:102070008F77808319BCA7EDB0E08C918E7F8C9315
:1020800080818F7E80831092DE0108950F931F93CD
:10209000CF93DF930E949A100E94A210C8EDD0E067
:1020A00088818F77888388818068888388818F7D05
:1020B000888319BC1092DF011092DB011092DD01C0
:1020C0001092DC0100EE10E0F80180818B7F8083AC
:1020D00088818160888342E060E080E00E94A60FF2
:1020E000E1EEF0E080818E7F8083E2EEF0E080819F
:1020F00081608083808188608083F80180818E7F09
:102100008083888180618883DF91CF911F910F91B7
:102110000895E8EDF0E080818F7E8083E7EDF0E0C8
:1021200080818160808384E082BF81E08093DE01D2
:102130000C944610E8EDF0E080818E7F8083109251
:10214000E20008951092DA001092E10008951F92C3
:102150000F920FB60F9211242F933F934F935F93DB
:102160006F937F938F939F93AF93BF93EF93FF935F
:102170008091E10082FF0BC08091E20082FF07C0E6
:102180008091E1008B7F8093E1000E94DD0C8091C3
:10219000DA0080FF1FC08091D80080FF1BC08091B3
:1021A000DA008E7F8093DA008091D90080FF0DC025
:1021B00080E189BD82E189BD09B400FEFDCF81E0E7
:1021C0008093DF010E94AC0C05C019BC1092DF01A6
:1021D0000E94BE0C8091E10080FF19C08091E20056
:1021E00080FF15C08091E2008E7F8093E200809195
:1021F000E20080618093E2008091D8008062809349
:10220000D80019BC85E08093DF010E94C90C809141
:10221000E10084FF30C08091E20084FF2CC080E1A7
:1022200089BD82E189BD09B400FEFDCF8091D8004F
:102230008F7D8093D8008091E1008F7E8093E100B4
:102240008091E2008F7E8093E2008091E2008160C5
:102250008093E2008091DB01882311F084E007C0C5
:102260008091E30087FF02C083E001C081E080939A
:10227000DF010E94D10C8091E10083FF29C0809191
:10228000E20083FF25C08091E100877F8093E10019
:1022900082E08093DF011092DB018091E1008E7F6C
:1022A0008093E1008091E2008E7F8093E200809134
:1022B000E20080618093E20042E060E080E00E9402
:1022C000A60F8091F00088608093F0000E94C50CFA
:1022D000FF91EF91BF91AF919F918F917F916F91FE
:1022E0005F914F913F912F910F900FBE0F901F90D4
:1022F00018951F920F920FB60F9211242F933F93B0
:102300004F935F936F937F938F939F93AF93BF93FD
:10231000CF93EF93FF93C091E900CF708091EC00D1
:102320001092E9008091F000877F8093F00078940C
:102330000E94B5111092E9008091F00088608093AE
:10234000F000C093E900FF91EF91CF91BF91AF9161
:102350009F918F917F916F915F914F913F912F91BD
:102360000F900FBE0F901F9018951F93CF93DF9380
:10237000CDB7DEB7AA970FB6F894DEBF0FBECDBFBC
:10238000E0EEF1E08091F100819321E0E83EF20778
:10239000C9F70E94240D8091E80083FF1CC12091A1
:1023A000E0013091E101832F90E08A30910508F03F
:1023B00012C1FC01EA5AFF4F0C94142E203881F010
:1023C000223809F008C18091E4018F708093E90000
:1023D0008091EB0085FB882780F91092E90006C008
:1023E0008091DC019091DD01911182609091E80073
:1023F000977F9093E8008093F1001092F100C5C0A0
:10240000822F8D7F09F0E7C0222319F0223061F07E
:10241000E2C08091E201813009F0DDC0333009F083
:1024200080E08093DD0128C08091E201811124C009
:102430002091E4012F7009F4CEC02093E90080912F
:10244000EB0080FF19C08091EB00333011F4806203
:1024500011C080618093EB0081E090E0022E01C00A
:10246000880F0A94EAF78093EA001092EA008091BC
:10247000EB0088608093EB001092E9008091E80007
:10248000877F86C02111A7C01091E2011F7780913C
:10249000E3008078812B8093E3008091E800877FC0
:1024A0008093E8000E94DB0F8091E80080FFFCCF62
:1024B0008091E30080688093E300112311F083E0B2
:1024C00001C082E08093DF0186C02058223008F0EE
:1024D00082C08091E2019091E3018C3D23E092075C
:1024E00079F583E08A838AE289834FB7F894DE0125
:1024F000139620E03EE051E2E32FF0E050935700C6
:10250000E49120FF03C0E295EF703F5FEF708E2FE4
:1025100090E0EA3010F0C79601C0C0968D939D936D
:102520002F5F243149F74FBF8091E800877F809368
:10253000E8006AE270E0CE0101960E94E30E14C04A
:10254000AE014F5F5F4F6091E4010E942B0E009738
:1025500009F441C02091E800277F2093E800BC01E6
:1025600089819A810E94440F8091E8008B77809343
:10257000E80031C0203879F58091E800877F8093AA
:10258000E8008091DB018093F1008091E8008E7774
:102590008093E8000E94DB0F1EC021111CC09091A7
:1025A000E2019230C0F48091E800877F8093E800D8
:1025B0009093DB010E94DB0F8091DB01811104C04D
:1025C0008091E30087FF02C084E001C081E0809336
:1025D000DF010E940B0D8091E80083FF0AC080910B
:1025E000E800877F8093E8008091EB008062809311
:1025F000EB00AA960FB6F894DEBF0FBECDBFDF91F9
:10260000CF911F9108959093640180936301089581
:1026100080916301909164010895E0916301F091CC
:102620006401309721F00190F081E02D099480E061
:102630000895FF920F931F93CF93DF938C01E09146
:102640006301F0916401309799F10280F381E02DEC
:1026500009958091C30182FF2BC080FF04C081E4F3
:1026600095E00E94DB08E80180E1F82E0BE315E01D
:102670008091C30180FF0BC088811F928F931F93AD
:102680000F930E9474090F900F900F900F90FA947F
:102690002196F110EDCF8091C30180FF09C089E33D
:1026A00095E0DF91CF911F910F91FF900C94DB0883
:1026B000DF91CF911F910F91FF900895E0916301F9
:1026C000F0916401309721F00480F581E02D0994A8
:1026D000089520916101309162018217930771F092
:1026E0009093620180936101E0916301F091640134
:1026F000309721F00680F781E02D0994089520910C
:102700005F01309160018217930771F0909360012F
:1027100080935F01E0916301F0916401309721F0B3
:102720000084F185E02D099408950E94E0200E9424
:10273000F5090C94AD21CF93C82F8091C30182FF7E
:102740001EC080FF04C08AE595E00E94DB088091EE
:10275000C30180FF0CC01F92CF9325E535E03F9366
:102760002F930E9474090F900F900F900F908091FB
:10277000C30180FF04C083E595E00E94DB088C2F35
:10278000CF910C947C0B5F926F927F928F929F926D
:10279000AF92BF92CF92DF92EF92FF920F931F936F
:1027A000CF93DF93CDB7DEB72A970FB6F894DEBF8D
:1027B0000FBECDBF0E94130A96E6C92E91E0D92E16
:1027C00000E010E0AA24A394B12C502E802F0E9488
:1027D0002C0B3C01F601E190F1906F01E826F926FF
:1027E000E114F104B1F40F5F1F4F0530110569F7D3
:1027F0008FEF89838A831B820E94E9208160782F72
:102800009D838C8349815A816B818D810E947C14C8
:102810003AC08091C30181FD0E94350B20E030E079
:102820004501022E02C0880C991C0A94E2F7C401EB
:102830008E219F21892B09F12E835F8268207920C8
:1028400081E0672809F480E088870E94E9208160A0
:10285000782F9A8789874E815F8168858A850E9453
:102860007C14F801EE0FFF1FEA59FE4F8081918121
:10287000882599259183808306C02F5F3F4F2F3095
:10288000310571F6B0CF0E941B25109165010E94A1
:102890000D131817D9F00E940D13809365012A9625
:1028A0000FB6F894DEBF0FBECDBFDF91CF911F9161
:1028B0000F91FF90EF90DF90CF90BF90AF909F90DF
:1028C0008F907F906F905F900C949B132A960FB619
:1028D000F894DEBF0FBECDBFDF91CF911F910F9156
:1028E000FF90EF90DF90CF90BF90AF909F908F9030
:1028F0007F906F905F900895CF93DF93CDB7DEB751
:102900002B970FB6F894DEBF0FBECDBF4F8358870D
:1029100069877A878B87DE01119686E0FD01119227
:102920008A95E9F785E0FE01379601900D928A9528
:10293000E1F749815A816B817C818D819E810E9462
:10294000631B2B960FB6F894DEBF0FBECDBFDF9191
:10295000CF910895CF93C82F882309F498C08CEFA6
:102960008C0F813A48F48C2F0E940A2B81118FC062
:102970008C2F0E94FE1D0CC080E28C0F883058F412
:10298000C77081E001C0880FCA95EAF70E949C1EBB
:10299000CF910C94D51E8BE58C0F833078F4C53A1B
:1029A00029F0C63A31F482E890E005C081E890E071
:1029B00002C083E890E0CF910C94691388E58C0FF6
:1029C000833108F064C0C83A39F1C93A41F1CA3AD2
:1029D00049F1CB3A51F1CC3A59F1CD3A61F1C03BD2
:1029E00069F1CE3A71F1CF3A79F1C13B81F1C23B45
:1029F00089F1C33B91F1C43B99F1C53BA1F1C63BC1
:102A0000A9F1C73BB1F1C83BB9F1C93BC1F1CA3B20
:102A1000C9F58AE292E038C082EE90E035C089EED6
:102A200090E032C08AEE90E02FC085EB90E02CC0A1
:102A300086EB90E029C087EB90E026C08CEC90E01C
:102A400023C08DEC90E020C083E891E01DC08AE8AF
:102A500091E01AC082E991E017C084E991E014C0C6
:102A600081E292E011C083E292E00EC084E292E043
:102A70000BC085E292E008C086E292E005C087E2E2
:102A800092E002C080E090E0CF910C947F13CF9150
:102A90000895882329F19CEF980F913A18F40E9429
:102AA0004B1E0DC090E2980F983058F4877091E05B
:102AB00001C0990F8A95EAF7892F0E94A21E0C94F3
:102AC000D51E9BE5980F933020F480E090E00C94A5
:102AD0006913885A833120F480E090E00C947F13CE
:102AE0000895882321F00E949C1E0C94D51E089501
:102AF000882321F00E94A21E0C94D51E0895CF9227
:102B0000DF92EF92FF920F931F93CF93DF93CDB796
:102B1000DEB728970FB6F894DEBF0FBECDBF8C018D
:102B200085E0F801DE01119601900D928A95E1F79A
:102B3000F80140813181F280258122952F708381B7
:102B40009481892B31F03F3F31F481E04F3F19F4FC
:102B500003C081E001C080E080FDC8C249833A83A0
:102B600089819A812F830E94BC1D9E8388870E9441
:102B7000BB1D0E948E1C4E81E42FE295EF70F0E0A9
:102B8000E05AFF4F2F8168850C94142E842F807F8C
:102B9000142F1F70882311F01295107FFF2059F019
:102BA000112309F458C2812F68870E94AC1E0E942D
:102BB000D51E688550C2862F0E944915112309F43D
:102BC00095C2812F0E94B21E28960FB6F894DEBFE0
:102BD0000FBECDBFDF91CF911F910F91FF90EF906E
:102BE000DF90CF900C94D51E342F307F842F8F70C0
:102BF000303211F08295807F662319F0613009F13F
:102C00002AC0FF20A1F0222381F1213071F52896FE
:102C10000FB6F894DEBF0FBECDBFDF91CF911F91ED
:102C20000F91FF90EF90DF90CF900C94BC1E222369
:102C300019F0213009F45AC28E830E94BF1E8E8182
:102C40008EC1FF2021F0233008F050C20EC0223088
:102C500008F04CC284C1FF20C1F0222331F0F801FA
:102C6000958190FFF8C19F70958328960FB6F894D0
:102C7000DEBF0FBECDBFDF91CF911F910F91FF90AF
:102C8000EF90DF90CF900C947115222309F467C167
:102C9000F6C1242F26952695237030E021153105A5
:102CA00021F021303105C9F021C2FF2021F0862F0B
:102CB000942F937002C080E090E028960FB6F894AD
:102CC000DEBF0FBECDBFDF91CF911F910F91FF905F
:102CD000EF90DF90CF900C946913FF2021F0862FA6
:102CE000942F937002C080E090E028960FB6F8947D
:102CF000DEBF0FBECDBFDF91CF911F910F91FF902F
:102D0000EF90DF90CF900C947F13862FFF2019F067
:102D10000E94A12302C00E94092428960FB6F894AD
:102D2000DEBF0FBECDBFDF91CF911F910F91FF90FE
:102D3000EF90DF90CF900C948E24842F837009F055
:102D400076C0F110D3C1262F229526952770220F29
:102D5000220F862F8F70C82ED12CE12CF12C022E41
:102D600004C0CC0CDD1CEE1CFF1C0A94D2F764FFDF
:102D700010C06FE070E080E090E004C0660F771F45
:102D8000881F991F2A95D2F7609570958095909528
:102D900003C060E070E0CB01242F269526952370B8
:102DA000422F50E042305105D1F04330510559F1E6
:102DB0006C297D298E299F294130510541F12896A2
:102DC0000FB6F894DEBF0FBECDBFDF91CF911F913C
:102DD0000F91FF90EF90DF90CF900C94B31C6C2973
:102DE0007D298E299F2928960FB6F894DEBF0FBE45
:102DF000CDBFDF91CF911F910F91FF90EF90DF90AA
:102E0000CF900C94CD1C0E94B31CC701B60128962C
:102E10000FB6F894DEBF0FBECDBFDF91CF911F91EB
:102E20000F91FF90EF90DF90CF900C94991CFF20B2
:102E300019F0842F817001C08695882309F456C14A
:102E4000262F229526952770220F220F862F8F700E
:102E5000C82ED12CE12CF12C022E04C0CC0CDD1C90
:102E6000EE1CFF1C0A94D2F764FF10C06FE070E004
:102E700080E090E004C0660F771F881F991F2A9595
:102E8000D2F7609570958095909503C060E070E0F2
:102E9000CB01242F269526952370422F50E04230F7
:102EA0005105D1F04330510559F16C297D298E2906
:102EB0009F294130510541F128960FB6F894DEBFA5
:102EC0000FBECDBFDF91CF911F910F91FF90EF907B
:102ED000DF90CF900C94871D6C297D298E299F2926
:102EE00028960FB6F894DEBF0FBECDBFDF91CF910D
:102EF0001F910F91FF90EF90DF90CF900C94A11D48
:102F00000E94871DC701B60128960FB6F894DEBF50
:102F10000FBECDBFDF91CF911F910F91FF90EF902A
:102F2000DF90CF900C946D1D603F49F118F4603E26
:102F300048F48CC0623F09F451C0E0F1633F09F4EA
:102F400061C084C0162F1F70842F8F71FF2021F065
:102F50000E94061D812F89CE0E94271D812F289651
:102F60000FB6F894DEBF0FBECDBFDF91CF911F919A
:102F70000F91FF90EF90DF90CF900C947815FF2089
:102F8000A9F0223008F0B2C0842F8F7128960FB6B6
:102F9000F894DEBF0FBECDBFDF91CF911F910F918F
:102FA000FF90EF90DF90CF900C944C1D233008F0F1
:102FB0009DC0EACFFF20A1F0842F8F7128960FB615
:102FC000F894DEBF0FBECDBFDF91CF911F910F915F
:102FD000FF90EF90DF90CF900C94061DFF2061F3DF
:102FE000842F8F7128960FB6F894DEBF0FBECDBF29
:102FF000DF91CF911F910F91FF90EF90DF90CF90D5
:103000000C94271DFF2091F0842F8F7128960FB606
:10301000F894DEBF0FBECDBFDF91CF911F910F910E
:10302000FF90EF90DF90CF900C94F11C28960FB694
:10303000F894DEBF0FBECDBFDF91CF911F910F91EE
:10304000FF90EF90DF90CF900C94E71CFF20A1F051
:10305000222309F4B1CF862F28960FB6F894DEBF4D
:103060000FBECDBFDF91CF911F910F91FF90EF90D9
:10307000DF90CF900C94AA14222309F4B1CF862FAD
:1030800028960FB6F894DEBF0FBECDBFDF91CF916B
:103090001F910F91FF90EF90DF90CF900C94491506
:1030A0004F70C8010E941C2028960FB6F894DEBF0E
:1030B0000FBECDBFDF91CF911F910F91FF90EF9089
:1030C000DF90CF900C94101C4F70C80128960FB65B
:1030D000F894DEBF0FBECDBFDF91CF911F910F914E
:1030E000FF90EF90DF90CF900C94AF0928960FB629
:1030F000F894DEBF0FBECDBFDF91CF911F910F912E
:10310000FF90EF90DF90CF9008950E94B91E0E942B
:103110008B1E0E94D51E0E94BC250E948E2480E03A
:1031200090E00E94691380E090E00C947F130E946D
:10313000A91E0C9485180E94BC1D292F22952F7062
:1031400030E02C3031054CF42A3031056CF422503B
:1031500031092230310590F407C02C30310551F08F
:103160002F30310539F00AC0803E10F0803F31F435
:1031700081E0089593FB882780F9089580E0089501
:10318000CF93DF9300D000D01F92CDB7DEB70F9062
:103190000F900F900F900F90DF91CF910895CF93E4
:1031A000DF9300D000D000D0CDB7DEB726960FB6A3
:1031B000F894DEBF0FBECDBFDF91CF9108951F936E
:1031C000CF93DF93C091700116E080917101C81711
:1031D00099F0D0E01C9FF0011D9FF00D1124EE58D6
:1031E000FE4F4081518162817381848195810E946B
:1031F000CF182196C770E9CFDF91CF911F91089525
:103200004091A2015091A3016091A4017091A50188
:103210008091A6019091A7010C94CF18CF93809133
:10322000A70182958F7009F05FC08091A401882367
:1032300009F45AC020917001A09171016091A2011E
:103240007091A3018091A5019091A60131E06F3F9B
:1032500009F030E0B32FC6E02A1709F445C0009703
:1032600021F07F3F21F44B2F03C041E001C040E03B
:1032700030E040FD35C0C29FF001C39FF00D112426
:10328000EE58FE4F418174132BC04081641328C057
:103290004281411125C0438154814817590710F4D8
:1032A00041505109481B590B46395105C8F48091CA
:1032B000A7018F7080618093A70186E0829FF00153
:1032C000839FF00D1124E958FE4F80818F7080613B
:1032D000808382EA91E00E947F15CF910C94DF18E1
:1032E0002F5F3F4F2770B8CFCF910895CF92DF92D5
:1032F000EF92FF920F931F93CF93DF93CDB7DEB77B
:1033000062970FB6F894DEBF0FBECDBF8C0185E08B
:10331000F801DE011D9601900D928A95E1F7D80122
:103320004C9111965C91119712966C91129713968D
:10333000ED90FC9014977091A201E091A30120916F
:10334000A5013091A6012115310531F0EF3F31F48F
:1033500081E07F3F19F403C081E001C080E0B82F15
:10336000B170CB2E80FD6CC1D090A401DD2009F49A
:10337000F5C0F091A701E216F30638F0C701821BF1
:10338000930B8639910548F09BC0209530952E0D02
:103390003F1D2639310508F093C08F2F807F09F03B
:1033A00052C0E51314C0741312C0D62E61110FC0A1
:1033B000FF70F061F093A7010E94001982EA91E08A
:1033C0000E947F158091A701F80185836CC1EF28C9
:1033D00031F05F3F31F481E04F3F19F403C081E0E9
:1033E00001C080E080FD03C081E0862701C080E04D
:1033F000F82FF170FF2E80FF1CC08091700120918A
:10340000710136E0821709F428C190E0389FF0017D
:10341000399FF00D1124EE58FE4F7181571306C0ED
:103420007081471303C07281671303C001968770D0
:10343000E9CFD62E662309F436C18091A7018160B9
:103440008093A70153C0E51308C0741306C061112F
:1034500004C0D8011596FC93AEC04D875E878D855C
:103460009E856A8B0E949B186A89882329F1D62E33
:10347000662311F12091A701822F82958F7090E031
:1034800002970CF460C08091A2019091A3019887EB
:103490008F831986FB86EA862C87CE01079651C05A
:1034A000E51731F14D875E878D859E856A8B0E9479
:1034B0009B186A8981112EC0C8010E947F15A4C083
:1034C0008F2F807F69F77E2DF98AE88A89890E948B
:1034D000C01882EA91E00E947F15E2EAF1E086E0FE
:1034E000DF011D928A95E9F70E940019D12CDBC0FB
:1034F0007413D8CF6111D6CFD8011596FC93C801AB
:103500000E947F15E2EAF1E086E0DF011D928A95D4
:10351000E9F7C9C0D62E662379F22091A701822F40
:1035200082958F7090E0029774F08091A201909143
:10353000A3019A8389831B82FD82EC822E83CE01B4
:1035400001960E947F1586E0F801A2EAB1E00190A1
:103550000D928A95E1F70E940E196FC0E216F306EC
:1035600028F0C701821B930B9C0104C02095309565
:103570002E0D3F1D2639310508F052C0D62E662388
:1035800009F49ACFE5132CC074132AC08091A701C7
:1035900080FD1DC0982F92959F70C9F0D801159697
:1035A0008C9315979F3039F09F5F9295907F8F7025
:1035B000892B15968C93C8010E947F1586E0F8012F
:1035C000A2EAB1E001900D928A95E1F736C086E05B
:1035D000F801A2EAB1E001900D928A95E1F763C08B
:1035E0004D875E878D859E850E949B18882379F084
:1035F00086E0F801A2EAB1E001900D928A95E1F728
:103600000E940E190E940019DD24D3944CC08091B1
:10361000A70181608093A701C8010E947F1543C064
:103620007E2DF98AE88A89890E94C018E2EAF1E0D1
:1036300086E0DF011D928A95E9F70E94001933C0E8
:10364000662309F439CF4D875E878D859E850E945C
:103650009B18882309F430CFCBCF4D875E878D85AB
:103660009E850E94BC1D292F22952F7030E02230AC
:1036700031052CF49F7041F0811106C00CC024303C
:1036800031052CF49F7049F4805E883020F0C80129
:103690000E947F15CF2CDC2C06C0D80115969C917A
:1036A000907F91F7F8CF8D2D62960FB6F894DEBF1C
:1036B0000FBECDBFDF91CF911F910F91FF90EF9083
:1036C000DF90CF9008951F93CF93DF93CDB7DEB7F0
:1036D0002C970FB6F894DEBF0FBECDBF4F8358872F
:1036E00069877A878B879C87CE0107960E94761917
:1036F0008823C1F02F8138858A859B85892B31F0FD
:103700003F3F11F080E003C02F3FE1F781E08111DE
:1037100047C04F81588569857A858B859C850E9435
:10372000CF183EC086E0FE013796DE01119601906B
:103730000D928A95E1F7FF81E8854A855B85411501
:10374000510531F0EF3F31F481E0FF3F19F403C040
:1037500081E001C080E080FD23C02091710130E054
:10376000C9010196877099276091700170E08617F2
:103770009707F1F1F983EA835D834C8396E0929F8A
:10378000D001939FB00D1124AE58BE4FFE0131966B
:1037900001900D929A95E1F7809371010E94DF18D4
:1037A00016E08091700190917101891779F1189F4D
:1037B000C00111248E589E4F0E947619882331F142
:1037C000E09170011E9FF0011124EE58FE4F4081E0
:1037D000518162817381848195810E94CF1880918B
:1037E000700190E001968770992780937001D9CF7E
:1037F0000E9497181092710110927001E2EAF1E0B4
:1038000086E0DF011D928A95E9F7CACF2C960FB6A4
:10381000F894DEBF0FBECDBFDF91CF911F91089509
:10382000EF92FF920F931F93CF93DF93FC010097CA
:1038300009F46DC0F12CEE24E394EF0121968491FC
:10384000843740F4843008F053C0813081F08230F6
:1038500021F15DC0853709F445C0B0F19CE7980FB0
:10386000903708F054C08F770E94491543C08F01EC
:103870000E5F1F4FFE01849190E2980F983050F434
:103880008770FE2D01C0FF0F8A95EAF78F2F0E94E7
:10389000AC1E15C00E94AA1412C08F010E5F1F4FEC
:1038A000FE01849190E2980F983058F48770FE2DB5
:1038B00001C0FF0F8A95EAF78F2F0E94B21EE80120
:1038C00019C00E944915FBCFCF010296FE01C49199
:1038D000CC2361F0EFE9FFE03197F1F700C0000081
:1038E000C150F6CFCF010296FE01F490EC0102C068
:1038F0000E94AA148F2D882341F0EFE9FFE0319751
:10390000F1F700C000008150F6CFFE0196CFDF91A5
:10391000CF911F910F91FF90EF90089508956093BC
:10392000AC017093AD018093AE019093AF010C9404
:1039300085180F931F930091AC011091AD01209158
:10394000AE013091AF01062B172B282B392B00939A
:10395000AC011093AD012093AE013093AF011F91E4
:103960000F910C9485180F931F930091AC01109147
:10397000AD012091AE013091AF010623172328231A
:1039800039230093AC011093AD012093AE01309325
:10399000AF011F910F910C9485180F931F93009105
:1039A000AC011091AD012091AE013091AF0106271D
:1039B0001727282739270093AC011093AD012093D6
:1039C000AE013093AF011F910F910C9485181092A6
:1039D000A8011092A9011092AA011092AB010C94B7
:1039E000851841E050E060E070E004C0440F551FCE
:1039F000661F771F8A95D2F74093A8015093A901BB
:103A00006093AA017093AB010C94851841E050E0DB
:103A100060E070E004C0440F551F661F771F8A9551
:103A2000D2F78091A8019091A901A091AA01B0912B
:103A3000AB01842B952BA62BB72B8093A8019093D9
:103A4000A901A093AA01B093AB010C94851841E0A1
:103A500050E060E070E004C0440F551F661F771F00
:103A60008A95D2F740955095609570958091A80100
:103A70009091A901A091AA01B091AB018423952353
:103A8000A623B7238093A8019093A901A093AA012C
:103A9000B093AB010C94851841E050E060E070E019
:103AA00004C0440F551F661F771F8A95D2F7809177
:103AB000A8019091A901A091AA01B091AB0184271E
:103AC0009527A627B7278093A8019093A901A093D3
:103AD000AA01B093AB010C9485180F931F9300912A
:103AE000A8011091A9012091AA013091AB01062BE8
:103AF000172B282B392B0093A8011093A901209391
:103B0000AA013093AB011F910F910C9485180F936C
:103B10001F930091A8011091A9012091AA01309151
:103B2000AB0106231723282339230093A801109300
:103B3000A9012093AA013093AB011F910F910C941E
:103B400085180F931F930091A8011091A90120914E
:103B5000AA013091AB0106271727282739270093A0
:103B6000A8011093A9012093AA013093AB011F91E2
:103B70000F910C9485180895CF92DF92EF92FF92E7
:103B80000F931F93CF93DF93EC01C090AC01D090C3
:103B9000AD01E090AE01F090AF018091A80190914D
:103BA000A901A091AA01B091AB01C82AD92AEA2A99
:103BB000FB2A0FE110E0B701A601002E04C07695A4
:103BC0006795579547950A94D2F740FF07C0BE0105
:103BD000802F0E94A91F8130910539F401501109ED
:103BE00050F7BE0180E00E94A91FDF91CF911F9185
:103BF0000F91FF90EF90DF90CF90089590910C017E
:103C0000992341F1982F9695969596959F3088F433
:103C1000E0910D01F0910E01E90FF11D877021E097
:103C200030E001C0220F8A95EAF78181822B8183DF
:103C300008959091C30190FF2DC01F928F938BE840
:103C400095E09F938F930E9474090F900F900F90AF
:103C50000F90089540910D0150910E0120E030E049
:103C60009FEFFA01E20FF31F6281681799F09F3FFF
:103C700019F4611101C0922F2F5F3F4F2E30310593
:103C800081F79F3F39F0FA01E90FF11D97FDFA9591
:103C900082830895089590910C01992349F1982FFA
:103CA0009695969596959F3090F4E0910D01F09140
:103CB0000E01E90FF11D877021E030E001C0220FF5
:103CC0008A95EAF720958181282321830895909190
:103CD000C30190FF1FC01F928F938DE695E09F93C5
:103CE0008F930E9474090F900F900F900F9008957A
:103CF00040910D0150910E0120E030E0FA01E20FF9
:103D0000F31F9281981301C012822F5F3F4F2E3014
:103D10003105A1F7089581E090E0E0910D01F09167
:103D20000E01E80FF91F1082019680319105A9F765
:103D300008958091C20108959091C201982B9093AB
:103D4000C201089580959091C20198239093C20179
:103D500008951092C20108959091C101982B9093FB
:103D6000C101089580959091C10198239093C1015C
:103D700008951092C10108958093B00108951092A2
:103D8000B001089540910D0150910E0120E030E006
:103D900080E0FA01E20FF31F918191118F5F2F5F95
:103DA0003F4F2F303105A9F70895E0910D01F091B3
:103DB0000E018091C2018083E0910D01F0910E010E
:103DC00080819091C101892B80839091B0019923CA
:103DD00061F0E0910D01F0910E018081892B8083CB
:103DE0000E94C21E81111092B00180910D0190912C
:103DF0000E010C9419138D3B60F4883A00F5853A56
:103E0000A8F4843088F4813009F05BC081E090E050
:103E10000895803E08F455C0883E30F0803F08F495
:103E200050C090E09065089590E00895853A09F4B7
:103E30004BC0863A09F04BC082E890E40895883A76
:103E400009F448C0893A09F448C08A3A09F448C0DC
:103E50008B3A09F448C08C3A09F448C08B3B09F40A
:103E600048C08C3B09F448C08D3A09F448C0803BF7
:103E700009F448C08E3A09F448C08F3A09F448C0A2
:103E8000813B09F448C0823B09F448C0833B09F4F4
:103E900048C0843B09F448C0853B09F448C0863BD0
:103EA00009F448C0873B09F448C0883B09F448C07E
:103EB000893B09F448C08A3B09F048C08AE296E48D
:103EC000089580E090E0089581E890E4089583E803
:103ED00090E4089582EE94E4089589EE94E40895C0
:103EE0008AEE94E4089585EB94E4089586EB94E4D7
:103EF000089583EB94E4089584EB94E4089587EBAC
:103F000094E408958CEC94E408958DEC94E4089581
:103F100083E895E408958AE895E4089582E995E4B4
:103F2000089584E995E4089581E296E4089583E292
:103F300096E4089584E296E4089585E296E408956F
:103F400086E296E4089587E296E4089580E094E49A
:103F500008950E94D609803EA8F4803C00F5813384
:103F600009F45CC038F4893209F452C08A3209F489
:103F70005BC05FC08933B1F08238A1F0853309F4AA
:103F800041C057C0833E41F128F4803E99F0823E03
:103F9000B9F04FC0863E31F1873E71F14AC00E94B0
:103FA000E50908959091DA0190FD02C091FF41C0AA
:103FB00080EE3FC08091DA0180FFFACF89E339C0FB
:103FC0008091DA0182FF0CC08091DA0184FF02C087
:103FD00080E02FC083EE2DC08091DA0182FFF4CF04
:103FE00082EE27C08091DA0183FF0AC08091DA0156
:103FF00084FDEECF87EE1DC08091DA0183FFF6CFFE
:1040000086EE17C08091DA0185FF06C089E211C0F3
:104010008091DA0185FFFACF85E30BC08091DA0148
:1040200086FF06C08AE205C08091DA0186FFFACFDA
:1040300081E30E94FB1E089580E090E00895909334
:10404000C6018093C5010895CF92DF92EF92FF924F
:104050000F931F936C01EE24FF24C114D104E104DB
:10406000F10421F46B017C0180E001C080E1332781
:104070002F2D1E2D0D2D011511052105310519F0CE
:10408000885F6801790197018601A4E0369527953C
:1040900017950795AA95D1F7011511052105310549
:1040A00019F08C5F6801790197018601F2E036957D
:1040B000279517950795FA95D1F701151105210553
:1040C000310519F08E5F68017901B701A601769577
:1040D000679557954795452B462B472B09F08F5FE2
:1040E0001F910F91FF90EF90DF90CF9008958295F0
:1040F000982F9C7C96959695837344E0849F9001BD
:104100001124922B892F8A7A86959575990F892B80
:1041100008951F93CF93DF931F92CDB7DEB7998396
:104120000E947720182F9981892F0E947720212FB4
:1041300030E0322F2227A901482BCA010F90DF91CE
:10414000CF911F9108958091DF01843009F1109281
:10415000C40120E488E190E00FB6F894A89580931C
:1041600060000FBE2093600083B7817F846083BFAF
:1041700083B7816083BF7894889583B78E7F83BF30
:1041800088E10FB6F89480936000109260000FBE33
:104190000895CF930E947D090E94130A0E947E0910
:1041A000C0E08C2F0E942C0B892B29F4CF5FC530E7
:1041B000C1F780E001C081E0CF9108950C94971879
:1041C00082E084BD93E095BD9AEF97BD80936E0029
:1041D00008952FB7F8948091C7019091C801A091DC
:1041E000C901B091CA012FBF0895CF92DF92EF921B
:1041F000FF920F931F932FB7F8944091C7015091EE
:10420000C8016091C9017091CA012FBF6A017B0189
:10421000EE24FF248C0120E030E0C016D106E20637
:10422000F30610F441505109481B590BCA011F9164
:104230000F91FF90EF90DF90CF9008951F920F9213
:104240000FB60F9211248F939F93AF93BF938091DA
:10425000C7019091C801A091C901B091CA0101960E
:10426000A11DB11D8093C7019093C801A093C901FE
:10427000B093CA01BF91AF919F918F910F900FBEE4
:104280000F901F9018950E942C10F8942FEF87EA3A
:1042900091E6215080409040E1F700C0000087E0A7
:1042A00090EBDC018093E8019093E901A093EA018F
:1042B000B093EB012CE088E190E00FB6F894A8955C
:1042C000809360000FBE20936000FFCFCF92DF92FB
:1042D000EF92FF920F931F93CF93DF93C82ED12CB1
:1042E00001E010E08D2D0E942C0B7C01C0E0D0E09D
:1042F00098010C2E02C0220F331F0A94E2F72E21E0
:104300003F21232B29F42196CF30D10589F709C00D
:104310006C2F7D2D80E00E94D609C812F4CF81E079
:1043200005C0D39485E0D812DDCF80E0DF91CF9136
:104330001F910F91FF90EF90DF90CF900895CF9352
:10434000C82F8CE20E946621882321F08C2FCF9108
:104350000C94662180E0CF910895CF930E94FA22B9
:10436000811102C00E94E02280EB95E00E94DB08F0
:10437000C5E6C15049F00E94130A8FE39CE90197FA
:10438000F1F700C00000F5CF89EA95E00E94DB0854
:1043900089E20E949F21811111C18AE20E949F211E
:1043A00081110E94E02285E00E949F2181110E94DC
:1043B00043210E9405238093C30187E00E949F212F
:1043C000882399F18BE10E949F21882351F09091DD
:1043D000C30191FB882780F921E0822780FB91F9B6
:1043E00022C08EE00E949F21882351F09091C3014A
:1043F00092FB882780F921E0822780FB92F913C085
:1044000080E10E949F219091C301882341F093FB9A
:10441000882780F921E0822780FB93F904C0892F47
:10442000809580FB90F99093C3018091C3010E9415
:1044300009230E9417238093DA0180EE0E949F21B6
:10444000882341F08091DA01982F909590FB80F9B4
:104450008093DA0189E30E949F21882359F090918B
:10446000DA0191FB882780F921E0822780FB91F90E
:104470009093DA0182EE0E949F21882359F0909157
:10448000DA0192FB882780F921E0822780FB92F9EC
:104490009093DA0186EE0E949F21882359F0909133
:1044A000DA0193FB882780F921E0822780FB93F9CA
:1044B0009093DA0183EE0E949F21882359F0909116
:1044C000DA0194FB882780F921E0822780FB94F9A8
:1044D0009093DA0185E30E949F21882359F09091FF
:1044E000DA0195FB882780F921E0822780FB95F986
:1044F0009093DA0181E30E949F21882359F09091E3
:10450000DA0196FB882780F921E0822780FB96F963
:104510009093DA0181E10E949F21882359F09091C4
:10452000DA0197FB882780F921E0822780FB97F941
:104530009093DA018091DA010E941B238091DA01C5
:1045400087FB882780F980930C0187E20E949F21D6
:10455000C82F8EE10E949F218111C2608FE10E94CD
:104560009F218111C46080E20E949F218111C86057
:1045700081E20E949F218111C06182E20E949F21FD
:104580008111C06283E20E949F218111C06484E294
:104590000E949F21882311F0C06802C0CC2329F01B
:1045A0008C2F0E9412236C2F03C00E940E23682FB1
:1045B00070E080E090E0CF910C948F1CCF91089533
:1045C0006DEE7EEF80E090E00E944A2E60E082E097
:1045D00090E00E943C2E60E083E090E00E943C2E40
:1045E00060E084E090E00E943C2E60E085E090E096
:1045F0000C943C2E80E090E00E94362E21E08D3E0F
:104600009E4F09F020E0822F089582E090E00C9404
:104610002E2E682F82E090E00C943C2E83E090E0F8
:104620000C942E2E682F83E090E00C943C2E84E0B6
:1046300090E00C942E2E682F84E090E00C943C2E99
:104640008091CD0180FF0BC06091120185E0689FD1
:10465000B001112475956795759567952AC081FFFE
:1046600009C06091120185E0689FB0011124759521
:1046700067951FC082FF07C06091120185E0689FA7
:10468000B001112416C04091CE014423C9F06091BD
:104690001101461788F72091120185E0289F9001AB
:1046A0001124429FC001439F900D112470E00E948D
:1046B000002E6038710540F46115710539F002C0B3
:1046C00065E070E0862F08958FE7089581E00895F2
:1046D0008091CD0180FF08C06091100170E0759558
:1046E00067957595679521C081FF06C0609110019F
:1046F00070E07595679519C082FF04C06091100144
:1047000070E010C08091CE018823C1F060910F014C
:104710008617A0F790911001989FC001112470E0B6
:104720000E94002E6038710528F46115710521F092
:10473000862F08958FE7089581E0089561E070E085
:10474000F4CF803F21F40E942023819504C0813F53
:1047500029F40E9420238093D1010895823F21F4FF
:104760000E942023819504C0833F29F40E942023C6
:104770008093D0010895893F19F40E94682305C0F1
:104780008A3F31F40E94682381958093D201089575
:104790008B3F21F40E946823819504C08C3F29F44B
:1047A0000E9468238093D3010895843F21F480916F
:1047B000CF01816017C0853F21F48091CF018260D5
:1047C00011C0863F21F48091CF0184600BC0873FE8
:1047D00021F48091CF01886005C0883F31F4809139
:1047E000CF0180618093CF0108958D3F21F48091A6
:1047F000CD0181600BC08E3F21F48091CD0182609C
:1048000005C08F3F29F48091CD0184608093CD0154
:104810000895803F39F48091D10187FF6CC01092D8
:10482000D10169C0813F29F48091D1011816BCF3F0
:1048300062C09091D001823F29F497FF5CC0109232
:10484000D00159C0833F19F41916CCF354C0893FE5
:1048500041F48091D20118160CF04DC01092D20193
:104860004AC08A3F29F48091D20187FF44C0F6CF25
:104870008B3F39F48091D30187FF3DC01092D30163
:104880003AC08C3F29F48091D3011816BCF333C091
:10489000843F21F48091CF018E7F17C0853F21F4A2
:1048A0008091CF018D7F11C0863F21F48091CF018F
:1048B0008B7F0BC0873F21F48091CF01877F05C09C
:1048C000883F31F48091CF018F7E8093CF0113C058
:1048D0008D3F21F48091CD018E7F0BC08E3F21F45E
:1048E0008091CD018D7F05C08F3F29F48091CD014E
:1048F0008B7F8093CD018091D00181110EC080917A
:10490000D10181110AC08091D201811106C080912C
:10491000D301811102C01092CE0108958091C3018C
:1049200083FF7EC08CEE95E00E94DB088091CF0172
:104930001F928F9387EE95E09F938F930E94740947
:1049400085EE95E00E94DB082091D001822F992707
:1049500087FD90959F932F9382EE95E09F938F9381
:104960000E94740980EE95E00E94DB082091D1013D
:10497000822F992787FD90959F932F938DED95E03A
:104980009F938F930E9474098BED95E00E94DB0842
:104990002091D201822F992787FD90959F932F9385
:1049A00088ED95E09F938F930E94740986ED95E0C2
:1049B0000E94DB082091D301822F992787FD9095D3
:1049C0009F932F9383ED95E09F938F930E9474099B
:1049D00080ED95E00E94DB088091CE011F928F93BD
:1049E0008DEC95E09F938F930E9474098BEC95E07A
:1049F0000E94DB088091CD011F928F9388EC95E097
:104A00009F938F930E94740985EC95E00E94DB08C8
:104A10008DB79EB74C960FB6F8949EBF0FBE8DBF54
:104A20008FEC91E00E945E130E94E9209093CC01EC
:104A30008093CB0108951F93CF93DF938091CB0197
:104A40009091CC010E94F5204091CE01442321F0A9
:104A50002091130130E006C0209114015AE0259FF7
:104A6000900111248217930708F482C08091D0012D
:104A70001091D101D091D201C091D301811107C011
:104A8000111105C0D11103C0CC2309F471C04F3FEF
:104A900019F04F5F4093CE01181624F40E94202392
:104AA0008093D0018091D00187FF05C00E94202310
:104AB00081958093D001111624F40E9420238093C5
:104AC000D1018091D10187FF05C00E9420238195EB
:104AD0008093D1016091D001662339F11091D10109
:104AE000112319F1772767FD7095872F972F0E9463
:104AF000112D23E333E343E35FE30E94752D0E940E
:104B0000DE2C6093D001612F772767FD7095872F8A
:104B1000972F0E94112D23E333E343E35FE30E94C9
:104B2000752D0E94DE2C6093D1011D1624F40E9485
:104B300068238093D2018091D20187FF05C00E9433
:104B4000682381958093D2011C1624F40E94682367
:104B50008093D3018091D30187FF05C00E94682311
:104B600081958093D301DF91CF911F910C948E2476
:104B7000DF91CF911F910895EFECF1E085E0DF0127
:104B80001D928A95E9F71092CE011092CD010895F9
:104B90008BEB9AE00E94DB088EEA9AE00E94DB0829
:104BA00081EA9AE00C94DB088EE19AE00E94DB082F
:104BB00081E19AE00E94DB0886EF99E00E94DB0821
:104BC0008BED99E00E94DB0883EC99E00E94DB0802
:104BD00089EA99E00E94DB088BE899E00E94DB08F3
:104BE0008BE699E00E94DB0886E599E00E94DB08ED
:104BF0008FE399E00E94DB0882E299E00E94DB08E3
:104C000083E099E00E94DB0883EE98E00E94DB08D5
:104C100081EC98E00E94DB088CE898E00E94DB08B9
:104C200087E798E00E94DB081F9285E08F9384E776
:104C300098E09F938F930E9474098BE698E00E94FE
:104C4000DB081F9281E08F9388E698E09F938F9313
:104C50000E94740986E698E00E94DB088DB79EB733
:104C600008960FB6F8949EBF0FBE8DBF89E398E0FB
:104C70000C94DB08833009F459C028F4813061F0CA
:104C8000823079F10895853009F49AC008F473C030
:104C9000863009F4BAC0089520911401862F90E05F
:104CA000820F911D8F3F910520F4620F60931401D4
:104CB00003C08FEF8093140185E197E00E94DB0829
:104CC000809114011F928F9382E197E09F938F93BD
:104CD0000E9474090F900F900F900F9080E197E061
:104CE000B8C020911301862F90E0820F911D8F3F55
:104CF000910520F4620F6093130103C08FEF80933E
:104D0000130181E097E00E94DB08809113011F925C
:104D10008F938EEF96E09F938F930E9474090F906C
:104D20000F900F900F908CEF96E093C0209112019E
:104D3000862F90E0820F911D8F3F910520F4620F26
:104D40006093120103C08FEF809312018CEE96E006
:104D50000E94DB08809112011F928F9389EE96E0EA
:104D60009F938F930E9474090F900F900F900F9054
:104D700087EE96E06EC020911101862F90E0820FA1
:104D8000911D8F3F910520F4620F6093110103C0C4
:104D90008FEF8093110185ED96E00E94DB088091F2
:104DA00011011F928F9382ED96E09F938F930E9443
:104DB00074090F900F900F900F9080ED96E049C00E
:104DC00020911001862F90E0820F911D8F3F910559
:104DD00020F4620F6093100103C08FEF80931001E5
:104DE0008AEB96E00E94DB08809110011F928F935E
:104DF00087EB96E09F938F930E9474090F900F901A
:104E00000F900F9085EB96E024C020910F01862F24
:104E100090E0820F911D8F3F910520F4620F609307
:104E20000F0103C08FEF80930F018DE996E00E9480
:104E3000DB0880910F011F928F938AE996E09F9380
:104E40008F930E9474090F900F900F900F9088E934
:104E500096E00C94DB08833009F44DC028F48130CF
:104E600061F0823049F10895853009F482C008F478
:104E700061C0863009F49CC00895809114016817C0
:104E800020F4861B8093140102C0109214018CE858
:104E900096E00E94DB08809114011F928F9389E8AD
:104EA00096E09F938F930E9474090F900F900F903C
:104EB0000F9087E896E09AC080911301681720F45C
:104EC000861B8093130102C01092130188E796E0BD
:104ED0000E94DB08809113011F928F9385E796E073
:104EE0009F938F930E9474090F900F900F900F90D3
:104EF00083E796E07BC080911201681720F4861B3F
:104F00008093120102C01092120183E696E00E9483
:104F1000DB08809112011F928F9380E696E09F93A9
:104F20008F930E9474090F900F900F900F908EE551
:104F300096E05CC080911101681720F4861B809375
:104F4000110102C0109211018CE496E00E94DB086E
:104F5000809111011F928F9389E496E09F938F9324
:104F60000E9474090F900F900F900F9087E496E0C5
:104F70003DC080911001681720F4861B80931001BA
:104F800002C01092100181E396E00E94DB0880913C
:104F900010011F928F938EE296E09F938F930E9451
:104FA00074090F900F900F900F908CE296E01EC046
:104FB00080910F01681720F4861B80930F0102C0B7
:104FC00010920F0184E196E00E94DB0880910F01AE
:104FD0001F928F9381E196E09F938F930E947409B3
:104FE0000F900F900F900F908FE096E00C94DB08DD
:104FF000CF93C82F8AE89AE00E94DB086091AC0149
:105000007091AD018091AE019091AF010E9424207A
:105010001F928F9327E83AE03F932F930E947409E1
:1050200082E89AE00E94DB081F92CF932FE73AE0D4
:105030003F932F930E9474098DE79AE00E94DB084A
:1050400061E070E080E090E004C0660F771F881F89
:10505000991FCA95D2F70E948F1C8DB79EB70896EC
:105060000FB6F8949EBF0FBE8DBFCF910C949718CA
:10507000CF93482F50E0FA013697E334F10508F05A
:10508000BDC2E059FF4F0C94142E82EC90E10E94B7
:10509000DB080E94982C0E940D130E947C0B43C1D8
:1050A00087EB90E10E94DB0882E09EE00E94DB0833
:1050B0000E940E231F928F938FEF9DE09F938F93FB
:1050C0000E9474098DEF9DE00E94DB080E94052379
:1050D000C82F8AEE9DE00E94DB081F92CF9325EE39
:1050E0003DE03F932F930E94740983EE9DE00E9460
:1050F000DB0889ED9DE00E94DB088C2F81701F92F8
:105100008F9326ED3DE03F932F930E94740984ED29
:105110009DE00E94DB088AEC9DE00E94DB08C1FB59
:10512000882780F91F928F9327EC3DE03F932F93C0
:105130000E94740985EC9DE00E94DB0889EB9DE0EC
:105140000E94DB08C2FB882780F91F928F9326EB11
:105150003DE03F932F930E94740984EB9DE00E94F1
:10516000DB088BEA9DE00E94DB08C3FBCC27C0F97B
:105170001F92CF9388EA9DE09F938F930E947409BA
:1051800086EA9DE00E94DB080E941723C82F82E96F
:105190009DE00E94DB081F92CF932DE83DE03F93F6
:1051A0002F930E9474098BE89DE00E94DB0882E740
:1051B0009DE00E94DB088C2F81701F928F932FE659
:1051C0003DE03F932F930E9474098DB79EB7809660
:1051D0000FB6F8949EBF0FBE8DBF8DE69DE00E9476
:1051E000DB0886E59DE00E94DB08C1FB882780F98B
:1051F0001F928F9323E53DE03F932F930E94740904
:1052000081E59DE00E94DB088FE39DE00E94DB08C2
:10521000C2FB882780F91F928F932CE33DE03F93D8
:105220002F930E9474098AE39DE00E94DB0888E2C4
:105230009DE00E94DB08C3FB882780F91F928F93B3
:1052400025E23DE03F932F930E94740983E29DE0A5
:105250000E94DB0889E19DE00E94DB08C4FB8827EF
:1052600080F91F928F9326E13DE03F932F930E9498
:10527000740984E19DE00E94DB0882E09DE00E94C9
:10528000DB08C5FB882780F91F928F932FEF3CE046
:105290003F932F930E9474098DEF9CE00E94DB08DE
:1052A00081EE9CE00E94DB08C6FB882780F91F92F4
:1052B0008F932EED3CE03F932F930E9474098CED69
:1052C0009CE00E94DB0884ED9CE00E94DB08C7FBA9
:1052D000CC27C0F91F92CF9381ED9CE09F938F93D1
:1052E0000E9474098FEC9CE00E94DB088DB79EB78A
:1052F0004C960FB6F8949EBF0FBE8DBF14C00E948F
:105300000813892B91F00E9408139093D601809383
:10531000D5010E94971880E090E00E9403138EEA66
:1053200090E10E94DB08C1E06EC18091D5019091AF
:10533000D6010E94031383EA90E1F3CF83EB9CE054
:105340000E94DB088CE99CE00E94DB0884E89CE07A
:105350000E94DB088CE69CE00E94DB0882E59CE072
:105360000E94DB088BE39CE00E94DB0881E29CE06A
:105370000E94DB0881E09CE00E94DB088BEE9BE052
:105380000E94DB088AED9BE00E94DB0882EC9BE038
:105390000E94DB0882EB9BE00E94DB0888E99BE02F
:1053A0000E94DB088FE79BE00E94DB0886E69BE01B
:1053B0000E94DB088DE49BE00E94DB0884E39BE015
:1053C0000E94DB0883E19BE00E94DB0881EF9AE00A
:1053D0000E94DB0887ED9AE0A4CF8091C301817F12
:1053E0008E7F8093C3010E94C8258EE890E10E94C1
:1053F000DB088AE890E10E94DB0881E08093D40119
:1054000092CF0E94971881E790E10E94DB089FEFFE
:1054100023ED80E3915020408040E1F700C0000080
:105420000E94432181E690E17CCF8091C301C82F87
:10543000C17080FF09C08EE490E10E94DB0880917A
:10544000C301817F8E7F44C08CE390E10E94DB0822
:105450008091C30181608093C30165CF8091C301B6
:1054600081FBCC27C0F991E0C927C0FB81F980936B
:10547000C301CC2319F083E290E125C089E090E1DB
:1054800050CF8091C30182FBCC27C0F991E0C9279E
:10549000C0FB82F98093C301CC2319F08EEE9FE00C
:1054A00012C082ED9FE03DCF8091C30183FBCC27EA
:1054B000C0F991E0C927C0FB83F98093C301CC23D5
:1054C00051F08AEB9FE00E94DB088091C30181606C
:1054D0008093C30198C081EA9FE023CF8AE89FE0D0
:1054E0000E94DB088EE79FE00E94DB0881E49FE0DA
:1054F0000E94DB0884E19FE00E94DB088FEC9EE0C5
:105500000E94DB0881EA9EE00CCF8091C701909158
:10551000C801A091C901B091CA01BF93AF939F93F5
:105520008F938DE89EE09F938F930E9474090F9054
:105530000F900F900F900F900F90F5CE87E79EE0A1
:105540000E94DB080E940D131F928F938DE59EE051
:105550009F938F930E94740980910B011F928F93E8
:1055600086E49EE09F938F930E94740980914C0182
:105570001F928F9383E39EE09F938F930E94740901
:105580008DB79EB70C960FB6F8949EBF0FBE8DBF19
:10559000CACE0E949718C0910C0181E0C827C09321
:1055A0000C01CC2329F084E29EE00E94DB082BC092
:1055B00084E19EE0B6CE81E890E00E9469139FEFFF
:1055C00021EE84E0915020408040E1F700C00000CF
:1055D00080E090E00E9469139FEF29E688E19150F6
:1055E00020408040E1F700C000009DCE80E003C075
:1055F0008D5101C089530E94F82795CE82E19EE02B
:105600000E94DB08C0E08C2FCF91089580E00895C0
:1056100080E00895CF93C82F8091D401813071F03C
:1056200020F0823009F44EC05DC1A0910D01B0910F
:105630000E018C91823209F057C107C0A0910D0173
:10564000B0910E018C91823249F48C2F0E94062B6E
:10565000811135C08C2F0E94382832C08C2F0E94B7
:10566000082B81112CC0C431F1F090F4CB30A1F0A3
:10567000C03101F50E94D4258CE49AE00E94DB0839
:1056800088E49AE00E94DB0882E08093D40117C08E
:10569000C93249F0C83371F40E94C82589E79AE0FD
:1056A0000E94DB080CC085E69AE00E94DB0810929D
:1056B000D4011CC186E49AE00E94DB0817C181E096
:1056C000817016C1C83228F5CE3108F0C0C0CB3089
:1056D000A1F1D0F4C73009F0E8C08EE18093140145
:1056E00082E3809313018AE08093120184E1809326
:1056F000110188E08093100188E280930F018EEE03
:1057000097E00E94DB08D6C0C33141F1C431C1F03B
:10571000CCC0CB3409F4BEC028F4C93289F0C833F8
:1057200061F0C3C0C13509F4B3C0C23509F4AEC0DD
:10573000CE3409F0BAC06AE0B3C00E94D425BAC022
:105740001092D70181E298E00E94DB088DE198E099
:105750000E94DB0881E08093D401CAC081EC97E00D
:105760000E94DB088CEA97E00E94DB08809114011C
:105770001F928F9389EA97E09F938F930E947409F9
:1057800087EA97E00E94DB0882E997E00E94DB0845
:10579000809113011F928F938FE897E09F938F93CF
:1057A0000E9474098DE897E00E94DB088BE797E080
:1057B0000E94DB08809112011F928F9388E797E087
:1057C0009F938F930E94740986E797E00E94DB08FD
:1057D00082E697E00E94DB08809111011F928F936F
:1057E0008FE597E09F938F930E9474098DE597E072
:1057F0000E94DB0885E497E00E94DB08809110019D
:105800001F928F9382E497E09F938F930E94740975
:1058100080E497E00E94DB0886E297E00E94DB08C4
:1058200080910F011F928F9383E297E09F938F9354
:105830000E94740981E297E00E94DB088DB79EB751
:1058400048960FB6F8949EBF0FBE8DBF33C0CE51A1
:10585000EC2FF0E0E25DFE4F80818093D70188E07D
:1058600098E00E94DB088091D7011F928F9385E01A
:1058700098E09F938F930E94740983E098E00E94C0
:10588000DB080F900F900F900F9014C061E003C0E1
:1058900061E006C06AE08091D7010E943A260AC002
:1058A0008091D7010E942B2705C08CEE97E00E94C3
:1058B000DB0816C08AEE97E00E94DB088091D701D2
:1058C0001F928F9387EE97E09F938F930E947409A6
:1058D00084EE97E00E94DB080F900F900F900F90DE
:1058E00081E006C01092D40180E002C080E0E8CEE2
:1058F000CF910895E1E8F0E0808188608083808125
:10590000816080838FB7F89493E09093890090ED45
:10591000909388008FBF0895EFE6F0E08081826069
:1059200080830895EFE6F0E080818D7F8083089585
:10593000EFE6F0E0808192E08927808308951F924E
:105940000F920FB60F9211242F933F934F935F93B3
:105950006F937F938F939F93AF93BF93EF93FF9337
:105960008091D8019091D90101969093D9018093AB
:10597000D801811103C082E00E947C0BE091D90123
:10598000E695E695F0E0EE52FF4EE4918091D80165
:105990008E1303C080E00E947C0BFF91EF91BF91BA
:1059A000AF919F918F917F916F915F914F913F91B7
:1059B0002F910F900FBE0F901F90189504D06894F0
:1059C000B1118DC0089570D088F09F5790F0B92F15
:1059D0009927B751A0F0D1F0660F771F881F991F44
:1059E0001AF0BA95C9F712C0B13081F077D0B1E0A2
:1059F000089574C0672F782F8827B85F39F0B93FB2
:105A0000CCF3869577956795B395D9F73EF4909545
:105A10008095709561957F4F8F4F9F4F0895E894C3
:105A200009C097FB3EF490958095709561957F4FE6
:105A30008F4F9F4F9923A9F0F92F96E9BB27939594
:105A4000F695879577956795B795F111F8CFFAF4A4
:105A5000BB0F11F460FF1BC06F5F7F4F8F4F9F4FD5
:105A600016C0882311F096E911C0772321F09EE833
:105A7000872F762F05C0662371F096E8862F70E099
:105A800060E02AF09A95660F771F881FDAF7880F73
:105A90009695879597F9089557FD9058440F551F8F
:105AA00059F05F3F71F04795880F97FB991F61F0A0
:105AB0009F3F79F087950895121613061406551F17
:105AC000F2CF4695F1DF08C0161617061806991F83
:105AD000F1CF86957105610508940895E894BB2778
