:100000000C943D080C9484080C9484080C94840887
:100010000C9484080C9484080C9484080C94840830
:100020000C9484080C9484080C946C100C943E116D
:100030000C9484080C9484080C9484080C94840810
:100040000C9484080C944F2C0C9484080C94840811
:100050000C9484080C94BF200C9484080C9484089D
:100060000C9484080C9484080C9484080C948408E0
:100070000C9484080C9484080C9484080C948408D0
:100080000C9484080C9484080C9484080C948408C0
:100090000C9484080C9484080C9484080C948408B0
:1000A0000C9484080C9484080C948408AB11CD1132
:1000B000C012CD11C01212123512C0128A129D1236
:1000C0009A159A15C415C4151A164E162D182D1802
:1000D00065162D185017501705182D182D181A18B9
:1000E0009729BF29FA27AB2AAB2A4829AB2AAB2A82
:1000F000EC29AB2A002A762AAB2AAB2AAB2AAB2AF8
:100100004B2A322AAB2A1B2AAB2AD829AB2AEF2743
:10011000A52AA52AA52AA52AA52AA52AA52AA52A67
:10012000A52AA32AAB2AA32AAB2AAB2AAB2AAB2A3D
:10013000AB2AAB2AAB2AAB2AAB2AAB2AAB2AA32A1F
:10014000AB2AAB2A48292929A72AA72AA72AA72AFE
:10015000A72AA72AA72AA72AA72AA72AA72AA72A17
:10016000882AAB2AAB296E6F7420737570706F721A
:100170007465642E0A004A756D7020746F20626F7A
:100180006F746C6F616465722E2E2E20000000F17A
:10019000A1000000000000000000000000000000BE
:1001A0000000000000000000F0000001F0CD1E1F64
:1001B00020212223242526272D2E31352B141A0801
:1001C00015171C180C12132F30002AE0041607090B
:1001D0000A0B0D0E0F3334002800E11D1B06190514
:1001E0001110363738E55200003DC1C1E3002C0044
:1001F000E6C1000050514F00CF3A3B3C3D3E3F40EE
:100200004142434445AAA90100004D0000004B466D
:1002100000000000004C014A004E00005051524FB7
:1002200000000000000100000000000000000000CD
:10023000016B0000010101010001000101000068E3
:10024000696A000A002530313662003A2000253004
:100250003258000A722F632030313233343536374A
:1002600038394142434445460A000A002530325895
:1002700000626F756E6365213A20005B735D004B11
:100280006579626F6172642073746172742E0A0002
:1002900055534220636F6E666967757265642E0AF6
:1002A000005B575D005B535D005B525D005B445D2E
:1002B000005B435D000C034800300030003000312B
:1002C0000000002003680069006700670073005F9A
:1002D000006B006500790062006F006100720064CD
:1002E00000730000000403090409028D00050100E9
:1002F000A0320904000001030101000921110100DD
:1003000001223F000705810308000A0904010001DA
:1003100003010200092111010001224D000705829D
:100320000308000A0904020001030000000921116A
:100330000100012236000705830308000A090403AF
:100340000002030000000921110100012220000722
:1003500005840320000107050403200001090404AB
:1003600000010300000009211101000122390007EA
:100370000585031000011201100100000008EDFEC8
:10038000636001000102000105010906A1010507E2
:1003900019E029E715002501950875018102050876
:1003A00019012905950575019102950175039101C2
:1003B0000507190029771500250195787501810237
:1003C000C00631FF0974A1010975150025FF9520AC
:1003D000750881020976150025FF952075089102A0
:1003E000C005010980A101850216010026B7001A87
:1003F00001002AB700751095018100C0050C0901A4
:10040000A1018503160100269C021A01002A9C0204
:10041000751095018100C005010902A1010901A122
:1004200000050919012905150025019505750181AA
:1004300002950175038101050109300931158125F6
:100440007F95027508810609381581257F9501750C
:10045000088106050C0A38021581257F950175086B
:100460008106C0C005010906A101050719E029E7B9
:100470001500250195087501810295017508810116
:100480000508190129059505750191029501750366
:1004900091010507190029FF150025FF950675082C
:1004A0008100C00A002530325820006B6579626FE8
:1004B0006172645F7265706F72743A20000A002581
:1004C000303258006B6579626F6172645F73657476
:1004D0005F6C65643A200064656C5F6B65795F6290
:1004E00069743A2063616E27742064656C3A202534
:1004F0003032580A006164645F6B65795F626974C9
:100500003A2063616E2774206164643A202530329A
:10051000580A00646F6E652E0A00626F6F676D6126
:10052000676963207363616E3A202E2E2E200029A6
:100530000A002575002F002575005D280025640040
:100540002000256400200025640020002564007C34
:100550000025303258006D6F7573656B6579205BCF
:1005600062746E7C782079207620685D28726570D0
:100570002F61636C293A205B000A002575006D6BC2
:100580005F776865656C5F74696D655F746F5F6DDB
:100590006178203D20000A002575006D6B5F77684B
:1005A00065656C5F6D61785F7370656564203D2083
:1005B000000A002575006D6B5F74696D655F746F6F
:1005C0005F6D6178203D20000A002575006D6B5F2E
:1005D0006D61785F7370656564203D20000A0025B9
:1005E00075006D6B5F696E74657276616C203D207D
:1005F000000A002575006D6B5F64656C6179203DB4
:1006000020000A002575006D6B5F776865656C5F7B
:1006100074696D655F746F5F6D6178203D20000ABD
:10062000002575006D6B5F776865656C5F6D61783F
:100630005F7370656564203D20000A002575006DBC
:100640006B5F74696D655F746F5F6D6178203D20CD
:10065000000A002575006D6B5F6D61785F737065D2
:100660006564203D20000A002575006D6B5F696E92
:1006700074657276616C203D20000A002575006D5E
:100680006B5F64656C6179203D20000A0025750070
:10069000363A206D6B5F776865656C5F74696D6570
:1006A0005F746F5F6D61783A20000A002575003530
:1006B0003A206D6B5F776865656C5F6D61785F731D
:1006C000706565643A20000A00257500343A206D93
:1006D0006B5F74696D655F746F5F6D61783A200060
:1006E0000A00257500333A206D6B5F6D61785F738A
:1006F000706565643A20000A00257500323A206D65
:100700006B5F696E74657276616C286D73293A202F
:10071000000A00257500313A206D6B5F64656C61DD
:1007200079282A31306D73293A20000A0A2D2D2D9F
:100730002D2D204D6F7573656B6579205061726149
:100740006D6574657273202D2D2D2D2D0A003E20B0
:10075000002575004D003F00736574206465666177
:10076000756C742076616C7565732E0A000A00251D
:10077000750073656C656374656420706172616D8A
:10078000657465723A2000433E20000A5175697411
:10079000204D6F7573656B657920436F6E736F6C59
:1007A000650A0053656520687474703A2F2F656E72
:1007B0002E77696B6970656469612E6F72672F7738
:1007C000696B692F4D6F7573655F6B6579730A008F
:1007D0000A002575002C20776865656C3D0025753D
:1007E0000077686572652064656C74613A20637592
:1007F00072736F723D000A7370656564203D2064FA
:10080000656C7461202A206D61785F737065656422
:10081000202A2028726570656174202F2074696D0C
:10082000655F746F5F6D6178290A007067646F7728
:100830006E3A096465637265617365207061726107
:100840006D6574657273282D3130290A00706775E3
:10085000703A09696E6372656173652070617261D7
:100860006D6574657273282B3130290A00646F77C7
:100870006E3A0964656372656173652070617261C7
:100880006D6574657273282D31290A0075703A09F7
:10089000696E63726561736520706172616D657404
:1008A000657273282B31290A00643A097365742034
:1008B00064656661756C742076616C7565730A0099
:1008C000703A097072696E7420706172616D65743E
:1008D0006572730A00363A0973656C656374206D3E
:1008E0006B5F776865656C5F74696D655F746F5F7A
:1008F0006D61780A00353A0973656C656374206D23
:100900006B5F776865656C5F6D61785F7370656557
:10091000640A00343A0973656C656374206D6B5F1B
:1009200074696D655F746F5F6D61780A00333A09B1
:1009300073656C656374206D6B5F6D61785F737058
:100940006565640A00323A0973656C656374206DED
:100950006B5F696E74657276616C286D73290A002D
:10096000313A0973656C656374206D6B5F64656C07
:100970006179282A31306D73290A004553432F715C
:100980003A09717569740A000A0A2D2D2D2D2D2042
:100990004D6F7573656B657920506172616D65741B
:1009A0006572732048656C70202D2D2D2D2D0A0049
:1009B0003F004D303E000A456E746572204D6F75E4
:1009C00073656B657920436F6E736F6C650A000AFF
:1009D0005175697420436F6E736F6C65204D6F6441
:1009E000650A00433E20000A0025750020746F2030
:1009F000002575007377697463685F646566617567
:100A00006C745F6C617965723A20006D3A096D6FA4
:100A10007573656B65790A004553432F713A097107
:100A20007569740A000A0A2D2D2D2D2D20436F6E35
:100A3000736F6C652048656C70202D2D2D2D2D0A4F
:100A400000506175733A096A756D7020746F206289
:100A50006F6F746C6F616465720A00436170733A02
:100A6000094C6F636B204B6579626F617264284338
:100A700068696C642050726F6F66290A0050536376
:100A8000723A09706F77657220646F776E2F7265A6
:100A90006D6F74652077616B652D75700A00342F5A
:100AA00046343A0973776974636820746F204C6127
:100AB00079657234200A00332F46333A0973776917
:100AC00074636820746F204C6179657233200A006A
:100AD000322F46323A0973776974636820746F2045
:100AE0004C6179657232200A00312F46313A097320
:100AF000776974636820746F204C61796572312066
:100B00000A00302F4631303A0973776974636820E0
:100B1000746F204C6179657230200A006E3A097456
:100B20006F67676C65204E4B524F0A00653A09703B
:100B300072696E7420656570726F6D20636F6E668A
:100B400069670A00733A097072696E742073746180
:100B50007475730A00743A097072696E742074694E
:100B60006D657220636F756E740A00763A09707253
:100B7000696E742064657669636520766572736951
:100B80006F6E202620696E666F0A007A3A09746FCC
:100B900067676C6520736C656570204C45442074F4
:100BA0006573740A006D3A09746F67676C65206D30
:100BB0006F7573652064656275670A006B3A097426
:100BC0006F67676C65206B6579626F617264206422
:100BD000656275670A00783A09746F67676C65200B
:100BE0006D61747269782064656275670A00643AA1
:100BF00009746F67676C6520646562756720656E50
:100C000061626C650A00633A09656E7465722063FF
:100C10006F6E736F6C65206D6F64650A000A0A2D34
:100C20002D2D2D2D20436F6D6D616E642048656CF8
:100C300070202D2D2D2D2D0A000A002575002E6EF9
:100C40006B726F3A20000A002575002E7377617071
:100C50005F6261636B736C6173685F6261636B7326
:100C6000706163653A20000A002575002E73776174
:100C7000705F67726176655F6573633A20000A0092
:100C80002575002E6E6F5F6775693A20000A002592
:100C900075002E737761705F72616C745F72677537
:100CA000693A20000A002575002E737761705F6C29
:100CB000616C745F6C6775693A20000A00257500E5
:100CC0002E636170736C6F636B5F746F5F636F6EC5
:100CD00074726F6C3A20000A002575002E737761DC
:100CE000705F636F6E74726F6C5F636170736C6F53
:100CF000636B3A20000A0025303258006B65796D2D
:100D000061705F636F6E6669672E7261773A20006B
:100D10000A002575002E6D6F7573653A20000A0074
:100D20002575002E6B6579626F6172643A20000A46
:100D3000002575002E6D61747269783A20000A00F2
:100D40002575002E656E61626C653A20000A0025EB
:100D50003032580064656275675F636F6E666967FD
:100D60002E7261773A20000A00257500646566617D
:100D7000756C745F6C617965723A20003F004E4B70
:100D8000524F3A2064697361626C65640A004E4B8D
:100D9000524F3A20656E61626C65640A006B65793A
:100DA000626F6172645F69646C653A2025580A005D
:100DB0006B6579626F6172645F70726F746F636F7D
:100DC0006C3A2025580A00686F73745F6B6579620E
:100DD0006F6172645F6C65647328293A2025580A34
:100DE000000A0A2D2D2D2D2D20537461747573204A
:100DF0002D2D2D2D2D0A0074696D65725F636F7541
:100E00006E743A202530346C580A004743433A2028
:100E1000352E342E30204156522D4C4942433A2033
:100E2000322E302E30204156525F415243483A20F4
:100E3000617672350A004F5054494F4E533A204C58
:100E400055464120424F4F544D41474943204D4F55
:100E50005553454B45592045585452414B4559200F
:100E6000434F4E534F4C4520434F4D4D414E442030
:100E70004E4B524F20343039360A004255494C44CB
:100E80003A20636333323232652D6469727479209B
:100E90002831353A30333A3339204D6172203237B8
:100EA0002032303230290A005649443A2030784600
:100EB0004545442868696767735F6B6579626F6150
:100EC00072647329205049443A20307836303633E2
:100ED00028483030303129205645523A2030783079
:100EE0003030310A00444553433A206D6C36350AA0
:100EF000000A0A2D2D2D2D2D2056657273696F6EF7
:100F0000202D2D2D2D2D0A000A44454255473A200B
:100F10006D6F7573652064697361626C65642E0A18
:100F2000000A44454255473A206D6F757365206548
:100F30006E61626C65642E0A000A44454255473A68
:100F4000206B6579626F6172642064697361626CA1
:100F500065642E0A000A44454255473A206B65797C
:100F6000626F61726420656E61626C65642E0A0056
:100F70000A44454255473A206D617472697820648D
:100F8000697361626C65642E0A000A4445425547E4
:100F90003A206D617472697820656E61626C656477
:100FA0002E0A000A44454255473A20656E61626C3C
:100FB00065642E0A000A44454255473A2064697325
:100FC00061626C65642E0A006E6F742073757070B8
:100FD0006F727465642E0A000A0A4A756D70207477
:100FE0006F20626F6F746C6F616465722E2E2E209D
:100FF00000433E20000A456E74657220436F6E7395
:101000006F6C65204D6F64650A00556E6C6F636B85
:1010100065642E0A004C6F636B65642E0A0065657B
:10102000636F6E6669673A0A00536C656570204CA1
:10103000454420746573740A00000000000000003D
:1010400000000000010204060A0F17202C3A4A5D36
:1010500071879DB3C7DAE9F5FCFFFCF5E9DAC7B3A0
:101060009D87715D4A3A2C20170F0A060402010081
:101070000000000000000000000011241FBECFEFA0
:10108000DAE0DEBFCDBF04B603FE27C08091E701E2
:101090009091E801A091E901B091EA018730904B6D
:1010A000A740B04BD1F41092E7011092E8011092E2
:1010B000E9011092EA0114BE84B7877F84BF0FB69E
:1010C000F894A895809160008861809360001092E8
:1010D00060000FBEE0E0F8E3099511E0A0E0B1E0A8
:1010E000E0E4FCE502C005900D92A833B107D9F702
:1010F00021E0A8E3B1E001C01D92A73EB207E1F7ED
:101100000E94A30D0C941E2E0C940000FF93EF93ED
:10111000E091C401F091C501309709F00995EF9174
:10112000FF910895FC018591803011F0EFDFFBCF36
:101130000895FF27E0E230E247FF0CC0419597FF9A
:1011400009C0EDE26095709580959095611D711DC7
:10115000811D911D27FF02C0219530E350E2AA278F
:10116000660F771F881F991FAA1FA41710F0A41BD2
:1011700063955A95A9F7AA3008F0A95FA05DAF93CF
:10118000F395611571058105910541F7ED3211F473
:10119000EF93F395F21718F43F93F395FBCF8F91EC
:1011A000B5DFFA95E1F70895E991F99185918030DD
:1011B00021F0853219F0AADFF9CF089520E0E894F4
:1011C00055915532C1F3503311F4689455915A3307
:1011D00048F4505390F3220F022E220F220F200DBD
:1011E000250FF4CF0EF4219589919991533619F377
:1011F000533729F1533559F1BC0188279927E894D1
:101200005C3621F48991999168945591543639F45A
:1012100046EF7EF077FF0DC08FEF9FEF0AC0553786
:101220004AE039F0583540E121F0523642E009F009
:101230000895FF93EF937DDFEF91FF91B7CFFF9379
:10124000EF93FC0181918030B9F360DFFBCFFF9316
:10125000EF9368DFF1CFDF93CF93CDB7DEB725965D
:10126000A3DFCF91DF910895089508950E94441E51
:1012700081FD06C00E94441E85FB882780F901C0BD
:1012800081E0817008950E94441E83FD0AC00E947F
:10129000441E082E000C990B892F881F8827881F51
:1012A000089581E00895882379F00E943609882303
:1012B00011F085E305C00E9443098111FACF89E24C
:1012C0000E94AA1D0C947E1E0C943B18662319F0F4
:1012D000613029F00895FC0182810C9453090E9429
:1012E0004D188091C30180FF04C086E791E00E9401
:1012F0009208FFEF20E782E0F15020408040E1F7C4
:1013000000C000000E94E4208091C30180FF04C05F
:1013100086E691E00C94920808952BE4829FC00128
:101320001124FC012FE0729FE00DF11D1124E60F46
:10133000F11DE355FE4F84910895E82FF0E0EE0F84
:10134000FF1FE35FFF4F85919491089580B38C78E0
:1013500080BB81B38C7881BB08950E94A60984B1BB
:1013600014B885B18FEF85B98AB180778AB98BB10E
:101370008F688BB93E98469A87988F9AE2E4F1E09D
:10138000A8E3B1E0119211921D921D9281E0EC341C
:10139000F807C1F70895CF92DF92EF92FF920F9373
:1013A0001F93CF93DF9308E311E0E801D12CE5E030
:1013B000CE2EFCE6EF2EF2E0FF2E82E0D81691F062
:1013C0008D1520F091E0D91651F006C0A3E0DA1691
:1013D00061F0B4E0DB1661F0809A88980BC0819AC6
:1013E000899808C0849A8C9805C0859A8D9802C007
:1013F000869A8E9880EA8A95F1F729B1022E000C20
:10140000330B20953095832F881F8827881F90E005
:101410001C9903C0E2E0F0E002C0E0E0F0E08E2BB7
:101420009F2B1D9903C064E070E002C060E070E093
:10143000862B972B1E9903C028E030E002C020E0E5
:1014400030E0AC01422B532B2FB1022E000C330B9A
:1014500020953095C9018827990F881F992774E036
:10146000880F991F7A95E1F7842B952B369903C045
:1014700020E230E002C020E030E0822B932B4B9939
:1014800003C020E430E002C020E030E0822B932B48
:101490004A9903C0E0E8F0E002C0E0E0F0E08E2B03
:1014A0009F2B499903C060E071E002C060E070E0EA
:1014B000862B972B489903C020E032E002C020E041
:1014C00030E0AC01422B532B23B1022E000C330B26
:1014D00020953095C9018827990F881F9927982F43
:1014E0008827990F990F842B952B1B9903C040E0F7
:1014F00058E002C040E050E0842B952B1A9903C0BD
:1015000040E050E102C040E050E0842B952B199957
:1015100003C020E030E202C020E030E0822B932BB9
:10152000189903C020E030E402C020E030E0822BB4
:10153000932B288139812817390741F199838883B2
:1015400080910001882301F18091C30180FF04C0D4
:1015500081E792E00E9492088091C30180FF0CC055
:10156000809100011F928F93FF92EF920E942B09AE
:101570000F900F900F900F908091C30180FF04C0D7
:101580008AE692E00E949208C09200010E94A60999
:10159000D394229695E0D91210CF80910001882330
:1015A000C1F0815080930001882339F0AFE9BFE09A
:1015B0001197F1F700C000000CC0E2E4F1E0D8019F
:1015C0008D919D918D0181939193B1E002341B0720
:1015D000B1F781E0DF91CF911F910F91FF90EF90D4
:1015E000DF90CF900895E82FF0E0EE0FFF1FEE5B45
:1015F000FE4F808191810895CF92DF92EF92FF920A
:101600000F931F93CF93DF9383E592E00E9492089C
:1016100082E4E82E81E0F82EC0E0D0E09EE4C92EFE
:1016200092E0D92E05E412E0DF93CF93DF92CF92C0
:101630000E942B098BE492E00E949208F7018191AD
:1016400091917F010E942F209F938F931F930F935F
:101650000E942B0983E492E00E94920821968DB7A4
:101660009EB708960FB6F8949EBF0FBE8DBFC530CB
:10167000D105D1F6DF91CF911F910F91FF90EF909F
:10168000DF90CF900895089580915E010895909124
:10169000DE01943009F04CC09091E9009F703091C8
:1016A000EC00232F217030FD20E8922B24E02093C2
:1016B000E9002091EB0020FF38C02091EE0027FFC9
:1016C00034C020914D01222321F02091E80025FF14
:1016D0002CC010924D0126E03091E80035FD15C078
:1016E0003091DE01343009F53091EB0035FD1DC03D
:1016F000215021F481E080934D0117C0EFE9FFE014
:101700003197F1F700C00000E7CF8093F10080919E
:10171000E80085FD05C08091E8008E778093E800A1
:101720009F709093E90080E008959F709093E90086
:101730008FEF0895CF93DF9300D01F92CDB7DEB720
:101740009C018091DE01843019F593E099833B83FD
:101750002A839093E9008FEF9091E800815095FDE6
:1017600006C095ED9A95F1F700008111F5CF8091B3
:10177000E80085FF0DC040E050E063E070E0CE017E
:1017800001960E94600E8091E8008E778093E800B9
:101790000F900F900F90DF91CF910895CF93DF932B
:1017A00000D01F92CDB7DEB72091DE01243021F5A5
:1017B00022E029839B838A8383E08093E9008FEF73
:1017C0009091E800815095FD06C095ED9A95F1F74E
:1017D00000008111F5CF8091E80085FF0DC040E049
:1017E00050E063E070E0CE0101960E94600E8091AF
:1017F000E8008E778093E8000F900F900F90DF91B4
:10180000CF9108952091DE012430F1F422E020935D
:10181000E9002FEF3091E800215035FD06C035ED8D
:101820003A95F1F700002111F5CF2091E80025FF4E
:101830000BC040E050E065E070E00E94600E8091D7
:10184000E8008E778093E8000895CF93DF9320918E
:10185000DE01243009F044C0EC0180910C018823A2
:10186000C1F085E08093E9008FEF9091E80081500E
:1018700095FD06C095E19A95F1F700008111F5CF2D
:101880008091E80085FF2CC040E050E060E170E00E
:1018900017C081E08093E9008FEF9091E8008150BC
:1018A00095FD06C095ED9A95F1F700008111F5CFF1
:1018B0008091E80085FF14C040E050E068E070E0EF
:1018C000CE010E94600E8091E8008E778093E80040
:1018D00080E1FE01AEE4B1E001900D928A95E1F75E
:1018E000DF91CF91089581EB92E00E949208809160
:1018F000DD01811109C00E94F10F0E944E108091FC
:10190000E20084608093E20008958DEA92E00E94F4
:1019100092081092DD01089589EA92E00C949208F1
:1019200085EA92E00E9492080E9435090C943C2CB2
:1019300081EA92E00E9492080E947E200E94422C3E
:101940000E94E2120C94430B8091DE01843041F539
:101950008091E9008F702091EC00922F917020FD12
:1019600090E8892B94E09093E9009091EB0090FF30
:1019700014C09091EE0097FF10C09091E80095FF81
:1019800003C01092F100F9CF9091E80090FF05C0DC
:101990009091E8009E779093E8008F708093E90023
:1019A000089542E061EC81E00E946A0F42E061EC40
:1019B00082E00E946A0F42E061EC83E00E946A0FBD
:1019C00046E261EC84E00E946A0F42E161EC85E04E
:1019D0000C946A0F8091E001833009F455C030F413
:1019E000813071F0823009F495C008958A3009F48D
:1019F00081C08B3009F460C0893009F0A3C020C0D9
:101A00008091DF01813A09F09DC08091E800877FD5
:101A10008093E8008091E3019091E401892B21F407
:101A200060E18EE491E003C060E080E090E070E06F
:101A30000E94AB0E8091E8008B778093E8000895B8
:101A40008091DF01813209F07DC08091E3019091A6
:101A5000E401009719F0049709F074C08091E80040
:101A6000877F8093E8008091E80082FD05C0809127
:101A7000DE018111F8CF66C08091F10080935E0194
:101A80008091E8008B775AC08091DF01813A09F09C
:101A900059C08091E3019091E401892B09F052C073
:101AA0008091E800877F8093E8008091E80080FFC4
:101AB000FCCF80910B013DC08091DF01813209F0A4
:101AC00041C08091E3019091E401892BD9F5809187
:101AD000E800877F8093E8000E949F0F9091E101CA
:101AE00081E0911101C080E080930B0180930C0193
:101AF0000C944D188091DF01813221F58091E8002E
:101B0000877F8093E8000E949F0F8091E20180937D
:101B10004C0108958091DF01813AA1F48091E800A1
:101B2000877F8093E8008091E80080FFFCCF809160
:101B30004C018093F1008091E8008E778093E8005B
:101B40000C949F0F089584B7877F84BF0FB6F894D5
:101B5000A895809160008861809360001092600079
:101B60000FBE90E080E80FB6F894809361009093E8
:101B700061000FBE0E94F10F0E944E108091E200A2
:101B800084608093E20087E49BE00E94C81F789401
:101B90008091DE018430E1F780E992E00E949208B2
:101BA0000E946E1381E091E00E94D8120E942A2CBC
:101BB0008FE792E00E9492088091DE01853089F4DF
:101BC0008BE792E00E9492080E9442208091DC0103
:101BD000882391F30E946920882371F30E944A0EA2
:101BE000EBCF0E949C13E8CF292F332723303105F8
:101BF000C9F060F42130310581F02230310509F05F
:101C000041C08DE890E029EE32E040C0213231053C
:101C1000E1F02232310531F135C082E190E026E772
:101C200033E034C099278130910549F028F00297BC
:101C300049F5E5EBF2E005C0E5EEF2E002C0E3ECC9
:101C4000F2E0849190E09F0121C06530D8F4E62F46
:101C5000F0E0EE0FFF1FEC5DFE4F2081318189E047
:101C600090E014C0653070F470E0FB01EE0FFF1FD0
:101C7000E65EFE4F20813181FB01EB5EFE4F8081ED
:101C800090E004C080E090E020E030E0FA01318391
:101C90002083089580E189BD82E189BD09B400FEF9
:101CA000FDCF8091D8008F7D8093D8008091E00097
:101CB00082608093E0008091E00081FDFCCF089578
:101CC000CF92DF92EF92FF920F931F93CF93DF9308
:101CD000EC018B017A010E94BE0F811133C0E11427
:101CE000F10439F0F70180819181081B190BC80FAD
:101CF000D91FC12CD12C0115110519F18091E800D3
:101D000085FD16C08091E8008E778093E800E1148D
:101D1000F10449F0F70180819181C80ED91ED1826A
:101D2000C08285E00FC00E94BE0F882321F30AC045
:101D300089918093F10001501109FFEFCF1ADF0A5A
:101D4000DACF80E0DF91CF911F910F91FF90EF905C
:101D5000DF90CF9008952091E5013091E60126179C
:101D6000370748F06115710539F42091E8002E77A6
:101D70002093E80001C0B901FC0120E06115710564
:101D800079F18091DE018823F1F18530F1F18091C4
:101D9000E80083FD3CC08091E80082FD2EC0809168
:101DA000E80080FFEBCF2091F3008091F20090E0FB
:101DB000922B6115710551F08830910538F421910D
:101DC0002093F100615071090196F3CF21E008974B
:101DD00009F020E08091E8008E778093E800CECF74
:101DE0002111CFCF0AC08091DE01882361F08530B8
:101DF00061F08091E80083FD0AC08091E80082FFD5
:101E0000F2CF80E0089582E0089583E0089581E0B4
:101E100008952091E5013091E6012617370748F033
:101E20006115710539F42091E8002E772093E800C0
:101E300001C0B901FC0120E06115710591F18091AB
:101E4000DE01882309F440C0853009F43FC0809149
:101E5000E80083FD3DC08091E80082FD2FC08091A5
:101E6000E80080FFE9CF2091F3008091F20090E03C
:101E7000922B6115710559F08830910540F4249139
:101E80002093F1003196615071090196F2CF21E063
:101E9000089709F020E08091E8008E778093E800B1
:101EA000CBCF2111CCCF0AC08091DE01882361F015
:101EB000853061F08091E80083FD0AC08091E800E0
:101EC00082FFF2CF80E0089582E0089583E00895D4
:101ED00081E00895982F973068F59093E90098175E
:101EE00039F07091EC002091ED005091F00003C0AA
:101EF000242F762F50E021FD02C09F5FECCF309160
:101F0000EB003E7F3093EB003091ED003D7F30934E
:101F1000ED003091EB0031603093EB007093EC00FA
:101F20002093ED005093F0002091EE0027FDE5CFC7
:101F300080E008958F708093E90081E0089580919A
:101F4000DF0187FF11C08091E80082FD05C080910C
:101F5000DE018111F8CF11C08091E8008B770BC0B2
:101F60008091DE01882349F08091E80080FFF8CF5E
:101F70008091E8008E778093E80008952091E40036
:101F80003091E50095E64091EC00842F817040FF90
:101F900023C08091E80080FD1DC08091DE01882370
:101FA00099F0853099F08091EB0085FD11C040914A
:101FB000E4005091E5002417350729F3915011F002
:101FC0009A01E1CF84E0089582E0089583E00895C6
:101FD00081E0089580E008954091E80042FFDDCF60
:101FE00008950E945F100E946710E0EEF0E080818B
:101FF00081608083E8EDF0E080818F77808319BC79
:10200000A7EDB0E08C918E7F8C9380818F7E808352
:102010001092DD0108950F931F93CF93DF930E94D9
:102020005F100E946710C8EDD0E088818F778883A9
:1020300088818068888388818F7D888319BC10920D
:10204000DE011092DA011092DC011092DB0100EE49
:1020500010E0F80180818B7F808388818160888394
:1020600042E060E080E00E946A0FE1EEF0E08081F3
:102070008E7F8083E2EEF0E08081816080838081CA
:1020800088608083F80180818E7F80838881806171
:102090008883DF91CF911F910F910895E8EDF0E0D3
:1020A00080818F7E8083E7EDF0E080818160808396
:1020B00084E082BF81E08093DD010C940B10E8ED99
:1020C000F0E080818E7F80831092E200089510926C
:1020D000DA001092E10008951F920F920FB60F924E
:1020E00011242F933F934F935F936F937F938F931D
:1020F0009F93AF93BF93EF93FF938091E10082FF93
:102100000BC08091E20082FF07C08091E1008B7FCD
:102110008093E1000E94A40C8091DA0080FF1FC030
:102120008091D80080FF1BC08091DA008E7F809361
:10213000DA008091D90080FF0DC080E189BD82E185
:1021400089BD09B400FEFDCF81E08093DE010E94CD
:10215000730C05C019BC1092DE010E94850C8091A1
:10216000E10080FF19C08091E20080FF15C08091DE
:10217000E2008E7F8093E2008091E2008061809394
:10218000E2008091D80080628093D80019BC85E07D
:102190008093DE010E94900C8091E10084FF30C0AA
:1021A0008091E20084FF2CC080E189BD82E189BD7D
:1021B00009B400FEFDCF8091D8008F7D8093D800B8
:1021C0008091E1008F7E8093E1008091E2008F7E1C
:1021D0008093E2008091E20081608093E200809130
:1021E000DA01882311F084E007C08091E30087FDC5
:1021F00002C081E001C083E08093DE010E94980C60
:102200008091E10083FF29C08091E20083FF25C017
:102210008091E100877F8093E10082E08093DE017E
:102220001092DA018091E1008E7F8093E10080912D
:10223000E2008E7F8093E2008091E20080618093D3
:10224000E20042E060E080E00E946A0F8091F000CE
:1022500088608093F0000E948C0CFF91EF91BF91F9
:10226000AF919F918F917F916F915F914F913F912E
:102270002F910F900FBE0F901F9018951F920F92E5
:102280000FB60F9211242F933F934F935F936F9349
:102290007F938F939F93AF93BF93CF93DF93EF93EE
:1022A000FF93C091E900CF708091EC00D82FD170DE
:1022B00080FDD0E81092E9008091F000877F809344
:1022C000F00078940E9482111092E9008091F00051
:1022D00088608093F000CD2BCF70C093E900FF9110
:1022E000EF91DF91CF91BF91AF919F918F917F91AE
:1022F0006F915F914F913F912F910F900FBE0F9073
:102300001F9018951F93CF93DF93CDB7DEB7AA9791
:102310000FB6F894DEBF0FBECDBFEFEDF1E08091B8
:10232000F100819321E0E73EF207C9F70E94EA0C31
:102330008091E80083FF24C18091DF019091E0014A
:10234000492F50E04A30510508F01AC1FA01EA5A03
:10235000FF4F0C94D32D803881F0823809F010C1E2
:102360008091E3018F708093E9008091EB0085FB01
:10237000882780F91092E90006C08091DB019091D6
:10238000DC01911182609091E800977F9093E800C2
:102390008093F1001092F100C8C0282F2D7F09F022
:1023A000EFC0882319F0823061F0EAC08091E1012A
:1023B000813009F0E5C0933009F080E08093DC01C2
:1023C0002BC08091E101811127C08091E3018F70C2
:1023D00009F4D6C08093E9002091EB0020FF1CC0D7
:1023E000933021F48091EB00806214C09091EB0057
:1023F00090619093EB0021E030E0A90102C0440F0E
:10240000551F8A95E2F74093EA001092EA00809106
:10241000EB0088608093EB001092E9008091E80067
:10242000877F86C08111ACC01091E1011F77809138
:10243000E3008078812B8093E3008091E800877F20
:102440008093E8000E949F0F8091E80080FFFCCFFE
:102450008091E30080688093E300111102C082E064
:1024600001C083E08093DE018BC08058823008F089
:1024700087C08091E1019091E2018C3D53E0950786
:1024800079F583E08A838AE289834FB7F894DE0185
:10249000139620E03EE051E2E32FF0E05093570026
:1024A000E49120FF03C0E295EF703F5FEF708E2F45
:1024B00090E0EA3010F0C79601C0C0968D939D93CE
:1024C0002F5F243149F74FBF8091E800877F8093C9
:1024D000E8006AE270E0CE0101960E94AB0E14C0E3
:1024E000AE014F5F5F4F6091E3010E94F40DBC01AC
:1024F000892B09F445C09091E800977F9093E800FC
:1025000089819A810E94090F8091E8008B778093DE
:10251000E80036C08038A1F58091E800877F80937D
:10252000E8008091DA018093F1008091E8008E77D5
:102530008093E8000E949F0F23C0811121C08091E9
:10254000E1019091E20199270297D4F48091E8008B
:10255000877F8093E8008091E1018093DA010E94F7
:102560009F0F8091DA01811106C08091E30087FD01
:1025700002C081E001C084E08093DE010E94D10CA2
:102580008091E80083FF0AC08091E800877F8093F4
:10259000E8008091EB0080628093EB00AA960FB672
:1025A000F894DEBF0FBECDBFDF91CF911F9108958C
:1025B00090936401809363010895809163019091E9
:1025C00064010895E0916301F0916401309721F076
:1025D0000190F081E02D099480E00895EF92FF9240
:1025E0000F931F93CF93DF93E0916301F091640108
:1025F0003097B1F18C010280F381E02D0995809133
:10260000C30182FF2DC080FF04C08BEA94E00E94CA
:102610009208E80110E185EAE82E84E0F82E809126
:10262000C30180FF0BC088811F928F93FF92EF92AE
:102630000E942B090F900F900F900F901150219630
:102640001111EDCF8091C30180FF0AC083EA94E0AD
:10265000DF91CF911F910F91FF90EF900C94920812
:10266000DF91CF911F910F91FF90EF900895E0912E
:102670006301F0916401309721F00480F581E02D31
:10268000099408952091610130916201281739075A
:1026900071F09093620180936101E0916301F09188
:1026A0006401309721F00680F781E02D09940895A8
:1026B00020915F01309160012817390771F09093E4
:1026C000600180935F01E0916301F09164013097B4
:1026D00021F00084F185E02D099408950E94802066
:1026E0000E94AD090C944E21CF93C82F8091C30155
:1026F00082FF1EC080FF04C084EC94E00E94920818
:102700008091C30180FF0CC01F92CF938FEB94E0A8
:102710009F938F930E942B090F900F900F900F9013
:102720008091C30180FF04C08DEB94E00E94920869
:102730008C2FCF910C94430B5F926F927F928F926C
:102740009F92AF92BF92CF92DF92EF92FF920F9340
:102750001F93CF93DF93CDB7DEB72A970FB6F894C8
:10276000DEBF0FBECDBF0E94CB0996E6692E91E079
:10277000792E00E010E088248394912C502E802F35
:102780000E94F30A6C01F301A190B1903F01A826C9
:10279000B926A114B104B1F40F5F1F4F0530110524
:1027A00069F78FEF89838A831B820E948920816069
:1027B000782F9D838C8349815A816B818D810E9402
:1027C000541439C08091C30181FD0E94FC0A80E04D
:1027D00090E07401082E02C0EE0CFF1C0A94E2F790
:1027E00095012E213F21232B09F18E835F82CE207C
:1027F000DF2081E0CD2809F480E088870E948920CD
:102800008160782F9A8789874E815F8168858A8564
:102810000E945414000F111FF801EA59FE4F8081E5
:102820009181E826F926F182E08205C001968F3079
:10283000910579F6B1CF0E94BF240E94E2129091D7
:1028400065018917D9F00E94E212809365012A96EA
:102850000FB6F894DEBF0FBECDBFDF91CF911F91B1
:102860000F91FF90EF90DF90CF90BF90AF909F902F
:102870008F907F906F905F900C9474132A960FB690
:10288000F894DEBF0FBECDBFDF91CF911F910F91A6
:10289000FF90EF90DF90CF90BF90AF909F908F9080
:1028A0007F906F905F900895CF93DF93CDB7DEB7A1
:1028B0002B970FB6F894DEBF0FBECDBF4F8358875E
:1028C00069877A878B87DE01119686E0FD01119278
:1028D0008A95E9F785E0FE01379601900D928A9579
:1028E000E1F749815A816B817C818D819E810E94B3
:1028F000061B2B960FB6F894DEBF0FBECDBFDF913F
:10290000CF910895CF93882309F499C0C82F8CEFF5
:102910008C0F813A48F48C2F0E94B72A81118FC006
:102920008C2F0E94AA1D0CC080E28C0F883058F4B6
:10293000C77081E001C0880FCA95EAF70E94471E60
:10294000CF910C947E1E8BE58C0F833078F4C53AC2
:1029500029F0C63A31F083E890E005C081E890E0C4
:1029600002C082E890E0CF910C94421388E58C0F6E
:10297000833108F064C0C83A39F1C93A41F1CA3A22
:1029800049F1CB3A51F1CC3A59F1CD3A61F1C03B22
:1029900069F1CE3A71F1CF3A79F1C13B81F1C23B95
:1029A00089F1C33B91F1C43B99F1C53BA1F1C63B11
:1029B000A9F1C73BB1F1C83BB9F1C93BC1F1CA3B71
:1029C000C9F180E090E038C082EE90E035C089EE39
:1029D00090E032C08AEE90E02FC085EB90E02CC0F2
:1029E00086EB90E029C087EB90E026C08CEC90E06D
:1029F00023C08DEC90E020C083E891E01DC08AE800
:102A000091E01AC082E991E017C084E991E014C016
:102A100081E292E011C083E292E00EC084E292E093
:102A20000BC085E292E008C086E292E005C087E232
:102A300092E002C08AE292E0CF910C945813CF91B9
:102A40000895882329F19CEF980F913A18F40E9479
:102A5000F61D0DC090E2980F983058F4877091E001
:102A600001C0990F8A95EAF7892F0E944D1E0C9498
:102A70007E1E9BE5980F933020F480E090E00C944C
:102A80004213885A833120F480E090E00C9458136C
:102A90000895882321F00E94471E0C947E1E0895FD
:102AA000882321F00E944D1E0C947E1E0895CF9223
:102AB000DF92EF92FF920F931F93CF93DF9300D09B
:102AC00000D01F92CDB7DEB76C0185E0F601DE01C4
:102AD000119601900D928A95E1F7F601208181818E
:102AE00043815481452B31F08F3F31F491E02F3FEA
:102AF00019F403C091E001C090E090FDAEC2F60170
:102B0000F280E580E2949FE0E92229838A8389812B
:102B10009A810E94691D8C010E94681D0E942F1CD1
:102B2000E12FE295EF708E2F90E0FC01E05AFF4F0D
:102B30000C94D32D812F807F1F70882311F0129564
:102B4000107FFF2049F0112309F43CC2812F0E941D
:102B5000571E0E947E1E36C2802F0E94211511230F
:102B600009F47BC2812F0E945D1E0F900F900F9081
:102B70000F900F90DF91CF911F910F91FF90EF90E9
:102B8000DF90CF900C947E1E812F807F1F7080324B
:102B900011F01295107F002319F0013009F13BC0AC
:102BA000FF20A9F0EE2011F1F1E0812FEF121FC0FC
:102BB0000F900F900F900F900F90DF91CF911F917A
:102BC0000F91FF90EF90DF90CF900C94671EEE2056
:102BD00021F081E0E81609F440C20E946A1E28C074
:102BE000FF20A1F0E2E0EE1508F437C2812F0F902C
:102BF0000F900F900F900F90DF91CF911F910F9139
:102C0000FF90EF90DF90CF900C944915F1E0FE1506
:102C100008F423C20DC0FF2049F0EE2039F3F6017D
:102C2000858180FFCFC18F708583E0CFE110DDC14A
:102C3000812F50C1812F86958695837019F0813040
:102C4000B9F00BC2FF2019F0C801937002C080E0F8
:102C500090E00F900F900F900F900F90DF91CF9119
:102C60001F910F91FF90EF90DF90CF900C94421343
:102C7000FF2019F0C801937002C080E090E00F902F
:102C80000F900F900F900F90DF91CF911F910F91A8
:102C9000FF90EF90DF90CF900C945813802FFF207F
:102CA00019F00E94452302C00E94AD230F900F909F
:102CB0000F900F900F90DF91CF911F910F91FF9088
:102CC000EF90DF90CF900C943224812F837009F025
:102CD00070C0F110C2C1202F229526952770220FB7
:102CE000220F602F6F70862F90E0A0E0B0E06C01A3
:102CF0007D01022E04C0CC0CDD1CEE1CFF1C0A94CE
:102D0000D2F704FF12C08FE090E0A0E0B0E004C072
:102D1000880F991FAA1FBB1F2A95D2F7BC01CD01AE
:102D2000609570958095909503C060E070E0CB0150
:102D30001695169513701230B1F040F56C297D2967
:102D40008E299F29113031F10F900F900F900F9025
:102D50000F90DF91CF911F910F91FF90EF90DF9037
:102D6000CF900C94561C6C297D298E299F290F9099
:102D70000F900F900F900F90DF91CF911F910F91B7
:102D8000FF90EF90DF90CF900C94721C0E94561C25
:102D9000C701B6010F900F900F900F900F90DF9129
:102DA000CF911F910F91FF90EF90DF90CF900C94F7
:102DB0003A1CFF2019F0812F817001C0869588236D
:102DC00009F44BC1202F229526952770220F220F40
:102DD000602F6F70862F90E0A0E0B0E06C017D0165
:102DE000022E04C0CC0CDD1CEE1CFF1C0A94D2F792
:102DF00004FF12C08FE090E0A0E0B0E004C0880FB4
:102E0000991FAA1FBB1F2A95D2F7BC01CD0160955F
:102E100070958095909503C060E070E0CB011695A9
:102E2000169513701230B1F040F56C297D298E296A
:102E30009F29113031F10F900F900F900F900F904C
:102E4000DF91CF911F910F91FF90EF90DF90CF9086
:102E50000C94301D6C297D298E299F290F900F908D
:102E60000F900F900F90DF91CF911F910F91FF90D6
:102E7000EF90DF90CF900C944C1D0E94301DC70145
:102E8000B6010F900F900F900F900F90DF91CF91A0
:102E90001F910F91FF90EF90DF90CF900C94141D35
:102EA000003F39F118F4003E48F487C0023F09F4AE
:102EB0004FC0D8F1033F09F45EC07FC00F70812F6F
:102EC0008F71FF2021F00E94AD1C802F90CE0E94B8
:102ED000CE1C802F0F900F900F900F900F90DF91CE
:102EE000CF911F910F91FF90EF90DF90CF900C94B6
:102EF0005015FF20A9F0F1E0FE1508F4AEC0812FB7
:102F00008F710F900F900F900F900F90DF91CF91D6
:102F10001F910F91FF90EF90DF90CF900C94F31CD6
:102F200082E08E1508F499C0EACFFF2099F0812F36
:102F30008F710F900F900F900F900F90DF91CF91A6
:102F40001F910F91FF90EF90DF90CF900C94AD1CEC
:102F5000FF2069F3812F8F710F900F900F900F90CA
:102F60000F90DF91CF911F910F91FF90EF90DF9025
:102F7000CF900C94CE1CFF2089F0812F8F710F9081
:102F80000F900F900F900F90DF91CF911F910F91A5
:102F9000FF90EF90DF90CF900C94981C0F900F90C3
:102FA0000F900F900F90DF91CF911F910F91FF9095
:102FB000EF90DF90CF900C948E1CFF2099F0EE20C4
:102FC00009F4B5CF802F0F900F900F900F900F90B6
:102FD000DF91CF911F910F91FF90EF90DF90CF90F5
:102FE0000C948214EE2009F4B5CF802F0F900F902F
:102FF0000F900F900F90DF91CF911F910F91FF9045
:10300000EF90DF90CF900C942115412F4F70602FDF
:10301000C6010E94C51F0F900F900F900F900F9048
:10302000DF91CF911F910F91FF90EF90DF90CF90A4
:103030000C94B41B412F4F70602FC6010F900F905E
:103040000F900F900F90DF91CF911F910F91FF90F4
:10305000EF90DF90CF900C9466090F900F900F9037
:103060000F900F90DF91CF911F910F91FF90EF90F4
:10307000DF90CF9008950E94641E0E94361E0E9429
:103080007E1E0E9464250E94322480E090E00E940F
:10309000421380E090E00C9458130E94541E0C944C
:1030A0003B180E94691D292F22952F702C3030F477
:1030B0002A3048F42250223078F405C02C3041F0F8
:1030C0002F3031F009C0803E48F0803F29F406C01F
:1030D00093FB882780F9089580E0089581E00895A2
:1030E000CF93DF9300D000D01F92CDB7DEB70F9003
:1030F0000F900F900F900F90DF91CF910895CF9385
:10310000DF9300D000D000D0CDB7DEB726960FB643
:10311000F894DEBF0FBECDBFDF91CF9108951F930E
:10312000CF93DF93C091700116E080917101C817B1
:1031300099F0D0E01C9FF0011D9FF00D1124EE5876
:10314000FE4F4081518162817381848195810E940B
:103150007F182196C770E9CFDF91CF911F91089515
:103160004091A2015091A3016091A4017091A50129
:103170008091A6019091A7010C947F18CF93809124
:10318000A70182958F7009F05FC08091A401882308
:1031900009F45AC080917001B09171017091A2013F
:1031A000A091A3014091A5015091A60191E07F3F1C
:1031B00009F090E0692FC6E08B1709F445C041156E
:1031C000510521F0AF3F21F020E003C021E001C014
:1031D000262F90E020FD35C0C89FF001C99FF00D5B
:1031E0001124EE58FE4F21812A132BC02081271372
:1031F00028C02281211125C023813481241735075D
:1032000010F421503109241B350B26393105C8F43F
:103210002091A7012F7020612093A70126E0289F0D
:10322000F001299FF00D1124E958FE4F80818F7025
:103230008061808382EA91E00E945715CF910C94BF
:103240008F1801968770B8CFCF910895AF92BF9233
:10325000CF92DF92EF92FF920F931F93CF93DF9362
:10326000CDB7DEB761970FB6F894DEBF0FBECDBF06
:103270008C0185E0F801DE011D9601900D928A9582
:10328000E1F7D8014C9111965C9111971296EC9050
:103290003091A2016091A3018091A5019091A601B6
:1032A000009731F06F3F31F421E03F3F19F403C044
:1032B00021E001C020E0B22FB170BB2E20FD64C11F
:1032C000F801C380D480A090A401AA2009F4C3C04F
:1032D0002091A701C816D90628F0D601A81BB90B62
:1032E000CD0104C0809590958C0D9D1DFF24F39415
:1032F0008639910580F0F12C207F09F09CC07C2D4F
:10330000D98AC88A6E2D89890E94701882EA91E054
:103310000E945715B4C0822F807F09F054C0561305
:1033200014C0431312C0FE2CE1100FC02F70206197
:103330002093A7010E94B01882EA91E00E945715DD
:103340008091A701F80185834FC1CD2831F05F3FFF
:1033500031F481E04F3F19F403C081E001C080E007
:1033600080FD03C081E08E2502C080E090E0F82F50
:10337000F170FF2E80FF1CC08091700120917101BF
:1033800036E0821709F40DC190E0389FF001399FB3
:10339000F00D1124EE58FE4F6181561306C0608176
:1033A000461303C06281E61203C001968770E9CF1D
:1033B000FE2CEE2009F418C18091A7018160809352
:1033C000A701F12C11C1561309C0431307C0E11026
:1033D00005C08091A701F8018583B0C04D875E8745
:1033E0008D859E850E945118882379F1EE2069F120
:1033F0002091A701822F82958F7090E0029774F040
:103400008091A2019091A30198878F831986DB8612
:10341000CA862C87CE0107960E94571586E0F801D0
:10342000A2EAB1E001900D928A95E1F70E94BE18E0
:103430000E94B0180DC0561761F14D875E878D85CB
:103440009E850E945118811138C0C8010E945715ED
:10345000FF24F394C9C0C816D90608F446C0F60183
:10346000E81BF90BCF018639910508F443C0F12C14
:103470007C2DD98AC88A6E2D89890E947018E2EA4B
:10348000F1E086E0DF011D928A95E9F70E94B0180D
:10349000ABC04313D2CFE110D0CF8091A701F80188
:1034A0008583C8010E94571586E0E2EAF1E0DF015A
:1034B0001D928A95E9F7FA2C97C0EE2031F22091FF
:1034C000A701822F82958F7090E002970CF4A6CF0F
:1034D0008091A2019091A3019A8389831B82DD824E
:1034E000CC822E83CE01019697CF809590958C0D3E
:1034F0009D1DB9CFFE2CEE2009F4A7CF561333C083
:10350000431331C02091A70120FD24C0822F829552
:103510008F70482F50E041155105E1F0D801159604
:103520002C9315974F30510549F08F5F982F929546
:10353000907F822F8F70892B15968C93C8010E94E3
:10354000571586E0F801A2EAB1E001900D928A9544
:10355000E1F79CCF86E0F801A2EAB1E001900D927C
:103560008A95E1F741C04D875E878D859E850E94D3
:103570005118811153CF8091A70181608093A701D9
:10358000C8010E94571530C0EE2009F45ECF4D8768
:103590005E878D859E850E945118882309F455CF3A
:1035A0003DCF4D875E878D859E850E94691D292FA1
:1035B00022952F70223028F49F7039F0811105C0B8
:1035C0000BC0243028F49F7049F4805E883020F0CE
:1035D000C8010E945715BF2CFB2C06C0D8011596B8
:1035E0009C91907F91F7F8CF8F2D61960FB6F8944C
:1035F000DEBF0FBECDBFDF91CF911F910F91FF9026
:10360000EF90DF90CF90BF90AF9008951F93CF932E
:10361000DF93CDB7DEB72C970FB6F894DEBF0FBEA1
:10362000CDBF4F83588769877A878B879C87CE0168
:1036300007960E9426198823D1F09F8188852A85C4
:103640003B85232B31F08F3F31F481E09F3F19F40C
:1036500003C081E001C080E080FD47C04F815885F4
:1036600069857A858B859C850E947F183EC086E09F
:10367000FE013796DE01119601900D928A95E1F7D1
:10368000FF81E8856A857B856115710531F0EF3F23
:1036900031F481E0FF3F19F403C081E001C080E014
:1036A00080FD23C02091710130E0C901019687702F
:1036B00099274091700150E084179507F1F1F98343
:1036C000EA837D836C8396E0929FD001939FB00D37
:1036D0001124AE58BE4FFE01319601900D929A957D
:1036E000E1F7809371010E948F1816E080917001BC
:1036F00090917101891771F1189FC00111248E58A2
:103700009E4F0E942619882329F1E09170011E9F87
:10371000F0011124EE58FE4F408151816281738186
:10372000848195810E947F188091700190E00196BC
:103730008770992780937001D9CF0E944D181092FD
:10374000710110927001E2EAF1E086E0DF011D9262
:103750008A95E9F72C960FB6F894DEBF0FBECDBF61
:10376000DF91CF911F910895EF92FF920F931F93D6
:10377000CF93DF938C01892B09F46AC0F12CEE24DE
:10378000E394E8012196F8018491843740F4843071
:1037900008F04FC0813081F0823019F159C085376F
:1037A00009F442C098F19CE7980F903708F050C098
:1037B0008F770E9421153FC00E5F1F4FFE0184913D
:1037C00090E2980F983050F48770FE2D01C0FF0FE3
:1037D0008A95EAF78F2F0E94571E2EC00E948214EE
:1037E0002BC00E5F1F4FFE01849190E2980F98301E
:1037F00050F48770FE2D01C0FF0F8A95EAF78F2FD6
:103800000E945D1E19C00E94211516C00E5F1F4F39
:10381000FE01C491CC2381F08FE99FE00197F1F77D
:1038200000C00000C150F6CF0E5F1F4FFE01F490A4
:1038300003C00E9482148E018F2D882309F4A1CF2A
:10384000EFE9FFE03197F1F700C000008150F5CFBC
:10385000DF91CF911F910F91FF90EF900895089500
:103860006093AC017093AD018093AE019093AF0172
:103870000C943B180F931F930091AC011091AD0174
:103880002091AE013091AF01DC01CB01802B912B57
:10389000A22BB32B8093AC019093AD01A093AE010A
:1038A000B093AF011F910F910C943B180F931F938E
:1038B0000091AC011091AD012091AE013091AF01AA
:1038C000DC01CB0180239123A223B3238093AC019D
:1038D0009093AD01A093AE01B093AF011F910F91F2
:1038E0000C943B180F931F930091AC011091AD0104
:1038F0002091AE013091AF01DC01CB0180279127EF
:10390000A227B3278093AC019093AD01A093AE01A1
:10391000B093AF011F910F910C943B181092A80126
:103920001092A9011092AA011092AB010C943B18BD
:1039300041E050E060E070E004C0440F551F661F96
:10394000771F8A95D2F74093A8015093A9016093FD
:10395000AA017093AB010C943B1841E050E060E089
:1039600070E004C0440F551F661F771F8A95D2F779
:103970008091A8019091A901A091AA01B091AB01F9
:10398000482B592B6A2B7B2B4093A8015093A901FC
:103990006093AA017093AB010C943B1841E050E096
:1039A00060E070E004C0440F551F661F771F8A95C2
:1039B000D2F740955095609570958091A8019091AF
:1039C000A901A091AA01B091AB01482359236A2310
:1039D0007B234093A8015093A9016093AA0170939F
:1039E000AB010C943B1841E050E060E070E004C093
:1039F000440F551F661F771F8A95D2F78091A80143
:103A00009091A901A091AA01B091AB014827592733
:103A10006A277B274093A8015093A9016093AA01CC
:103A20007093AB010C943B180F931F930091A80166
:103A30001091A9012091AA013091AB01DC01CB01C9
:103A4000802B912BA22BB32B8093A8019093A901DB
:103A5000A093AA01B093AB011F910F910C943B1856
:103A60000F931F930091A8011091A9012091AA0121
:103A70003091AB01DC01CB0180239123A223B3233E
:103A80008093A8019093A901A093AA01B093AB01E0
:103A90001F910F910C943B180F931F930091A80155
:103AA0001091A9012091AA013091AB01DC01CB0159
:103AB00080279127A227B3278093A8019093A9017B
:103AC000A093AA01B093AB011F910F910C943B18E6
:103AD0000895CF92DF92EF92FF920F931F93CF93AF
:103AE000DF938C01C090A801D090A901E090AA01B9
:103AF000F090AB018091AC019091AD01A091AE012D
:103B0000B091AF01C82AD92AEA2AFB2ACFE1D0E036
:103B1000D701C6010C2E04C0B695A7959795879539
:103B20000A94D2F780FF07C0B8018C2F0E94521F61
:103B30008130910531F4219758F7B80180E00E9457
:103B4000521FDF91CF911F910F91FF90EF90DF9067
:103B5000CF90089590910C01992359F1982F969543
:103B6000969596959F30A0F4E0910D01F0910E018D
:103B7000E90FF11D877021E030E0A90102C0440F78
:103B8000551F8A95E2F7CA019181892B8183089597
:103B90009091C30190FF29C01F928F9385EF94E00D
:103BA0009F938F930E942B090F900F900F900F906F
:103BB000089520910D0130910E01F90132969FEF89
:103BC00040E05191851789F09F3F19F4511101C0D0
:103BD000942F4F5F4E30A9F79F3F39F0F901E90F5D
:103BE000F11D97FDFA9582830895089590910C0137
:103BF000992361F1982F9695969596959F30A8F404
:103C0000E0910D01F0910E01E90FF11D877021E0A7
:103C100030E0A90102C0440F551F8A95E2F7CA019E
:103C2000809591818923818308959091C30190FFAC
:103C30001CC01F928F9387ED94E09F938F930E94F7
:103C40002B090F900F900F900F900895E0910D01A8
:103C5000F0910E019F01225F3F4F9281891301C0B5
:103C600012823196E217F307C1F7089581E090E0E0
:103C7000E0910D01F0910E01E80FF91F10820196FD
:103C800080319105A9F708958091C201089590911E
:103C9000C201892B8093C201089580959091C20141
:103CA00089238093C20108951092C20108959091D2
:103CB000C101892B8093C101089580959091C10124
:103CC00089238093C10108951092C10108958093C2
:103CD000B00108951092B001089580910D01909166
:103CE0000E01FC0131969C01205F3F4F80E09191D5
:103CF00091118F5FE217F307D1F70895E0910D015D
:103D0000F0910E018091C2018083E0910D01F0914C
:103D10000E0190818091C101892B80838091B00137
:103D2000882361F0E0910D01F0910E019081892BC3
:103D300080830E946D1E81111092B00180910D014F
:103D400090910E010C94EE128D3B50F4883AE8F4F9
:103D5000853A90F4843070F4813009F45BC007C078
:103D6000803E28F0883E30F0803F08F050C080E070
:103D700090E0089590E00895853A09F44EC0863A9F
:103D800009F44EC083E890E40895883A09F44BC0E2
:103D9000893A09F44BC08A3A09F44BC08B3A09F4CA
:103DA0004BC08C3A09F44BC08B3B09F44BC08C3BA5
:103DB00009F44BC08D3A09F44BC0803B09F44BC069
:103DC0008E3A09F44BC08F3A09F44BC0813B09F499
:103DD0004BC0823B09F44BC0833B09F44BC0843B8E
:103DE00009F44BC0853B09F44BC0863B09F44BC03A
:103DF000873B09F44BC0883B09F44BC0893B09F46D
:103E00004BC08A3B09F44BC080E094E4089590E0F5
:103E10009065089581E090E0089581E890E4089528
:103E200082E890E4089582EE94E4089589EE94E4A3
:103E300008958AEE94E4089585EB94E4089586EB62
:103E400094E4089583EB94E4089584EB94E4089556
:103E500087EB94E408958CEC94E408958DEC94E45D
:103E6000089583E895E408958AE895E4089582E941
:103E700095E4089584E995E4089581E296E408952F
:103E800083E296E4089584E296E4089585E296E458
:103E9000089586E296E4089587E296E408958AE21A
:103EA00096E408950E948D09803EA8F4803C00F5B8
:103EB000813309F45CC038F4893209F452C08A3283
:103EC00009F45BC05FC08933B1F08238A1F085335B
:103ED00009F441C057C0833E41F128F4803E99F077
:103EE000823EB9F04FC0863E31F1873E71F14AC043
:103EF0000E949D0908959091D90190FD02C091FF03
:103F000041C080EE3FC08091D90180FFFACF89E3A4
:103F100039C08091D90182FF0CC08091D90184FF02
:103F200002C080E02FC083EE2DC08091D90182FFB6
:103F3000F4CF82EE27C08091D90183FF0AC080911F
:103F4000D90184FDEECF87EE1DC08091D90183FF9A
:103F5000F6CF86EE17C08091D90185FF06C089E2B1
:103F600011C08091D90185FFFACF85E30BC0809104
:103F7000D90186FF06C08AE205C08091D90186FF7B
:103F8000FACF81E30E94A41E089580E090E0089596
:103F90009093C5018093C4010895CF92DF92EF9270
:103FA000FF926C01EE24FF24C114D104E104F1045A
:103FB00021F0C701B60120E101C020E0C72ED82EB4
:103FC000E92EFF24C114D104E104F10419F0285FA3
:103FD000C701B6016B017C0154E0F694E794D794D5
:103FE000C7945A95D1F7C114D104E104F10419F032
:103FF0002C5FC701B6016B017C0142E0F694E794A7
:10400000D794C7944A95D1F7C114D104E104F104BF
:1040100019F02E5FC701B601DC01CB01B695A7955B
:1040200097958795892B8A2B8B2B09F02F5F822FF1
:10403000FF90EF90DF90CF9008958295982F937323
:1040400044E0949F900111248C7C86958695282BC2
:10405000822F8575880F2A7A2695822B0895CF9313
:10406000DF93D92F0E941D20C82F8D2F0E941D2065
:104070002C2F30E0322F2227A901482BCA01DF91D3
:10408000CF9108958091DE01843011F120E488E120
:1040900090E00FB6F894A895809360000FBE20932F
:1040A000600083B7817F846083BF83B7816083BFF3
:1040B0007894889583B78E7F83BF0FB6F894A895C0
:1040C00080916000886180936000109260000FBE54
:1040D0000895CF930E9434090E94CB090E943509AC
:1040E000C0E08C2F0E94F30A892B29F4CF5FC530E2
:1040F000C1F780E001C081E0CF9108950C944D1884
:1041000082E084BD93E095BD9AEF97BD80936E00E9
:1041100008952FB7F8948091C6019091C701A0919E
:10412000C801B091C9012FBF0895CF92DF92EF92DD
:10413000FF920F931F932FB7F8944091C6015091AF
:10414000C7016091C8017091C9012FBF6A017B014D
:10415000EE24FF248C0120E030E0C016D106E206F8
:10416000F30610F4415051099A01281B390BC9017B
:104170001F910F91FF90EF90DF90CF9008951F92C5
:104180000F920FB60F9211248F939F93AF93BF930B
:104190008091C6019091C701A091C801B091C90159
:1041A0000196A11DB11D8093C6019093C701A093F4
:1041B000C801B093C901BF91AF919F918F910F90AA
:1041C0000FBE0F901F9018950E94F10FF8942FEFDB
:1041D00087EA91E6215080409040E1F700C000005E
:1041E00087E090EBDC018093E7019093E801A093D6
:1041F000E901B093EA019CE088E10FB6F894A89534
:10420000809360000FBE90936000FFCFCF92DF924B
:10421000EF92FF920F931F93CF93DF93D82FC0E0BD
:10422000EE24E394F12C8C2F0E94F30A6C0100E041
:1042300010E0C701002E02C0880F991F0A94E2F710
:104240008C219D21892B31F40F5F1F4F0F301105F9
:1042500081F709C0602F7C2F80E00E948D098D13AB
:10426000F3CF81E004C0CF5FC530E9F680E0DF9195
:10427000CF911F910F91FF90EF90DF90CF90089515
:10428000CF93C82F8CE20E940621882321F08C2F27
:10429000CF910C94062180E0CF910895CF930E9496
:1042A0009D22811102C00E9483228AE195E00E9432
:1042B0009208C5E6C15049F00E94CB098FE39CE902
:1042C0000197F1F700C00000F5CF83E195E00E946F
:1042D000920889E20E944021811113C18AE20E9462
:1042E000402181110E94832285E00E94402181119A
:1042F0000E94E4200E94A8228093C30187E00E94CC
:1043000040218823A9F18BE10E944021882351F0AC
:104310008091C30181FB222720F991E0922790FB35
:1043200081F90EC08EE00E944021882361F08091C7
:10433000C30182FB222720F991E0922790FB82F9AA
:104340008093C30115C080E10E9440219091C30178
:10435000882341F093FB222720F981E0822780FB0C
:1043600093F904C0892F809580FB90F99093C30145
:104370008091C3010E94AC220E94BA228093D9018D
:1043800080EE0E944021882341F08091D901982F2E
:10439000909590FB80F98093D90189E30E94402198
:1043A000882359F08091D90181FB222720F991E0DF
:1043B000922790FB81F98093D90182EE0E944021DF
:1043C000882359F08091D90182FB222720F991E0BE
:1043D000922790FB82F98093D90186EE0E944021BA
:1043E000882359F08091D90183FB222720F991E09D
:1043F000922790FB83F98093D90183EE0E9440219C
:10440000882359F08091D90184FB222720F991E07B
:10441000922790FB84F98093D90185E30E94402183
:10442000882359F08091D90185FB222720F991E05A
:10443000922790FB85F98093D90181E30E94402166
:10444000882359F08091D90186FB222720F991E039
:10445000922790FB86F98093D90181E10E94402147
:10446000882359F08091D90187FB222720F991E018
:10447000922790FB87F98093D9018091D9010E94FE
:10448000BE228091D90187FB882780F980930C0197
:1044900087E20E944021C82F8EE10E9440218111B5
:1044A000C2608FE10E9440218111C46080E20E94BD
:1044B00040218111C86081E20E9440218111C061C8
:1044C00082E20E9440218111C06283E20E94402169
:1044D0008111C06484E20E944021882311F0C068E9
:1044E00002C0CC2329F08C2F0E94B5226C2F03C070
:1044F0000E94B122682F70E080E090E0CF910C9490
:10450000301CCF9108956DEE7EEF80E090E00E9428
:10451000092E60E082E090E00E94FB2D60E083E0E5
:1045200090E00E94FB2D60E084E090E00E94FB2D73
:1045300060E085E090E00C94FB2D80E090E00E942C
:10454000F52D21E08D3E9E4F09F020E0822F089549
:1045500082E090E00C94ED2D682F82E090E00C94C6
:10456000FB2D83E090E00C94ED2D682F83E090E02C
:104570000C94FB2D84E090E00C94ED2D682F84E0EA
:1045800090E00C94FB2D8091CC0180FF0BC06091DA
:10459000120185E0689FB0011124759567957595A6
:1045A00067952BC081FF09C06091120185E0689F6B
:1045B000B00111247595679520C082FF07C06091F6
:1045C000120185E0689FB001112417C09091CD01C0
:1045D0009923D1F060911101961788F7209112016B
:1045E00085E0289F90011124929FA001939F500D78
:1045F000112470E0CA010E94BF2D6038710540F49B
:104600006115710519F406C065E070E0862F089504
:104610008FE7089581E008958091CC0180FF08C064
:104620006091100170E0759567957595679521C04B
:1046300081FF06C06091100170E07595679519C003
:1046400082FF04C06091100170E010C09091CD0114
:10465000992399F060910F019617A0F780911001AE
:10466000899FC001112470E00E94BF2D6038710540
:1046700040F46115710519F406C061E070E0862F01
:1046800008958FE7089581E00895803F21F40E9406
:10469000C322819504C0813F29F40E94C3228093E4
:1046A000D0010895823F21F40E94C322819504C065
:1046B000833F29F40E94C3228093CF010895893F4C
:1046C00019F40E940C2305C08A3F31F40E940C2388
:1046D00081958093D10108958B3F21F40E940C2392
:1046E000819504C08C3F29F40E940C238093D20151
:1046F0000895843F21F48091CE01816017C0853FE9
:1047000021F48091CE01826011C0863F21F4809116
:10471000CE0184600BC0873F21F48091CE01886078
:1047200005C0883F31F48091CE0180618093CE0135
:1047300008958D3F21F48091CC0181600BC08E3FA4
:1047400021F48091CC01826005C08F3F29F48091D3
:10475000CC0184608093CC010895803F39F480912E
:10476000D00187FF6CC01092D00169C0813F29F44D
:104770008091D0011816BCF362C09091CF01823FA6
:1047800029F497FF5CC01092CF0159C0833F19F400
:104790001916CCF354C0893F41F48091D101181609
:1047A0000CF04DC01092D1014AC08A3F29F480918B
:1047B000D10187FF44C0F6CF8B3F39F48091D201FD
:1047C00087FF3DC01092D2013AC08C3F29F48091FE
:1047D000D2011816BCF333C0843F21F48091CE017E
:1047E0008E7F17C0853F21F48091CE018D7F11C04F
:1047F000863F21F48091CE018B7F0BC0873F21F44F
:104800008091CE01877F05C0883F31F48091CE0131
:104810008F7E8093CE0113C08D3F21F48091CC0117
:104820008E7F0BC08E3F21F48091CC018D7F05C01F
:104830008F3F29F48091CC018B7F8093CC018091B4
:10484000CF0181110EC08091D00181110AC08091E9
:10485000D101811106C08091D201811102C0109254
:10486000CD0108958091C30183FF7EC086E595E068
:104870000E9492088091CE011F928F9381E595E06E
:104880009F938F930E942B098FE495E00E949208DA
:104890008091CF01282F082E000C330B3F938F936C
:1048A0008CE495E09F938F930E942B098AE495E016
:1048B0000E9492088091D001282F082E000C330B03
:1048C0003F938F9387E495E09F938F930E942B09EA
:1048D00085E495E00E9492088091D101282F082E4E
:1048E000000C330B3F938F9382E495E09F938F935B
:1048F0000E942B0980E495E00E9492088091D201E9
:10490000282F082E000C330B3F938F938DE395E0F7
:104910009F938F930E942B098AE395E00E9492084F
:104920008091CD011F928F9387E395E09F938F93A2
:104930000E942B0985E395E00E9492088091CC01AA
:104940001F928F9382E395E09F938F930E942B0990
:104950008FE295E00E9492088DB79EB74C960FB6F5
:10496000F8949EBF0FBE8DBF8EEC91E00E9437136E
:104970000E9489209093CB018093CA0108951F93D0
:10498000CF93DF938091CA019091CB010E94952033
:10499000AC019091CD01992321F02091130130E0D9
:1049A00006C0209114018AE0289F9001112442172B
:1049B000530708F485C08091CF01C091D001D091F8
:1049C000D1011091D201811107C0C11175C0D1115F
:1049D00073C0111171C074C09F3F19F09F5F909315
:1049E000CD01181624F40E94C3228093CF01809138
:1049F000CF0187FF05C00E94C32281958093CF011C
:104A00001C1624F40E94C3228093D0018091D0010F
:104A100087FF05C00E94C32281958093D0016091D9
:104A2000CF01662331F1C091D001CC2311F1062EC4
:104A3000000C770B880B990B0E94C62C23E333E301
:104A400043E35FE30E942A2D0E948E2C6093CF01E6
:104A50006C2FCC0F770B880B990B0E94C62C23E38D
:104A600033E343E35FE30E942A2D0E948E2C609380
:104A7000D0011D1624F40E940C238093D101809153
:104A8000D10187FF05C00E940C2381958093D1013D
:104A9000111624F40E940C238093D2018091D2013C
:104AA00087FF05C00E940C2381958093D201DF917E
:104AB000CF911F910C9432249F3F09F08FCFA0CF4C
:104AC000DF91CF911F910895EEECF1E085E0DF01D9
:104AD0001D928A95E9F71092CD011092CC010895AC
:104AE00085E29AE00E94920888E19AE00E9492088A
:104AF0008BE09AE00C94920888E899E00E94920872
:104B00008BE799E00E94920880E699E00E94920863
:104B100085E499E00E9492088DE299E00E94920853
:104B200083E199E00E94920885EF98E00E94920844
:104B300085ED98E00E94920880EC98E00E9492082F
:104B400089EA98E00E9492088CE898E00E94920816
:104B50008DE698E00E9492088DE498E00E94920809
:104B60008BE298E00E94920886EF97E00E949208FC
:104B700081EE97E00E9492081F9285E08F938EED60
:104B800097E09F938F930E942B0985ED97E00E94F9
:104B900092081F9281E08F9382ED97E09F938F930D
:104BA0000E942B0980ED97E00E9492088DB79EB776
:104BB00008960FB6F8949EBF0FBE8DBF83EA97E0AC
:104BC0000C949208833009F459C028F4813061F0C4
:104BD000823079F10895853009F49AC008F473C0E1
:104BE000863009F4BAC0089580911401262F30E070
:104BF000280F311D2F3F310524F4680F60931401F5
:104C000003C08FEF809314018FE796E00E94920813
:104C1000809114011F928F938CE796E09F938F935E
:104C20000E942B090F900F900F900F908AE796E04B
:104C3000B8C080911301262F30E0280F311D2F3F7F
:104C4000310524F4680F6093130103C08FEF809344
:104C500013018BE696E00E949208809113011F9247
:104C60008F9388E696E09F938F930E942B090F9075
:104C70000F900F900F9086E696E093C080911201FE
:104C8000262F30E0280F311D2F3F310524F4680F07
:104C90006093120103C08FEF8093120186E596E0C6
:104CA0000E949208809112011F928F9383E596E0F3
:104CB0009F938F930E942B090F900F900F900F904E
:104CC00081E596E06EC080911101262F30E0280F1B
:104CD000311D2F3F310524F4680F6093110103C08B
:104CE0008FEF809311018FE396E00E9492088091EC
:104CF00011011F928F938CE396E09F938F930E94F4
:104D00002B090F900F900F900F908AE396E049C007
:104D100080911001262F30E0280F311D2F3F3105E3
:104D200024F4680F6093100103C08FEF809310018B
:104D300084E296E00E949208809110011F928F9366
:104D400081E296E09F938F930E942B090F900F9022
:104D50000F900F908FE196E024C080910F01262FD5
:104D600030E0280F311D2F3F310524F4680F609388
:104D70000F0103C08FEF80930F0187E096E00E9440
:104D8000920880910F011F928F9384E096E09F9389
:104D90008F930E942B090F900F900F900F9082E03D
:104DA00096E00C949208833009F44DC028F48130C9
:104DB00061F0823049F10895853009F482C008F429
:104DC00061C0863009F49CC0089580911401681771
:104DD00020F4861B8093140102C01092140186EF08
:104DE00095E00E949208809114011F928F9383EFA7
:104DF00095E09F938F930E942B090F900F900F9037
:104E00000F9081EF95E09AC080911301681720F40C
:104E1000861B8093130102C01092130182EE95E06D
:104E20000E949208809113011F928F938FED95E05D
:104E30009F938F930E942B090F900F900F900F90CC
:104E40008DED95E07BC080911201681720F4861BE0
:104E50008093120102C0109212018DEC95E00E9425
:104E60009208809112011F928F938AEC95E09F9394
:104E70008F930E942B090F900F900F900F9088EC4A
:104E800095E05CC080911101681720F4861B809327
:104E9000110102C01092110186EB95E00E94920868
:104EA000809111011F928F9383EB95E09F938F93D5
:104EB0000E942B090F900F900F900F9081EB95E0BF
:104EC0003DC080911001681720F4861B809310016B
:104ED00002C0109210018BE995E00E949208809127
:104EE00010011F928F9388E995E09F938F930E9402
:104EF0002B090F900F900F900F9086E995E01EC040
:104F000080910F01681720F4861B80930F0102C067
:104F100010920F018EE795E00E94920880910F0198
:104F20001F928F938BE795E09F938F930E942B099D
:104F30000F900F900F900F9089E795E00C949208D6
:104F4000CF93C82F84EF99E00E9492086091AC0142
:104F50007091AD018091AE019091AF010E94CD1F83
:104F60001F928F9381EF99E09F938F930E942B095B
:104F70008CEE99E00E9492081F92CF9389EE99E0FF
:104F80009F938F930E942B0987EE99E00E949208CD
:104F900081E090E0A0E0B0E0BC01CD0104C0660F6C
:104FA000771F881F991FCA95D2F70E94301C8DB7B2
:104FB0009EB708960FB6F8949EBF0FBE8DBFCF91D7
:104FC0000C944D18CF93482F50E0FA013697E334F4
:104FD000F10508F0C0C2E059FF4F0C94D32D89E2CF
:104FE00090E10E9492080E94482C0E94E2120E94C6
:104FF000430B43C18EE190E10E9492088CE69DE054
:105000000E9492080E94B1221F928F9389E69DE030
:105010009F938F930E942B0987E69DE00E94920840
:105020000E94A822C82F84E59DE00E9492081F924A
:10503000CF938FE49DE09F938F930E942B098DE483
:105040009DE00E94920883E49DE00E9492088C2FCC
:1050500081701F928F9380E49DE09F938F930E94B5
:105060002B098EE39DE00E94920884E39DE00E945C
:105070009208C1FB882780F91F928F9381E39DE0FE
:105080009F938F930E942B098FE29DE00E949208CC
:1050900083E29DE00E949208C2FB882780F91F925C
:1050A0008F9380E29DE09F938F930E942B098EE166
:1050B0009DE00E94920885E19DE00E949208C3FB5A
:1050C000CC27C0F91F92CF9382E19DE09F938F93ED
:1050D0000E942B0980E19DE00E9492080E94BA2262
:1050E000C82F8CEF9CE00E9492081F92CF9387EF0D
:1050F0009CE09F938F930E942B0985EF9CE00E9478
:1051000092088CED9CE00E9492088C2F81701F9277
:105110008F9389ED9CE09F938F930E942B098DB70D
:105120009EB780960FB6F8949EBF0FBE8DBF87EDD9
:105130009CE00E94920880EC9CE00E949208C1FBD7
:10514000882780F91F928F938DEB9CE09F938F931C
:105150000E942B098BEB9CE00E94920889EA9CE05C
:105160000E949208C2FB882780F91F928F9386EADB
:105170009CE09F938F930E942B0984EA9CE00E94FD
:10518000920882E99CE00E949208C3FB882780F97C
:105190001F928F938FE89CE09F938F930E942B091F
:1051A0008DE89CE00E94920883E89CE00E949208AF
:1051B000C4FB882780F91F928F9380E89CE09F931F
:1051C0008F930E942B098EE79CE00E9492088CE648
:1051D0009CE00E949208C5FB882780F91F928F935C
:1051E00089E69CE09F938F930E942B0987E69CE0C1
:1051F0000E9492088BE49CE00E949208C6FB8827DC
:1052000080F91F928F9388E49CE09F938F930E9474
:105210002B0986E49CE00E9492088EE39CE00E94A9
:105220009208C7FBCC27C0F91F92CF938BE39CE079
:105230009F938F930E942B0989E39CE00E94920820
:105240008DB79EB74C960FB6F8949EBF0FBE8DBF1C
:1052500014C00E94DD12892B91F00E94DD12909300
:10526000D5018093D4010E944D1880E090E00E9407
:10527000D81285E190E10E949208C1E071C180914D
:10528000D4019091D5010E94D8128AE090E1F3CF29
:105290008DE19CE00E94920886E09CE00E949208CA
:1052A0008EEE9BE00E94920886ED9BE00E949208A1
:1052B0008CEB9BE00E94920885EA9BE00E9492089A
:1052C0008BE89BE00E9492088BE69BE00E9492088C
:1052D00085E59BE00E94920884E49BE00E9492088E
:1052E0008CE29BE00E9492088CE19BE00E94920875
:1052F00082E09BE00E94920889EE9AE00E94920868
:1053000080ED9AE00E94920887EB9AE00E94920852
:105310008EE99AE00E9492088DE79AE00E94920836
:105320008BE59AE00E94920881E49AE0A4CF8091F4
:10533000C301817F8E7F8093C3010E94702585EF1A
:105340009FE00E94920881EF9FE00E94920881E016
:105350008093D30192CF0E944D1888ED9FE00E9468
:1053600092089FEF23ED80E3915020408040E1F7C9
:1053700000C000000E94E42088EC9FE07CCF809178
:10538000C301C82FC17080FF09C085EB9FE00E9458
:1053900092088091C301817F8E7F47C083EA9FE09E
:1053A0000E9492088091C30181608093C30165CF00
:1053B0009091C30191FBCC27C0F981E0C827892FC8
:1053C000C0FB81F98093C301CC2319F08AE89FE0E8
:1053D00027C080E79FE04FCF9091C30192FBCC277D
:1053E000C0F981E0C827892FC0FB82F98093C301EF
:1053F000CC2319F085E59FE013C089E39FE03BCF04
:105400009091C30193FBCC27C0F981E0C827892F75
:10541000C0FB83F98093C301CC2351F081E29FE06C
:105420000E9492088091C30181608093C30198C05B
:1054300088E09FE020CF81EF9EE00E94920885EEF9
:105440009EE00E94920888EA9EE00E9492088BE704
:105450009EE00E94920886E39EE00E9492088BE004
:105460009EE009CF8091C6019091C701A091C8012B
:10547000B091C901BF93AF939F938F9387EF9DE046
:105480009F938F930E942B090F900F900F900F9076
:105490000F900F90F2CE81EE9DE00E9492080E9444
:1054A000E2121F928F9387EC9DE09F938F930E944F
:1054B0002B0980910B011F928F9380EB9DE09F93AE
:1054C0008F930E942B0980914C011F928F938DE93D
:1054D0009DE09F938F930E942B098DB79EB70C96EA
:1054E0000FB6F8949EBF0FBE8DBFC7CE0E944D1859
:1054F000C0910C0181E0C827C0930C01CC2329F096
:105500008EE89DE00E9492082BC08EE79DE0B3CE0E
:1055100081E890E00E9442139FEF21EE84E09150D9
:1055200020408040E1F700C0000080E090E00E9451
:1055300042139FEF29E688E1915020408040E1F737
:1055400000C000009ACE80E003C08D5101C0895395
:105550000E94A02792CE8CE79DE00E949208C0E0B6
:105560008C2FCF91089580E008950C94B32ACF93A7
:10557000C82F8091D301813071F020F0823009F47E
:1055800051C060C1E0910D01F0910E018081823225
:1055900009F05AC107C0E0910D01F0910E01808120
:1055A000823261F48C2F0E94B52A811104C08C2FA5
:1055B0000E94E22735C081E090E032C08C2F0E942B
:1055C000B32A81112CC0C431F1F090F4CB30A1F09A
:1055D000C03101F50E947C2586EB99E00E9492087B
:1055E00082EB99E00E94920882E08093D30117C079
:1055F000C93249F0C83371F40E94702583EE99E0F6
:105600000E9492080CC08FEC99E00E9492081092C0
:10561000D3011CC180EB99E00E94920817C181E080
:10562000817016C1C83228F5CE3108F0C0C0CB3029
:10563000A1F1D0F4C73009F0E8C08EE180931401E5
:1056400082E3809313018AE08093120184E18093C6
:10565000110188E08093100188E280930F0188E5B2
:1056600097E00E949208D6C0C33141F1C431C1F025
:10567000CCC0CB3409F4BEC028F4C93289F0C83399
:1056800061F0C3C0C13509F4B3C0C23509F4AEC07E
:10569000CE3409F0BAC06AE0B3C00E947C25BAC01B
:1056A0001092D6018BE897E00E94920887E897E075
:1056B0000E94920881E08093D301CAC08BE297E0F8
:1056C0000E94920886E197E00E949208809114015E
:1056D0001F928F9383E197E09F938F930E942B09F2
:1056E00081E197E00E9492088CEF96E00E94920878
:1056F000809113011F928F9389EF96E09F938F9370
:105700000E942B0987EF96E00E94920885EE96E0B2
:105710000E949208809112011F928F9382EE96E070
:105720009F938F930E942B0980EE96E00E9492082F
:105730008CEC96E00E949208809111011F928F9349
:1057400089EC96E09F938F930E942B0987EC96E05B
:105750000E9492088FEA96E00E94920880911001C0
:105760001F928F938CEA96E09F938F930E942B0950
:105770008AEA96E00E94920880E996E00E949208E8
:1057800080910F011F928F938DE896E09F938F93E6
:105790000E942B098BE896E00E9492088DB79EB775
:1057A00048960FB6F8949EBF0FBE8DBF33C0CE5142
:1057B000EC2FF0E0E25DFE4F80818093D60182E71E
:1057C00097E00E9492088091D6011F928F938FE6F6
:1057D00097E09F938F930E942B098DE697E00E949C
:1057E00092080F900F900F900F9014C061E003C0CB
:1057F00061E006C06AE08091D6010E94E2250AC0FD
:105800008091D6010E94D32605C086E597E00E94CC
:10581000920816C084E597E00E9492088091D60114
:105820001F928F9381E597E09F938F930E942B099E
:105830008EE497E00E9492080F900F900F900F90C7
:1058400081E006C01092D30180E002C080E0E8CE83
:10585000CF910895E1E8F0E08081886080838081C5
:10586000816080838FB7F89493E09093890090EDE6
:10587000909388008FBF0895EFE6F0E0808182600A
:1058800080830895EFE6F0E080818D7F8083089526
:10589000EFE6F0E0908182E08927808308951F92EF
:1058A0000F920FB60F9211242F933F934F935F9354
:1058B0006F937F938F939F93AF93BF93EF93FF93D8
:1058C0008091D7019091D80101969093D80180934F
:1058D000D701811103C082E00E94430BE091D801FF
:1058E000E695E695F0E0E75CFF4EE4918091D70104
:1058F0008E1303C080E00E94430BFF91EF91BF9194
:10590000AF919F918F917F916F915F914F913F9157
:105910002F910F900FBE0F901F9018950E94952CFD
:105920006894B1110C94242D08950E94092D88F0DB
:105930009F5798F0B92F9927B751B0F0E1F0660F53
:10594000771F881F991F1AF0BA95C9F714C0B13094
:1059500091F00E94232DB1E008950C94232D672F20
:10596000782F8827B85F39F0B93FCCF386957795C3
:105970006795B395D9F73EF49095809570956195AC
:105980007F4F8F4F9F4F0895E89409C097FB3EF4D7
:1059900090958095709561957F4F8F4F9F4F99237C
:1059A000A9F0F92F96E9BB279395F69587957795FA
:1059B0006795B795F111F8CFFAF4BB0F11F460FFBA
:1059C0001BC06F5F7F4F8F4F9F4F16C0882311F012
:1059D00096E911C0772321F09EE8872F762F05C026
:1059E000662371F096E8862F70E060E02AF09A95C1
:1059F000660F771F881FDAF7880F9695879597F9B6
:105A0000089557FD9058440F551F59F05F3F71F0AE
:105A10004795880F97FB991F61F09F3F79F0879515
:105A20000895121613061406551FF2CF4695F1DF9E
:105A300008C0161617061806991FF1CF869571052E
:105A4000610508940895E894BB2766277727CB0162
:105A500097F908950E943D2D0C94AE2D0E94A02D23
:105A600038F00E94A72D20F0952311F00C94972D6B
:105A70000C949D2D11240C94242D0E94012D70F363
:105A8000959FC1F3950F50E0551F629FF001729FE3
:105A9000BB27F00DB11D639FAA27F00DB11DAA1FF2
:105AA000649F6627B00DA11D661F829F2227B00D3F
:105AB000A11D621F739FB00DA11D621F839FA00DCA
:105AC000611D221F749F3327A00D611D231F849F1A
:105AD000600D211D822F762F6A2F11249F57504071
