:100000000C9462080C94A9080C94A9080C94A908F3
:100010000C94A9080C94A9080C94A9080C94A9089C
:100020000C94A9080C94A9080C9496100C946811CF
:100030000C94A9080C94A9080C94A9080C94A9087C
:100040000C94A9080C94942C0C94A9080C94A9085D
:100050000C94A9080C9404210C94A9080C94A908E8
:100060000C94A9080C94A9080C94A9080C94A9084C
:100070000C94A9080C94A9080C94A9080C94A9083C
:100080000C94A9080C94A9080C94A9080C94A9082C
:100090000C94A9080C94A9080C94A9080C94A9081C
:1000A0000C94A9080C94A9080C94A908D511F7116F
:1000B000E512F711E5123C125F12E512B412C712F5
:1000C000BB15BB15EA15EA15441682168B188B185A
:1000D0009B168B189C179C175F188B188B1876181B
:1000E000DC29042A3F28F02AF02A8D29F02AF02A58
:1000F000312AF02A452ABB2AF02AF02AF02AF02ACF
:10010000902A772AF02A602AF02A1D2AF02A342819
:10011000EA2AEA2AEA2AEA2AEA2AEA2AEA2AEA2A3F
:10012000EA2AE82AF02AE82AF02AF02AF02AF02A15
:10013000F02AF02AF02AF02AF02AF02AF02AE82AF7
:10014000F02AF02A8D296E29EC2AEC2AEC2AEC2AD6
:10015000EC2AEC2AEC2AEC2AEC2AEC2AEC2AEC2AEF
:10016000CD2AF02AF0296E6F7420737570706F724B
:100170007465642E0A004A756D7020746F20626F7A
:100180006F746C6F616465722E2E2E20000000F17A
:10019000A1F1A2000000000000000000000000002B
:1001A0000000000000000000F0000001F0291E1F08
:1001B00020212223242526272D2E31352B141A0801
:1001C00015171C180C12132F30002AE0041607090B
:1001D0000A0B0D0E0F3334002800E11D1B06190514
:1001E0001110363738E55200003D00C1E3002C0005
:1001F000E6C2000050514F00013A3B3C3D3E3F40BB
:1002000041424344459A000100004D0000004B006C
:1002100000000000004C014A004E00005051524FB7
:1002200000000000000100000000000000000000CD
:1002300001000000010101010001000101000000B6
:10024000000000CF696A00000000ACAEABA8AAA90C
:1002500000B001000052000000000000000000009B
:100260000001000000000000494A4B2A0000000085
:10027000010000000000004C4D4E00010000000194
:1002800001010100010001010000000000000A005E
:100290002530313662003A200025303258000A728B
:1002A0002F632030313233343536373839414243C9
:1002B0004445460A000A002530325800626F756EC8
:1002C0006365213A20005B735D004B6579626F6165
:1002D00072642073746172742E0A00555342206355
:1002E0006F6E666967757265642E0A005B575D0004
:1002F0005B535D005B525D005B445D005B435D00F2
:100300000C034800300030003000310000002003B2
:10031000680069006700670073005F006B0065009C
:10032000790062006F0061007200640073000000D9
:100330000403090409028D00050100A0320904002C
:10034000000103010100092111010001223F000702
:1003500005810308000A09040100010301020009E4
:100360002111010001224D000705820308000A093E
:1003700004020001030000000921110100012236DE
:10038000000705830308000A0904030002030000B4
:10039000000921110100012220000705840320002B
:1003A0000107050403200001090404000103000003
:1003B0000009211101000122390007058503100001
:1003C000011201100100000008EDFE636001000150
:1003D00002000105010906A101050719E029E71539
:1003E0000025019508750181020508190129059567
:1003F0000575019102950175039101050719002901
:100400007715002501957875018102C00631FF0935
:1004100074A1010975150025FF9520750881020951
:1004200076150025FF952075089102C00501098009
:10043000A101850216010026B7001A01002AB700A3
:10044000751095018100C0050C0901A101850316F5
:100450000100269C021A01002A9C02751095018158
:1004600000C005010902A1010901A1000509190146
:100470002905150025019505750181029501750372
:1004800081010501093009311581257F9502750823
:10049000810609381581257F950175088106050CAF
:1004A0000A38021581257F950175088106C0C005AF
:1004B000010906A101050719E029E71500250195A5
:1004C0000875018102950175088101050819012946
:1004D00005950575019102950175039101050719AF
:1004E0000029FF150025FF950675088100C00A0048
:1004F0002530325820006B6579626F6172645F72DB
:1005000065706F72743A20000A0025303258006B13
:100510006579626F6172645F7365745F6C65643A7C
:10052000200064656C5F6B65795F6269743A206373
:10053000616E27742064656C3A20253032580A00B9
:100540006164645F6B65795F6269743A2063616EB0
:100550002774206164643A20253032580A00646FA1
:100560006E652E0A00626F6F676D61676963207345
:1005700063616E3A202E2E2E2000290A0025750078
:100580002F002575005D28002564002000256400EB
:10059000200025640020002564007C0025303258AE
:1005A000006D6F7573656B6579205B62746E7C7826
:1005B0002079207620685D287265702F61636C2930
:1005C0003A205B000A002575006D6B5F77686565F2
:1005D0006C5F74696D655F746F5F6D6178203D203D
:1005E000000A002575006D6B5F776865656C5F6D4F
:1005F00061785F7370656564203D20000A00257591
:10060000006D6B5F74696D655F746F5F6D617820FD
:100610003D20000A002575006D6B5F6D61785F738A
:1006200070656564203D20000A002575006D6B5FD4
:10063000696E74657276616C203D20000A00257534
:10064000006D6B5F64656C6179203D20000A0025B8
:1006500075006D6B5F776865656C5F74696D655F6C
:10066000746F5F6D6178203D20000A002575006D74
:100670006B5F776865656C5F6D61785F73706565EA
:1006800064203D20000A002575006D6B5F74696D64
:10069000655F746F5F6D6178203D20000A002575ED
:1006A000006D6B5F6D61785F7370656564203D20E0
:1006B000000A002575006D6B5F696E746572766166
:1006C0006C203D20000A002575006D6B5F64656C31
:1006D0006179203D20000A00257500363A206D6BB7
:1006E0005F776865656C5F74696D655F746F5F6D7A
:1006F00061783A20000A00257500353A206D6B5F5D
:10070000776865656C5F6D61785F73706565643A85
:1007100020000A00257500343A206D6B5F74696D06
:10072000655F746F5F6D61783A20000A002575007F
:10073000333A206D6B5F6D61785F73706565643A05
:1007400020000A00257500323A206D6B5F696E74D7
:10075000657276616C286D73293A20000A00257550
:1007600000313A206D6B5F64656C6179282A313005
:100770006D73293A20000A0A2D2D2D2D2D204D6F45
:100780007573656B657920506172616D6574657212
:1007900073202D2D2D2D2D0A003E20002575004D96
:1007A000003F007365742064656661756C74207623
:1007B000616C7565732E0A000A0025750073656CFF
:1007C000656374656420706172616D657465723A09
:1007D0002000433E20000A51756974204D6F7573E7
:1007E000656B657920436F6E736F6C650A005365A6
:1007F0006520687474703A2F2F656E2E77696B6967
:1008000070656469612E6F72672F77696B692F4D10
:100810006F7573655F6B6579730A000A0025750053
:100820002C20776865656C3D0025750077686572DA
:10083000652064656C74613A20637572736F723DF4
:10084000000A7370656564203D2064656C746120E6
:100850002A206D61785F7370656564202A20287294
:100860006570656174202F2074696D655F746F5FBA
:100870006D6178290A007067646F776E3A09646564
:1008800063726561736520706172616D6574657214
:1008900073282D3130290A00706775703A09696E26
:1008A00063726561736520706172616D65746572F4
:1008B00073282B3130290A00646F776E3A0964651A
:1008C00063726561736520706172616D65746572D4
:1008D00073282D31290A0075703A09696E637265B3
:1008E00061736520706172616D6574657273282B28
:1008F00031290A00643A097365742064656661757C
:100900006C742076616C7565730A00703A097072B8
:10091000696E7420706172616D65746572730A002E
:10092000363A0973656C656374206D6B5F77686533
:10093000656C5F74696D655F746F5F6D61780A00E7
:10094000353A0973656C656374206D6B5F77686514
:10095000656C5F6D61785F73706565640A00343A39
:100960000973656C656374206D6B5F74696D655F99
:10097000746F5F6D61780A00333A0973656C656363
:1009800074206D6B5F6D61785F73706565640A00DC
:10099000323A0973656C656374206D6B5F696E74C0
:1009A000657276616C286D73290A00313A097365A6
:1009B0006C656374206D6B5F64656C6179282A31A6
:1009C000306D73290A004553432F713A09717569D7
:1009D000740A000A0A2D2D2D2D2D204D6F7573657B
:1009E0006B657920506172616D6574657273204822
:1009F000656C70202D2D2D2D2D0A003F004D303EB1
:100A0000000A456E746572204D6F7573656B65796C
:100A100020436F6E736F6C650A000A51756974200C
:100A2000436F6E736F6C65204D6F64650A00433EC3
:100A300020000A0025750020746F200025750073C2
:100A400077697463685F64656661756C745F6C6117
:100A50007965723A20006D3A096D6F7573656B6543
:100A6000790A004553432F713A09717569740A0078
:100A70000A0A2D2D2D2D2D20436F6E736F6C65206E
:100A800048656C70202D2D2D2D2D0A005061757339
:100A90003A096A756D7020746F20626F6F746C6FA5
:100AA000616465720A00436170733A094C6F636B4D
:100AB000204B6579626F617264284368696C6420B9
:100AC00050726F6F66290A00505363723A09706F53
:100AD00077657220646F776E2F72656D6F74652015
:100AE00077616B652D75700A00342F46343A0973AF
:100AF000776974636820746F204C61796572342063
:100B00000A00332F46333A09737769746368207497
:100B10006F204C6179657233200A00322F46323AD9
:100B20000973776974636820746F204C617965720A
:100B300032200A00312F46313A09737769746368AD
:100B400020746F204C6179657231200A00302F4685
:100B500031303A0973776974636820746F204C618F
:100B600079657230200A006E3A09746F67676C65A8
:100B7000204E4B524F0A00653A097072696E74201C
:100B8000656570726F6D20636F6E6669670A0073CA
:100B90003A097072696E74207374617475730A0017
:100BA000743A097072696E742074696D657220639D
:100BB0006F756E740A00763A097072696E742064FB
:100BC00065766963652076657273696F6E2026208D
:100BD000696E666F0A007A3A09746F67676C652000
:100BE000736C656570204C454420746573740A000D
:100BF0006D3A09746F67676C65206D6F757365205A
:100C000064656275670A006B3A09746F67676C65A3
:100C1000206B6579626F6172642064656275670A32
:100C200000783A09746F67676C65206D617472694A
:100C3000782064656275670A00643A09746F6767B3
:100C40006C6520646562756720656E61626C650A1B
:100C500000633A09656E74657220636F6E736F6C22
:100C600065206D6F64650A000A0A2D2D2D2D2D203B
:100C7000436F6D6D616E642048656C70202D2D2D65
:100C80002D2D0A000A002575002E6E6B726F3A201A
:100C9000000A002575002E737761705F6261636BD7
:100CA000736C6173685F6261636B73706163653AF3
:100CB00020000A002575002E737761705F677261EE
:100CC00076655F6573633A20000A002575002E6E15
:100CD0006F5F6775693A20000A002575002E7377EB
:100CE00061705F72616C745F726775693A20000AA7
:100CF000002575002E737761705F6C616C745F6C9A
:100D00006775693A20000A002575002E63617073CB
:100D10006C6F636B5F746F5F636F6E74726F6C3A4E
:100D200020000A002575002E737761705F636F6E77
:100D300074726F6C5F636170736C6F636B3A2000E9
:100D40000A0025303258006B65796D61705F636F02
:100D50006E6669672E7261773A20000A0025750079
:100D60002E6D6F7573653A20000A002575002E6B95
:100D70006579626F6172643A20000A002575002E61
:100D80006D61747269783A20000A002575002E653D
:100D90006E61626C653A20000A00253032580064AA
:100DA000656275675F636F6E6669672E7261773A19
:100DB00020000A0025750064656661756C745F6CBF
:100DC000617965723A20003F004E4B524F3A2064E1
:100DD000697361626C65640A004E4B524F3A20653C
:100DE0006E61626C65640A006B6579626F61726442
:100DF0005F69646C653A2025580A006B6579626FFB
:100E00006172645F70726F746F636F6C3A20255803
:100E10000A00686F73745F6B6579626F6172645FFB
:100E20006C65647328293A2025580A000A0A2D2D7A
:100E30002D2D2D20537461747573202D2D2D2D2D86
:100E40000A0074696D65725F636F756E743A202570
:100E500030346C580A004743433A20342E392E323E
:100E6000204156522D4C4942433A20322E302E30EA
:100E7000204156525F415243483A20617672350A0A
:100E8000004F5054494F4E533A204C554641204252
:100E90004F4F544D41474943204D4F5553454B45C6
:100EA000592045585452414B455920434F4E534FBA
:100EB0004C4520434F4D4D414E44204E4B524F2008
:100EC000343039360A004255494C443A20653438AA
:100ED000646361352D6469727479202831353A3242
:100EE000363A313420417072203237203230313975
:100EF000290A005649443A20307846454544286836
:100F0000696767735F6B6579626F617264732920CB
:100F10005049443A20307836303633284830303023
:100F20003129205645523A203078303030310A008D
:100F3000444553433A206D6C36350A000A0A2D2D7C
:100F40002D2D2D2056657273696F6E202D2D2D2D40
:100F50002D0A000A44454255473A206D6F75736566
:100F60002064697361626C65642E0A000A4445421C
:100F700055473A206D6F75736520656E61626C65CB
:100F8000642E0A000A44454255473A206B6579624F
:100F90006F6172642064697361626C65642E0A001B
:100FA0000A44454255473A206B6579626F61726425
:100FB00020656E61626C65642E0A000A44454255E4
:100FC000473A206D61747269782064697361626C5C
:100FD00065642E0A000A44454255473A206D617403
:100FE00072697820656E61626C65642E0A000A443D
:100FF000454255473A20656E61626C65642E0A0071
:101000000A44454255473A2064697361626C6564DD
:101010002E0A006E6F7420737570706F7274656441
:101020002E0A000A0A4A756D7020746F20626F6F75
:10103000746C6F616465722E2E2E2000433E20007A
:101040000A456E74657220436F6E736F6C65204D38
:101050006F64650A00556E6C6F636B65642E0A00E1
:101060004C6F636B65642E0A006565636F6E66691D
:10107000673A0A00536C656570204C4544207465DE
:1010800073740A000000000000000000000000016E
:101090000204060A0F17202C3A4A5D71879DB3C7D8
:1010A000DAE9F5FCFFFCF5E9DAC7B39D87715D4A23
:1010B0003A2C20170F0A060402010000000000006D
:1010C0000000000011241FBECFEFDAE0DEBFCDBF6D
:1010D00004B603FE27C08091E8019091E901A09138
:1010E000EA01B091EB018730904BA740B04BD1F4AF
:1010F0001092E8011092E9011092EA011092EB01BE
:1011000014BE84B7877F84BF0FB6F894A8958091EA
:101110006000886180936000109260000FBEE0E084
:10112000F8E3099511E0A0E0B1E0EAECFCE502C0CB
:1011300005900D92A833B107D9F721E0A8E3B1E0FB
:1011400001C01D92A83EB207E1F70E94C70D0C94A2
:10115000632E0C940000FF93EF93E091C501F09192
:10116000C601309709F00995EF91FF910895FC01B0
:101170008591803011F0EFDFFBCF0895FF27E0E28B
:1011800030E247FF0CC0419597FF09C0EDE2609542
:10119000709580959095611D711D811D911D27FF92
:1011A00002C0219530E350E2AA27660F771F881FFF
:1011B000991FAA1FA41710F0A41B63955A95A9F7AD
:1011C000AA3008F0A95FA05DAF93F3956115710592
:1011D0008105910541F7ED3211F4EF93F395F21784
:1011E00018F43F93F395FBCF8F91B5DFFA95E1F7B4
:1011F0000895E991F9918591803021F0853219F0B7
:10120000AADFF9CF089520E0E89455915532C1F353
:10121000503311F4689455915A3348F4505390F375
:10122000220F022E220F220F200D250FF4CF0EF4D5
:10123000219589919991533619F3533729F15335F3
:1012400059F1BC0188279927E8945C3621F48991EB
:10125000999168945591543639F446EF7EF077FFB2
:101260000DC08FEF9FEF0AC055374AE039F058356F
:1012700040E121F0523642E009F00895FF93EF93E8
:101280007DDFEF91FF91B7CFFF93EF93FC01819149
:101290008030B9F360DFFBCFFF93EF9368DFF1CFCE
:1012A000DF93CF93CDB7DEB72596A3DFCF91DF9144
:1012B0000895089508950E947C1E81FD06C00E9435
:1012C0007C1E85FB882780F901C081E0817008952C
:1012D0000E947C1E83FD0AC00E947C1E082E000C0A
:1012E000990B892F881F8827881F089581E008950A
:1012F000882379F00E945B09882311F085E305C0FB
:101300000E9468098111FACF89E20E94E11D0C94C4
:10131000B61E0C949B18FC018281662319F0613083
:1013200019F008950C9478090E94AD188091C301BA
:1013300080FF04C086E791E00E94B708FFEF20E736
:1013400082E0F15020408040E1F700C000000E94A0
:1013500029218091C30180FF04C086E691E00C94AE
:10136000B70808959FE0799FF00111249BE4899FBD
:10137000E00DF11D1124E60FF11DE355FE4F8491A0
:101380000895E82FF0E0EE0FFF1FE35FFF4F859118
:101390009491089580B38C7880BB81B38C7881BBA5
:1013A00008950E94CA0984B114B885B18FEF85B938
:1013B0008AB180778AB98BB18F688BB93E98469A8B
:1013C00087988F9AE2E4F1E0A8E3B1E011921192DC
:1013D0001D921D9281E0EC34F807C1F70895CF9279
:1013E000DF92EF92FF920F931F93CF93DF9308E367
:1013F00011E0E801C12CE5E0DE2EF7EBEF2EF2E084
:10140000FF2E82E0C81691F08C1520F091E0C916ED
:1014100051F006C0A3E0CA1661F0B4E0CB1661F04B
:10142000809A88980BC0819A899808C0849A8C9871
:1014300005C0859A8D9802C0869A8E9880EA8A9512
:10144000F1F729B1022E000C330B20953095832F34
:10145000881F8827881F90E01C9903C022E030E095
:1014600002C020E030E0822B932B1D9903C024E0C2
:1014700030E002C020E030E0822B932B1E9903C0A5
:1014800028E030E002C020E030E0AC01422B532BDA
:101490002FB1022E000C330B20953095C9018827FF
:1014A000990F881F992774E0880F991F7A95E1F7A3
:1014B000842B952B369903C020E230E002C020E057
:1014C00030E0822B932B4B9903C020E430E002C024
:1014D00020E030E0822B932B4A9903C0E0E8F0E053
:1014E00002C0E0E0F0E08E2B9F2B499903C060E042
:1014F00071E002C060E070E0862B972B489903C032
:1015000020E032E002C020E030E0AC01422B532B5F
:1015100023B1022E000C330B20953095C90188278A
:10152000990F881F9927982F8827990F990F842B37
:10153000952B1B9903C040E058E002C040E050E00A
:10154000842B952B1A9903C040E050E102C040E083
:1015500050E0842B952B199903C020E030E202C0A3
:1015600020E030E0822B932B189903C020E030E478
:1015700002C020E030E0822B932B2881398128178C
:10158000390741F19983888380910001882301F113
:101590008091C30180FF04C08CEB92E00E94B708E9
:1015A0008091C30180FF0CC0809100011F928F9336
:1015B000FF92EF920E9450090F900F900F900F90A2
:1015C0008091C30180FF04C085EB92E00E94B708C0
:1015D000D09200010E94CA09C394229695E0C912D4
:1015E00010CF809100018823C1F0815080930001C9
:1015F000882339F0AFE9BFE01197F1F700C0000090
:101600000CC0E2E4F1E0D8018D919D918D018193B0
:101610009193B1E002341B07B1F781E0DF91CF91E4
:101620001F910F91FF90EF90DF90CF900895E82FDA
:10163000F0E0EE0FFF1FEE5BFE4F80819181089579
:10164000CF92DF92EF92FF920F931F93CF93DF938E
:101650008EE992E00E94B70882E4E82E81E0F82E3D
:10166000C0E0D0E099E9C92E92E0D92E00E912E05D
:10167000DF93CF93DF92CF920E94500986E992E0E8
:101680000E94B708F701819191917F010E946B2020
:101690009F938F931F930F930E9450098EE892E0BF
:1016A0000E94B70821968DB79EB708960FB6F8949A
:1016B0009EBF0FBE8DBFC530D105D1F6DF91CF9152
:1016C0001F910F91FF90EF90DF90CF9008950895B4
:1016D00080915E0108959091DF01943009F04CC033
:1016E0009091E9009F703091EC00232F217030FD24
:1016F00020E8922B24E02093E9002091EB0020FFCA
:1017000038C02091EE0027FF34C020914D012223E4
:1017100021F02091E80025FF2CC010924D0126E019
:101720003091E80035FD15C03091DF01343009F506
:101730003091EB0035FD1DC0215021F481E08093F4
:101740004D0117C0EFE9FFE03197F1F700C000004D
:10175000E7CF8093F1008091E80085FD05C080917E
:10176000E8008E778093E8009F709093E90080E016
:1017700008959F709093E9008FEF0895CF93DF93C2
:1017800000D01F92CDB7DEB79C018091DF0184307D
:1017900019F593E099833B832A839093E9008FEFB7
:1017A0009091E800815095FD06C095ED9A95F1F76E
:1017B00000008111F5CF8091E80085FF0DC040E069
:1017C00050E063E070E0CE0101960E94860E8091A9
:1017D000E8008E778093E8000F900F900F90DF91D4
:1017E000CF910895CF93DF9300D01F92CDB7DEB78E
:1017F0002091DF01243021F522E029839B838A8315
:1018000083E08093E9008FEF9091E800815095FD8F
:1018100006C095ED9A95F1F700008111F5CF809102
:10182000E80085FF0DC040E050E063E070E0CE01CD
:1018300001960E94860E8091E8008E778093E800E2
:101840000F900F900F90DF91CF9108952091DF01BD
:101850002430F1F422E02093E9002FEF3091E800EA
:10186000215035FD06C035ED3A95F1F70000211104
:10187000F5CF2091E80025FF0BC040E050E065E087
:1018800070E00E94860E8091E8008E778093E800D9
:101890000895CF93DF932091DF01243009F044C0F5
:1018A000EC0180910C018823C1F085E08093E90070
:1018B0008FEF9091E800815095FD06C095E19A95D3
:1018C000F1F700008111F5CF8091E80085FF2CC071
:1018D00040E050E060E170E017C081E08093E900F3
:1018E0008FEF9091E800815095FD06C095ED9A9597
:1018F000F1F700008111F5CF8091E80085FF14C059
:1019000040E050E068E070E0CE010E94860E8091D9
:10191000E8008E778093E80080E1FE01AEE4B1E05C
:1019200001900D928A95E1F7DF91CF9108958CEFA8
:1019300092E00E94B7088091DE01811109C00E94E7
:101940001B100E9478108091E20084608093E20076
:10195000089588EF92E00E94B7081092DE01089582
:1019600084EF92E00C94B70880EF92E00E94B708F1
:101970000E945A090C94812C8CEE92E00E94B708C8
:101980000E94C3200E94872C0E9407130C94670BAF
:101990008091DF01843041F58091E9008F702091C2
:1019A000EC00922F917020FD90E8892B94E09093A9
:1019B000E9009091EB0090FF14C09091EE0097FF2A
:1019C00010C09091E80095FF03C01092F100F9CF8C
:1019D0009091E80090FF05C09091E8009E77909369
:1019E000E8008F708093E900089542E061EC81E0A7
:1019F0000E94950F42E061EC82E00E94950F42E068
:101A000061EC83E00E94950F46E261EC84E00E9465
:101A1000950F42E161EC85E00C94950F8091E10116
:101A2000833009F455C030F4813071F0823009F40C
:101A300095C008958A3009F481C08B3009F460C0E4
:101A4000893009F0A3C020C08091E001813A09F0FB
:101A50009DC08091E800877F8093E8008091E40139
:101A60009091E501892B21F460E18EE491E003C0BF
:101A700060E080E090E070E00E94D10E8091E8008C
:101A80008B778093E80008958091E001813209F01E
:101A90007DC08091E4019091E501009719F00497D1
:101AA00009F074C08091E800877F8093E8008091FE
:101AB000E80082FD05C08091DF018111F8CF66C08A
:101AC0008091F10080935E018091E8008B775AC08D
:101AD0008091E001813A09F059C08091E401909130
:101AE000E501892B09F052C08091E800877F80933F
:101AF000E8008091E80080FFFCCF80910B013DC0A1
:101B00008091E001813209F041C08091E40190911F
:101B1000E501892BD9F58091E800877F8093E80063
:101B20000E94CA0F9091E20181E0911101C080E012
:101B300080930B0180930C010C94AD188091E0010F
:101B4000813221F58091E800877F8093E8000E9430
:101B5000CA0F8091E30180934C0108958091E001C8
:101B6000813AA1F48091E800877F8093E80080911A
:101B7000E80080FFFCCF80914C018093F1008091C0
:101B8000E8008E778093E8000C94CA0F089584B71C
:101B9000877F84BF0FB6F894A89580916000886114
:101BA00080936000109260000FBE90E080E80FB656
:101BB000F89480936100909361000FBE0E941B1007
:101BC0000E9478108091E20084608093E2008BE6AE
:101BD0009BE00E94002078948091DF018430E1F73F
:101BE0008BED92E00E94B7080E94931381E091E090
:101BF0000E94FD120E946F2C8AEC92E00E94B708AE
:101C00008091DF01853089F486EC92E00E94B7086C
:101C10000E9485208091DD01882391F30E94AE20EF
:101C2000882371F30E94700EEBCF0E94C113E8CF9E
:101C3000292F332723303105C9F064F421303105D1
:101C400081F02230310509F043C08DE890E024E3B3
:101C500033E042C021323105F1F02232310541F149
:101C600037C082E190E021EC33E036C09927813023
:101C7000910541F08230910541F0892B49F5E0E36F
:101C8000F3E005C0EEE0F3E002C0E0E0F3E08491B1
:101C900090E09F0121C06530D8F4E62FF0E0EE0F10
:101CA000FF1FEC5DFE4F2081318189E090E014C080
:101CB000653070F470E0FB01EE0FFF1FE65EFE4F33
:101CC00020813181FB01EB5EFE4F808190E004C0FA
:101CD00080E090E020E030E0FA0131832083089535
:101CE00080E189BD82E189BD09B400FEFDCF80910C
:101CF000D8008F7D8093D8008091E000826080932F
:101D0000E0008091E00081FDFCCF0895CF92DF924A
:101D1000EF92FF920F931F93CF93DF93EC018B0110
:101D20006A010E94E90F811133C0C114D10439F056
:101D3000F60180819181081B190BC80FD91FE12C76
:101D4000F12C0115110519F18091E80085FD16C0EF
:101D50008091E8008E778093E800C114D10449F0A7
:101D6000F60180819181E80EF91EF182E08285E022
:101D70000FC00E94E90F882321F30AC08991809344
:101D8000F10001501109FFEFEF1AFF0ADACF80E0EE
:101D9000DF91CF911F910F91FF90EF90DF90CF9047
:101DA00008952091E6013091E7012617370748F0A2
:101DB0006115710539F42091E8002E772093E80031
:101DC00001C0B90140E061157105A9F12091DF0161
:101DD000222309F443C0253009F442C02091E800D1
:101DE00023FD40C02091E80022FD32C02091E80090
:101DF00020FFE9CF4091F3002091F20030E0342B36
:101E0000FC01CF016115710559F02830310540F40E
:101E100081918093F100615071092F5F3F4FF1CFA5
:101E200041E02830310509F040E02091E8002E77AC
:101E30002093E800C8CF4111C9CF0AC08091DF01CB
:101E4000882361F0853061F08091E80083FD0AC04D
:101E50008091E80082FFF2CF80E0089582E008954B
:101E600083E0089581E008952091E6013091E70133
:101E70002617370748F06115710539F42091E800FD
:101E80002E772093E80001C0B901FC0120E0611524
:101E9000710591F18091DF01882309F440C08530FC
:101EA00009F43FC08091E80083FD3DC08091E800C7
:101EB00082FD2FC08091E80080FFE9CF2091F300E0
:101EC0008091F20090E0922B6115710559F08830F5
:101ED000910540F424912093F100319661507109ED
:101EE0000196F2CF21E0089709F020E08091E80008
:101EF0008E778093E800CBCF2111CCCF0AC08091A0
:101F0000DF01882361F0853061F08091E80083FD76
:101F10000AC08091E80082FFF2CF80E0089582E05D
:101F2000089583E0089581E00895982F973058F53B
:101F30009093E900981739F07091EC002091ED0032
:101F40005091F00003C0242F762F50E021FF19C0DC
:101F50003091EB003E7F3093EB003091ED003D7F00
:101F60003093ED003091EB0031603093EB007093D3
:101F7000EC002093ED005093F0002091EE0027FF3D
:101F800007C09F5FD3CF8F708093E90081E00895F1
:101F900080E008958091E00187FF11C08091E80002
:101FA00082FD05C08091DF018111F8CF11C08091C1
:101FB000E8008B770BC08091DF01882349F0809186
:101FC000E80080FFF8CF8091E8008E778093E800EA
:101FD00008952091E4003091E50095E64091EC00F1
:101FE000842F817040FF22C08091E80080FD1CC0DA
:101FF0008091DF01882391F0853091F08091EB0092
:1020000085FD10C04091E4005091E5004217530750
:1020100029F39A01915011F784E0089582E0089520
:1020200083E0089581E0089580E008954091E800FC
:1020300042FFDECF08950E9489100E949110E0EEC9
:10204000F0E0808181608083E8EDF0E080818F772F
:10205000808319BCA7EDB0E08C918E7F8C9380813A
:102060008F7E80831092DE0108950F931F93CF938C
:10207000DF930E9489100E949110C8EDD0E0888102
:102080008F77888388818068888388818F7D888323
:1020900019BC1092DF011092DB011092DD01109249
:1020A000DC0100EE10E0F80180818B7F8083888165
:1020B0008160888342E060E080E00E94950FE1EE5D
:1020C000F0E080818E7F8083E2EEF0E080818160AD
:1020D0008083808188608083F80180818E7F808307
:1020E000888180618883DF91CF911F910F9108953E
:1020F000E8EDF0E080818F7E8083E7EDF0E0808185
:102100008160808384E082BF81E08093DE010C9453
:102110003510E8EDF0E080818E7F80831092E20040
:1021200008951092DA001092E10008951F920F9224
:102130000FB60F9211242F933F934F935F936F939A
:102140007F938F939F93AF93BF93EF93FF93809170
:10215000E10082FF0BC08091E20082FF07C0809106
:10216000E1008B7F8093E1000E94C80C8091DA002F
:1021700080FF1FC08091D80080FF1BC08091DA00D3
:102180008E7F8093DA008091D90080FF0DC080E1BE
:1021900089BD82E189BD09B400FEFDCF81E0809355
:1021A000DF010E94970C05C019BC1092DF010E944C
:1021B000A90C8091E10080FF19C08091E20080FFAE
:1021C00015C08091E2008E7F8093E2008091E20052
:1021D00080618093E2008091D80080628093D80073
:1021E00019BC85E08093DF010E94B40C8091E1006E
:1021F00084FF30C08091E20084FF2CC080E189BD63
:1022000082E189BD09B400FEFDCF8091D8008F7DA9
:102210008093D8008091E1008F7E8093E1008091CF
:10222000E2008F7E8093E2008091E20081608093E3
:10223000E2008091DB01882311F084E007C08091E7
:10224000E30087FD02C081E001C083E08093DF01ED
:102250000E94BC0C8091E10083FF29C08091E200C4
:1022600083FF25C08091E100877F8093E10082E0B9
:102270008093DF011092DB018091E1008E7F8093DB
:10228000E1008091E2008E7F8093E2008091E20085
:1022900080618093E20042E060E080E00E94950F60
:1022A0008091F00088608093F0000E94B00CFF9154
:1022B000EF91BF91AF919F918F917F916F915F91BE
:1022C0004F913F912F910F900FBE0F901F90189537
:1022D0001F920F920FB60F9211242F933F934F939B
:1022E0005F936F937F938F939F93AF93BF93CF939E
:1022F000DF93EF93FF93C091E900CF708091EC00E2
:10230000D82FD17080FDD0E81092E9008091F000C4
:10231000877F8093F00078940E94AC111092E900BE
:102320008091F00088608093F000CD2BCF70C09337
:10233000E900FF91EF91DF91CF91BF91AF919F9114
:102340008F917F916F915F914F913F912F910F905E
:102350000FBE0F901F9018951F93CF93DF93CDB7AB
:10236000DEB7AA970FB6F894DEBF0FBECDBFE0EE82
:10237000F1E088E08E0F9091F10091938E13FBCFE6
:102380000E940E0D8091E80083FF1FC18091E00143
:102390009091E101492F50E04A30510508F015C1F4
:1023A000FA01EA5AFF4F0C94182E803881F08238D7
:1023B00009F00BC18091E4018F708093E900809156
:1023C000EB0085FB882780F91092E90006C0809118
:1023D000DC019091DD01911182609091E800977F7E
:1023E0009093E8008093F1001092F100C8C0282F6C
:1023F0002D7F09F0EAC0882319F0823061F0E5C032
:102400008091E201813009F0E0C0933009F080E072
:102410008093DD012BC08091E201811127C0809162
:10242000E4018F7009F4D1C08093E9002091EB00A2
:1024300020FF1CC0933021F48091EB00806214C017
:102440009091EB0090619093EB0021E030E0A901C6
:1024500002C0440F551F8A95E2F74093EA0010929C
:10246000EA008091EB0088608093EB001092E90015
:102470008091E800877F86C08111A7C01091E2019A
:102480001F778091E3008078812B8093E300809117
:10249000E800877F8093E8000E94CA0F8091E800DF
:1024A00080FFFCCF8091E30080688093E3001111EE
:1024B00002C082E001C083E08093DF0186C08058C3
:1024C000823008F082C08091E2019091E3018C3D5E
:1024D00053E0950779F583E08A838AE289834FB7D1
:1024E000F894DE01139620E03EE051E2E32FF0E0A5
:1024F00050935700E49120FF03C0E295EF703F5FD7
:10250000EF708E2F90E0EA3010F0C79601C0C096B1
:102510008D939D932F5F243149F74FBF8091E80041
:10252000877F8093E8006AE270E0CE0101960E9406
:10253000D10E14C0AE014F5F5F4F6091E4010E9465
:10254000180EBC01892B09F440C09091E800977FD8
:102550009093E80089819A810E94340F8091E8006D
:102560008B778093E80031C0803879F58091E8005E
:10257000877F8093E8008091DB018093F100809158
:10258000E8008E778093E8000E94CA0F1EC0811178
:102590001CC09091E2019230C0F48091E800877FE6
:1025A0008093E8009093DB010E94CA0F8091DB01C9
:1025B000811106C08091E30087FD02C081E001C067
:1025C00084E08093DF010E94F50C8091E80083FF96
:1025D0000AC08091E800877F8093E8008091EB003B
:1025E00080628093EB00AA960FB6F894DEBF0FBE10
:1025F000CDBFDF91CF911F91089590936401809397
:102600006301089580916301909164010895E091C0
:102610006301F0916401309721F00190F081E02D89
:10262000099480E00895EF92FF920F931F93CF9348
:10263000DF93E0916301F09164013097B1F18C0177
:102640000280F381E02D09958091C30182FF2DC0A6
:1026500080FF04C086EF94E00E94B708E80110E113
:1026600080EFE82E84E0F82E8091C30180FF0BC03C
:1026700088811F928F93FF92EF920E9450090F90D2
:102680000F900F900F90115021961111EDCF809166
:10269000C30180FF0AC08EEE94E0DF91CF911F91BD
:1026A0000F91FF90EF900C94B708DF91CF911F919D
:1026B0000F91FF90EF900895E0916301F091640114
:1026C000309721F00480F581E02D09940895209140
:1026D0006101309162018217930771F0909362015A
:1026E00080936101E0916301F0916401309721F0E2
:1026F0000680F781E02D0994089520915F013091C3
:1027000060018217930771F09093600180935F01DD
:10271000E0916301F0916401309721F00084F1852C
:10272000E02D099408950E94C5200E94D1090C94BF
:102730009321CF93C82F8091C30182FF1EC080FFD9
:1027400004C08FE095E00E94B7088091C30180FF2C
:102750000CC01F92CF938AE095E09F938F930E94C5
:1027600050090F900F900F900F908091C30180FF40
:1027700004C088E095E00E94B7088C2FCF910C949C
:10278000670B4F925F927F928F929F92AF92BF9210
:10279000CF92DF92EF92FF920F931F93CF93DF932D
:1027A000CDB7DEB72A970FB6F894DEBF0FBECDBF08
:1027B0000E94EF0996E6C92E91E0D92E00E010E0C4
:1027C000AA24A394B12C702E802F0E94170B4C01C9
:1027D000F601419051906F01482659264114510449
:1027E000B1F40F5F1F4F0530110569F78FEF898333
:1027F0008A831B820E94CE208160782F9D838C83E8
:1028000049815A816B818D810E947A143AC08091EE
:10281000C30181FD0E94200B20E030E07501022EF3
:1028200002C0EE0CFF1C0A94E2F7C7018421952137
:10283000892B09F12E837F828E209F2091E08928A9
:1028400009F490E098870E94CE208160782F9A87C3
:1028500089874E815F8168858A850E947A14000F7E
:10286000111FF801EA59FE4F80819181E826F9266F
:10287000F182E08206C02F5F3F4F2F30310571F6A5
:10288000B0CF0E940425109165010E94071318170C
:10289000D9F00E940713809365012A960FB6F89429
:1028A000DEBF0FBECDBFDF91CF911F910F91FF9083
:1028B000EF90DF90CF90BF90AF909F908F907F90E0
:1028C0005F904F900C9499132A960FB6F894DEBF40
:1028D0000FBECDBFDF91CF911F910F91FF90EF9071
:1028E000DF90CF90BF90AF909F908F907F905F9040
:1028F0004F900895CF93DF93CDB7DEB72B970FB6E8
:10290000F894DEBF0FBECDBF4F83588769877A87A3
:102910008B87DE01119686E0FD0111928A95E9F719
:1029200085E0FE01379601900D928A95E1F7498185
:102930005A816B817C818D819E810E94471B2B96E1
:102940000FB6F894DEBF0FBECDBFDF91CF910895D3
:10295000CF93882309F499C0C82F8CEF8C0F813A4C
:1029600048F48C2F0E94FC2A81118FC08C2F0E946A
:10297000E11D0CC080E28C0F883058F4C77081E0F4
:1029800001C0880FCA95EAF70E947F1ECF910C9470
:10299000B61E8BE58C0F833078F4C53A29F0C63A21
:1029A00031F083E890E005C081E890E002C082E861
:1029B00090E0CF910C94671388E58C0F833108F079
:1029C00064C0C83A39F1C93A41F1CA3A49F1CB3A3F
:1029D00051F1CC3A59F1CD3A61F1C03B69F1CE3AAF
:1029E00071F1CF3A79F1C13B81F1C23B89F1C33B2F
:1029F00091F1C43B99F1C53BA1F1C63BA9F1C73B9D
:102A0000B1F1C83BB9F1C93BC1F1CA3BC9F180E0A2
:102A100090E038C082EE90E035C089EE90E032C0A0
:102A20008AEE90E02FC085EB90E02CC086EB90E022
:102A300029C087EB90E026C08CEC90E023C08DECA1
:102A400090E020C083E891E01DC08AE891E01AC0C0
:102A500082E991E017C084E991E014C081E292E03C
:102A600011C083E292E00EC084E292E00BC085E2E6
:102A700092E008C086E292E005C087E292E002C0E0
:102A80008AE292E0CF910C947D13CF910895882330
:102A900029F19CEF980F913A18F40E942D1E0DC059
:102AA00090E2980F983058F4877091E001C0990F28
:102AB0008A95EAF7892F0E94851E0C94B61E9BE525
:102AC000980F933020F480E090E00C946713885ABC
:102AD000833120F480E090E00C947D1308958823E6
:102AE00021F00E947F1E0C94B61E0895882321F0C9
:102AF0000E94851E0C94B61E0895BF92CF92DF925D
:102B0000EF92FF920F931F93CF93DF9300D000D0EB
:102B100000D0CDB7DEB725E0FC01DE0111960190B3
:102B20000D922A95E1F7FC014081318102812581D6
:102B300022952F7063817481672B09F4ECC23F3FAB
:102B400019F44F3F09F4E7C27C0149833A83898134
:102B50009A812E830E94A01D182FB92E0E949F1DBE
:102B60000E94661CEB2DE295EF70F0E0E05AFF4FFB
:102B70002E810C94182E8B2D807F9B2D9F70F92E0B
:102B8000882319F0F29480EFF822002349F0FF2007
:102B900009F46EC28F2D0E948F1E0E94B61E68C25D
:102BA000812F0E944715FF2009F4B5C28F2D0E9486
:102BB000951E26960FB6F894DEBF0FBECDBFDF91EF
:102BC000CF911F910F91FF90EF90DF90CF90BF902A
:102BD0000C94B61E8B2D807F9B2D9F70803211F43C
:102BE000892F03C0892F8295807F112319F011301E
:102BF00011F12BC00023A9F0222389F1213079F5AE
:102C000026960FB6F894DEBF0FBECDBFDF91CF91F1
:102C10001F910F91FF90EF90DF90CF90BF900C9499
:102C20009F1E222319F0213009F475C28E830E9461
:102C3000A21E8E819BC1002321F0233008F06BC2BD
:102C40000EC0223008F067C291C10023C9F02223D0
:102C500031F0F701958190FF0BC29F709583269606
:102C60000FB6F894DEBF0FBECDBFDF91CF911F919D
:102C70000F91FF90EF90DF90CF90BF900C946F1565
:102C8000222309F473C109C22B2D269526952370A2
:102C900030E02115310521F021303105D1F03BC262
:102CA000002321F0812F9B2D937002C080E090E0E3
:102CB00026960FB6F894DEBF0FBECDBFDF91CF9141
:102CC0001F910F91FF90EF90DF90CF90BF900C94E9
:102CD0006713002321F0812F9B2D937002C080E0A9
:102CE00090E026960FB6F894DEBF0FBECDBFDF9101
:102CF000CF911F910F91FF90EF90DF90CF90BF90F9
:102D00000C947D13812F002319F00E948A2302C0A6
:102D10000E94F22326960FB6F894DEBF0FBECDBFF9
:102D2000DF91CF911F910F91FF90EF90DF90CF90A7
:102D3000BF900C9477248B2D837009F07BC0011118
:102D4000EAC1812F829586958770880F880F912F11
:102D50009F70C92ED12CE12CF12C082E04C0CC0C74
:102D6000DD1CEE1CFF1C0A94D2F714FF12C04FE0CA
:102D700050E060E070E004C0440F551F661F771FED
:102D80008A95D2F7CB01BA016095709580959095A0
:102D900003C060E070E0CB012B2D269526952370B3
:102DA000422F50E042305105D9F04330510569F1CE
:102DB0006C297D298E299F294130510551F1269694
:102DC0000FB6F894DEBF0FBECDBFDF91CF911F913C
:102DD0000F91FF90EF90DF90CF90BF900C948D1CDF
:102DE0006C297D298E299F2926960FB6F894DEBF7F
:102DF0000FBECDBFDF91CF911F910F91FF90EF904C
:102E0000DF90CF90BF900C94A91C0E948D1CC7012D
:102E1000B60126960FB6F894DEBF0FBECDBFDF9188
:102E2000CF911F910F91FF90EF90DF90CF90BF90C7
:102E30000C94711C002319F08B2D817001C08695B4
:102E4000882309F468C1812F829586958770880F41
:102E5000880F912F9F70C92ED12CE12CF12C082EB8
:102E600004C0CC0CDD1CEE1CFF1C0A94D2F714FF2E
:102E700012C04FE050E060E070E004C0440F551F06
:102E8000661F771F8A95D2F7CB01BA0160957095BE
:102E90008095909503C060E070E0CB012B2D2695C6
:102EA00026952370422F50E042305105D9F043302F
:102EB000510569F16C297D298E299F2941305105E1
:102EC00051F126960FB6F894DEBF0FBECDBFDF914D
:102ED000CF911F910F91FF90EF90DF90CF90BF9017
:102EE0000C94671D6C297D298E299F2926960FB683
:102EF000F894DEBF0FBECDBFDF91CF911F910F9130
:102F0000FF90EF90DF90CF90BF900C94831D0E94B4
:102F1000671DC701B60126960FB6F894DEBF0FBE37
:102F2000CDBFDF91CF911F910F91FF90EF90DF9078
:102F3000CF90BF900C944B1D103F49F118F4103EF8
:102F400048F491C0123F09F453C0E8F1133F09F46B
:102F500064C089C01F708B2D8F71002321F00E94E7
:102F6000E41C812F7CCE0E94051D812F26960FB672
:102F7000F894DEBF0FBECDBFDF91CF911F910F91AF
:102F8000FF90EF90DF90CF90BF900C9476150023C8
:102F9000B1F0223008F0BFC08B2D8F7126960FB68E
:102FA000F894DEBF0FBECDBFDF91CF911F910F917F
:102FB000FF90EF90DF90CF90BF900C942A1D2330AC
:102FC00008F0A9C0E9CF0023A9F08B2D8F712696B8
:102FD0000FB6F894DEBF0FBECDBFDF91CF911F912A
:102FE0000F91FF90EF90DF90CF90BF900C94E41C76
:102FF000002359F38B2D8F7126960FB6F894DEBF00
:103000000FBECDBFDF91CF911F910F91FF90EF9039
:10301000DF90CF90BF900C94051D002399F08B2D6D
:103020008F7126960FB6F894DEBF0FBECDBFDF912D
:10303000CF911F910F91FF90EF90DF90CF90BF90B5
:103040000C94CF1C26960FB6F894DEBF0FBECDBFF2
:10305000DF91CF911F910F91FF90EF90DF90CF9074
:10306000BF900C94C51C0023A9F0222309F4ADCF16
:10307000812F26960FB6F894DEBF0FBECDBFDF912D
:10308000CF911F910F91FF90EF90DF90CF90BF9065
:103090000C94A814222309F4ADCF812F26960FB6E5
:1030A000F894DEBF0FBECDBFDF91CF911F910F917E
:1030B000FF90EF90DF90CF90BF900C9447154B2D71
:1030C0004F70612FC7010E94FD1F26960FB6F8941E
:1030D000DEBF0FBECDBFDF91CF911F910F91FF904B
:1030E000EF90DF90CF90BF900C94EB1B4B2D4F7067
:1030F000612FC70126960FB6F894DEBF0FBECDBF75
:10310000DF91CF911F910F91FF90EF90DF90CF90C3
:10311000BF900C948B0926960FB6F894DEBF0FBEB5
:10312000CDBFDF91CF911F910F91FF90EF90DF9076
:10313000CF90BF9008950E949C1E0E946E1E0E9418
:10314000B61E0E94A9250E94772480E090E00E948C
:10315000671380E090E00C947D130E948C1E0C9409
:103160009B180E94A01D292F22952F7030E02C3033
:1031700031054CF42A3031056CF4225031092230EB
:10318000310588F407C02C30310549F02F30310566
:1031900031F009C0803E48F0803F29F406C093FB1F
:1031A000882780F9089580E0089581E00895CF93FD
:1031B000DF9300D000D01F92CDB7DEB70F900F90F5
:1031C0000F900F900F90DF91CF910895CF93DF93E1
:1031D00000D000D000D0CDB7DEB726960FB6F89459
:1031E000DEBF0FBECDBFDF91CF9108951F93CF9368
:1031F000DF93C091700116E080917101C81799F0BA
:10320000D0E01C9FF0011D9FF00D1124EE58FE4FE1
:103210004081518162817381848195810E94E61889
:103220002196C770E9CFDF91CF911F91089540910A
:10323000A2015091A3016091A4017091A501809118
:10324000A6019091A7010C94E6188091A7018295A0
:103250008F7009F054C08091A401882309F44FC0F5
:1032600080917001A09171016091A2017091A30100
:103270004091A5015091A601B6E08A1709F43FC01C
:1032800090E041155105C1F17F3F11F46F3FA1F16D
:10329000B89FF001B99FF00D1124EE58FE4F218127
:1032A00072132AC02081621327C02281211124C0F9
:1032B000238134812417350710F421503109241B50
:1032C000350B26393105C0F42091A7012F702061FC
:1032D0002093A70126E0289FF001299FF00D1124DB
:1032E000E958FE4F80818F708061808382EA91E08F
:1032F0000E947D150C94F61801968770BECF089534
:10330000CF92DF92EF92FF920F931F93CF93DF93B1
:10331000CDB7DEB762970FB6F894DEBF0FBECDBF54
:103320008C0185E0F801DE011D9601900D928A95D1
:10333000E1F7D8014C9111965C91119712966C911E
:1033400012971396CD90DC9014973091A201709152
:10335000A3018091A5019091A601009709F46BC18A
:103360007F3F19F43F3F09F466C1E090A401EE20CD
:1033700009F4C0C02091A701C816D90628F0F601AB
:10338000E81BF90BCF0104C0809590958C0D9D1D15
:10339000FF24F3948639910578F0F12C207F09F011
:1033A000C6C07C2DD98AC88A89890E94D71882EA2A
:1033B00091E00E947D15B1C0822F807F09F046C048
:1033C000751314C0341312C0611110C02F70206126
:1033D0002093A7010E94171982EA91E00E947D15AF
:1033E0008091A701D80115968C932EC0CD2819F194
:1033F0005F3F11F44F3FF9F0F62E61111CC0809130
:1034000070012091710136E0821709F45AC090E0F2
:10341000389FF001399FF00D1124EE58FE4F718155
:10342000571306C07081471303C07281711103C026
:1034300001968770E9CFF62E662309F418C18091B2
:10344000A70181608093A701F12C11C1751308C0F9
:10345000341306C0611104C08091A701D801C3C014
:103460004D875E878D859E856A8B0E94B1186A891B
:103470008823E1F16623D1F12091A701822F829563
:103480008F7090E0029774F08091A2019091A30157
:1034900098878F831986DB86CA862C87CE0107968C
:1034A0000E947D1586E0F801A2EAB1E001900D923C
:1034B0008A95E1F70E9425190E941719FF24F394B9
:1034C000D6C04D875E878D859E850E94A01D292FC1
:1034D00022952F7030E0223031050CF0BCC09F7077
:1034E00009F0B6C0805E883008F4C1C0C8010E94EF
:1034F0007D15E4CFC816D90608F453C0F601E81BC1
:10350000F90BCF018639910508F450C0F12C7C2DC0
:10351000D98AC88A89890E94D718E2EAF1E086E050
:10352000DF011D928A95E9F70E941719A0C0751353
:1035300014C0341312C0611110C08091A701F801AA
:103540008583C8010E947D1586E0E2EAF1E0DF0193
:103550001D928A95E9F7FE2C8AC04D875E878D857E
:103560009E856A8B0E94B1186A89882309F4BECFB0
:10357000662309F4BBCF2091A701822F82958F701B
:1035800090E002970CF48ECF8091A2019091A3015C
:103590009A8389831B82DD82CC822E83CE010196A1
:1035A0007FCF809590958C0D9D1DACCFF62E662318
:1035B00009F49CCF75132EC034132CC02091A701A1
:1035C00020FD1FC0822F82958F70D9F0D8011596EB
:1035D0002C9315978F3049F08F5F982F9295907F9D
:1035E000822F8F70892B15968C93C8010E947D15B0
:1035F00086E0F801A2EAB1E001900D928A95E1F728
:1036000093CF86E0F801A2EAB1E001900D928A958D
:10361000E1F72DC04D875E878D859E850E94B1188C
:10362000811140CF8091A70181608093A701C801DB
:103630000E947D151CC0662309F458CF4D875E8714
:103640008D859E850E94B118882309F44FCF2ACF1B
:10365000811148CF0CC0243031050CF047CF9F704A
:1036600009F440CFF8019581907F09F03BCF8F2D71
:1036700062960FB6F894DEBF0FBECDBFDF91CF913B
:103680001F910F91FF90EF90DF90CF9008951F93BF
:10369000CF93DF93CDB7DEB72C970FB6F894DEBF8C
:1036A0000FBECDBF4F83588769877A878B879C87EA
:1036B000CE0107960E948019882369F08F81988532
:1036C0002A853B85232BF1F19F3F09F063C08F3F93
:1036D00009F060C037C086E0FE013796DE01119622
:1036E00001900D928A95E1F76F817885EA85FB85D7
:1036F000309741F17F3F11F46F3F21F1209171012B
:1037000030E0C9010196877099274091700150E01F
:103710008417950709F447C069837A83FD83EC8396
:1037200096E0929FD001939FB00D1124AE58BE4FEA
:10373000FE01319601900D929A95E1F78093710107
:103740000E94F61816E0809170019091710189171E
:10375000C1F1189FC00111248E589E4F0E948019FC
:10376000882379F1E09170011E9FF0011124EE5839
:10377000FE4F4081518162817381848195810E94D5
:10378000E6188091700190E00196877099278093E8
:103790007001D9CF4F81588569857A858B859C8545
:1037A0000E94E618CFCF0E94AD18109271011092BE
:1037B0007001E2EAF1E086E0DF011D928A95E9F707
:1037C000C1CF2C960FB6F894DEBF0FBECDBFDF91F0
:1037D000CF911F910895EF92FF920F931F93CF9374
:1037E000DF938C01892B09F46AC0F12CEE24E39459
:1037F000E8012196F8018491843740F4843008F080
:103800004FC0813081F0823019F159C0853709F4F9
:1038100042C098F19CE7980F903708F050C08F771E
:103820000E9447153FC00E5F1F4FFE01C49180E20A
:103830008C0F883048F4C7708E2D01C0880FCA9550
:10384000EAF70E948F1E2FC08C2F0E94A8142BC055
:103850000E5F1F4FFE01C49180E28C0F883048F448
:10386000C7708E2D01C0880FCA95EAF70E94951E79
:103870001AC08C2F0E94471516C00E5F1F4FFE0105
:10388000C491CC2381F08FE99FE00197F1F700C04C
:103890000000C150F6CF0E5F1F4FFE01F49003C031
:1038A0000E94A8148E018F2D882309F4A1CFEFE97F
:1038B000FFE03197F1F700C000008150F5CFDF91B4
:1038C000CF911F910F91FF90EF900895089560930D
:1038D000AC017093AD018093AE019093AF010C9455
:1038E0009B180F931F930091AC011091AD01209193
:1038F000AE013091AF01DC01CB01802B912BA22BCB
:10390000B32B8093AC019093AD01A093AE01B09323
:10391000AF011F910F910C949B180F931F9300916F
:10392000AC011091AD012091AE013091AF01DC01ED
:10393000CB0180239123A223B3238093AC019093E6
:10394000AD01A093AE01B093AF011F910F910C9404
:103950009B180F931F930091AC011091AD01209122
:10396000AE013091AF01DC01CB0180279127A22766
:10397000B3278093AC019093AD01A093AE01B093B7
:10398000AF011F910F910C949B181092A8011092F7
:10399000A9011092AA011092AB010C949B1841E06E
:1039A00050E060E070E004C0440F551F661F771FB1
:1039B0008A95D2F74093A8015093A9016093AA0178
:1039C0007093AB010C949B1841E050E060E070E014
:1039D00004C0440F551F661F771F8A95D2F7809148
:1039E000A8019091A901A091AA01B091AB01482B27
:1039F000592B6A2B7B2B4093A8015093A90160930C
:103A0000AA017093AB010C949B1841E050E060E078
:103A100070E004C0440F551F661F771F8A95D2F7C8
:103A200040955095609570958091A8019091A9015D
:103A3000A091AA01B091AB01482359236A237B23AB
:103A40004093A8015093A9016093AA017093AB0120
:103A50000C949B1841E050E060E070E004C0440F1B
:103A6000551F661F771F8A95D2F78091A801909104
:103A7000A901A091AA01B091AB01482759276A2753
:103A80007B274093A8015093A9016093AA017093EA
:103A9000AB010C949B180F931F930091A8011091F8
:103AA000A9012091AA013091AB01DC01CB01802B4F
:103AB000912BA22BB32B8093A8019093A901A093E3
:103AC000AA01B093AB011F910F910C949B180F9317
:103AD0001F930091A8011091A9012091AA01309192
:103AE000AB01DC01CB0180239123A223B32380937C
:103AF000A8019093A901A093AA01B093AB011F91D3
:103B00000F910C949B180F931F930091A801109193
:103B1000A9012091AA013091AB01DC01CB018027E2
:103B20009127A227B3278093A8019093A901A0937E
:103B3000AA01B093AB011F910F910C949B180895AB
:103B4000CF92DF92EF92FF920F931F93CF93DF9369
:103B50008C01C090AC01D090AD01E090AE01F0902E
:103B6000AF014091A8015091A9016091AA01709103
:103B7000AB01C42AD52AE62AF72ACFE1D0E0D70143
:103B8000C6010C2E04C0B695A795979587950A9403
:103B9000D2F780FF07C0B8018C2F0E948A1F8130A6
:103BA000910531F4219758F7B80180E00E948A1FEF
:103BB000DF91CF911F910F91FF90EF90DF90CF9009
:103BC000089590910C01992359F1982F9695969507
:103BD00096959F30A0F4E0910D01F0910E01E90F50
:103BE000F11D877021E030E0A90102C0440F551F8C
:103BF0008A95E2F7CA019181892B8183089590917A
:103C0000C30190FF29C01F928F9380E495E09F939A
:103C10008F930E9450090F900F900F900F9008956E
:103C200020910D0130910E01F90132969FEF40E095
:103C30005191581789F09F3F19F4511101C0942FE9
:103C40004F5F4E30A9F79F3F39F0F901E90FF11DA1
:103C500097FDFA9582830895089590910C01992318
:103C600061F1982F9695969596959F30A8F4E091DE
:103C70000D01F0910E01E90FF11D877021E030E098
:103C8000A90102C0440F551F8A95E2F7CA01809529
:103C900091818923818308959091C30190FF1DC074
:103CA0001F928F9382E295E09F938F930E94500919
:103CB0000F900F900F900F90089520910D0130916B
:103CC0000E01F9013296205F3F4F9081981301C099
:103CD00010823196E217F307C1F7089581E090E072
:103CE000E0910D01F0910E01E80FF91F108201968D
:103CF00080319105A9F708958091C20108959091AE
:103D0000C201892B8093C201089580959091C201D0
:103D100089238093C20108951092C2010895909161
:103D2000C101892B8093C101089580959091C101B3
:103D300089238093C10108951092C1010895809351
:103D4000B00108951092B001089580910D019091F5
:103D50000E01FC0131969C01205F3F4F80E0919164
:103D600091118F5FE217F307D1F70895E0910D01EC
:103D7000F0910E018091C2018083E0910D01F091DC
:103D80000E0190818091C101892B80838091B001C7
:103D9000882361F0E0910D01F0910E019081892B53
:103DA00080830E94A51E81111092B00180910D01A7
:103DB00090910E010C9413138D3B50F4883AE8F463
:103DC000853A90F4843070F4813009F45BC007C008
:103DD000803E28F0883E30F0803F08F050C080E000
:103DE00090E0089590E00895853A09F44EC0863A2F
:103DF00009F44EC083E890E40895883A09F44BC072
:103E0000893A09F44BC08A3A09F44BC08B3A09F459
:103E10004BC08C3A09F44BC08B3B09F44BC08C3B34
:103E200009F44BC08D3A09F44BC0803B09F44BC0F8
:103E30008E3A09F44BC08F3A09F44BC0813B09F428
:103E40004BC0823B09F44BC0833B09F44BC0843B1D
:103E500009F44BC0853B09F44BC0863B09F44BC0C9
:103E6000873B09F44BC0883B09F44BC0893B09F4FC
:103E70004BC08A3B09F44BC080E094E4089590E085
:103E80009065089581E090E0089581E890E40895B8
:103E900082E890E4089582EE94E4089589EE94E433
:103EA00008958AEE94E4089585EB94E4089586EBF2
:103EB00094E4089583EB94E4089584EB94E40895E6
:103EC00087EB94E408958CEC94E408958DEC94E4ED
:103ED000089583E895E408958AE895E4089582E9D1
:103EE00095E4089584E995E4089581E296E40895BF
:103EF00083E296E4089584E296E4089585E296E4E8
:103F0000089586E296E4089587E296E408958AE2A9
:103F100096E408950E94B209803EA8F4803C00F522
:103F2000813309F45CC038F4893209F452C08A3212
:103F300009F45BC05FC08933B1F08238A1F08533EA
:103F400009F441C057C0833E41F128F4803E99F006
:103F5000823EB9F04FC0863E31F1873E71F14AC0D2
:103F60000E94C10908959091DA0190FD02C091FF6D
:103F700041C080EE3FC08091DA0180FFFACF89E333
:103F800039C08091DA0182FF0CC08091DA0184FF90
:103F900002C080E02FC083EE2DC08091DA0182FF45
:103FA000F4CF82EE27C08091DA0183FF0AC08091AE
:103FB000DA0184FDEECF87EE1DC08091DA0183FF28
:103FC000F6CF86EE17C08091DA0185FF06C089E240
:103FD00011C08091DA0185FFFACF85E30BC0809193
:103FE000DA0186FF06C08AE205C08091DA0186FF09
:103FF000FACF81E30E94DC1E089580E090E00895EE
:104000009093C6018093C5010895CF92DF92EF92FD
:10401000FF926C01EE24FF24C114D104E104F104E9
:1040200021F0C701B60120E101C020E0C72ED82E43
:10403000E92EFF24C114D104E104F10419F0285F32
:10404000C701B6016B017C0154E0F694E794D79464
:10405000C7945A95D1F7C114D104E104F10419F0C1
:104060002C5FC701B6016B017C0142E0F694E79436
:10407000D794C7944A95D1F7C114D104E104F1044F
:1040800019F02E5FC701B601DC01CB01B695A795EB
:1040900097958795892B8A2B8B2B09F02F5F822F81
:1040A000FF90EF90DF90CF9008958295982F9C7CA1
:1040B000392F36953695282F237344E0249FC0016D
:1040C0001124932F982B292F2A7A2695892F8575CD
:1040D000880F822B08951F93CF93DF931F92CDB744
:1040E000DEB799830E945520182F9981892F0E944D
:1040F0005520212F30E0322F2227A901482BCA0159
:104100000F90DF91CF911F9108958091DF0184304E
:1041100021F11092C40120E488E190E00FB6F894F8
:10412000A895809360000FBE2093600083B7817FC5
:10413000846083BF83B7816083BF7894889583B799
:104140008E7F83BF0FB6F894A89580916000886138
:1041500080936000109260000FBE0895CF930E947C
:1041600059090E94EF090E945A09C0E08C2F0E9451
:10417000170B892B29F4CF5FC530C1F780E001C050
:1041800081E0CF9108950C94AD1882E084BD93E056
:1041900095BD9AEF97BD80936E0008952FB7F89460
:1041A0008091C7019091C801A091C901B091CA0145
:1041B0002FBF0895CF92DF92EF92FF920F931F933C
:1041C0002FB7F8944091C7015091C8016091C9017F
:1041D0007091CA012FBF6A017B01EE24FF248C017C
:1041E00020E030E0C016D106E206F30610F441509C
:1041F00051099A01281B390BC9011F910F91FF909A
:10420000EF90DF90CF9008951F920F920FB60F920C
:1042100011248F939F93AF93BF938091C701909187
:10422000C801A091C901B091CA010196A11DB11D9B
:104230008093C7019093C801A093C901B093CA01AC
:10424000BF91AF919F918F910F900FBE0F901F90D4
:1042500018950E941B10F8942FEF87EA91E62150E1
:1042600080409040E1F700C0000087E090EBDC0167
:104270008093E8019093E901A093EA01B093EB01E8
:104280009CE088E10FB6F894A895809360000FBE7B
:1042900090936000FFCFCF92DF92EF92FF920F9347
:1042A0001F93CF93DF93D82FC0E0EE24E394F12C3B
:1042B0008C2F0E94170B6C0100E010E09701002E7C
:1042C00002C0220F331F0A94E2F72C213D21232B39
:1042D00031F40F5F1F4F0F30110581F709C0602FB8
:1042E0007C2F80E00E94B209D813F3CF81E004C094
:1042F000CF5FC530E9F680E0DF91CF911F910F913C
:10430000FF90EF90DF90CF900895CF93C82F8CE26D
:104310000E944B21882321F08C2FCF910C944B21AC
:1043200080E0CF910895CF930E94E222811102C0D4
:104330000E94C82285E695E00E94B708C5E6C150F4
:1043400049F00E94EF098FE39CE90197F1F700C063
:104350000000F5CF8EE595E00E94B70889E20E9443
:104360008521811113C18AE20E94852181110E9459
:10437000C82285E00E94852181110E9429210E9486
:10438000ED228093C30187E00E9485218823A9F153
:104390008BE10E948521882351F08091C30181FB2C
:1043A000222720F991E0922790FB81F90EC08EE040
:1043B0000E948521882361F08091C30182FB22271E
:1043C00020F991E0922790FB82F98093C30115C0F8
:1043D00080E10E9485219091C301882341F093FBE5
:1043E000222720F981E0822780FB93F904C0892FDE
:1043F000809580FB90F99093C3018091C3010E9446
:10440000F1220E94FF228093DA0180EE0E94852132
:10441000882341F08091DA01982F909590FB80F9E4
:104420008093DA0189E30E948521882359F08091E5
:10443000DA0181FB222720F991E0922790FB81F994
:104440008093DA0182EE0E948521882359F08091C1
:10445000DA0182FB222720F991E0922790FB82F972
:104460008093DA0186EE0E948521882359F080919D
:10447000DA0183FB222720F991E0922790FB83F950
:104480008093DA0183EE0E948521882359F0809180
:10449000DA0184FB222720F991E0922790FB84F92E
:1044A0008093DA0185E30E948521882359F0809169
:1044B000DA0185FB222720F991E0922790FB85F90C
:1044C0008093DA0181E30E948521882359F080914D
:1044D000DA0186FB222720F991E0922790FB86F9EA
:1044E0008093DA0181E10E948521882359F080912F
:1044F000DA0187FB222720F991E0922790FB87F9C8
:104500008093DA018091DA010E9403238091DA011D
:1045100087FB882780F980930C0187E20E94852120
:10452000C82F8EE10E9485218111C2608FE10E9417
:1045300085218111C46080E20E9485218111C860BB
:1045400081E20E9485218111C06182E20E94852161
:104550008111C06283E20E9485218111C06484E2DE
:104560000E948521882311F0C06802C0CC2329F065
:104570008C2F0E94FA226C2F03C00E94F622682F13
:1045800070E080E090E0CF910C94671CCF9108958B
:104590006DEE7EEF80E090E00E944E2E60E082E0C3
:1045A00090E00E94402E60E083E090E00E94402E68
:1045B00060E084E090E00E94402E60E085E090E0C2
:1045C0000C94402E80E090E00E943A2E21E08D3E37
:1045D0009E4F09F020E0822F089582E090E00C9435
:1045E000322E682F82E090E00C94402E83E090E021
:1045F0000C94322E682F83E090E00C94402E84E0DF
:1046000090E00C94322E682F84E090E00C94402EC1
:104610008091CD0180FF0BC06091120185E0689F01
:10462000B001112475956795759567952BC081FF2D
:1046300009C06091120185E0689FB0011124759551
:10464000679520C082FF07C06091120185E0689FD6
:10465000B001112417C09091CE019923D1F060913F
:104660001101961788F72091120185E0289F90018B
:104670001124929FA001939F500D112470E0CA0154
:104680000E94042E6038710540F46115710539F0FF
:1046900002C065E070E0862F08958FE7089581E0FD
:1046A00008958091CD0180FF08C06091100170E0F5
:1046B000759567957595679521C081FF06C06091D6
:1046C000100170E07595679519C082FF04C0609174
:1046D000100170E010C09091CE019923C1F060915B
:1046E0000F019617A0F780911001899FC001112436
:1046F00070E00E94042E6038710528F46115710580
:1047000021F0862F08958FE7089581E0089561E0F4
:1047100070E0F4CF803F21F40E940823819504C00B
:10472000813F29F40E9408238093D1010895823F9C
:1047300021F40E940823819504C0833F29F40E943C
:1047400008238093D0010895893F19F40E945123D2
:1047500005C08A3F31F40E94512381958093D20194
:1047600008958B3F21F40E945123819504C08C3F12
:1047700029F40E9451238093D3010895843F21F4AA
:104780008091CF01816017C0853F21F48091CF01D6
:10479000826011C0863F21F48091CF0184600BC0FC
:1047A000873F21F48091CF01886005C0883F31F4B4
:1047B0008091CF0180618093CF0108958D3F21F4D6
:1047C0008091CD0181600BC08E3F21F48091CD019D
:1047D000826005C08F3F29F48091CD018460809371
:1047E000CD010895803F39F48091D10187FF6CC0DD
:1047F0001092D10169C0813F29F48091D10118162E
:10480000BCF362C09091D001823F29F497FF5CC055
:104810001092D00159C0833F19F41916CCF354C03B
:10482000893F41F48091D20118160CF04DC01092CE
:10483000D2014AC08A3F29F48091D20187FF44C047
:10484000F6CF8B3F39F48091D30187FF3DC01092A2
:10485000D3013AC08C3F29F48091D3011816BCF3E0
:1048600033C0843F21F48091CF018E7F17C0853FF4
:1048700021F48091CF018D7F11C0863F21F480917A
:10488000CF018B7F0BC0873F21F48091CF01877FC1
:1048900005C0883F31F48091CF018F7E8093CF0196
:1048A00013C08D3F21F48091CD018E7F0BC08E3FD0
:1048B00021F48091CD018D7F05C08F3F29F4809137
:1048C000CD018B7F8093CD018091D00181110EC0ED
:1048D0008091D10181110AC08091D201811106C05D
:1048E0008091D301811102C01092CE010895809170
:1048F000C30183FF7EC081EA95E00E94B7088091E2
:10490000CF011F928F938CE995E09F938F930E9424
:1049100050098AE995E00E94B7088091D001282FBC
:10492000082E000C330B3F938F9387E995E09F93FC
:104930008F930E94500985E995E00E94B708809105
:10494000D101282F082E000C330B3F938F9382E95F
:1049500095E09F938F930E94500980E995E00E9413
:10496000B7088091D201282F082E000C330B3F93FB
:104970008F938DE895E09F938F930E9450098BE869
:1049800095E00E94B7088091D301282F082E000CD3
:10499000330B3F938F9388E895E09F938F930E940A
:1049A000500985E895E00E94B7088091CE011F92DA
:1049B0008F9382E895E09F938F930E94500980E83F
:1049C00095E00E94B7088091CD011F928F938DE7EB
:1049D00095E09F938F930E9450098AE795E00E948B
:1049E000B7088DB79EB74C960FB6F8949EBF0FBE12
:1049F0008DBF8FEC91E00E945C130E94CE209093BB
:104A0000CC018093CB0108951F93CF93DF938091C6
:104A1000CB019091CC010E94DA20AC019091CE01A3
:104A2000992321F02091130130E006C02091140158
:104A30008AE0289F900111244217530708F485C08B
:104A40008091D001C091D101D091D2011091D301B8
:104A5000811107C0C11175C0D11173C0111171C08E
:104A600074C09F3F19F09F5F9093CE01181624F4F5
:104A70000E9408238093D0018091D00187FF05C058
:104A80000E94082381958093D0011C1624F40E9473
:104A900008238093D1018091D10187FF05C00E9436
:104AA000082381958093D1016091D001662331F173
:104AB000C091D101CC2311F1062E000C770B880B8D
:104AC000990B0E940B2D23E333E343E35FE30E9442
:104AD0006F2D0E94D32C6093D0016C2FCC0F770BDD
:104AE000880B990B0E940B2D23E333E343E35FE331
:104AF0000E946F2D0E94D32C6093D1011D1624F4C7
:104B00000E9451238093D2018091D20187FF05C07A
:104B10000E94512381958093D201111624F40E94A2
:104B200051238093D3018091D30187FF05C00E9458
:104B3000512381958093D301DF91CF911F910C94E4
:104B400077249F3F09F08FCF97CFDF91CF911F91AF
:104B50000895EFECF1E085E0DF011D928A95E9F719
:104B60001092CE011092CD01089580E79AE00E9444
:104B7000B70883E69AE00E94B70886E59AE00C94AD
:104B8000B70883ED99E00E94B70886EC99E00E948F
:104B9000B7088BEA99E00E94B70880E999E00E9483
:104BA000B70888E799E00E94B7088EE599E00E946F
:104BB000B70880E499E00E94B70880E299E00E947B
:104BC000B7088BE099E00E94B70884EF98E00E9454
:104BD000B70887ED98E00E94B70888EB98E00E943C
:104BE000B70888E998E00E94B70886E798E00E9435
:104BF000B70881E498E00E94B7088CE298E00E9430
:104C0000B7081F9285E08F9389E298E09F938F9376
:104C10000E94500980E298E00E94B7081F9281E04C
:104C20008F938DE198E09F938F930E9450098BE1C1
:104C300098E00E94B7088DB79EB708960FB6F89413
:104C40009EBF0FBE8DBF8EEE97E00C94B7088330E9
:104C500009F459C028F4813061F0823079F1089567
:104C6000853009F49AC008F473C0863009F4BAC0DC
:104C7000089580911401262F30E0280F311D2F3F19
:104C8000310524F4680F6093140103C08FEF809303
:104C900014018AEC96E00E94B708809114011F92DB
:104CA0008F9387EC96E09F938F930E9450090F900B
:104CB0000F900F900F9085EC96E0B8C08091130193
:104CC000262F30E0280F311D2F3F310524F4680FC7
:104CD0006093130103C08FEF8093130186EB96E07E
:104CE0000E94B708809113011F928F9383EB96E087
:104CF0009F938F930E9450090F900F900F900F90E9
:104D000081EB96E093C080911201262F30E0280FAE
:104D1000311D2F3F310524F4680F6093120103C049
:104D20008FEF8093120181EA96E00E94B70880918C
:104D300012011F928F938EE996E09F938F930E94AA
:104D400050090F900F900F900F908CE996E06EC075
:104D500080911101262F30E0280F311D2F3F3105A2
:104D600024F4680F6093110103C08FEF8093110149
:104D70008AE896E00E94B708809111011F928F93F4
:104D800087E896E09F938F930E9450090F900F90B1
:104D90000F900F9085E896E049C080911001262F72
:104DA00030E0280F311D2F3F310524F4680F609348
:104DB000100103C08FEF809310018FE696E00E94F0
:104DC000B708809110011F928F938CE696E09F9315
:104DD0008F930E9450090F900F900F900F908AE6CA
:104DE00096E024C080910F01262F30E0280F311D5E
:104DF0002F3F310524F4680F60930F0103C08FEF3C
:104E000080930F0182E596E00E94B70880910F0120
:104E10001F928F938FE496E09F938F930E94500987
:104E20000F900F900F900F908DE496E00C94B708C0
:104E3000833009F44DC028F4813061F0823049F1AB
:104E40000895853009F482C008F461C0863009F401
:104E50009CC0089580911401681720F4861B8093EC
:104E6000140102C01092140181E496E00E94B70878
:104E7000809114011F928F938EE396E09F938F93FE
:104E80000E9450090F900F900F900F908CE396E0C6
:104E90009AC080911301681720F4861B8093130138
:104EA00002C0109213018DE296E00E94B708809133
:104EB00013011F928F938AE296E09F938F930E9433
:104EC00050090F900F900F900F9088E296E07BC0F2
:104ED00080911201681720F4861B8093120102C092
:104EE0001092120188E196E00E94B70880911201A9
:104EF0001F928F9385E196E09F938F930E945009B4
:104F00000F900F900F900F9083E196E05CC080911E
:104F10001101681720F4861B8093110102C01092C2
:104F2000110181E096E00E94B708809111011F9263
:104F30008F938EEF95E09F938F930E9450090F906F
:104F40000F900F900F908CEF95E03DC08091100175
:104F5000681720F4861B8093100102C01092100184
:104F600086EE95E00E94B708809110011F928F9302
:104F700083EE95E09F938F930E9450090F900F90BE
:104F80000F900F9081EE95E01EC080910F01681781
:104F900020F4861B80930F0102C010920F0189EC50
:104FA00095E00E94B70880910F011F928F9386ECC5
:104FB00095E09F938F930E9450090F900F900F9050
:104FC0000F9084EC95E00C94B708CF93C82F8FE333
:104FD0009AE00E94B7086091AC017091AD01809198
:104FE000AE019091AF010E9405201F928F938CE338
:104FF0009AE09F938F930E94500987E39AE00E9462
:10500000B7081F92CF9384E39AE09F938F930E94F7
:10501000500982E39AE00E94B70881E090E0A0E0A6
:10502000B0E0BC01CD0104C0660F771F881F991F37
:10503000CA95D2F70E94671C8DB79EB708960FB627
:10504000F8949EBF0FBE8DBFCF910C94AD18CF9337
:10505000482F50E0FA013697E334F10508F0C0C25A
:10506000E059FF4F0C94182E84E790E10E94B70896
:105070000E948D2C0E9407130E94670B43C189E692
:1050800090E10E94B70887EB9DE00E94B7080E945C
:10509000F6221F928F9384EB9DE09F938F930E9443
:1050A000500982EB9DE00E94B7080E94ED22C82FB4
:1050B0008FE99DE00E94B7081F92CF938AE99DE097
:1050C0009F938F930E94500988E99DE00E94B70842
:1050D0008EE89DE00E94B7088C2F81701F928F93FD
:1050E0008BE89DE09F938F930E94500989E89DE093
:1050F0000E94B7088FE79DE00E94B708C1FB882790
:1051000080F91F928F938CE79DE09F938F930E946D
:1051100050098AE79DE00E94B7088EE69DE00E9454
:10512000B708C2FB882780F91F928F938BE69DE01A
:105130009F938F930E94500989E69DE00E94B708D3
:1051400080E69DE00E94B708C3FBCC27C0F91F9200
:10515000CF938DE59DE09F938F930E9450098BE53F
:105160009DE00E94B7080E94FF22C82F87E49DE0BF
:105170000E94B7081F92CF9382E49DE09F938F9384
:105180000E94500980E49DE00E94B70887E29DE0FC
:105190000E94B7088C2F81701F928F9384E29DE04C
:1051A0009F938F930E9450098DB79EB780960FB63C
:1051B000F8949EBF0FBE8DBF82E29DE00E94B708AB
:1051C0008BE09DE00E94B708C1FB882780F91F9201
:1051D0008F9388E09DE09F938F930E94500986E013
:1051E0009DE00E94B70884EF9CE00E94B708C2FBD4
:1051F000882780F91F928F9381EF9CE09F938F9374
:105200000E9450098FEE9CE00E94B7088DED9CE053
:105210000E94B708C3FB882780F91F928F938AEDFD
:105220009CE09F938F930E94500988ED9CE00E9420
:10523000B7088EEC9CE00E94B708C4FB882780F971
:105240001F928F938BEC9CE09F938F930E94500949
:1052500089EC9CE00E94B70887EB9CE00E94B708AD
:10526000C5FB882780F91F928F9384EB9CE09F9366
:105270008F930E94500982EB9CE00E94B70886E958
:105280009CE00E94B708C6FB882780F91F928F9385
:1052900083E99CE09F938F930E94500981E99CE0F1
:1052A0000E94B70889E89CE00E94B708C7FBCC279A
:1052B000C0F91F92CF9386E89CE09F938F930E9442
:1052C000500984E89CE00E94B7088DB79EB74C96C1
:1052D0000FB6F8949EBF0FBE8DBF14C00E9402137C
:1052E000892B91F00E9402139093D6018093D501EF
:1052F0000E94AD1880E090E00E94FD1280E690E1EF
:105300000E94B708C1E071C18091D5019091D6018A
:105310000E94FD1285E590E1F3CF88E69CE00E94B3
:10532000B70881E59CE00E94B70889E39CE00E94F1
:10533000B70881E29CE00E94B70887E09CE00E94E9
:10534000B70880EF9BE00E94B70886ED9BE00E94C3
:10535000B70886EB9BE00E94B70880EA9BE00E94BA
:10536000B7088FE89BE00E94B70887E79BE00E94A0
:10537000B70887E69BE00E94B7088DE49BE00E9497
:10538000B70884E39BE00E94B7088BE19BE00E9492
:10539000B70882E09BE00E94B70889EE9AE00E947D
:1053A000B70888EC9AE00E94B70886EA9AE00E9463
:1053B000B7088CE89AE0A4CF8091C301817F8E7FEB
:1053C0008093C3010E94B52580E490E10E94B70854
:1053D0008CE390E10E94B70881E08093D40192CFE2
:1053E0000E94AD1883E290E10E94B7089FEF23ED81
:1053F00080E3915020408040E1F700C000000E940F
:10540000292183E190E17CCF8091C301C82FC17035
:1054100080FF09C080E090E10E94B7088091C3013D
:10542000817F8E7F47C08EEE9FE00E94B7088091FB
:10543000C30181608093C30165CF9091C30191FB4B
:10544000CC27C0F981E0C827892FC0FB81F9809360
:10545000C301CC2319F085ED9FE027C08BEB9FE0C3
:105460004FCF9091C30192FBCC27C0F981E0C827B0
:10547000892FC0FB82F98093C301CC2319F080EA05
:105480009FE013C084E89FE03BCF9091C30193FB62
:10549000CC27C0F981E0C827892FC0FB83F980930E
:1054A000C301CC2351F08CE69FE00E94B7088091A5
:1054B000C30181608093C30198C083E59FE020CF42
:1054C0008CE39FE00E94B70880E39FE00E94B7084A
:1054D00083EF9EE00E94B70886EC9EE00E94B7082A
:1054E00081E89EE00E94B70886E59EE009CF8091A2
:1054F000C7019091C801A091C901B091CA01BF93A1
:10550000AF939F938F9382E49EE09F938F930E942B
:1055100050090F900F900F900F900F900F90F2CEB8
:105520008CE29EE00E94B7080E9407131F928F939F
:1055300082E19EE09F938F930E94500980910B011E
:105540001F928F938BEF9DE09F938F930E94500942
:1055500080914C011F928F9388EE9DE09F938F93D3
:105560000E9450098DB79EB70C960FB6F8949EBF57
:105570000FBE8DBFC7CE0E94AD18C0910C0181E057
:10558000C827C0930C01CC2329F089ED9DE00E942F
:10559000B7082BC089EC9DE0B3CE81E890E00E9473
:1055A00067139FEF21EE84E0915020408040E1F7A7
:1055B00000C0000080E090E00E9467139FEF29E6A2
:1055C00088E1915020408040E1F700C000009ACE71
:1055D00080E003C08D5101C089530E94E52792CE1F
:1055E00087EC9DE00E94B708C0E08C2FCF91089512
:1055F00080E0089580E00895CF93C82F8091D40172
:10560000813071F020F0823009F451C060C1E09126
:105610000D01F0910E018081823209F05AC107C05C
:10562000E0910D01F0910E018081823261F48C2FA6
:105630000E94F82A811104C08C2F0E94272835C0AF
:1056400081E090E032C08C2F0E94FA2A81112CC098
:10565000C431F1F090F4CB30A1F0C03101F50E94DB
:10566000C12581E09AE00E94B7088DEF99E00E9481
:10567000B70882E08093D40117C0C93249F0C8331B
:1056800071F40E94B5258EE29AE00E94B7080CC022
:105690008AE19AE00E94B7081092D4011CC18BEFF6
:1056A00099E00E94B70817C181E0817016C1C83225
:1056B00028F5CE3108F0C0C0CB30A1F1D0F4C7300E
:1056C00009F0E8C08EE18093140182E38093130116
:1056D0008AE08093120184E18093110188E0809335
:1056E000100188E280930F0183EA97E00E94B708D7
:1056F000D6C0C33141F1C431C1F0CCC0CB3409F4C0
:10570000BEC028F4C93289F0C83361F0C3C0C135C6
:1057100009F4B3C0C23509F4AEC0CE3409F0BAC042
:105720006AE0B3C00E94C125BAC01092D70186EDCD
:1057300097E00E94B70882ED97E00E94B70881E0E9
:105740008093D401CAC086E797E00E94B70881E63B
:1057500097E00E94B708809114011F928F938EE505
:1057600097E09F938F930E9450098CE597E00E94E9
:10577000B70887E497E00E94B708809113011F9251
:105780008F9384E497E09F938F930E94500982E463
:1057900097E00E94B70880E397E00E94B7088091E5
:1057A00012011F928F938DE297E09F938F930E9437
:1057B00050098BE297E00E94B70887E197E00E94CA
:1057C000B708809111011F928F9384E197E09F9316
:1057D0008F930E94500982E197E00E94B7088AEFF8
:1057E00096E00E94B708809110011F928F9387EF77
:1057F00096E09F938F930E94500985EF96E00E9458
:10580000B7088BED96E00E94B70880910F011F92B8
:105810008F9388ED96E09F938F930E94500986EDB9
:1058200096E00E94B7088DB79EB748960FB6F894D9
:105830009EBF0FBE8DBF33C0CE51EC2FF0E0E25DB6
:10584000FE4F80818093D7018DEB97E00E94B708CF
:105850008091D7011F928F938AEB97E09F938F934C
:105860000E94500988EB97E00E94B7080F900F90B4
:105870000F900F9014C061E003C061E006C06AE0C1
:105880008091D7010E9427260AC08091D7010E94EB
:10589000182705C081EA97E00E94B70816C08FE973
:1058A00097E00E94B7088091D7011F928F938CE9EF
:1058B00097E09F938F930E94500989E997E00E9497
:1058C000B7080F900F900F900F9081E006C01092D4
:1058D000D40180E002C080E0E8CECF910895E1E8F5
:1058E000F0E08081886080838081816080838FB7D1
:1058F000F89493E09093890090ED909388008FBF87
:105900000895EFE6F0E08081826080830895EFE6FD
:10591000F0E080818D7F80830895EFE6F0E0908154
:1059200082E08927808308951F920F920FB60F920D
:1059300011242F933F934F935F936F937F938F9394
:105940009F93AF93BF93EF93FF938091D801909172
:10595000D90101969093D9018093D801811103C098
:1059600082E00E94670BE091D901E695E695F0E0B0
:10597000EC57FF4EE4918091D8018E1303C080E074
:105980000E94670BFF91EF91BF91AF919F918F9113
:105990007F916F915F914F913F912F910F900FBE2B
:1059A0000F901F9018950E94DA2C6894B1110C94F6
:1059B000692D08950E944E2D88F09F5798F0B92FB9
:1059C0009927B751B0F0E1F0660F771F881F991F34
:1059D0001AF0BA95C9F714C0B13091F00E94682D41
:1059E000B1E008950C94682D672F782F8827B85F51
:1059F00039F0B93FCCF3869577956795B395D9F78C
:105A00003EF490958095709561957F4F8F4F9F4F95
:105A10000895E89409C097FB3EF4909580957095A1
:105A200061957F4F8F4F9F4F9923A9F0F92F96E9EA
:105A3000BB279395F695879577956795B795F1115F
:105A4000F8CFFAF4BB0F11F460FF1BC06F5F7F4FFC
:105A50008F4F9F4F16C0882311F096E911C077230E
:105A600021F09EE8872F762F05C0662371F096E817
:105A7000862F70E060E02AF09A95660F771F881FE6
:105A8000DAF7880F9695879597F9089557FD9058FE
:105A9000440F551F59F05F3F71F04795880F97FBF2
:105AA000991F61F09F3F79F08795089512161306AC
:105AB0001406551FF2CF4695F1DF08C016161706DB
:105AC0001806991FF1CF8695710561050894089510
:105AD000E894BB2766277727CB0197F908950E94A2
