:100000000C9452080C9499080C9499080C94990833
:100010000C9499080C9499080C9499080C949908DC
:100020000C9499080C9499080C948E100C946011FF
:100030000C9499080C9499080C9499080C949908BC
:100040000C9499080C94712C0C9499080C949908B0
:100050000C9499080C94E1200C9499080C9499083C
:100060000C9499080C9499080C9499080C9499088C
:100070000C9499080C9499080C9499080C9499087C
:100080000C9499080C9499080C9499080C9499086C
:100090000C9499080C9499080C9499080C9499085C
:1000A0000C9499080C9499080C949908CD11EF11AF
:1000B000E212EF11E21234125712E212AC12BF1226
:1000C000BC15BC15E615E6153C1670164F184F18F2
:1000D00087164F187217721727184F184F183C18A9
:1000E000B929E1291C28CD2ACD2A6A29CD2ACD2A71
:1000F0000E2ACD2A222A982ACD2ACD2ACD2ACD2AE7
:100100006D2A542ACD2A3D2ACD2AFA29CD2A112832
:10011000C72AC72AC72AC72AC72AC72AC72AC72A57
:10012000C72AC52ACD2AC52ACD2ACD2ACD2ACD2A2D
:10013000CD2ACD2ACD2ACD2ACD2ACD2ACD2AC52A0F
:10014000CD2ACD2A6A294B29C92AC92AC92AC92AEE
:10015000C92AC92AC92AC92AC92AC92AC92AC92A07
:10016000AA2ACD2ACD296E6F7420737570706F72B4
:100170007465642E0A004A756D7020746F20626F7A
:100180006F746C6F616465722E2E2E20000000F17A
:10019000A1000000000000000000000000000000BE
:1001A0000000000000000000F0000001F0CD1E1F64
:1001B00020212223242526272D2E3135002B141A09
:1001C0000815171C180C12132F30002A00E0041613
:1001D00007090A0B0D0E0F333400280000E11D1B28
:1001E0000619051110363738E5000000003D00C142
:1001F000E3002C00E6C1000000AAA90000000000F6
:10020000000000000000000000000000C1CF3A3BE9
:100210003C3D3E3F404142434445AAA90001000005
:100220004D0000004B460068696A004C00014A001E
:100230004E00005051524F0000000000000100002D
:1002400000000000000000000100000000010001AB
:10025000010001000101000000006B00000000002F
:10026000000000000000000000000000010A00255E
:1002700030313662003A200025303258000A722FA1
:1002800063203031323334353637383941424344D4
:1002900045460A000A002530325800626F756E63C9
:1002A00065213A20005B735D004B6579626F617276
:1002B000642073746172742E0A0055534220636F78
:1002C0006E666967757265642E0A005B575D005B38
:1002D000535D005B525D005B445D005B435D000C61
:1002E0000348003000300030003100000020036877
:1002F0000069006700670073005F006B00650079AC
:100300000062006F0061007200640073000000046E
:1003100003090409028D00050100A0320904000050
:100320000103010100092111010001223F0007051D
:10033000810308000A0904010001030102000921E8
:1003400011010001224D000705820308000A09047B
:100350000200010300000009211101000122360002
:100360000705830308000A090403000203000000D4
:10037000092111010001222000070584032000014A
:100380000705040320000109040400010300000024
:100390000921110100012239000705850310000120
:1003A0001201100100000008EDFE6360010001026F
:1003B000000105010906A101050719E029E715005B
:1003C0002501950875018102050819012905950582
:1003D00075019102950175039101050719002977AF
:1003E00015002501957875018102C00631FF097459
:1003F000A1010975150025FF952075088102097670
:10040000150025FF952075089102C005010980A1FE
:1004100001850216010026B7001A01002AB70075EF
:100420001095018100C0050C0901A1018503160189
:1004300000269C021A01002A9C0275109501810079
:10044000C005010902A1010901A10005091901293D
:10045000051500250195057501810295017503813A
:10046000010501093009311581257F950275088143
:100470000609381581257F950175088106050C0A46
:1004800038021581257F950175088106C0C00501D8
:100490000906A101050719E029E7150025019508BE
:1004A0007501810295017508810105081901290569
:1004B00095057501910295017503910105071900D4
:1004C00029FF150025FF950675088100C00A002543
:1004D00030325820006B6579626F6172645F7265BB
:1004E000706F72743A20000A0025303258006B6534
:1004F00079626F6172645F7365745F6C65643A20E2
:100500000064656C5F6B65795F6269743A20636152
:100510006E27742064656C3A20253032580A0061D9
:1005200064645F6B65795F6269743A2063616E270A
:1005300074206164643A20253032580A00646F6E7A
:10054000652E0A00626F6F676D6167696320736370
:10055000616E3A202E2E2E2000290A002575002FCC
:10056000002575005D28002564002000256400201A
:100570000025640020002564007C002530325800EE
:100580006D6F7573656B6579205B62746E7C782026
:1005900079207620685D287265702F61636C293A36
:1005A000205B000A002575006D6B5F776865656CE0
:1005B0005F74696D655F746F5F6D6178203D2000C9
:1005C0000A002575006D6B5F776865656C5F6D610E
:1005D000785F7370656564203D20000A0025750012
:1005E0006D6B5F74696D655F746F5F6D6178203DE1
:1005F00020000A002575006D6B5F6D61785F737078
:10060000656564203D20000A002575006D6B5F69FB
:100610006E74657276616C203D20000A00257500BD
:100620006D6B5F64656C6179203D20000A00257563
:10063000006D6B5F776865656C5F74696D655F748D
:100640006F5F6D6178203D20000A002575006D6B9D
:100650005F776865656C5F6D61785F737065656411
:10066000203D20000A002575006D6B5F74696D6583
:100670005F746F5F6D6178203D20000A0025750072
:100680006D6B5F6D61785F7370656564203D200000
:100690000A002575006D6B5F696E74657276616C1A
:1006A000203D20000A002575006D6B5F64656C615C
:1006B00079203D20000A00257500363A206D6B5FD9
:1006C000776865656C5F74696D655F746F5F6D6198
:1006D000783A20000A00257500353A206D6B5F7767
:1006E0006865656C5F6D61785F73706565643A20FD
:1006F000000A00257500343A206D6B5F74696D65E2
:100700005F746F5F6D61783A20000A0025750033D1
:100710003A206D6B5F6D61785F73706565643A2038
:10072000000A00257500323A206D6B5F696E7465B2
:100730007276616C286D73293A20000A00257500D5
:10074000313A206D6B5F64656C6179282A31306DB8
:1007500073293A20000A0A2D2D2D2D2D204D6F755D
:1007600073656B657920506172616D657465727334
:10077000202D2D2D2D2D0A003E20002575004D0029
:100780003F007365742064656661756C74207661E2
:100790006C7565732E0A000A0025750073656C651B
:1007A0006374656420706172616D657465723A206E
:1007B00000433E20000A51756974204D6F757365C2
:1007C0006B657920436F6E736F6C650A00536565C6
:1007D00020687474703A2F2F656E2E77696B69707C
:1007E000656469612E6F72672F77696B692F4D6F32
:1007F0007573655F6B6579730A000A002575002CB7
:1008000020776865656C3D002575007768657265C1
:100810002064656C74613A20637572736F723D0079
:100820000A7370656564203D2064656C7461202ADC
:10083000206D61785F7370656564202A2028726579
:1008400070656174202F2074696D655F746F5F6DD2
:100850006178290A007067646F776E3A096465638E
:10086000726561736520706172616D657465727324
:10087000282D3130290A00706775703A09696E6356
:10088000726561736520706172616D657465727304
:10089000282B3130290A00646F776E3A096465634A
:1008A000726561736520706172616D6574657273E4
:1008B000282D31290A0075703A09696E63726561E5
:1008C000736520706172616D6574657273282B3178
:1008D000290A00643A097365742064656661756C61
:1008E000742076616C7565730A00703A09707269DC
:1008F0006E7420706172616D65746572730A003682
:100900003A0973656C656374206D6B5F7768656524
:100910006C5F74696D655F746F5F6D61780A003537
:100920003A0973656C656374206D6B5F7768656504
:100930006C5F6D61785F73706565640A00343A09B5
:1009400073656C656374206D6B5F74696D655F744E
:100950006F5F6D61780A00333A0973656C65637483
:10096000206D6B5F6D61785F73706565640A00323E
:100970003A0973656C656374206D6B5F696E7465AD
:100980007276616C286D73290A00313A0973656CBF
:10099000656374206D6B5F64656C6179282A313002
:1009A0006D73290A004553432F713A0971756974B3
:1009B0000A000A0A2D2D2D2D2D204D6F7573656BA4
:1009C000657920506172616D657465727320486548
:1009D0006C70202D2D2D2D2D0A003F004D303E0036
:1009E0000A456E746572204D6F7573656B6579206D
:1009F000436F6E736F6C650A000A5175697420430A
:100A00006F6E736F6C65204D6F64650A00433E2006
:100A1000000A0025750020746F200025750073778B
:100A2000697463685F64656661756C745F6C617935
:100A300065723A20006D3A096D6F7573656B657963
:100A40000A004553432F713A09717569740A000A07
:100A50000A2D2D2D2D2D20436F6E736F6C65204850
:100A6000656C70202D2D2D2D2D0A00506175733A67
:100A7000096A756D7020746F20626F6F746C6F619E
:100A80006465720A00436170733A094C6F636B20AE
:100A90004B6579626F617264284368696C642050A9
:100AA000726F6F66290A00505363723A09706F774C
:100AB000657220646F776E2F72656D6F7465207735
:100AC000616B652D75700A00342F46343A097377CF
:100AD0006974636820746F204C6179657234200AF0
:100AE00000332F46333A0973776974636820746F53
:100AF000204C6179657233200A00322F46323A0960
:100B000073776974636820746F204C617965723201
:100B1000200A00312F46313A0973776974636820DF
:100B2000746F204C6179657231200A00302F463194
:100B3000303A0973776974636820746F204C617967
:100B4000657230200A006E3A09746F67676C652021
:100B50004E4B524F0A00653A097072696E742065F7
:100B60006570726F6D20636F6E6669670A00733A15
:100B7000097072696E74207374617475730A0074FD
:100B80003A097072696E742074696D657220636FC2
:100B9000756E740A00763A097072696E7420646525
:100BA000766963652076657273696F6E20262069A9
:100BB0006E666F0A007A3A09746F67676C65207316
:100BC0006C656570204C454420746573740A006D33
:100BD0003A09746F67676C65206D6F757365206483
:100BE000656275670A006B3A09746F67676C652008
:100BF0006B6579626F6172642064656275670A0073
:100C0000783A09746F67676C65206D6174726978F2
:100C10002064656275670A00643A09746F67676CDF
:100C20006520646562756720656E61626C650A00A7
:100C3000633A09656E74657220636F6E736F6C65DD
:100C4000206D6F64650A000A0A2D2D2D2D2D20437D
:100C50006F6D6D616E642048656C70202D2D2D2D9B
:100C60002D0A000A002575002E6E6B726F3A200067
:100C70000A002575002E737761705F6261636B7384
:100C80006C6173685F6261636B73706163653A2066
:100C9000000A002575002E737761705F67726176B8
:100CA000655F6573633A20000A002575002E6E6F3C
:100CB0005F6775693A20000A002575002E73776119
:100CC000705F72616C745F726775693A20000A0028
:100CD0002575002E737761705F6C616C745F6C6753
:100CE00075693A20000A002575002E636170736CE7
:100CF0006F636B5F746F5F636F6E74726F6C3A20BB
:100D0000000A002575002E737761705F636F6E7443
:100D1000726F6C5F636170736C6F636B3A20000A73
:100D20000025303258006B65796D61705F636F6EBE
:100D30006669672E7261773A20000A002575002ED9
:100D40006D6F7573653A20000A002575002E6B657E
:100D500079626F6172643A20000A002575002E6D79
:100D600061747269783A20000A002575002E656E5C
:100D700061626C653A20000A0025303258006465D3
:100D80006275675F636F6E6669672E7261773A207E
:100D9000000A0025750064656661756C745F6C619E
:100DA0007965723A20003F004E4B524F3A206469F9
:100DB0007361626C65640A004E4B524F3A20656E57
:100DC00061626C65640A006B6579626F6172645F71
:100DD00069646C653A2025580A006B6579626F6119
:100DE00072645F70726F746F636F6C3A2025580A7B
:100DF00000686F73745F6B6579626F6172645F6CBA
:100E000065647328293A2025580A000A0A2D2D2DD9
:100E10002D2D20537461747573202D2D2D2D2D0AC9
:100E20000074696D65725F636F756E743A2025306A
:100E3000346C580A004743433A20352E342E302074
:100E40004156522D4C4942433A20322E302E30200A
:100E50004156525F415243483A20617672350A004A
:100E60004F5054494F4E533A204C55464120424F23
:100E70004F544D41474943204D4F5553454B4559DC
:100E80002045585452414B455920434F4E534F4CE7
:100E90004520434F4D4D414E44204E4B524F203440
:100EA0003039360A004255494C443A206165316573
:100EB0003438362D6469727479202831323A3134ED
:100EC0003A3038204A756C203134203230323029A3
:100ED0000A005649443A2030784645454428686916
:100EE0006767735F6B6579626F6172647329205005
:100EF00049443A2030783630363328483030303163
:100F000029205645523A203078303030310A00449A
:100F10004553433A206D6C36350A000A0A2D2D2DB3
:100F20002D2D2056657273696F6E202D2D2D2D2D60
:100F30000A000A44454255473A206D6F7573652093
:100F400064697361626C65642E0A000A4445425507
:100F5000473A206D6F75736520656E61626C6564DC
:100F60002E0A000A44454255473A206B6579626F64
:100F70006172642064697361626C65642E0A000AA0
:100F800044454255473A206B6579626F617264202F
:100F9000656E61626C65642E0A000A4445425547DD
:100FA0003A206D61747269782064697361626C655E
:100FB000642E0A000A44454255473A206D61747216
:100FC000697820656E61626C65642E0A000A44458A
:100FD0004255473A20656E61626C65642E0A000ACC
:100FE00044454255473A2064697361626C65642EDA
:100FF0000A006E6F7420737570706F727465642E62
:101000000A000A0A4A756D7020746F20626F6F744F
:101010006C6F616465722E2E2E2000433E20000A04
:10102000456E74657220436F6E736F6C65204D6FF3
:1010300064650A00556E6C6F636B65642E0A004C24
:101040006F636B65642E0A006565636F6E66696722
:101050003A0A00536C656570204C454420746573F2
:10106000740A0000000000000000000000000102FF
:1010700004060A0F17202C3A4A5D71879DB3C7DA20
:10108000E9F5FCFFFCF5E9DAC7B39D87715D4A3AE3
:101090002C20170F0A0604020100000000000000C7
:1010A0000000000011241FBECFEFDAE0DEBFCDBF8D
:1010B00004B603FE27C08091ED019091EE01A0914E
:1010C000EF01B091F0018730904BA740B04BD1F4C5
:1010D0001092ED011092EE011092EF011092F001CA
:1010E00014BE84B7877F84BF0FB6F894A89580910B
:1010F0006000886180936000109260000FBEE0E0A5
:10110000F8E3099511E0A0E0B1E0E4E8FCE502C0F5
:1011100005900D92A833B107D9F721E0A8E3B1E01B
:1011200001C01D92AD3EB207E1F70E94C50D0C94BF
:10113000402E0C940000FF93EF93E091CA01F091D0
:10114000CB01309709F00995EF91FF910895FC01CB
:101150008591803011F0EFDFFBCF0895FF27E0E2AB
:1011600030E247FF0CC0419597FF09C0EDE2609562
:10117000709580959095611D711D811D911D27FFB2
:1011800002C0219530E350E2AA27660F771F881F1F
:10119000991FAA1FA41710F0A41B63955A95A9F7CD
:1011A000AA3008F0A95FA05DAF93F39561157105B2
:1011B0008105910541F7ED3211F4EF93F395F217A4
:1011C00018F43F93F395FBCF8F91B5DFFA95E1F7D4
:1011D0000895E991F9918591803021F0853219F0D7
:1011E000AADFF9CF089520E0E89455915532C1F374
:1011F000503311F4689455915A3348F4505390F396
:10120000220F022E220F220F200D250FF4CF0EF4F5
:10121000219589919991533619F3533729F1533513
:1012200059F1BC0188279927E8945C3621F489910B
:10123000999168945591543639F446EF7EF077FFD2
:101240000DC08FEF9FEF0AC055374AE039F058358F
:1012500040E121F0523642E009F00895FF93EF9308
:101260007DDFEF91FF91B7CFFF93EF93FC01819169
:101270008030B9F360DFFBCFFF93EF9368DFF1CFEE
:10128000DF93CF93CDB7DEB72596A3DFCF91DF9164
:101290000895089508950E94661E81FD06C00E946B
:1012A000661E85FB882780F901C081E08170089562
:1012B0000E94661E83FD0AC00E94661E082E000C56
:1012C000990B892F881F8827881F089581E008952A
:1012D000882379F00E944B09882311F085E305C02B
:1012E0000E9458098111FACF89E20E94CC1D0C940A
:1012F000A01E0C945D18662319F0613029F0089542
:10130000FC0182810C9468090E946F188091C901C8
:1013100080FF04C086E791E00E94A708FFEF20E766
:1013200082E0F15020408040E1F700C000000E94C0
:1013300006218091C90180FF04C086E691E00C94EB
:10134000A7080895E72FF0E096E0899FE00DF11DD2
:10135000112484E0EE0FFF1F8A95E1F7E60FF11DDF
:10136000E355FE4F84910895E82FF0E0EE0FFF1F44
:10137000E35FFF4F85919491089580B38C7880BB93
:1013800081B38C7881BB55985D9808950E94BD0902
:1013900084B114B885B18FEF85B98AB180768AB9E6
:1013A0008BB18F698BB93E98469A87988F9AE4E4FF
:1013B000F1E0A8E3B1E0119211921D921D9281E03B
:1013C000E035F807C1F70895CF92DF92EF92FF92D0
:1013D0001F93CF93DF93E8E3CE2EE1E0DE2EE6010C
:1013E00010E0F6E9EF2EF2E0FF2E133099F028F42A
:1013F000113051F0123059F004C0143071F0153032
:1014000079F0809A88980EC0819A89980BC0849A46
:101410008C9808C0859A8D9805C0869A8E9802C0CF
:10142000559A5D9880EA8A95F1F729B1022E000C51
:10143000330B20953095832F881F8827881F90E0D5
:101440001C9903C0E2E0F0E002C0E0E0F0E08E2B87
:101450009F2B1D9903C064E070E002C060E070E063
:10146000862B972B1E9903C028E030E002C020E0B5
:1014700030E0AC01422B532B2FB1022E000C330B6A
:1014800020953095C9018827990F881F992774E006
:10149000880F991F7A95E1F7842B952B369903C015
:1014A00020E230E002C020E030E0822B932B4B9909
:1014B00003C020E430E002C020E030E0822B932B18
:1014C0004A9903C0E0E8F0E002C0E0E0F0E08E2BD3
:1014D0009F2B499903C060E071E002C060E070E0BA
:1014E000862B972B489903C020E032E002C020E011
:1014F00030E0AC01422B532B23B1022E000C330BF6
:1015000020953095C9018827990F881F9927982F12
:101510008827990F990F842B952B1B9903C060E0A6
:1015200078E002C060E070E0862B972B1A9903C028
:1015300060E070E102C060E070E0862B972B1999A3
:1015400003C040E050E202C040E050E0842B952B05
:10155000189903C020E030E402C020E030E0822B84
:10156000932B4C9903C020E030E802C020E030E02B
:10157000822B932B288139812817390749F19983C8
:10158000888380910001882301F18091C90180FF47
:1015900004C08BE992E00E94A7088091C90180FFF6
:1015A0000CC0809100011F928F93FF92EF920E94D6
:1015B00040090F900F900F900F908091C90180FF0C
:1015C00004C084E992E00E94A70885E080930001AE
:1015D0000E94BD091F5F2296163009F006CF809148
:1015E00000018823C9F0815080930001882339F0DD
:1015F000AFE9BFE01197F1F700C000000DC0E4E4CF
:10160000F1E0D6018D919D916D0181939193B4E4A8
:10161000CB16B1E0DB06A9F781E0DF91CF911F91F6
:10162000FF90EF90DF90CF900895E82FF0E0EE0F5D
:10163000FF1FEC5BFE4F808191810895CF92DF9276
:10164000EF92FF920F931F93CF93DF938DE792E07A
:101650000E94A70884E4E82E81E0F82EC0E0D0E0E4
:1016600098E7C92E92E0D92E0FE612E0DF93CF93D0
:10167000DF92CF920E94400985E792E00E94A7087E
:10168000F701819191917F010E9451209F938F9347
:101690001F930F930E9440098DE692E00E94A708D5
:1016A00021968DB79EB708960FB6F8949EBF0FBED1
:1016B0008DBFC630D105D1F6DF91CF911F910F912B
:1016C000FF90EF90DF90CF90089508958091620190
:1016D00008959091E401943009F04CC09091E90094
:1016E0009F703091EC00232F217030FD20E8922B69
:1016F00024E02093E9002091EB0020FF38C02091E6
:10170000EE0027FF34C020915101222321F02091C7
:10171000E80025FF2CC01092510126E03091E8002E
:1017200035FD15C03091E401343009F53091EB00FE
:1017300035FD1DC0215021F481E08093510117C077
:10174000EFE9FFE03197F1F700C00000E7CF8093A9
:10175000F1008091E80085FD05C08091E8008E775A
:101760008093E8009F709093E90080E008959F7057
:101770009093E9008FEF0895CF93DF9300D01F92ED
:10178000CDB7DEB79C018091E401843019F593E078
:1017900099833B832A839093E9008FEF9091E8002F
:1017A000815095FD06C095ED9A95F1F700008111E5
:1017B000F5CF8091E80085FF0DC040E050E063E088
:1017C00070E0CE0101960E94820E8091E8008E7733
:1017D0008093E8000F900F900F90DF91CF910895C4
:1017E000CF93DF9300D01F92CDB7DEB72091E401F5
:1017F000243021F522E029839B838A8383E0809330
:10180000E9008FEF9091E800815095FD06C095EDBD
:101810009A95F1F700008111F5CF8091E80085FFDE
:101820000DC040E050E063E070E0CE0101960E9400
:10183000820E8091E8008E778093E8000F900F90E1
:101840000F90DF91CF9108952091E4012430F1F4BD
:1018500022E02093E9002FEF3091E800215035FD80
:1018600006C035ED3A95F1F700002111F5CF209132
:10187000E80025FF0BC040E050E065E070E00E940A
:10188000820E8091E8008E778093E8000895CF93D0
:10189000DF932091E401243009F044C0EC018091F1
:1018A0000C018823C1F085E08093E9008FEF9091CF
:1018B000E800815095FD06C095E19A95F1F700008A
:1018C0008111F5CF8091E80085FF2CC040E050E009
:1018D00060E170E017C081E08093E9008FEF9091A4
:1018E000E800815095FD06C095ED9A95F1F700004E
:1018F0008111F5CF8091E80085FF14C040E050E0F1
:1019000068E070E0CE010E94820E8091E8008E7740
:101910008093E80080E1FE01A2E5B1E001900D9224
:101920008A95E1F7DF91CF9108958BED92E00E94C7
:10193000A7088091E301811109C00E9413100E9441
:1019400070108091E20084608093E200089587ED3A
:1019500092E00E94A7081092E301089583ED92E0BF
:101960000C94A7088FEC92E00E94A7080E944A09F5
:101970000C945E2C8BEC92E00E94A7080E94A020A1
:101980000E94642C0E9404130C94650B8091E40166
:10199000843041F58091E9008F702091EC00922F06
:1019A000917020FD90E8892B94E09093E90090914C
:1019B000EB0090FF14C09091EE0097FF10C0909143
:1019C000E80095FF03C01092F100F9CF9091E80074
:1019D00090FF05C09091E8009E779093E8008F708B
:1019E0008093E900089542E061EC81E00E948C0F51
:1019F00042E061EC82E00E948C0F42E061EC83E007
:101A00000E948C0F46E261EC84E00E948C0F42E160
:101A100061EC85E00C948C0F8091E601833009F431
:101A200055C030F4813071F0823009F495C00895CA
:101A30008A3009F481C08B3009F460C0893009F024
:101A4000A3C020C08091E501813A09F09DC080913A
:101A5000E800877F8093E8008091E9019091EA0196
:101A6000892B21F460E182E591E003C060E080E031
:101A700090E070E00E94CD0E8091E8008B7780931B
:101A8000E80008958091E501813209F07DC08091E0
:101A9000E9019091EA01009719F0049709F074C0E8
:101AA0008091E800877F8093E8008091E80082FDC4
:101AB00005C08091E4018111F8CF66C08091F100EA
:101AC000809362018091E8008B775AC08091E50194
:101AD000813A09F059C08091E9019091EA01892B7E
:101AE00009F052C08091E800877F8093E8008091E0
:101AF000E80080FFFCCF80910B013DC08091E501A3
:101B0000813209F041C08091E9019091EA01892B6D
:101B1000D9F58091E800877F8093E8000E94C10F8B
:101B20009091E70181E0911101C080E080930B0169
:101B300080930C010C946F188091E501813221F59E
:101B40008091E800877F8093E8000E94C10F809118
:101B5000E8018093500108958091E501813AA1F454
:101B60008091E800877F8093E8008091E80080FF03
:101B7000FCCF809150018093F1008091E8008E7736
:101B80008093E8000C94C10F089584B7877F84BFC9
:101B90000FB6F894A89580916000886180936000EA
:101BA000109260000FBE90E080E80FB6F89480932A
:101BB0006100909361000FBE0E9413100E9470108C
:101BC0008091E20084608093E20089E69BE00E94BD
:101BD000EA1F78948091E4018430E1F78AEB92E087
:101BE0000E94A7080E94901381E091E00E94FA12DF
:101BF0000E944C2C89EA92E00E94A7088091E4019F
:101C0000853089F485EA92E00E94A7080E9464204A
:101C10008091E201882391F30E948B20882371F345
:101C20000E946C0EEBCF0E94BE13E8CF292F332702
:101C300023303105C9F060F42130310581F02230C4
:101C4000310509F041C08DE890E023E133E040C068
:101C500021323105E1F02232310531F135C082E126
:101C600090E020EA33E034C099278130910549F0B3
:101C700028F0029749F5EFEDF2E005C0EFE0F3E060
:101C800002C0EDEEF2E0849190E09F0121C065304A
:101C9000D8F4E62FF0E0EE0FFF1FEC5DFE4F208141
:101CA000318189E090E014C0653070F470E0FB0190
:101CB000EE0FFF1FE65EFE4F20813181FB01EB5EE0
:101CC000FE4F808190E004C080E090E020E030E0B2
:101CD000FA0131832083089580E189BD82E189BDC5
:101CE00009B400FEFDCF8091D8008F7D8093D8008D
:101CF0008091E00082608093E0008091E00081FDAF
:101D0000FCCF0895CF92DF92EF92FF920F931F9333
:101D1000CF93DF93EC018B017A010E94E00F8111D8
:101D200033C0E114F10439F0F70180819181081B7F
:101D3000190BC80FD91FC12CD12C0115110519F190
:101D40008091E80085FD16C08091E8008E77809331
:101D5000E800E114F10449F0F70180819181C80E97
:101D6000D91ED182C08285E00FC00E94E00F882377
:101D700021F30AC089918093F10001501109FFEF0E
:101D8000CF1ADF0ADACF80E0DF91CF911F910F9158
:101D9000FF90EF90DF90CF9008952091EB0130916C
:101DA000EC012617370748F06115710539F42091C9
:101DB000E8002E772093E80001C0B901FC0120E083
:101DC0006115710579F18091E4018823F1F1853085
:101DD000F1F18091E80083FD3CC08091E80082FD34
:101DE0002EC08091E80080FFEBCF2091F30080911E
:101DF000F20090E0922B6115710551F08830910549
:101E000038F421912093F100615071090196F3CFCC
:101E100021E0089709F020E08091E8008E77809318
:101E2000E800CECF2111CFCF0AC08091E4018823F2
:101E300061F0853061F08091E80083FD0AC08091F7
:101E4000E80082FFF2CF80E0089582E0089583E009
:101E5000089581E008952091EB013091EC0126175F
:101E6000370748F06115710539F42091E8002E77A5
:101E70002093E80001C0B901FC0120E06115710563
:101E800091F18091E401882309F440C0853009F480
:101E90003FC08091E80083FD3DC08091E80082FD55
:101EA0002FC08091E80080FFE9CF2091F30080915E
:101EB000F20090E0922B6115710559F08830910580
:101EC00040F424912093F1003196615071090196FC
:101ED000F2CF21E0089709F020E08091E8008E77AA
:101EE0008093E800CBCF2111CCCF0AC08091E401D0
:101EF000882361F0853061F08091E80083FD0AC09D
:101F00008091E80082FFF2CF80E0089582E008959A
:101F100083E0089581E00895982F973068F59093B5
:101F2000E900981739F07091EC002091ED00509184
:101F3000F00003C0242F762F50E021FD02C09F5FE8
:101F4000ECCF3091EB003E7F3093EB003091ED0011
:101F50003D7F3093ED003091EB0031603093EB002A
:101F60007093EC002093ED005093F0002091EE0070
:101F700027FDE5CF80E008958F708093E90081E030
:101F800008958091E50187FF11C08091E80082FDEE
:101F900005C08091E4018111F8CF11C08091E80063
:101FA0008B770BC08091E401882349F08091E80091
:101FB00080FFF8CF8091E8008E778093E800089545
:101FC0002091E4003091E50095E64091EC00842FEB
:101FD000817040FF23C08091E80080FD1DC080918A
:101FE000E401882399F0853099F08091EB0085FD1C
:101FF00011C04091E4005091E5002417350729F302
:10200000915011F09A01E1CF84E0089582E00895A3
:1020100083E0089581E0089580E008954091E8000C
:1020200042FFDDCF08950E9481100E948910E0EEEA
:10203000F0E0808181608083E8EDF0E080818F773F
:10204000808319BCA7EDB0E08C918E7F8C9380814A
:102050008F7E80831092E30108950F931F93CF9397
:10206000DF930E9481100E948910C8EDD0E0888122
:102070008F77888388818068888388818F7D888333
:1020800019BC1092E4011092E0011092E20110924A
:10209000E10100EE10E0F80180818B7F8083888170
:1020A0008160888342E060E080E00E948C0FE1EE76
:1020B000F0E080818E7F8083E2EEF0E080818160BD
:1020C0008083808188608083F80180818E7F808317
:1020D000888180618883DF91CF911F910F9108954E
:1020E000E8EDF0E080818F7E8083E7EDF0E0808195
:1020F0008160808384E082BF81E08093E3010C945F
:102100002D10E8EDF0E080818E7F80831092E20058
:1021100008951092DA001092E10008951F920F9234
:102120000FB60F9211242F933F934F935F936F93AA
:102130007F938F939F93AF93BF93EF93FF93809180
:10214000E10082FF0BC08091E20082FF07C0809116
:10215000E1008B7F8093E1000E94C60C8091DA0041
:1021600080FF1FC08091D80080FF1BC08091DA00E3
:102170008E7F8093DA008091D90080FF0DC080E1CE
:1021800089BD82E189BD09B400FEFDCF81E0809365
:10219000E4010E94950C05C019BC1092E4010E9454
:1021A000A70C8091E10080FF19C08091E20080FFC0
:1021B00015C08091E2008E7F8093E2008091E20062
:1021C00080618093E2008091D80080628093D80083
:1021D00019BC85E08093E4010E94B20C8091E1007B
:1021E00084FF30C08091E20084FF2CC080E189BD73
:1021F00082E189BD09B400FEFDCF8091D8008F7DBA
:102200008093D8008091E1008F7E8093E1008091DF
:10221000E2008F7E8093E2008091E20081608093F3
:10222000E2008091E001882311F084E007C08091F2
:10223000E30087FD02C081E001C083E08093E401F8
:102240000E94BA0C8091E10083FF29C08091E200D6
:1022500083FF25C08091E100877F8093E10082E0C9
:102260008093E4011092E0018091E1008E7F8093E1
:10227000E1008091E2008E7F8093E2008091E20095
:1022800080618093E20042E060E080E00E948C0F79
:102290008091F00088608093F0000E94AE0CFF9166
:1022A000EF91BF91AF919F918F917F916F915F91CE
:1022B0004F913F912F910F900FBE0F901F90189547
:1022C0001F920F920FB60F9211242F933F934F93AB
:1022D0005F936F937F938F939F93AF93BF93CF93AE
:1022E000DF93EF93FF93C091E900CF708091EC00F2
:1022F000D82FD17080FDD0E81092E9008091F000D5
:10230000877F8093F00078940E94A4111092E900D6
:102310008091F00088608093F000CD2BCF70C09347
:10232000E900FF91EF91DF91CF91BF91AF919F9124
:102330008F917F916F915F914F913F912F910F906E
:102340000FBE0F901F9018951F93CF93DF93CDB7BB
:10235000DEB7AA970FB6F894DEBF0FBECDBFE5EE8D
:10236000F1E08091F100819321E0ED3EF207C9F7A1
:102370000E940C0D8091E80083FF24C18091E5014B
:102380009091E601492F50E04A30510508F01AC1FA
:10239000FA01EA5AFF4F0C94F52D803881F082380B
:1023A00009F010C18091E9018F708093E90080915C
:1023B000EB0085FB882780F91092E90006C0809128
:1023C000E1019091E201911182609091E800977F84
:1023D0009093E8008093F1001092F100C8C0282F7C
:1023E0002D7F09F0EFC0882319F0823061F0EAC038
:1023F0008091E701813009F0E5C0933009F080E079
:102400008093E2012BC08091E701811127C0809168
:10241000E9018F7009F4D6C08093E9002091EB00A8
:1024200020FF1CC0933021F48091EB00806214C027
:102430009091EB0090619093EB0021E030E0A901D6
:1024400002C0440F551F8A95E2F74093EA001092AC
:10245000EA008091EB0088608093EB001092E90025
:102460008091E800877F86C08111ACC01091E701A0
:102470001F778091E3008078812B8093E300809127
:10248000E800877F8093E8000E94C10F8091E800F8
:1024900080FFFCCF8091E30080688093E3001111FE
:1024A00002C082E001C083E08093E4018BC08058C9
:1024B000823008F087C08091E7019091E8018C3D5F
:1024C00053E0950779F583E08A838AE289834FB7E1
:1024D000F894DE01139620E03EE051E2E32FF0E0B5
:1024E00050935700E49120FF03C0E295EF703F5FE7
:1024F000EF708E2F90E0EA3010F0C79601C0C096C2
:102500008D939D932F5F243149F74FBF8091E80051
:10251000877F8093E8006AE270E0CE0101960E9416
:10252000CD0E14C0AE014F5F5F4F6091E9010E9474
:10253000160EBC01892B09F445C09091E800977FE5
:102540009093E80089819A810E942B0F8091E80086
:102550008B778093E80036C08038A1F58091E80041
:10256000877F8093E8008091E0018093F100809163
:10257000E8008E778093E8000E94C10F23C081118C
:1025800021C08091E7019091E80199270297D4F446
:102590008091E800877F8093E8008091E701809335
:1025A000E0010E94C10F8091E001811106C080917D
:1025B000E30087FD02C081E001C084E08093E40174
:1025C0000E94F30C8091E80083FF0AC08091E8002C
:1025D000877F8093E8008091EB0080628093EB001E
:1025E000AA960FB6F894DEBF0FBECDBFDF91CF9194
:1025F0001F910895909368018093670108958091D9
:102600006701909168010895E0916701F091680178
:10261000309721F00190F081E02D099480E0089539
:10262000EF92FF920F931F93CF93DF93E091670197
:10263000F09168013097B1F18C010280F381E02DB7
:1026400009958091C90182FF2DC080FF04C085EDEE
:1026500094E00E94A708E80110E18FECE82E84E0E6
:10266000F82E8091C90180FF0BC088811F928F9343
:10267000FF92EF920E9440090F900F900F900F90E1
:10268000115021961111EDCF8091C90180FF0AC030
:102690008DEC94E0DF91CF911F910F91FF90EF901F
:1026A0000C94A708DF91CF911F910F91FF90EF90AD
:1026B0000895E0916701F0916801309721F004805E
:1026C000F581E02D0994089520916501309166010E
:1026D0002817390771F09093660180936501E091A6
:1026E0006701F0916801309721F00680F781E02DB5
:1026F00009940895209163013091640128173907E6
:1027000071F09093640180936301E0916701F0910F
:102710006801309721F00084F185E02D0994089537
:102720000E94A2200E94C6090C947021CF93C82F4A
:102730008091C90182FF1EC080FF04C08EEE94E02C
:102740000E94A7088091C90180FF0CC01F92CF93FF
:1027500089EE94E09F938F930E9440090F900F9011
:102760000F900F908091C90180FF04C087EE94E024
:102770000E94A7088C2FCF910C94650B5F926F92EB
:102780007F928F929F92AF92BF92CF92DF92EF9201
:10279000FF920F931F93CF93DF93CDB7DEB72A97A6
:1027A0000FB6F894DEBF0FBECDBF0E94E4099AE6D3
:1027B000692E91E0792E00E010E088248394912C1A
:1027C000502E802F0E94150B6C01F301A190B19047
:1027D0003F01A826B926A114B104B1F40F5F1F4F21
:1027E0000630110569F78FEF89838A831B820E9467
:1027F000AB208160782F9D838C8349815A816B81C6
:102800008D810E94761439C08091C90181FD0E949A
:102810001E0B80E090E07401082E02C0EE0CFF1C3D
:102820000A94E2F795012E213F21232B09F18E8393
:102830005F82CE20DF2081E0CD2809F480E0888708
:102840000E94AB208160782F9A8789874E815F81B3
:1028500068858A850E947614000F111FF801E659D9
:10286000FE4F80819181E826F926F182E08205C041
:1028700001968031910579F6B1CF0E94E1240E9442
:102880000413909169018917D9F00E940413809371
:1028900069012A960FB6F894DEBF0FBECDBFDF9157
:1028A000CF911F910F91FF90EF90DF90CF90BF904D
:1028B000AF909F908F907F906F905F900C94961345
:1028C0002A960FB6F894DEBF0FBECDBFDF91CF9131
:1028D0001F910F91FF90EF90DF90CF90BF90AF903E
:1028E0009F908F907F906F905F900895CF93DF932C
:1028F000CDB7DEB72B970FB6F894DEBF0FBECDBFB6
:102900004F83588769877A878B87DE01119686E027
:10291000FD0111928A95E9F785E0FE013796019055
:102920000D928A95E1F749815A816B817C818D8175
:102930009E810E94281B2B960FB6F894DEBF0FBE17
:10294000CDBFDF91CF910895CF93882309F499C02B
:10295000C82F8CEF8C0F813A48F48C2F0E94D92A13
:1029600081118FC08C2F0E94CC1D0CC080E28C0F77
:10297000883058F4C77081E001C0880FCA95EAF723
:102980000E94691ECF910C94A01E8BE58C0F8330A2
:1029900078F4C53A29F0C63A31F083E890E005C0F2
:1029A00081E890E002C082E890E0CF910C9464133B
:1029B00088E58C0F833108F064C0C83A39F1C93A10
:1029C00041F1CA3A49F1CB3A51F1CC3A59F1CD3AF9
:1029D00061F1C03B69F1CE3A71F1CF3A79F1C13B77
:1029E00081F1C23B89F1C33B91F1C43B99F1C53BF5
:1029F000A1F1C63BA9F1C73BB1F1C83BB9F1C93B55
:102A0000C1F1CA3BC9F180E090E038C082EE90E0AD
:102A100035C089EE90E032C08AEE90E02FC085EBA1
:102A200090E02CC086EB90E029C087EB90E026C0B8
:102A30008CEC90E023C08DEC90E020C083E891E026
:102A40001DC08AE891E01AC082E991E017C084E9CC
:102A500091E014C081E292E011C083E292E00EC0E6
:102A600084E292E00BC085E292E008C086E292E048
:102A700005C087E292E002C08AE292E0CF910C9416
:102A80007A13CF910895882329F19CEF980F913AFA
:102A900018F40E94181E0DC090E2980F983058F458
:102AA000877091E001C0990F8A95EAF7892F0E94FB
:102AB0006F1E0C94A01E9BE5980F933020F480E0CD
:102AC00090E00C946413885A833120F480E090E005
:102AD0000C947A130895882321F00E94691E0C94A7
:102AE000A01E0895882321F00E946F1E0C94A01E42
:102AF0000895CF92DF92EF92FF920F931F93CF939F
:102B0000DF9300D000D01F92CDB7DEB76C0185E017
:102B1000F601DE01119601900D928A95E1F7F6011A
:102B20002081818143815481452B31F08F3F31F4E5
:102B300091E02F3F19F403C091E001C090E090FDB7
:102B4000AEC2F601F280E580E2949FE0E92229839B
:102B50008A8389819A810E948B1D8C010E948A1D23
:102B60000E94511CE12FE295EF708E2F90E0FC0146
:102B7000E05AFF4F0C94F52D812F807F1F70882322
:102B800011F01295107FFF2049F0112309F43CC287
:102B9000812F0E94791E0E94A01E36C2802F0E94A3
:102BA0004315112309F47BC2812F0E947F1E0F90D1
:102BB0000F900F900F900F90DF91CF911F910F9179
:102BC000FF90EF90DF90CF900C94A01E812F807F1C
:102BD0001F70803211F01295107F002319F0013020
:102BE00009F13BC0FF20A9F0EE2011F1F1E0812FA7
:102BF000EF121FC00F900F900F900F900F90DF916A
:102C0000CF911F910F91FF90EF90DF90CF900C9498
:102C1000891EEE2021F081E0E81609F440C20E94EE
:102C20008C1E28C0FF20A1F0E2E0EE1508F437C2A8
:102C3000812F0F900F900F900F900F90DF91CF91F9
:102C40001F910F91FF90EF90DF90CF900C946B1538
:102C5000F1E0FE1508F423C20DC0FF2049F0EE207C
:102C600039F3F601858180FFCFC18F708583E0CF76
:102C7000E110DDC1812F50C1812F8695869583702B
:102C800019F08130B9F00BC2FF2019F0C801937020
:102C900002C080E090E00F900F900F900F900F9087
:102CA000DF91CF911F910F91FF90EF90DF90CF9028
:102CB0000C946413FF2019F0C801937002C080E0E7
:102CC00090E00F900F900F900F900F90DF91CF91A9
:102CD0001F910F91FF90EF90DF90CF900C947A139B
:102CE000802FFF2019F00E94672302C00E94CF238B
:102CF0000F900F900F900F900F90DF91CF911F9139
:102D00000F91FF90EF90DF90CF900C945424812F7F
:102D1000837009F070C0F110C2C1202F2295269552
:102D20002770220F220F602F6F70862F90E0A0E097
:102D3000B0E06C017D01022E04C0CC0CDD1CEE1C49
:102D4000FF1C0A94D2F704FF12C08FE090E0A0E0CD
:102D5000B0E004C0880F991FAA1FBB1F2A95D2F7A5
:102D6000BC01CD01609570958095909503C060E0A1
:102D700070E0CB011695169513701230B1F040F546
:102D80006C297D298E299F29113031F10F900F90E8
:102D90000F900F900F90DF91CF911F910F91FF90A7
:102DA000EF90DF90CF900C94781C6C297D298E29B0
:102DB0009F290F900F900F900F900F90DF91CF9160
:102DC0001F910F91FF90EF90DF90CF900C94941C87
:102DD0000E94781CC701B6010F900F900F900F90C2
:102DE0000F90DF91CF911F910F91FF90EF90DF90A7
:102DF000CF900C945C1CFF2019F0812F817001C0D2
:102E00008695882309F44BC1202F2295269527709B
:102E1000220F220F602F6F70862F90E0A0E0B0E0AD
:102E20006C017D01022E04C0CC0CDD1CEE1CFF1CCD
:102E30000A94D2F704FF12C08FE090E0A0E0B0E067
:102E400004C0880F991FAA1FBB1F2A95D2F7BC0187
:102E5000CD01609570958095909503C060E070E01D
:102E6000CB011695169513701230B1F040F56C2910
:102E70007D298E299F29113031F10F900F900F90ED
:102E80000F900F90DF91CF911F910F91FF90EF90D6
:102E9000DF90CF900C94521D6C297D298E299F299B
:102EA0000F900F900F900F900F90DF91CF911F9187
:102EB0000F91FF90EF90DF90CF900C946E1D0E94C9
:102EC000521DC701B6010F900F900F900F900F90F9
:102ED000DF91CF911F910F91FF90EF90DF90CF90F6
:102EE0000C94361D003F39F118F4003E48F487C0B9
:102EF000023F09F44FC0D8F1033F09F45EC07FC020
:102F00000F70812F8F71FF2021F00E94CF1C802F26
:102F100090CE0E94F01C802F0F900F900F900F907A
:102F20000F90DF91CF911F910F91FF90EF90DF9065
:102F3000CF900C947215FF20A9F0F1E0FE1508F473
:102F4000AEC0812F8F710F900F900F900F900F9048
:102F5000DF91CF911F910F91FF90EF90DF90CF9075
:102F60000C94151D82E08E1508F499C0EACFFF205D
:102F700099F0812F8F710F900F900F900F900F90FD
:102F8000DF91CF911F910F91FF90EF90DF90CF9045
:102F90000C94CF1CFF2069F3812F8F710F900F903D
:102FA0000F900F900F90DF91CF911F910F91FF9095
:102FB000EF90DF90CF900C94F01CFF2089F0812FD0
:102FC0008F710F900F900F900F900F90DF91CF9116
:102FD0001F910F91FF90EF90DF90CF900C94BA1C4F
:102FE0000F900F900F900F900F90DF91CF911F9146
:102FF0000F91FF90EF90DF90CF900C94B01CFF20CA
:1030000099F0EE2009F4B5CF802F0F900F900F901C
:103010000F900F90DF91CF911F910F91FF90EF9044
:10302000DF90CF900C94A414EE2009F4B5CF802F3C
:103030000F900F900F900F900F90DF91CF911F91F5
:103040000F91FF90EF90DF90CF900C944315412F9C
:103050004F70602FC6010E94E71F0F900F900F90D6
:103060000F900F90DF91CF911F910F91FF90EF90F4
:10307000DF90CF900C94D61B412F4F70602FC6016C
:103080000F900F900F900F900F90DF91CF911F91A5
:103090000F91FF90EF90DF90CF900C947B090F90F1
:1030A0000F900F900F900F90DF91CF911F910F9184
:1030B000FF90EF90DF90CF9008950E94861E0E94AF
:1030C000581E0E94A01E0E9486250E94542480E063
:1030D00090E00E94641380E090E00C947A130E94C8
:1030E000761E0C945D180E948B1D292F22952F703F
:1030F0002C3030F42A3048F42250223078F405C0C5
:103100002C3041F02F3031F009C0803E48F0803F34
:1031100029F406C093FB882780F9089580E008957C
:1031200081E00895CF93DF9300D000D01F92CDB7F8
:10313000DEB70F900F900F900F900F90DF91CF910F
:103140000895CF93DF9300D000D000D0CDB7DEB785
:1031500026960FB6F894DEBF0FBECDBFDF91CF919C
:1031600008951F93CF93DF93C091760116E080916D
:103170007701C81799F0D0E01C9FF0011D9FF00D5A
:103180001124E858FE4F408151816281738184810E
:1031900095810E94A1182196C770E9CFDF91CF9148
:1031A0001F9108954091A8015091A9016091AA0131
:1031B0007091AB018091AC019091AD010C94A1187C
:1031C000CF938091AD0182958F7009F05FC080919F
:1031D000AA01882309F45AC080917601B091770141
:1031E0007091A801A091A9014091AB015091AC014F
:1031F00091E07F3F09F090E0692FC6E08B1709F45A
:1032000045C04115510521F0AF3F21F020E003C03A
:1032100021E001C0262F90E020FD35C0C89FF001BD
:10322000C99FF00D1124E858FE4F21812A132BC0AD
:103230002081271328C02281211125C023813481B8
:103240002417350710F421503109241B350B26397A
:103250003105C8F42091AD012F7020612093AD019C
:1032600026E0289FF001299FF00D1124E358FE4F1E
:1032700080818F708061808388EA91E00E94791557
:10328000CF910C94B11801968770B8CFCF91089563
:10329000AF92BF92CF92DF92EF92FF920F931F9364
:1032A000CF93DF93CDB7DEB761970FB6F894DEBF4B
:1032B0000FBECDBF8C0185E0F801DE011D960190A7
:1032C0000D928A95E1F7D8014C9111965C91119776
:1032D0001296EC903091A8016091A9018091AB0108
:1032E0009091AC01009731F06F3F31F421E03F3F06
:1032F00019F403C021E001C020E0B22FB170BB2E51
:1033000020FD64C1F801C380D480A090AA01AA2046
:1033100009F4C3C02091AD01C816D90628F0D60122
:10332000A81BB90BCD0104C0809590958C0D9D1DF7
:10333000FF24F3948639910580F0F12C207F09F069
:103340009CC07C2DD98AC88A6E2D89890E949218CA
:1033500088EA91E00E947915B4C0822F807F09F03D
:1033600054C0561314C0431312C0FE2CE1100FC0FA
:103370002F7020612093AD010E94D21888EA91E05D
:103380000E9479158091AD01F80185834FC1CD2848
:1033900031F05F3F31F481E04F3F19F403C081E029
:1033A00001C080E080FD03C081E08E2502C080E086
:1033B00090E0F82FF170FF2E80FF1CC08091760105
:1033C0002091770136E0821709F40DC190E0389F13
:1033D000F001399FF00D1124E858FE4F618156131A
:1033E00006C06081461303C06281E61203C00196E5
:1033F0008770E9CFFE2CEE2009F418C18091AD0151
:1034000081608093AD01F12C11C1561309C04313A3
:1034100007C0E11005C08091AD01F8018583B0C0FF
:103420004D875E878D859E850E947318882379F16C
:10343000EE2069F12091AD01822F82958F7090E08E
:10344000029774F08091A8019091A90198878F83C9
:103450001986DB86CA862C87CE0107960E947915CD
:1034600086E0F801A8EAB1E001900D928A95E1F7B3
:103470000E94E0180E94D2180DC0561761F14D87C6
:103480005E878D859E850E947318811138C0C801A2
:103490000E947915FF24F394C9C0C816D90608F410
:1034A00046C0F601E81BF90BCF018639910508F4F7
:1034B00043C0F12C7C2DD98AC88A6E2D89890E943F
:1034C0009218E8EAF1E086E0DF011D928A95E9F7BB
:1034D0000E94D218ABC04313D2CFE110D0CF80915D
:1034E000AD01F8018583C8010E94791586E0E8EAFC
:1034F000F1E0DF011D928A95E9F7FA2C97C0EE20E2
:1035000031F22091AD01822F82958F7090E0029769
:103510000CF4A6CF8091A8019091A9019A83898388
:103520001B82DD82CC822E83CE01019697CF8095BF
:1035300090958C0D9D1DB9CFFE2CEE2009F4A7CFE0
:10354000561333C0431331C02091AD0120FD24C078
:10355000822F82958F70482F50E041155105E1F080
:10356000D80115962C9315974F30510549F08F5F70
:10357000982F9295907F822F8F70892B15968C9320
:10358000C8010E94791586E0F801A8EAB1E001902F
:103590000D928A95E1F79CCF86E0F801A8EAB1E0A8
:1035A00001900D928A95E1F741C04D875E878D8528
:1035B0009E850E947318811153CF8091AD01816067
:1035C0008093AD01C8010E94791530C0EE2009F446
:1035D0005ECF4D875E878D859E850E9473188823F8
:1035E00009F455CF3DCF4D875E878D859E850E941E
:1035F0008B1D292F22952F70223028F49F7039F0CF
:10360000811105C00BC0243028F49F7049F4805EFE
:10361000883020F0C8010E947915BF2CFB2C06C011
:10362000D80115969C91907F91F7F8CF8F2D6196D8
:103630000FB6F894DEBF0FBECDBFDF91CF911F91C3
:103640000F91FF90EF90DF90CF90BF90AF900895D3
:103650001F93CF93DF93CDB7DEB72C970FB6F894B7
:10366000DEBF0FBECDBF4F83588769877A878B87B0
:103670009C87CE0107960E9448198823D1F09F812C
:1036800088852A853B85232B31F08F3F31F481E0FB
:103690009F3F19F403C081E001C080E080FD47C076
:1036A0004F81588569857A858B859C850E94A118F4
:1036B0003EC086E0FE013796DE01119601900D9224
:1036C0008A95E1F7FF81E8856A857B85611571053B
:1036D00031F0EF3F31F481E0FF3F19F403C081E0A6
:1036E00001C080E080FD23C02091770130E0C90156
:1036F0000196877099274091760150E084179507CD
:10370000F1F1F983EA837D836C8396E0929FD00187
:10371000939FB00D1124A858BE4FFE013196019021
:103720000D929A95E1F7809377010E94B11816E007
:103730008091760190917701891771F1189FC001EE
:10374000112488589E4F0E944819882329F1E0913E
:1037500076011E9FF0011124E858FE4F40815181EF
:1037600062817381848195810E94A1188091760184
:1037700090E001968770992780937601D9CF0E94B7
:103780006F181092770110927601E8EAF1E086E076
:10379000DF011D928A95E9F72C960FB6F894DEBFEB
:1037A0000FBECDBFDF91CF911F910895EF92FF9291
:1037B0000F931F93CF93DF938C01892B09F46AC079
:1037C000F12CEE24E394E8012196F80184918437EA
:1037D00040F4843008F04FC0813081F0823019F11C
:1037E00059C0853709F442C098F19CE7980F90378B
:1037F00008F050C08F770E9443153FC00E5F1F4FE7
:10380000FE01849190E2980F983050F48770FE2D5D
:1038100001C0FF0F8A95EAF78F2F0E94791E2EC0F4
:103820000E94A4142BC00E5F1F4FFE01849190E2F2
:10383000980F983050F48770FE2D01C0FF0F8A95C5
:10384000EAF78F2F0E947F1E19C00E94431516C0F1
:103850000E5F1F4FFE01C491CC2381F08FE99FE0E2
:103860000197F1F700C00000C150F6CF0E5F1F4F67
:10387000FE01F49003C00E94A4148E018F2D8823B2
:1038800009F4A1CFEFE9FFE03197F1F700C00000A4
:103890008150F5CFDF91CF911F910F91FF90EF9065
:1038A000089508956093B2017093B3018093B401B9
:1038B0009093B5010C945D180F931F930091B20182
:1038C0001091B3012091B4013091B501DC01CB011D
:1038D000802B912BA22BB32B8093B2019093B30139
:1038E000A093B401B093B5011F910F910C945D1892
:1038F0000F931F930091B2011091B3012091B40175
:103900003091B501DC01CB0180239123A223B323A5
:103910008093B2019093B301A093B401B093B50129
:103920001F910F910C945D180F931F930091B2019A
:103930001091B3012091B4013091B501DC01CB01AC
:1039400080279127A227B3278093B2019093B301D8
:10395000A093B401B093B5011F910F910C945D1821
:103960001092AE011092AF011092B0011092B1010D
:103970000C945D1841E050E060E070E004C0440F3A
:10398000551F661F771F8A95D2F74093AE0150935B
:10399000AF016093B0017093B1010C945D1841E0E8
:1039A00050E060E070E004C0440F551F661F771FB1
:1039B0008A95D2F78091AE019091AF01A091B001AC
:1039C000B091B101482B592B6A2B7B2B4093AE0150
:1039D0005093AF016093B0017093B1010C945D18E6
:1039E00041E050E060E070E004C0440F551F661FE6
:1039F000771F8A95D2F74095509560957095809184
:103A0000AE019091AF01A091B001B091B1014823F6
:103A100059236A237B234093AE015093AF016093F7
:103A2000B0017093B1010C945D1841E050E060E08A
:103A300070E004C0440F551F661F771F8A95D2F7A8
:103A40008091AE019091AF01A091B001B091B10110
:103A5000482759276A277B274093AE015093AF012F
:103A60006093B0017093B1010C945D180F931F9394
:103A70000091AE011091AF012091B0013091B101E0
:103A8000DC01CB01802B912BA22BB32B8093AE01B9
:103A90009093AF01A093B001B093B1011F910F912A
:103AA0000C945D180F931F930091AE011091AF011C
:103AB0002091B0013091B101DC01CB018023912331
:103AC000A223B3238093AE019093AF01A093B001E2
:103AD000B093B1011F910F910C945D180F931F9338
:103AE0000091AE011091AF012091B0013091B10170
:103AF000DC01CB0180279127A227B3278093AE0159
:103B00009093AF01A093B001B093B1011F910F91B9
:103B10000C945D180895CF92DF92EF92FF920F936D
:103B20001F93CF93DF938C01C090AE01D090AF0173
:103B3000E090B001F090B1018091B2019091B30199
:103B4000A091B401B091B501C82AD92AEA2AFB2A6A
:103B5000CFE1D0E0D701C6010C2E04C0B695A795E1
:103B6000979587950A94D2F780FF07C0B8018C2FEC
:103B70000E94741F8130910531F4219758F7B801E4
:103B800080E00E94741FDF91CF911F910F91FF90F1
:103B9000EF90DF90CF90089590910C01992359F107
:103BA000982F9695969596959F30A0F4E0910D01EB
:103BB000F0910E01E90FF11D877021E030E0A901BD
:103BC00002C0440F551F8A95E2F7CA019181892BE3
:103BD000818308959091C90190FF29C01F928F930E
:103BE0008FE195E09F938F930E9440090F900F9073
:103BF0000F900F90089520910D0130910E01F90161
:103C000032969FEF40E05191851789F09F3F19F45C
:103C1000511101C0942F4F5F4E30A9F79F3F39F0EB
:103C2000F901E90FF11D97FDFA9582830895089532
:103C300090910C01992361F1982F96959695969500
:103C40009F30A8F4E0910D01F0910E01E90FF11DF4
:103C5000877021E030E0A90102C0440F551F8A950A
:103C6000E2F7CA018095918189238183089590911B
:103C7000C90190FF1CC01F928F9381E095E09F9334
:103C80008F930E9440090F900F900F900F9008950E
:103C9000E0910D01F0910E019F01225F3F4F928153
:103CA000891301C012823196E217F307C1F7089514
:103CB00081E090E0E0910D01F0910E01E80FF91F15
:103CC0001082019680319105A9F708958091C8016D
:103CD00008959091C801892B8093C801089580951B
:103CE0009091C80189238093C80108951092C8015A
:103CF00008959091C701892B8093C70108958095FD
:103D00009091C70189238093C70108951092C7013C
:103D100008958093B60108951092B6010895809198
:103D20000D0190910E01FC0131969C01205F3F4FE7
:103D300080E0919191118F5FE217F307D1F7089519
:103D4000E0910D01F0910E018091C8018083E09116
:103D50000D01F0910E0190818091C701892B808324
:103D60008091B601882361F0E0910D01F0910E0180
:103D70009081892B80830E948F1E81111092B60141
:103D800080910D0190910E010C9410138D3B50F415
:103D9000883AE8F4853A90F4843070F4813009F47C
:103DA0005BC007C0803E28F0883E30F0803F08F0BE
:103DB00050C080E090E0089590E00895853A09F4BD
:103DC0004EC0863A09F44EC083E890E40895883ADC
:103DD00009F44BC0893A09F44BC08A3A09F44BC044
:103DE0008B3A09F44BC08C3A09F44BC08B3B09F475
:103DF0004BC08C3B09F44BC08D3A09F44BC0803B5F
:103E000009F44BC08E3A09F44BC08F3A09F44BC009
:103E1000813B09F44BC0823B09F44BC0833B09F45E
:103E20004BC0843B09F44BC0853B09F44BC0863B37
:103E300009F44BC0873B09F44BC0883B09F44BC0E5
:103E4000893B09F44BC08A3B09F44BC080E094E401
:103E5000089590E09065089581E090E0089581E8EC
:103E600090E4089582E890E4089582EE94E4089541
:103E700089EE94E408958AEE94E4089585EB94E441
:103E8000089586EB94E4089583EB94E4089584EB1D
:103E900094E4089587EB94E408958CEC94E40895F9
:103EA0008DEC94E4089583E895E408958AE895E418
:103EB000089582E995E4089584E995E4089581E2FE
:103EC00096E4089583E296E4089584E296E40895E2
:103ED00085E296E4089586E296E4089587E296E402
:103EE00008958AE296E408950E94A209803EA8F40B
:103EF000803C00F5813309F45CC038F4893209F460
:103F000052C08A3209F45BC05FC08933B1F0823895
:103F1000A1F0853309F441C057C0833E41F128F434
:103F2000803E99F0823EB9F04FC0863E31F1873E27
:103F300071F14AC00E94B40908959091DF0190FD8B
:103F400002C091FF41C080EE3FC08091DF0180FF41
:103F5000FACF89E339C08091DF0182FF0CC08091E4
:103F6000DF0184FF02C080E02FC083EE2DC080916E
:103F7000DF0182FFF4CF82EE27C08091DF0183FF53
:103F80000AC08091DF0184FDEECF87EE1DC08091D5
:103F9000DF0183FFF6CF86EE17C08091DF0185FF3A
:103FA00006C089E211C08091DF0185FFFACF85E369
:103FB0000BC08091DF0186FF06C08AE205C08091B8
:103FC000DF0186FFFACF81E30E94C61E089580E0DC
:103FD00090E008959093CB018093CA010895CF9209
:103FE000DF92EF92FF926C01EE24FF24C114D10402
:103FF000E104F10421F0C701B60120E101C020E095
:10400000C72ED82EE92EFF24C114D104E104F104F7
:1040100019F0285FC701B6016B017C0154E0F694EA
:10402000E794D794C7945A95D1F7C114D104E10409
:10403000F10419F02C5FC701B6016B017C0142E06D
:10404000F694E794D794C7944A95D1F7C114D10454
:10405000E104F10419F02E5FC701B601DC01CB01C8
:10406000B695A79597958795892B8A2B8B2B09F069
:104070002F5F822FFF90EF90DF90CF900895829571
:10408000982F937344E0949F900111248C7C869523
:104090008695282B822F8575880F2A7A2695822B64
:1040A0000895CF93DF93D92F0E943F20C82F8D2FE3
:1040B0000E943F202C2F30E0322F2227A901482BCD
:1040C000CA01DF91CF9108958091E401843011F10C
:1040D00020E488E190E00FB6F894A8958093600002
:1040E0000FBE2093600083B7817F846083BF83B756
:1040F000816083BF7894889583B78E7F83BF0FB626
:10410000F894A89580916000886180936000109277
:1041100060000FBE0895CF930E9449090E94E409F0
:104120000E944A09C0E08C2F0E94150B892B29F4AC
:10413000CF5FC630C1F780E001C081E0CF91089524
:104140000C946F1882E084BD93E095BD9AEF97BD03
:1041500080936E0008952FB7F8948091CC019091D0
:10416000CD01A091CE01B091CF012FBF0895CF9284
:10417000DF92EF92FF920F931F932FB7F894409125
:10418000CC015091CD016091CE017091CF012FBF34
:104190006A017B01EE24FF248C0120E030E0C01690
:1041A000D106E206F30610F4415051099A01281B8A
:1041B000390BC9011F910F91FF90EF90DF90CF90C5
:1041C00008951F920F920FB60F9211248F939F9311
:1041D000AF93BF938091CC019091CD01A091CE017E
:1041E000B091CF010196A11DB11D8093CC01909398
:1041F000CD01A093CE01B093CF01BF91AF919F911C
:104200008F910F900FBE0F901F9018950E94131062
:10421000F8942FEF87EA91E6215080409040E1F733
:1042200000C0000087E090EBDC018093ED019093EB
:10423000EE01A093EF01B093F0019CE088E10FB68E
:10424000F894A895809360000FBE90936000FFCF14
:10425000CF92DF92EF92FF920F931F93CF93DF9352
:10426000D82FC0E0EE24E394F12C8C2F0E94150B84
:104270006C0100E010E0C701002E02C0880F991FFA
:104280000A94E2F78C219D21892B31F40F5F1F4F97
:104290000031110581F709C0602F7C2F80E00E945A
:1042A000A2098D13F3CF81E004C0CF5FC630E9F6D9
:1042B00080E0DF91CF911F910F91FF90EF90DF9001
:1042C000CF900895CF93C82F8CE20E942821882395
:1042D00021F08C2FCF910C94282180E0CF9108956C
:1042E000CF930E94BF22811102C00E94A52284E4C4
:1042F00095E00E94A708C5E6C15049F00E94E40974
:104300008FE39CE90197F1F700C00000F5CF8DE342
:1043100095E00E94A70889E20E946221811113C1E1
:104320008AE20E94622181110E94A52285E00E94FA
:10433000622181110E9406210E94CA228093C90134
:1043400087E00E9462218823A9F18BE10E9462210B
:10435000882351F08091C90181FB222720F991E047
:10436000922790FB81F90EC08EE00E946221882383
:1043700061F08091C90182FB222720F991E0922708
:1043800090FB82F98093C90115C080E10E946221EF
:104390009091C901882341F093FB222720F981E005
:1043A000822780FB93F904C0892F809580FB90F9C8
:1043B0009093C9018091C9010E94CE220E94DC2203
:1043C0008093DF0180EE0E946221882341F080917A
:1043D000DF01982F909590FB80F98093DF0189E3AE
:1043E0000E946221882359F08091DF0181FB2227FE
:1043F00020F991E0922790FB81F98093DF0182EE12
:104400000E946221882359F08091DF0182FB2227DC
:1044100020F991E0922790FB82F98093DF0186EEEC
:104420000E946221882359F08091DF0183FB2227BB
:1044300020F991E0922790FB83F98093DF0183EECE
:104440000E946221882359F08091DF0184FB22279A
:1044500020F991E0922790FB84F98093DF0185E3B6
:104460000E946221882359F08091DF0185FB222779
:1044700020F991E0922790FB85F98093DF0181E399
:104480000E946221882359F08091DF0186FB222758
:1044900020F991E0922790FB86F98093DF0181E17A
:1044A0000E946221882359F08091DF0187FB222737
:1044B00020F991E0922790FB87F98093DF018091AA
:1044C000DF010E94E0228091DF0187FB882780F9CD
:1044D00080930C0187E20E946221C82F8EE10E9426
:1044E00062218111C2608FE10E9462218111C4604A
:1044F00080E20E9462218111C86081E20E946221F3
:104500008111C06182E20E9462218111C06283E256
:104510000E9462218111C06484E20E94622188238A
:1045200011F0C06802C0CC2329F08C2F0E94D72242
:104530006C2F03C00E94D322682F70E080E090E0CF
:10454000CF910C94521CCF9108956DEE7EEF80E0D8
:1045500090E00E942B2E60E082E090E00E941D2EF1
:1045600060E083E090E00E941D2E60E084E090E037
:104570000E941D2E60E085E090E00C941D2E80E0EE
:1045800090E00E94172E21E08D3E9E4F09F020E022
:10459000822F089582E090E00C940F2E682F82E025
:1045A00090E00C941D2E83E090E00C940F2E682F69
:1045B00083E090E00C941D2E84E090E00C940F2E8C
:1045C000682F84E090E00C941D2E8091D20180FF32
:1045D0000BC06091120185E0689FB00111247595B0
:1045E0006795759567952BC081FF09C06091120191
:1045F00085E0689FB00111247595679520C082FF02
:1046000007C06091120185E0689FB001112417C0B6
:104610009091D3019923D1F060911101961788F7F9
:104620002091120185E0289F90011124929FA00102
:10463000939F500D112470E0CA010E94E12D603853
:10464000710540F46115710519F406C065E070E06C
:10465000862F08958FE7089581E008958091D20113
:1046600080FF08C06091100170E0759567957595A1
:10467000679521C081FF06C06091100170E07595BB
:10468000679519C082FF04C06091100170E010C0EE
:104690009091D301992399F060910F019617A0F79B
:1046A00080911001899FC001112470E00E94E12DCA
:1046B0006038710540F46115710519F406C061E0B8
:1046C00070E0862F08958FE7089581E00895803F78
:1046D00021F40E94E522819504C0813F29F40E94C3
:1046E000E5228093D6010895823F21F40E94E522BD
:1046F000819504C0833F29F40E94E5228093D5016F
:104700000895893F19F40E942E2305C08A3F31F491
:104710000E942E2381958093D70108958B3F21F429
:104720000E942E23819504C08C3F29F40E942E23E1
:104730008093D8010895843F21F48091D401816051
:1047400017C0853F21F48091D401826011C0863F5B
:1047500021F48091D40184600BC0873F21F48091C3
:10476000D401886005C0883F31F48091D401806114
:104770008093D40108958D3F21F48091D20181600E
:104780000BC08E3F21F48091D201826005C08F3F23
:1047900029F48091D20184608093D2010895803FF2
:1047A00039F48091D60187FF6CC01092D60169C0A0
:1047B000813F29F48091D6011816BCF362C0909114
:1047C000D501823F29F497FF5CC01092D50159C0F2
:1047D000833F19F41916CCF354C0893F41F48091FA
:1047E000D70118160CF04DC01092D7014AC08A3F6D
:1047F00029F48091D70187FF44C0F6CF8B3F39F46D
:104800008091D80187FF3DC01092D8013AC08C3FFB
:1048100029F48091D8011816BCF333C0843F21F4E9
:104820008091D4018E7F17C0853F21F48091D401FF
:104830008D7F11C0863F21F48091D4018B7F0BC006
:10484000873F21F48091D401877F05C0883F31F4F0
:104850008091D4018F7E8093D40113C08D3F21F4C9
:104860008091D2018E7F0BC08E3F21F48091D201C6
:104870008D7F05C08F3F29F48091D2018B7F80937B
:10488000D2018091D50181110EC08091D601811194
:104890000AC08091D701811106C08091D801811191
:1048A00002C01092D30108958091C90183FF7EC098
:1048B00080E895E00E94A7088091D4011F928F9311
:1048C0008BE795E09F938F930E94400989E795E0DD
:1048D0000E94A7088091D501282F082E000C330BC9
:1048E0003F938F9386E795E09F938F930E944009B3
:1048F00084E795E00E94A7088091D601282F082E12
:10490000000C330B3F938F9381E795E09F938F9338
:104910000E9440098FE695E00E94A7088091D70188
:10492000282F082E000C330B3F938F938CE695E0D5
:104930009F938F930E9440098AE695E00E94A70802
:104940008091D801282F082E000C330B3F938F93B2
:1049500087E695E09F938F930E94400984E695E057
:104960000E94A7088091D3011F928F9381E695E062
:104970009F938F930E9440098FE595E00E94A708BE
:104980008091D2011F928F938CE595E09F938F9336
:104990000E94400989E595E00E94A7088DB79EB75F
:1049A0004C960FB6F8949EBF0FBE8DBF84ED91E07C
:1049B0000E9459130E94AB209093D1018093D001A3
:1049C00008951F93CF93DF938091D0019091D101EF
:1049D0000E94B720AC019091D301992321F020913E
:1049E000130130E006C0209114018AE0289F900155
:1049F00011244217530708F485C08091D501C09156
:104A0000D601D091D7011091D801811107C0C111F1
:104A100075C0D11173C0111171C074C09F3F19F0DE
:104A20009F5F9093D301181624F40E94E52280938F
:104A3000D5018091D50187FF05C00E94E5228195AF
:104A40008093D5011C1624F40E94E5228093D601A0
:104A50008091D60187FF05C00E94E5228195809351
:104A6000D6016091D501662331F1C091D601CC23E6
:104A700011F1062E000C770B880B990B0E94E82C85
:104A800023E333E343E35FE30E944C2D0E94B02C09
:104A90006093D5016C2FCC0F770B880B990B0E947C
:104AA000E82C23E333E343E35FE30E944C2D0E94B1
:104AB000B02C6093D6011D1624F40E942E238093FF
:104AC000D7018091D70187FF05C00E942E238195D1
:104AD0008093D701111624F40E942E238093D801CD
:104AE0008091D80187FF05C00E942E238195809375
:104AF000D801DF91CF911F910C9454249F3F09F06E
:104B00008FCFA0CFDF91CF911F910895E4EDF1E019
:104B100085E0DF011D928A95E9F71092D30110928A
:104B2000D20108958FE49AE00E94A70882E49AE0F7
:104B30000E94A70885E39AE00C94A70882EB99E00D
:104B40000E94A70885EA99E00E94A7088AE899E0F0
:104B50000E94A7088FE699E00E94A70887E599E0E0
:104B60000E94A7088DE399E00E94A7088FE199E0D1
:104B70000E94A7088FEF98E00E94A7088AEE98E0AD
:104B80000E94A70883ED98E00E94A70886EB98E0B2
:104B90000E94A70887E998E00E94A70887E798E0A5
:104BA0000E94A70885E598E00E94A70880E298E0A7
:104BB0000E94A7088BE098E00E94A7081F9285E05A
:104BC0008F9388E098E09F938F930E9440098FEF26
:104BD00097E00E94A7081F9281E08F938CEF97E0E7
:104BE0009F938F930E9440098AEF97E00E94A70845
:104BF0008DB79EB708960FB6F8949EBF0FBE8DBFB7
:104C00008DEC97E00C94A708833009F459C028F480
:104C1000813061F0823079F10895853009F49AC0CD
:104C200008F473C0863009F4BAC008958091140165
:104C3000262F30E0280F311D2F3F310524F4680F57
:104C40006093140103C08FEF8093140189EA96E00A
:104C50000E94A708809114011F928F9386EA96E024
:104C60009F938F930E9440090F900F900F900F9089
:104C700084EA96E0B8C080911301262F30E0280F17
:104C8000311D2F3F310524F4680F6093130103C0D9
:104C90008FEF8093130185E996E00E94A708809129
:104CA00013011F928F9382E996E09F938F930E9446
:104CB00040090F900F900F900F9080E996E093C0FD
:104CC00080911201262F30E0280F311D2F3F310532
:104CD00024F4680F6093120103C08FEF80931201D8
:104CE00080E896E00E94A708809112011F928F939E
:104CF0008DE796E09F938F930E9440090F900F904D
:104D00000F900F908BE796E06EC080911101262FD7
:104D100030E0280F311D2F3F310524F4680F6093D8
:104D2000110103C08FEF8093110189E696E00E9484
:104D3000A708809111011F928F9386E696E09F93BA
:104D40008F930E9440090F900F900F900F9084E670
:104D500096E049C080911001262F30E0280F311DC8
:104D60002F3F310524F4680F6093100103C08FEFCB
:104D7000809310018EE496E00E94A70880911001B4
:104D80001F928F938BE496E09F938F930E9440092C
:104D90000F900F900F900F9089E496E024C08091BF
:104DA0000F01262F30E0280F311D2F3F310524F44D
:104DB000680F60930F0103C08FEF80930F0181E3B1
:104DC00096E00E94A70880910F011F928F938EE2B8
:104DD00096E09F938F930E9440090F900F900F9041
:104DE0000F908CE296E00C94A708833009F44DC034
:104DF00028F4813061F0823049F10895853009F45A
:104E000082C008F461C0863009F49CC00895809186
:104E10001401681720F4861B8093140102C01092BD
:104E2000140180E296E00E94A708809114011F926D
:104E30008F938DE196E09F938F930E9440090F908E
:104E40000F900F900F908BE196E09AC08091130124
:104E5000681720F4861B8093130102C0109213017F
:104E60008CE096E00E94A708809113011F928F9317
:104E700089E096E09F938F930E9440090F900F90D6
:104E80000F900F9087E096E07BC080911201681729
:104E900020F4861B8093120102C01092120187EF4A
:104EA00095E00E94A708809112011F928F9384EFD2
:104EB00095E09F938F930E9440090F900F900F9061
:104EC0000F9082EF95E05CC080911101681720F48B
:104ED000861B8093110102C01092110180EE95E0B3
:104EE0000E94A708809111011F928F938DED95E08C
:104EF0009F938F930E9440090F900F900F900F90F7
:104F00008BED95E03DC080911001681720F4861B61
:104F10008093100102C01092100185EC95E00E9470
:104F2000A708809110011F928F9382EC95E09F93C8
:104F30008F930E9440090F900F900F900F9080EC7C
:104F400095E01EC080910F01681720F4861B8093A6
:104F50000F0102C010920F0188EA95E00E94A70895
:104F600080910F011F928F9385EA95E09F938F9315
:104F70000E9440090F900F900F900F9083EA95E0E8
:104F80000C94A708CF93C82F8EE19AE00E94A7083F
:104F90006091B2017091B3018091B4019091B5011B
:104FA0000E94EF1F1F928F938BE19AE09F938F9344
:104FB0000E94400986E19AE00E94A7081F92CF93C1
:104FC00083E19AE09F938F930E94400981E19AE0E8
:104FD0000E94A70881E090E0A0E0B0E0BC01CD0114
:104FE00004C0660F771F881F991FCA95D2F70E94C9
:104FF000521C8DB79EB708960FB6F8949EBF0FBE91
:105000008DBFCF910C946F18CF93482F50E0FA01C9
:105010003697E334F10508F0C0C2E059FF4F0C9415
:10502000F52D83E590E10E94A7080E946A2C0E945A
:1050300004130E94650B43C188E490E10E94A70815
:1050400086E99DE00E94A7080E94D3221F928F93B9
:1050500083E99DE09F938F930E94400981E99DE041
:105060000E94A7080E94CA22C82F8EE79DE00E94D6
:10507000A7081F92CF9389E79DE09F938F930E948B
:10508000400987E79DE00E94A7088DE69DE00E9409
:10509000A7088C2F81701F928F938AE69DE09F93C3
:1050A0008F930E94400988E69DE00E94A7088EE544
:1050B0009DE00E94A708C1FB882780F91F928F936B
:1050C0008BE59DE09F938F930E94400989E59DE0C9
:1050D0000E94A7088DE49DE00E94A708C2FB8827D4
:1050E00080F91F928F938AE49DE09F938F930E9493
:1050F000400988E49DE00E94A7088FE39DE00E949C
:10510000A708C3FBCC27C0F91F92CF938CE39DE087
:105110009F938F930E9440098AE39DE00E94A70815
:105120000E94DC22C82F86E29DE00E94A7081F9201
:10513000CF9381E29DE09F938F930E9440098FE17E
:105140009DE00E94A70886E09DE00E94A7088C2FA2
:1051500081701F928F9383E09DE09F938F930E94B5
:1051600040098DB79EB780960FB6F8949EBF0FBECC
:105170008DBF81E09DE00E94A7088AEE9CE00E941E
:10518000A708C1FB882780F91F928F9387EE9CE0C8
:105190009F938F930E94400985EE9CE00E94A70890
:1051A00083ED9CE00E94A708C2FB882780F91F922C
:1051B0008F9380ED9CE09F938F930E9440098EEC2B
:1051C0009CE00E94A7088CEB9CE00E94A708C3FB10
:1051D000882780F91F928F9389EB9CE09F938F9390
:1051E0000E94400987EB9CE00E94A7088DEA9CE0A2
:1051F0000E94A708C4FB882780F91F928F938AEA30
:105200009CE09F938F930E94400988EA9CE00E9453
:10521000A70886E99CE00E94A708C5FB882780F9BB
:105220001F928F9383E99CE09F938F930E94400984
:1052300081E99CE00E94A70885E79CE00E94A708FE
:10524000C6FB882780F91F928F9382E79CE09F938B
:105250008F930E94400980E79CE00E94A70888E69F
:105260009CE00E94A708C7FBCC27C0F91F92CF93F0
:1052700085E69CE09F938F930E94400983E69CE023
:105280000E94A7088DB79EB74C960FB6F8949EBFA4
:105290000FBE8DBF14C00E94FF12892B91F00E9497
:1052A000FF129093DB018093DA010E946F1880E077
:1052B00090E00E94FA128FE390E10E94A708C1E0FB
:1052C00071C18091DA019091DB010E94FA1284E3AE
:1052D00090E1F3CF87E49CE00E94A70880E39CE084
:1052E0000E94A70888E19CE00E94A70880E09CE05B
:1052F0000E94A70886EE9BE00E94A7088FEC9BE027
:105300000E94A70885EB9BE00E94A70885E99BE027
:105310000E94A7088FE79BE00E94A7088EE69BE00B
:105320000E94A70886E59BE00E94A70886E49BE010
:105330000E94A7088CE29BE00E94A70883E19BE003
:105340000E94A7088AEF9AE00E94A70881EE9AE0DF
:105350000E94A70888EC9AE00E94A70887EA9AE0D2
:105360000E94A70885E89AE00E94A7088BE69AE0C9
:10537000A4CF8091C901817F8E7F8093C9010E9453
:1053800092258FE190E10E94A7088BE190E10E94B5
:10539000A70881E08093D90192CF0E946F1882E024
:1053A00090E10E94A7089FEF23ED80E391502040F9
:1053B0008040E1F700C000000E94062182EF9FE0DC
:1053C0007CCF8091C901C82FC17080FF09C08FEDCB
:1053D0009FE00E94A7088091C901817F8E7F47C00E
:1053E0008DEC9FE00E94A7088091C90181608093A5
:1053F000C90165CF9091C90191FBCC27C0F981E02B
:10540000C827892FC0FB81F98093C901CC2319F0EB
:1054100084EB9FE027C08AE99FE04FCF9091C901BC
:1054200092FBCC27C0F981E0C827892FC0FB82F905
:105430008093C901CC2319F08FE79FE013C083E666
:105440009FE03BCF9091C90193FBCC27C0F981E04D
:10545000C827892FC0FB83F98093C901CC2351F061
:105460008BE49FE00E94A7088091C901816080932E
:10547000C90198C082E39FE020CF8BE19FE00E94AA
:10548000A7088FE09FE00E94A70882ED9EE00E949F
:10549000A70885EA9EE00E94A70880E69EE00E9499
:1054A000A70885E39EE009CF8091CC019091CD01C2
:1054B000A091CE01B091CF01BF93AF939F938F93F3
:1054C00081E29EE09F938F930E9440090F900F907E
:1054D0000F900F900F900F90F2CE8BE09EE00E9405
:1054E000A7080E9404131F928F9381EF9DE09F9362
:1054F0008F930E94400980910B011F928F938AED38
:105500009DE09F938F930E944009809150011F92CC
:105510008F9387EC9DE09F938F930E9440098DB7F6
:105520009EB70C960FB6F8949EBF0FBE8DBFC7CE28
:105530000E946F18C0910C0181E0C827C0930C0134
:10554000CC2329F088EB9DE00E94A7082BC088EAB5
:105550009DE0B3CE81E890E00E9464139FEF21EEBE
:1055600084E0915020408040E1F700C0000080E0DE
:1055700090E00E9464139FEF29E688E1915020405B
:105580008040E1F700C000009ACE80E003C08D515A
:1055900001C089530E94C22792CE86EA9DE00E94F4
:1055A000A708C0E08C2FCF91089580E008950C9457
:1055B000D52ACF93C82F8091D901813071F020F086
:1055C000823009F451C060C1E0910D01F0910E01EB
:1055D0008081823209F05AC107C0E0910D01F0913B
:1055E0000E018081823261F48C2F0E94D72A8111B2
:1055F00004C08C2F0E94042835C081E090E032C0A6
:105600008C2F0E94D52A81112CC0C431F1F090F466
:10561000CB30A1F0C03101F50E949E2580EE99E0CB
:105620000E94A7088CED99E00E94A70882E0809371
:10563000D90117C0C93249F0C83371F40E949225CC
:105640008DE09AE00E94A7080CC089EF99E00E94C3
:10565000A7081092D9011CC18AED99E00E94A70801
:1056600017C181E0817016C1C83228F5CE3108F02B
:10567000C0C0CB30A1F1D0F4C73009F0E8C08EE152
:105680008093140182E3809313018AE080931201D6
:1056900084E18093110188E08093100188E2809377
:1056A0000F0182E897E00E94A708D6C0C33141F1FC
:1056B000C431C1F0CCC0CB3409F4BEC028F4C93227
:1056C00089F0C83361F0C3C0C13509F4B3C0C23535
:1056D00009F4AEC0CE3409F0BAC06AE0B3C00E948B
:1056E0009E25BAC01092DC0185EB97E00E94A708C6
:1056F00081EB97E00E94A70881E08093D901CAC09E
:1057000085E597E00E94A70880E497E00E94A7083B
:10571000809114011F928F938DE397E09F938F9355
:105720000E9440098BE397E00E94A70886E297E079
:105730000E94A708809113011F928F9383E297E044
:105740009F938F930E94400981E297E00E94A708EF
:105750008FE097E00E94A708809112011F928F931B
:105760008CE097E09F938F930E9440098AE097E036
:105770000E94A70886EF96E00E94A7088091110179
:105780001F928F9383EF96E09F938F930E9440091F
:1057900081EF96E00E94A70889ED96E00E94A70895
:1057A000809110011F928F9386ED96E09F938F93C7
:1057B0000E94400984ED96E00E94A7088AEB96E0DB
:1057C0000E94A70880910F011F928F9387EB96E0AC
:1057D0009F938F930E94400985EB96E00E94A70853
:1057E0008DB79EB748960FB6F8949EBF0FBE8DBF7B
:1057F00033C0CE51EC2FF0E0E25DFE4F808180930C
:10580000DC018CE997E00E94A7088091DC011F92DF
:105810008F9389E997E09F938F930E94400987E9CE
:1058200097E00E94A7080F900F900F900F9014C060
:1058300061E003C061E006C06AE08091DC010E9483
:1058400004260AC08091DC010E94F52605C080E88C
:1058500097E00E94A70816C08EE797E00E94A7086D
:105860008091DC011F928F938BE797E09F938F933A
:105870000E94400988E797E00E94A7080F900F90C8
:105880000F900F9081E006C01092D90180E002C015
:1058900080E0E8CECF910895E1E8F0E08081886073
:1058A00080838081816080838FB7F89493E09093A8
:1058B000890090ED909388008FBF0895EFE6F0E0A7
:1058C0008081826080830895EFE6F0E080818D7FA3
:1058D00080830895EFE6F0E0908182E0892780835D
:1058E00008951F920F920FB60F9211242F933F939A
:1058F0004F935F936F937F938F939F93AF93BF93D8
:10590000EF93FF938091DD019091DE0101969093DA
:10591000DE018093DD01811103C082E00E94650BEE
:10592000E091DE01E695E695F0E0ED59FF4EE49159
:105930008091DD018E1303C080E00E94650BFF9112
:10594000EF91BF91AF919F918F917F916F915F91F7
:105950004F913F912F910F900FBE0F901F90189570
:105960000E94B72C6894B1110C94462D08950E94A2
:105970002B2D88F09F5798F0B92F9927B751B0F089
:10598000E1F0660F771F881F991F1AF0BA95C9F7C3
:1059900014C0B13091F00E94452DB1E008950C94EF
:1059A000452D672F782F8827B85F39F0B93FCCF3A2
:1059B000869577956795B395D9F73EF49095809540
:1059C000709561957F4F8F4F9F4F0895E89409C060
:1059D00097FB3EF490958095709561957F4F8F4F22
:1059E0009F4F9923A9F0F92F96E9BB279395F69538
:1059F000879577956795B795F111F8CFFAF4BB0FB6
:105A000011F460FF1BC06F5F7F4F8F4F9F4F16C019
:105A1000882311F096E911C0772321F09EE8872FA3
:105A2000762F05C0662371F096E8862F70E060E05F
:105A30002AF09A95660F771F881FDAF7880F9695D8
:105A4000879597F9089557FD9058440F551F59F0C1
:105A50005F3F71F04795880F97FB991F61F09F3F5B
:105A600079F087950895121613061406551FF2CF84
:105A70004695F1DF08C0161617061806991FF1CFD4
:105A800086957105610508940895E894BB276627FB
:105A90007727CB0197F908950E945F2D0C94D02DA4
:105AA0000E94C22D38F00E94C92D20F0952311F0DC
:105AB0000C94B92D0C94BF2D11240C94462D0E94EA
:105AC000232D70F3959FC1F3950F50E0551F629FF2
:105AD000F001729FBB27F00DB11D639FAA27F00D47
