:100000000C945F080C94A6080C94A6080C94A608FF
:100010000C94A6080C94A6080C94A6080C94A608A8
:100020000C94A6080C94A6080C9493100C946511DB
:100030000C94A6080C94A6080C94A6080C94A60888
:100040000C94A6080C94912C0C94A6080C94A60869
:100050000C94A6080C9401210C94A6080C94A608F4
:100060000C94A6080C94A6080C94A6080C94A60858
:100070000C94A6080C94A6080C94A6080C94A60848
:100080000C94A6080C94A6080C94A6080C94A60838
:100090000C94A6080C94A6080C94A6080C94A60828
:1000A0000C94A6080C94A6080C94A608D211F4117E
:1000B000E212F411E21239125C12E212B112C4120D
:1000C000B815B815E715E71541167F168818881872
:1000D00098168818991799175C1888188818731833
:1000E000D929012A3C28ED2AED2A8A29ED2AED2A70
:1000F0002E2AED2A422AB82AED2AED2AED2AED2AE7
:100100008D2A742AED2A5D2AED2A1A2AED2A312831
:10011000E72AE72AE72AE72AE72AE72AE72AE72A57
:10012000E72AE52AED2AE52AED2AED2AED2AED2A2D
:10013000ED2AED2AED2AED2AED2AED2AED2AE52A0F
:10014000ED2AED2A8A296B29E92AE92AE92AE92AEE
:10015000E92AE92AE92AE92AE92AE92AE92AE92A07
:10016000CA2AED2AED296E6F7420737570706F7254
:100170007465642E0A004A756D7020746F20626F7A
:100180006F746C6F616465722E2E2E20000000F17A
:10019000A1F1A2000000000000000000000000002B
:1001A0000000000000000000F0000001F0291E1F08
:1001B00020212223242526272D2E31352B141A0801
:1001C00015171C180C12132F30002AE0041607090B
:1001D0000A0B0D0E0F3334002800E11D1B06190514
:1001E0001110363738E55200003D00C1E3002C0005
:1001F000E6C2000050514F00013A3B3C3D3E3F40BB
:1002000041424344459A000100004D0000004B006C
:1002100000000000004C014A004E00005051524FB7
:1002200000000000000100000000000000000000CD
:1002300001000000010101010001000101000000B6
:10024000000000CF696A00000000ACAEABA8AAA90C
:1002500000B001000052000000000000000000009B
:100260000001000000000000494A4B2A0000000085
:10027000010000000000004C4D4E00010000000194
:1002800001010100010001010000000000000A005E
:100290002530313662003A200025303258000A728B
:1002A0002F632030313233343536373839414243C9
:1002B0004445460A000A002530325800626F756EC8
:1002C0006365213A20005B735D004B6579626F6165
:1002D00072642073746172742E0A00555342206355
:1002E0006F6E666967757265642E0A005B575D0004
:1002F0005B535D005B525D005B445D005B435D00F2
:100300000A034D004C003600350000000E036A0061
:1003100068006900670067007300000004030904B7
:1003200009028D00050100A032090400000103014B
:100330000100092111010001223F00070581030886
:10034000000A090401000103010200092111010052
:1003500001224D000705820308000A09040200017A
:100360000300000009211101000122360007058366
:100370000308000A09040300020300000009211118
:100380000100012220000705840320000107050465
:1003900003200001090404000103000000092111E9
:1003A0000100012239000705850310000112011028
:1003B0000100000008EDFE6260010001020001057D
:1003C000010906A101050719E029E7150025019596
:1003D0000875018102050819012905950575019126
:1003E000029501750391010507190029771500256C
:1003F00001957875018102C00631FF0974A10109D8
:1004000075150025FF9520750881020976150025D0
:10041000FF952075089102C005010980A1018502A0
:1004200016010026B7001A01002AB70075109501C1
:100430008100C0050C0901A1018503160100269C5D
:10044000021A01002A9C02751095018100C0050165
:100450000902A1010901A1000509190129051500D9
:10046000250195057501810295017503810105013D
:10047000093009311581257F9502750881060938F3
:100480001581257F950175088106050C0A3802152E
:1004900081257F950175088106C0C005010906A167
:1004A00001050719E029E715002501950875018167
:1004B0000295017508810105081901290595057541
:1004C0000191029501750391010507190029FF1596
:1004D0000025FF950675088100C00A0025303258B6
:1004E00020006B6579626F6172645F7265706F7214
:1004F000743A20000A0025303258006B6579626F2B
:100500006172645F7365745F6C65643A2000646552
:100510006C5F6B65795F6269743A2063616E277402
:100520002064656C3A20253032580A006164645FAB
:100530006B65795F6269743A2063616E277420612C
:1005400064643A20253032580A00646F6E652E0AC2
:1005500000626F6F676D61676963207363616E3AF4
:10056000202E2E2E2000290A002575002F0025752B
:10057000005D28002564002000256400200025641B
:100580000020002564007C0025303258006D6F7516
:1005900073656B6579205B62746E7C782079207658
:1005A00020685D287265702F61636C293A205B00BA
:1005B0000A002575006D6B5F776865656C5F74690F
:1005C0006D655F746F5F6D6178203D20000A0025C6
:1005D00075006D6B5F776865656C5F6D61785F73E3
:1005E00070656564203D20000A002575006D6B5F15
:1005F00074696D655F746F5F6D6178203D20000ADE
:10060000002575006D6B5F6D61785F737065656463
:10061000203D20000A002575006D6B5F696E7465D2
:100620007276616C203D20000A002575006D6B5FBD
:1006300064656C6179203D20000A002575006D6BB2
:100640005F776865656C5F74696D655F746F5F6D1A
:100650006178203D20000A002575006D6B5F77688A
:1006600065656C5F6D61785F7370656564203D20C2
:10067000000A002575006D6B5F74696D655F746FAE
:100680005F6D6178203D20000A002575006D6B5F6D
:100690006D61785F7370656564203D20000A0025F8
:1006A00075006D6B5F696E74657276616C203D20BC
:1006B000000A002575006D6B5F64656C6179203DF3
:1006C00020000A00257500363A206D6B5F7768655B
:1006D000656C5F74696D655F746F5F6D61783A20FA
:1006E000000A00257500353A206D6B5F77686565F7
:1006F0006C5F6D61785F73706565643A20000A0015
:10070000257500343A206D6B5F74696D655F746F99
:100710005F6D61783A20000A00257500333A206D3C
:100720006B5F6D61785F73706565643A20000A00E5
:10073000257500323A206D6B5F696E746572766163
:100740006C286D73293A20000A00257500313A2083
:100750006D6B5F64656C6179282A31306D73293A5D
:1007600020000A0A2D2D2D2D2D204D6F7573656BE0
:10077000657920506172616D6574657273202D2DED
:100780002D2D2D0A003E20002575004D003F0073E1
:1007900065742064656661756C742076616C75653E
:1007A000732E0A000A0025750073656C6563746515
:1007B0006420706172616D657465723A2000433E19
:1007C00020000A51756974204D6F7573656B6579EA
:1007D00020436F6E736F6C650A0053656520687403
:1007E00074703A2F2F656E2E77696B697065646936
:1007F000612E6F72672F77696B692F4D6F75736507
:100800005F6B6579730A000A002575002C207768F4
:1008100065656C3D002575007768657265206465C7
:100820006C74613A20637572736F723D000A737065
:10083000656564203D2064656C7461202A206D61CB
:10084000785F7370656564202A2028726570656121
:1008500074202F2074696D655F746F5F6D617829F6
:100860000A007067646F776E3A0964656372656148
:10087000736520706172616D6574657273282D31C6
:1008800030290A00706775703A09696E6372656194
:10089000736520706172616D6574657273282B31A8
:1008A00030290A00646F776E3A0964656372656186
:1008B000736520706172616D6574657273282D3186
:1008C000290A0075703A09696E6372656173652063
:1008D000706172616D6574657273282B31290A002D
:1008E000643A097365742064656661756C7420767A
:1008F000616C7565730A00703A097072696E7420D4
:10090000706172616D65746572730A00363A0973BD
:10091000656C656374206D6B5F776865656C5F748B
:10092000696D655F746F5F6D61780A00353A0973B0
:10093000656C656374206D6B5F776865656C5F6D72
:1009400061785F73706565640A00343A0973656C99
:10095000656374206D6B5F74696D655F746F5F6D47
:1009600061780A00333A0973656C656374206D6BB6
:100970005F6D61785F73706565640A00323A097370
:10098000656C656374206D6B5F696E74657276610A
:100990006C286D73290A00313A0973656C656374BC
:1009A000206D6B5F64656C6179282A31306D732925
:1009B0000A004553432F713A09717569740A000A98
:1009C0000A2D2D2D2D2D204D6F7573656B657920AA
:1009D000506172616D65746572732048656C70203A
:1009E0002D2D2D2D2D0A003F004D303E000A456E65
:1009F000746572204D6F7573656B657920436F6EFA
:100A0000736F6C650A000A5175697420436F6E73C9
:100A10006F6C65204D6F64650A00433E20000A003C
:100A200025750020746F2000257500737769746345
:100A3000685F64656661756C745F6C617965723A54
:100A400020006D3A096D6F7573656B65790A004515
:100A500053432F713A09717569740A000A0A2D2DE2
:100A60002D2D2D20436F6E736F6C652048656C7063
:100A7000202D2D2D2D2D0A00506175733A096A75B0
:100A80006D7020746F20626F6F746C6F616465723B
:100A90000A00436170733A094C6F636B204B6579B0
:100AA000626F617264284368696C642050726F6F72
:100AB00066290A00505363723A09706F7765722095
:100AC000646F776E2F72656D6F74652077616B65EB
:100AD0002D75700A00342F46343A097377697463B0
:100AE0006820746F204C6179657234200A00332FBE
:100AF00046333A0973776974636820746F204C61D8
:100B000079657233200A00322F46323A09737769C9
:100B100074636820746F204C6179657232200A001A
:100B2000312F46313A0973776974636820746F20F6
:100B30004C6179657231200A00302F4631303A0914
:100B400073776974636820746F204C6179657230C3
:100B5000200A006E3A09746F67676C65204E4B522D
:100B60004F0A00653A097072696E7420656570728B
:100B70006F6D20636F6E6669670A00733A09707261
:100B8000696E74207374617475730A00743A097025
:100B900072696E742074696D657220636F756E740E
:100BA0000A00763A097072696E742064657669632A
:100BB000652076657273696F6E202620696E666F98
:100BC0000A007A3A09746F67676C6520736C656513
:100BD00070204C454420746573740A006D3A0974A2
:100BE0006F67676C65206D6F7573652064656275EE
:100BF000670A006B3A09746F67676C65206B6579EB
:100C0000626F6172642064656275670A00783A09F0
:100C1000746F67676C65206D6174726978206465B4
:100C20006275670A00643A09746F67676C652064CF
:100C30006562756720656E61626C650A00633A09DA
:100C4000656E74657220636F6E736F6C65206D6F77
:100C500064650A000A0A2D2D2D2D2D20436F6D6D20
:100C6000616E642048656C70202D2D2D2D2D0A009D
:100C70000A002575002E6E6B726F3A20000A00255F
:100C800075002E737761705F6261636B736C617363
:100C9000685F6261636B73706163653A20000A008C
:100CA0002575002E737761705F67726176655F6589
:100CB00073633A20000A002575002E6E6F5F67751A
:100CC000693A20000A002575002E737761705F7203
:100CD000616C745F726775693A20000A00257500BF
:100CE0002E737761705F6C616C745F6C6775693AC5
:100CF00020000A002575002E636170736C6F636BB2
:100D00005F746F5F636F6E74726F6C3A20000A00DD
:100D10002575002E737761705F636F6E74726F6CF0
:100D20005F636170736C6F636B3A20000A0025305B
:100D30003258006B65796D61705F636F6E666967CD
:100D40002E7261773A20000A002575002E6D6F75AE
:100D500073653A20000A002575002E6B6579626F75
:100D60006172643A20000A002575002E6D6174726C
:100D700069783A20000A002575002E656E61626C64
:100D8000653A20000A0025303258006465627567B4
:100D90005F636F6E6669672E7261773A20000A00A2
:100DA00025750064656661756C745F6C6179657248
:100DB0003A20003F004E4B524F3A20646973616203
:100DC0006C65640A004E4B524F3A20656E61626C4E
:100DD00065640A006B6579626F6172645F69646C57
:100DE000653A2025580A006B6579626F6172645F0D
:100DF00070726F746F636F6C3A2025580A00686FC9
:100E000073745F6B6579626F6172645F6C65647344
:100E100028293A2025580A000A0A2D2D2D2D2D208B
:100E2000537461747573202D2D2D2D2D0A00746956
:100E30006D65725F636F756E743A202530346C583F
:100E40000A004743433A20342E392E32204156526D
:100E50002D4C4942433A20322E302E3020415652FA
:100E60005F415243483A20617672350A004F505430
:100E7000494F4E533A204C55464120424F4F544D16
:100E800041474943204D4F5553454B4559204558FF
:100E90005452414B455920434F4E534F4C452043EC
:100EA0004F4D4D414E44204E4B524F203430393639
:100EB0000A004255494C443A20633535386337328D
:100EC0002D6469727479202831353A30303A3030E7
:100ED000204170722032372032303139290A0056D1
:100EE00049443A20307846454544286A686967672E
:100EF0007329205049443A20307836303632284D14
:100F00004C363529205645523A2030783030303131
:100F10000A00444553433A20542E4D2E4B2E204870
:100F200061636B65642046696C636F204D696E690F
:100F30006C612E0A000A0A2D2D2D2D2D205665726A
:100F400073696F6E202D2D2D2D2D0A000A44454208
:100F500055473A206D6F7573652064697361626CE3
:100F600065642E0A000A44454255473A206D6F7564
:100F7000736520656E61626C65642E0A000A4445E3
:100F80004255473A206B6579626F617264206469EB
:100F90007361626C65642E0A000A44454255473A03
:100FA000206B6579626F61726420656E61626C6549
:100FB000642E0A000A44454255473A206D61747216
:100FC00069782064697361626C65642E0A000A4462
:100FD000454255473A206D617472697820656E61AB
:100FE000626C65642E0A000A44454255473A206502
:100FF0006E61626C65642E0A000A44454255473AA8
:101000002064697361626C65642E0A006E6F7420DF
:10101000737570706F727465642E0A000A0A4A75DF
:101020006D7020746F20626F6F746C6F6164657295
:101030002E2E2E2000433E20000A456E746572203D
:10104000436F6E736F6C65204D6F64650A00556E5B
:101050006C6F636B65642E0A004C6F636B65642E66
:101060000A006565636F6E6669673A0A00536C65CE
:101070006570204C454420746573740A00000000BC
:101080000000000000000000010204060A0F172003
:101090002C3A4A5D71879DB3C7DAE9F5FCFFFCF590
:1010A000E9DAC7B39D87715D4A3A2C20170F0A060B
:1010B00004020100000000000000000000001124F4
:1010C0001FBECFEFDAE0DEBFCDBF04B603FE27C000
:1010D0008091E8019091E901A091EA01B091EB01C2
:1010E0008730904BA740B04BD1F41092E80110929A
:1010F000E9011092EA011092EB0114BE84B7877FD8
:1011000084BF0FB6F894A8958091600088618093A1
:101110006000109260000FBEE0E0F8E3099511E076
:10112000A0E0B1E0E4ECFCE502C005900D92A8332C
:10113000B107D9F721E0A8E3B1E001C01D92A83EB4
:10114000B207E1F70E94C40D0C94602E0C940000CD
:10115000FF93EF93E091C501F091C601309709F03C
:101160000995EF91FF910895FC018591803011F070
:10117000EFDFFBCF0895FF27E0E230E247FF0CC02E
:10118000419597FF09C0EDE2609570958095909527
:10119000611D711D811D911D27FF02C0219530E346
:1011A00050E2AA27660F771F881F991FAA1FA4174E
:1011B00010F0A41B63955A95A9F7AA3008F0A95F0F
:1011C000A05DAF93F395611571058105910541F718
:1011D000ED3211F4EF93F395F21718F43F93F39572
:1011E000FBCF8F91B5DFFA95E1F70895E991F99179
:1011F0008591803021F0853219F0AADFF9CF08956A
:1012000020E0E89455915532C1F3503311F46894BD
:1012100055915A3348F4505390F3220F022E220F67
:10122000220F200D250FF4CF0EF42195899199916D
:10123000533619F3533729F1533559F1BC01882737
:101240009927E8945C3621F4899199916894559195
:10125000543639F446EF7EF077FF0DC08FEF9FEFE5
:101260000AC055374AE039F0583540E121F052368E
:1012700042E009F00895FF93EF937DDFEF91FF9136
:10128000B7CFFF93EF93FC0181918030B9F360DF1A
:10129000FBCFFF93EF9368DFF1CFDF93CF93CDB711
:1012A000DEB72596A3DFCF91DF91089508950895C5
:1012B0000E94791E81FD06C00E94791E85FB882749
:1012C00080F901C081E0817008950E94791E83FD3C
:1012D0000AC00E94791E082E000C990B892F881FC6
:1012E0008827881F089581E00895882379F00E9457
:1012F0005809882311F085E305C00E946509811112
:10130000FACF89E20E94DE1D0C94B31E0C9498184B
:10131000FC018281662319F0613019F008950C9464
:1013200075090E94AA188091C30180FF04C086E756
:1013300091E00E94B408FFEF20E782E0F1502040E6
:101340008040E1F700C000000E9426218091C30187
:1013500080FF04C086E691E00C94B40808959FE0F5
:10136000799FF00111249BE4899FE00DF11D112468
:10137000E60FF11DE355FE4F84910895E82FF0E04C
:10138000EE0FFF1FE35FFF4F85919491089580B3A7
:101390008C7880BB81B38C7881BB08950E94C7098B
:1013A00084B114B885B18FEF85B98AB180778AB9D5
:1013B0008BB18F688BB93E98469A87988F9AE2E4F2
:1013C000F1E0A8E3B1E0119211921D921D9281E02B
:1013D000EC34F807C1F70895CF92DF92EF92FF92B5
:1013E0000F931F93CF93DF9308E311E0E801C12C23
:1013F000E5E0DE2EF7EBEF2EF2E0FF2E82E0C816DE
:1014000091F08C1520F091E0C91651F006C0A3E0D0
:10141000CA1661F0B4E0CB1661F0809A88980BC0D0
:10142000819A899808C0849A8C9805C0859A8D986D
:1014300002C0869A8E9880EA8A95F1F729B1022E29
:10144000000C330B20953095832F881F8827881F29
:1014500090E01C9903C022E030E002C020E030E0C0
:10146000822B932B1D9903C024E030E002C020E0C2
:1014700030E0822B932B1E9903C028E030E002C09D
:1014800020E030E0AC01422B532B2FB1022E000C98
:10149000330B20953095C9018827990F881F99270C
:1014A00074E0880F991F7A95E1F7842B952B369974
:1014B00003C020E230E002C020E030E0822B932B1A
:1014C0004B9903C020E430E002C020E030E0822BE2
:1014D000932B4A9903C0E0E8F0E002C0E0E0F0E0BE
:1014E0008E2B9F2B499903C060E071E002C060E041
:1014F00070E0862B972B489903C020E032E002C0B1
:1015000020E030E0AC01422B532B23B1022E000C23
:10151000330B20953095C9018827990F881F99278B
:10152000982F8827990F990F842B952B1B9903C00F
:1015300040E058E002C040E050E0842B952B1A991F
:1015400003C040E050E102C040E050E0842B952B06
:10155000199903C020E030E202C020E030E0822B85
:10156000932B189903C020E030E402C020E030E063
:10157000822B932B288139812817390741F19983D0
:10158000888380910001882301F18091C30180FF4D
:1015900004C08CEB92E00E94B4088091C30180FFEC
:1015A0000CC0809100011F928F93FF92EF920E94D6
:1015B0004D090F900F900F900F908091C30180FF05
:1015C00004C085EB92E00E94B408D09200010E9412
:1015D000C709C394229695E0C91210CF80910001EB
:1015E0008823C1F0815080930001882339F0AFE94E
:1015F000BFE01197F1F700C000000CC0E2E4F1E099
:10160000D8018D919D918D0181939193B1E0023428
:101610001B07B1F781E0DF91CF911F910F91FF90F0
:10162000EF90DF90CF900895E82FF0E0EE0FFF1FCE
:10163000EE5BFE4F808191810895CF92DF92EF9211
:10164000FF920F931F93CF93DF938EE992E00E9456
:10165000B40882E4E82E81E0F82EC0E0D0E099E9F9
:10166000C92E92E0D92E00E912E0DF93CF93DF92EA
:10167000CF920E944D0986E992E00E94B408F701DA
:10168000819191917F010E9468209F938F931F9376
:101690000F930E944D098EE892E00E94B4082196B3
:1016A0008DB79EB708960FB6F8949EBF0FBE8DBF3C
:1016B000C530D105D1F6DF91CF911F910F91FF90E9
:1016C000EF90DF90CF900895089580915E01089586
:1016D0009091DF01943009F04CC09091E9009F7027
:1016E0003091EC00232F217030FD20E8922B24E074
:1016F0002093E9002091EB0020FF38C02091EE00FC
:1017000027FF34C020914D01222321F02091E800D1
:1017100025FF2CC010924D0126E03091E80035FDE8
:1017200015C03091DF01343009F53091EB0035FD03
:101730001DC0215021F481E080934D0117C0EFE9D5
:10174000FFE03197F1F700C00000E7CF8093F10090
:101750008091E80085FD05C08091E8008E77809338
:10176000E8009F709093E90080E008959F70909347
:10177000E9008FEF0895CF93DF9300D01F92CDB78C
:10178000DEB79C018091DF01843019F593E09983E5
:101790003B832A839093E9008FEF9091E80081507A
:1017A00095FD06C095ED9A95F1F700008111F5CFF2
:1017B0008091E80085FF0DC040E050E063E070E0FC
:1017C000CE0101960E94830E8091E8008E7780936F
:1017D000E8000F900F900F90DF91CF910895CF9375
:1017E000DF9300D01F92CDB7DEB72091DF01243008
:1017F00021F522E029839B838A8383E08093E9009B
:101800008FEF9091E800815095FD06C095ED9A9577
:10181000F1F700008111F5CF8091E80085FF0DC040
:1018200040E050E063E070E0CE0101960E94830E3C
:101830008091E8008E778093E8000F900F900F90D2
:10184000DF91CF9108952091DF012430F1F422E05F
:101850002093E9002FEF3091E800215035FD06C0BC
:1018600035ED3A95F1F700002111F5CF2091E80010
:1018700025FF0BC040E050E065E070E00E94830E61
:101880008091E8008E778093E8000895CF93DF93EE
:101890002091DF01243009F044C0EC0180910C015B
:1018A0008823C1F085E08093E9008FEF9091E800F4
:1018B000815095FD06C095E19A95F1F700008111E0
:1018C000F5CF8091E80085FF2CC040E050E060E15A
:1018D00070E017C081E08093E9008FEF9091E800FD
:1018E000815095FD06C095ED9A95F1F700008111A4
:1018F000F5CF8091E80085FF14C040E050E068E03B
:1019000070E0CE010E94830E8091E8008E77809374
:10191000E80080E1FE01AEE4B1E001900D928A950D
:10192000E1F7DF91CF9108958CEF92E00E94B40827
:101930008091DE01811109C00E9418100E9475106B
:101940008091E20084608093E200089588EF92E045
:101950000E94B4081092DE01089584EF92E00C9486
:10196000B40880EF92E00E94B4080E9457090C94DA
:101970007E2C8CEE92E00E94B4080E94C0200E944F
:10198000842C0E9404130C94640B8091DF0184303A
:1019900041F58091E9008F702091EC00922F9170B9
:1019A00020FD90E8892B94E09093E9009091EB0062
:1019B00090FF14C09091EE0097FF10C09091E80046
:1019C00095FF03C01092F100F9CF9091E80090FFCD
:1019D00005C09091E8009E779093E8008F70809307
:1019E000E900089542E061EC81E00E94920F42E03C
:1019F00061EC82E00E94920F42E061EC83E00E9481
:101A0000920F46E261EC84E00E94920F42E161ECA9
:101A100085E00C94920F8091E101833009F455C068
:101A200030F4813071F0823009F495C008958A3025
:101A300009F481C08B3009F460C0893009F0A3C07B
:101A400020C08091E001813A09F09DC08091E800BA
:101A5000877F8093E8008091E4019091E501892BD4
:101A600021F460E18EE491E003C060E080E090E06A
:101A700070E00E94CE0E8091E8008B778093E800A2
:101A800008958091E001813209F07DC08091E401E8
:101A90009091E501009719F0049709F074C08091C6
:101AA000E800877F8093E8008091E80082FD05C010
:101AB0008091DF018111F8CF66C08091F1008093A1
:101AC0005E018091E8008B775AC08091E001813AF5
:101AD00009F059C08091E4019091E501892B09F04A
:101AE00052C08091E800877F8093E8008091E800F1
:101AF00080FFFCCF80910B013DC08091E0018132DD
:101B000009F041C08091E4019091E501892BD9F55C
:101B10008091E800877F8093E8000E94C70F909132
:101B2000E20181E0911101C080E080930B0180937C
:101B30000C010C94AA188091E001813221F580916A
:101B4000E800877F8093E8000E94C70F8091E3013F
:101B500080934C0108958091E001813AA1F4809135
:101B6000E800877F8093E8008091E80080FFFCCF49
:101B700080914C018093F1008091E8008E778093F2
:101B8000E8000C94C70F089584B7877F84BF0FB611
:101B9000F894A8958091600088618093600010920D
:101BA00060000FBE90E080E80FB6F894809361006B
:101BB000909361000FBE0E9418100E9475108091D2
:101BC000E20084608093E20088E69BE00E94FD1FB3
:101BD00078948091DF018430E1F78BED92E00E94F0
:101BE000B4080E94901381E091E00E94FA120E94D2
:101BF0006C2C8AEC92E00E94B4088091DF01853061
:101C000089F486EC92E00E94B4080E9482208091C0
:101C1000DD01882391F30E94AB20882371F30E9499
:101C20006D0EEBCF0E94BE13E8CF292F3327233050
:101C30003105C9F064F42130310581F022303105DD
:101C400009F043C08DE890E020E233E042C0213249
:101C50003105F1F02232310541F137C082E190E0E7
:101C60002DEA33E036C099278130910541F082306A
:101C7000910541F0892B49F5ECE1F3E005C0ECE07A
:101C8000F3E002C0E0E0F3E0849190E09F0121C026
:101C90006530D8F4E62FF0E0EE0FFF1FEC5DFE4F4D
:101CA0002081318189E090E014C0653070F470E0EB
:101CB000FB01EE0FFF1FE65EFE4F20813181FB012D
:101CC000EB5EFE4F808190E004C080E090E020E079
:101CD00030E0FA0131832083089580E189BD82E1FB
:101CE00089BD09B400FEFDCF8091D8008F7D80931F
:101CF000D8008091E00082608093E0008091E00055
:101D000081FDFCCF0895CF92DF92EF92FF920F9367
:101D10001F93CF93DF93EC018B016A010E94E60FC2
:101D2000811133C0C114D10439F0F6018081918151
:101D3000081B190BC80FD91FE12CF12C0115110537
:101D400019F18091E80085FD16C08091E8008E773A
:101D50008093E800C114D10449F0F601808191819B
:101D6000E80EF91EF182E08285E00FC00E94E60FC6
:101D7000882321F30AC089918093F1000150110951
:101D8000FFEFEF1AFF0ADACF80E0DF91CF911F91CA
:101D90000F91FF90EF90DF90CF9008952091E60192
:101DA0003091E7012617370748F06115710539F4BE
:101DB0002091E8002E772093E80001C0B90140E0AF
:101DC00061157105A9F12091DF01222309F443C0B7
:101DD000253009F442C02091E80023FD40C0209145
:101DE000E80022FD32C02091E80020FFE9CF4091B9
:101DF000F3002091F20030E0342BFC01CF0161159B
:101E0000710559F02830310540F481918093F1003B
:101E1000615071092F5F3F4FF1CF41E0283031050C
:101E200009F040E02091E8002E772093E800C8CF29
:101E30004111C9CF0AC08091DF01882361F085304C
:101E400061F08091E80083FD0AC08091E80082FF84
:101E5000F2CF80E0089582E0089583E0089581E064
:101E600008952091E6013091E7012617370748F0E1
:101E70006115710539F42091E8002E772093E80070
:101E800001C0B901FC0120E06115710591F180915B
:101E9000DF01882309F440C0853009F43FC08091F8
:101EA000E80083FD3DC08091E80082FD2FC0809155
:101EB000E80080FFE9CF2091F3008091F20090E0EC
:101EC000922B6115710559F08830910540F42491E9
:101ED0002093F1003196615071090196F2CF21E013
:101EE000089709F020E08091E8008E778093E80061
:101EF000CBCF2111CCCF0AC08091DF01882361F0C4
:101F0000853061F08091E80083FD0AC08091E8008F
:101F100082FFF2CF80E0089582E0089583E0089583
:101F200081E00895982F973058F59093E90098171D
:101F300039F07091EC002091ED005091F00003C059
:101F4000242F762F50E021FF19C03091EB003E7F07
:101F50003093EB003091ED003D7F3093ED003091F8
:101F6000EB0031603093EB007093EC002093ED00B8
:101F70005093F0002091EE0027FF07C09F5FD3CF62
:101F80008F708093E90081E0089580E0089580914A
:101F9000E00187FF11C08091E80082FD05C08091BB
:101FA000DF018111F8CF11C08091E8008B770BC061
:101FB0008091DF01882349F08091E80080FFF8CF0D
:101FC0008091E8008E778093E80008952091E400E6
:101FD0003091E50095E64091EC00842F817040FF40
:101FE00022C08091E80080FD1CC08091DF01882321
:101FF00091F0853091F08091EB0085FD10C040910B
:10200000E4005091E5004217530729F39A019150DB
:1020100011F784E0089582E0089583E0089581E057
:10202000089580E008954091E80042FFDECF0895D2
:102030000E9486100E948E10E0EEF0E080818160A8
:102040008083E8EDF0E080818F77808319BCA7ED75
:10205000B0E08C918E7F8C9380818F7E80831092F4
:10206000DE0108950F931F93CF93DF930E94861094
:102070000E948E10C8EDD0E088818F778883888198
:102080008068888388818F7D888319BC1092DF01E6
:102090001092DB011092DD011092DC0100EE10E0E5
:1020A000F80180818B7F808388818160888342E012
:1020B00060E080E00E94920FE1EEF0E080818E7F90
:1020C0008083E2EEF0E0808181608083808188609F
:1020D0008083F80180818E7F8083888180618883FE
:1020E000DF91CF911F910F910895E8EDF0E080818D
:1020F0008F7E8083E7EDF0E080818160808384E0E3
:1021000082BF81E08093DE010C943210E8EDF0E0B4
:1021100080818E7F80831092E20008951092DA0011
:102120001092E10008951F920F920FB60F921124A2
:102130002F933F934F935F936F937F938F939F93CF
:10214000AF93BF93EF93FF938091E10082FF0BC0A9
:102150008091E20082FF07C08091E1008B7F809335
:10216000E1000E94C50C8091DA0080FF1FC08091C1
:10217000D80080FF1BC08091DA008E7F8093DA0048
:102180008091D90080FF0DC080E189BD82E189BDC9
:1021900009B400FEFDCF81E08093DF010E94940C22
:1021A00005C019BC1092DF010E94A60C8091E100CD
:1021B00080FF19C08091E20080FF15C08091E2008D
:1021C0008E7F8093E2008091E20080618093E20044
:1021D0008091D80080628093D80019BC85E08093FC
:1021E000DF010E94B10C8091E10084FF30C080913A
:1021F000E20084FF2CC080E189BD82E189BD09B481
:1022000000FEFDCF8091D8008F7D8093D800809113
:10221000E1008F7E8093E1008091E2008F7E8093C9
:10222000E2008091E20081608093E2008091DB0116
:10223000882311F084E007C08091E30087FD02C08D
:1022400081E001C083E08093DF010E94B90C80919E
:10225000E10083FF29C08091E20083FF25C08091C7
:10226000E100877F8093E10082E08093DF0110929C
:10227000DB018091E1008E7F8093E1008091E2009C
:102280008E7F8093E2008091E20080618093E20083
:1022900042E060E080E00E94920F8091F000886050
:1022A0008093F0000E94AD0CFF91EF91BF91AF9130
:1022B0009F918F917F916F915F914F913F912F915E
:1022C0000F900FBE0F901F9018951F920F920FB690
:1022D0000F9211242F933F934F935F936F937F93AC
:1022E0008F939F93AF93BF93CF93DF93EF93FF931E
:1022F000C091E900CF708091EC00D82FD17080FDA3
:10230000D0E81092E9008091F000877F8093F00080
:1023100078940E94A9111092E9008091F0008860E1
:102320008093F000CD2BCF70C093E900FF91EF9127
:10233000DF91CF91BF91AF919F918F917F916F91DD
:102340005F914F913F912F910F900FBE0F901F9073
:1023500018951F93CF93DF93CDB7DEB7AA970FB62B
:10236000F894DEBF0FBECDBFE0EEF1E088E08E0F47
:102370009091F10091938E13FBCF0E940B0D8091F1
:10238000E80083FF1FC18091E0019091E101492F96
:1023900050E04A30510508F015C1FA01EA5AFF4FE2
:1023A0000C94152E803881F0823809F00BC1809191
:1023B000E4018F708093E9008091EB0085FB882712
:1023C00080F91092E90006C08091DC019091DD0156
:1023D000911182609091E800977F9093E80080933C
:1023E000F1001092F100C8C0282F2D7F09F0EAC03B
:1023F000882319F0823061F0E5C08091E2018130DC
:1024000009F0E0C0933009F080E08093DD012BC03B
:102410008091E201811127C08091E4018F7009F45D
:10242000D1C08093E9002091EB0020FF1CC09330C5
:1024300021F48091EB00806214C09091EB009061D8
:102440009093EB0021E030E0A90102C0440F551F3A
:102450008A95E2F74093EA001092EA008091EB003F
:1024600088608093EB001092E9008091E800877FFC
:1024700086C08111A7C01091E2011F778091E3000F
:102480008078812B8093E3008091E800877F8093A0
:10249000E8000E94C70F8091E80080FFFCCF809188
:1024A000E30080688093E300111102C082E001C064
:1024B00083E08093DF0186C08058823008F082C0BC
:1024C0008091E2019091E3018C3D53E0950779F50D
:1024D00083E08A838AE289834FB7F894DE011396FA
:1024E00020E03EE051E2E32FF0E050935700E4910A
:1024F00020FF03C0E295EF703F5FEF708E2F90E0FA
:10250000EA3010F0C79601C0C0968D939D932F5F5F
:10251000243149F74FBF8091E800877F8093E8001E
:102520006AE270E0CE0101960E94CE0E14C0AE01A8
:102530004F5F5F4F6091E4010E94150EBC01892B33
:1025400009F440C09091E800977F9093E80089815A
:102550009A810E94310F8091E8008B778093E80088
:1025600031C0803879F58091E800877F8093E8005A
:102570008091DB018093F1008091E8008E77809359
:10258000E8000E94C70F1EC081111CC09091E2019B
:102590009230C0F48091E800877F8093E8009093A8
:1025A000DB010E94C70F8091DB01811106C0809181
:1025B000E30087FD02C081E001C084E08093DF0179
:1025C0000E94F20C8091E80083FF0AC08091E8002D
:1025D000877F8093E8008091EB0080628093EB001E
:1025E000AA960FB6F894DEBF0FBECDBFDF91CF9194
:1025F0001F910895909364018093630108958091E1
:102600006301909164010895E0916301F091640188
:10261000309721F00190F081E02D099480E0089539
:10262000EF92FF920F931F93CF93DF93E09163019B
:10263000F09164013097B1F18C010280F381E02DBB
:1026400009958091C30182FF2DC080FF04C082EEF6
:1026500094E00E94B408E80110E18CEDE82E84E0DB
:10266000F82E8091C30180FF0BC088811F928F9349
:10267000FF92EF920E944D090F900F900F900F90D4
:10268000115021961111EDCF8091C30180FF0AC036
:102690008AED94E0DF91CF911F910F91FF90EF9021
:1026A0000C94B408DF91CF911F910F91FF90EF90A0
:1026B0000895E0916301F0916401309721F0048066
:1026C000F581E02D09940895209161013091620116
:1026D0008217930771F09093620180936101E091FA
:1026E0006301F0916401309721F00680F781E02DBD
:1026F0000994089520915F0130916001821793073A
:1027000071F09093600180935F01E0916301F0911B
:102710006401309721F00084F185E02D099408953B
:102720000E94C2200E94CE090C949021CF93C82F02
:102730008091C30182FF1EC080FF04C08BEF94E034
:102740000E94B4088091C30180FF0CC01F92CF93F8
:1027500086EF94E09F938F930E944D090F900F9006
:102760000F900F908091C30180FF04C084EF94E02C
:102770000E94B4088C2FCF910C94640B4F925F92FF
:102780007F928F929F92AF92BF92CF92DF92EF9201
:10279000FF920F931F93CF93DF93CDB7DEB72A97A6
:1027A0000FB6F894DEBF0FBECDBF0E94EC0996E6CF
:1027B000C92E91E0D92E00E010E0AA24A394B12CF8
:1027C000702E802F0E94140B4C01F6014190519005
:1027D0006F014826592641145104B1F40F5F1F4F71
:1027E0000530110569F78FEF89838A831B820E9468
:1027F000CB208160782F9D838C8349815A816B81A6
:102800008D810E9477143AC08091C30181FD0E949E
:102810001D0B20E030E07501022E02C0EE0CFF1C03
:102820000A94E2F7C70184219521892B09F12E83AF
:102830007F828E209F2091E0892809F490E098877C
:102840000E94CB208160782F9A8789874E815F8193
:1028500068858A850E947714000F111FF801EA59D4
:10286000FE4F80819181E826F926F182E08206C040
:102870002F5F3F4F2F30310571F6B0CF0E940125F9
:10288000109165010E9404131817D9F00E940413D7
:10289000809365012A960FB6F894DEBF0FBECDBFB8
:1028A000DF91CF911F910F91FF90EF90DF90CF902C
:1028B000BF90AF909F908F907F905F904F900C94BF
:1028C00096132A960FB6F894DEBF0FBECDBFDF91E8
:1028D000CF911F910F91FF90EF90DF90CF90BF901D
:1028E000AF909F908F907F905F904F900895CF937F
:1028F000DF93CDB7DEB72B970FB6F894DEBF0FBED0
:10290000CDBF4F83588769877A878B87DE01119601
:1029100086E0FD0111928A95E9F785E0FE01379680
:1029200001900D928A95E1F749815A816B817C81F2
:102930008D819E810E94441B2B960FB6F894DEBFBA
:102940000FBECDBFDF91CF910895CF93882309F4B7
:1029500099C0C82F8CEF8C0F813A48F48C2F0E94BD
:10296000F92A81118FC08C2F0E94DE1D0CC080E2DD
:102970008C0F883058F4C77081E001C0880FCA9569
:10298000EAF70E947C1ECF910C94B31E8BE58C0F4E
:10299000833078F4C53A29F0C63A31F083E890E004
:1029A00005C081E890E002C082E890E0CF910C94ED
:1029B000641388E58C0F833108F064C0C83A39F19C
:1029C000C93A41F1CA3A49F1CB3A51F1CC3A59F1FD
:1029D000CD3A61F1C03B69F1CE3A71F1CF3A79F16C
:1029E000C13B81F1C23B89F1C33B91F1C43B99F1F9
:1029F000C53BA1F1C63BA9F1C73BB1F1C83BB9F159
:102A0000C93BC1F1CA3BC9F180E090E038C082EE19
:102A100090E035C089EE90E032C08AEE90E02FC0A1
:102A200085EB90E02CC086EB90E029C087EB90E02E
:102A300026C08CEC90E023C08DEC90E020C083E8B1
:102A400091E01DC08AE891E01AC082E991E017C0C8
:102A500084E991E014C081E292E011C083E292E047
:102A60000EC084E292E00BC085E292E008C086E2EC
:102A700092E005C087E292E002C08AE292E0CF9144
:102A80000C947A13CF910895882329F19CEF980F25
:102A9000913A18F40E942A1E0DC090E2980F9830C7
:102AA00058F4877091E001C0990F8A95EAF7892F51
:102AB0000E94821E0C94B31E9BE5980F933020F465
:102AC00080E090E00C946413885A833120F480E015
:102AD00090E00C947A130895882321F00E947C1EC4
:102AE0000C94B31E0895882321F00E94821E0C943A
:102AF000B31E0895BF92CF92DF92EF92FF920F9391
:102B00001F93CF93DF9300D000D000D0CDB7DEB7B6
:102B100025E0FC01DE01119601900D922A95E1F766
:102B2000FC01408131810281258122952F706381D2
:102B30007481672B09F4ECC23F3F19F44F3F09F44D
:102B4000E7C27C0149833A8389819A812E830E945E
:102B50009D1D182FB92E0E949C1D0E94631CEB2DF9
:102B6000E295EF70F0E0E05AFF4F2E810C94152EA5
:102B70008B2D807F9B2D9F70F92E882319F0F29466
:102B800080EFF822002349F0FF2009F46EC28F2D58
:102B90000E948C1E0E94B31E68C2812F0E944415A1
:102BA000FF2009F4B5C28F2D0E94921E26960FB603
:102BB000F894DEBF0FBECDBFDF91CF911F910F9173
:102BC000FF90EF90DF90CF90BF900C94B31E8B2DB1
:102BD000807F9B2D9F70803211F4892F03C0892F35
:102BE0008295807F112319F0113011F12BC0002341
:102BF000A9F0222389F1213079F526960FB6F894B1
:102C0000DEBF0FBECDBFDF91CF911F910F91FF901F
:102C1000EF90DF90CF90BF900C949C1E222319F070
:102C2000213009F475C28E830E949F1E8E819BC144
:102C3000002321F0233008F06BC20EC0223008F0D0
:102C400067C291C10023C9F0222331F0F7019581B9
:102C500090FF0BC29F70958326960FB6F894DEBF47
:102C60000FBECDBFDF91CF911F910F91FF90EF90DD
:102C7000DF90CF90BF900C946C15222309F473C1A0
:102C800009C22B2D26952695237030E0211531059C
:102C900021F021303105D1F03BC2002321F0812FFA
:102CA0009B2D937002C080E090E026960FB6F894BA
:102CB000DEBF0FBECDBFDF91CF911F910F91FF906F
:102CC000EF90DF90CF90BF900C946413002321F01D
:102CD000812F9B2D937002C080E090E026960FB666
:102CE000F894DEBF0FBECDBFDF91CF911F910F9142
:102CF000FF90EF90DF90CF90BF900C947A13812FCC
:102D0000002319F00E94872302C00E94EF23269619
:102D10000FB6F894DEBF0FBECDBFDF91CF911F91EC
:102D20000F91FF90EF90DF90CF90BF900C947424A0
:102D30008B2D837009F07BC00111EAC1812F829530
:102D400086958770880F880F912F9F70C92ED12C80
:102D5000E12CF12C082E04C0CC0CDD1CEE1CFF1C59
:102D60000A94D2F714FF12C04FE050E060E070E028
:102D700004C0440F551F661F771F8A95D2F7CB01F9
:102D8000BA01609570958095909503C060E070E001
:102D9000CB012B2D269526952370422F50E04230F3
:102DA0005105D9F04330510569F16C297D298E29EF
:102DB0009F294130510551F126960FB6F894DEBF98
:102DC0000FBECDBFDF91CF911F910F91FF90EF907C
:102DD000DF90CF90BF900C948A1C6C297D298E299E
:102DE0009F2926960FB6F894DEBF0FBECDBFDF91A8
:102DF000CF911F910F91FF90EF90DF90CF90BF90F8
:102E00000C94A61C0E948A1CC701B60126960FB618
:102E1000F894DEBF0FBECDBFDF91CF911F910F9110
:102E2000FF90EF90DF90CF90BF900C946E1C00232A
:102E300019F08B2D817001C08695882309F468C133
:102E4000812F829586958770880F880F912F9F70AC
:102E5000C92ED12CE12CF12C082E04C0CC0CDD1C89
:102E6000EE1CFF1C0A94D2F714FF12C04FE050E092
:102E700060E070E004C0440F551F661F771F8A95FD
:102E8000D2F7CB01BA01609570958095909503C0FB
:102E900060E070E0CB012B2D269526952370422F04
:102EA00050E042305105D9F04330510569F16C29A9
:102EB0007D298E299F294130510551F126960FB663
:102EC000F894DEBF0FBECDBFDF91CF911F910F9160
:102ED000FF90EF90DF90CF90BF900C94641D6C2911
:102EE0007D298E299F2926960FB6F894DEBF0FBE46
:102EF000CDBFDF91CF911F910F91FF90EF90DF90A9
:102F0000CF90BF900C94801D0E94641DC701B60134
:102F100026960FB6F894DEBF0FBECDBFDF91CF91DE
:102F20001F910F91FF90EF90DF90CF90BF900C9486
:102F3000481D103F49F118F4103E48F491C0123F6B
:102F400009F453C0E8F1133F09F464C089C01F704D
:102F50008B2D8F71002321F00E94E11C812F7CCEEC
:102F60000E94021D812F26960FB6F894DEBF0FBE79
:102F7000CDBFDF91CF911F910F91FF90EF90DF9028
:102F8000CF90BF900C9473150023B1F0223008F05D
:102F9000BFC08B2D8F7126960FB6F894DEBF0FBE83
:102FA000CDBFDF91CF911F910F91FF90EF90DF90F8
:102FB000CF90BF900C94271D233008F0A9C0E9CF13
:102FC0000023A9F08B2D8F7126960FB6F894DEBFE3
:102FD0000FBECDBFDF91CF911F910F91FF90EF906A
:102FE000DF90CF90BF900C94E11C002359F38B2D00
:102FF0008F7126960FB6F894DEBF0FBECDBFDF915E
:10300000CF911F910F91FF90EF90DF90CF90BF90E5
:103010000C94021D002399F08B2D8F7126960FB60C
:10302000F894DEBF0FBECDBFDF91CF911F910F91FE
:10303000FF90EF90DF90CF90BF900C94CC1C269621
:103040000FB6F894DEBF0FBECDBFDF91CF911F91B9
:103050000F91FF90EF90DF90CF90BF900C94C21C27
:103060000023A9F0222309F4ADCF812F26960FB6B5
:10307000F894DEBF0FBECDBFDF91CF911F910F91AE
:10308000FF90EF90DF90CF90BF900C94A514222377
:1030900009F4ADCF812F26960FB6F894DEBF0FBE90
:1030A000CDBFDF91CF911F910F91FF90EF90DF90F7
:1030B000CF90BF900C9444154B2D4F70612FC701DA
:1030C0000E94FA1F26960FB6F894DEBF0FBECDBF42
:1030D000DF91CF911F910F91FF90EF90DF90CF90F4
:1030E000BF900C94E81B4B2D4F70612FC7012696A3
:1030F0000FB6F894DEBF0FBECDBFDF91CF911F9109
:103100000F91FF90EF90DF90CF90BF900C948809C3
:1031100026960FB6F894DEBF0FBECDBFDF91CF91DC
:103120001F910F91FF90EF90DF90CF90BF90089587
:103130000E94991E0E946B1E0E94B31E0E94A6252B
:103140000E94742480E090E00E94641380E090E08C
:103150000C947A130E94891E0C9498180E949D1D4D
:10316000292F22952F7030E02C3031054CF42A3075
:1031700031056CF4225031092230310588F407C042
:103180002C30310549F02F30310531F009C0803E37
:1031900048F0803F29F406C093FB882780F9089502
:1031A00080E0089581E00895CF93DF9300D000D0B0
:1031B0001F92CDB7DEB70F900F900F900F900F902A
:1031C000DF91CF910895CF93DF9300D000D000D04E
:1031D000CDB7DEB726960FB6F894DEBF0FBECDBFD3
:1031E000DF91CF9108951F93CF93DF93C09170012A
:1031F00016E080917101C81799F0D0E01C9FF00192
:103200001D9FF00D1124EE58FE4F408151816281C7
:103210007381848195810E94E3182196C770E9CF5C
:10322000DF91CF911F9108954091A2015091A30188
:103230006091A4017091A5018091A6019091A701D0
:103240000C94E3188091A70182958F7009F054C007
:103250008091A401882309F44FC080917001A0914E
:1032600071016091A2017091A3014091A50150915B
:10327000A601B6E08A1709F43FC090E04115510558
:10328000C1F17F3F11F46F3FA1F1B89FF001B99FE9
:10329000F00D1124EE58FE4F218172132AC02081B7
:1032A000621327C02281211124C023813481241775
:1032B000350710F421503109241B350B263931050F
:1032C000C0F42091A7012F7020612093A70126E070
:1032D000289FF001299FF00D1124E958FE4F8081AD
:1032E0008F708061808382EA91E00E947A150C944D
:1032F000F31801968770BECF0895CF92DF92EF92B8
:10330000FF920F931F93CF93DF93CDB7DEB76297F2
:103310000FB6F894DEBF0FBECDBF8C0185E0F8017B
:10332000DE011D9601900D928A95E1F7D8014C912E
:1033300011965C91119712966C9112971396CD90FD
:10334000DC9014973091A2017091A3018091A501A6
:103350009091A601009709F46BC17F3F19F43F3F9C
:1033600009F466C1E090A401EE2009F4C0C02091E8
:10337000A701C816D90628F0F601E81BF90BCF0102
:1033800004C0809590958C0D9D1DFF24F394863983
:10339000910578F0F12C207F09F0C6C07C2DD98AE8
:1033A000C88A89890E94D41882EA91E00E947A151D
:1033B000B1C0822F807F09F046C0751314C034134A
:1033C00012C0611110C02F7020612093A7010E94CC
:1033D000141982EA91E00E947A158091A701D80120
:1033E00015968C932EC0CD2819F15F3F11F44F3FF5
:1033F000F9F0F62E61111CC08091700120917101CD
:1034000036E0821709F45AC090E0389FF001399FE6
:10341000F00D1124EE58FE4F7181571306C07081D4
:10342000471303C07281711103C001968770E9CF01
:10343000F62E662309F418C18091A701816080935C
:10344000A701F12C11C1751308C0341306C0611116
:1034500004C08091A701D801C3C04D875E878D85C8
:103460009E856A8B0E94AE186A898823E1F16623E3
:10347000D1F12091A701822F82958F7090E0029761
:1034800074F08091A2019091A30198878F8319868F
:10349000DB86CA862C87CE0107960E947A1586E0C5
:1034A000F801A2EAB1E001900D928A95E1F70E943D
:1034B00022190E941419FF24F394D6C04D875E8709
:1034C0008D859E850E949D1D292F22952F7030E0AD
:1034D000223031050CF0BCC09F7009F0B6C0805E90
:1034E000883008F4C1C0C8010E947A15E4CFC8161C
:1034F000D90608F453C0F601E81BF90BCF01863951
:10350000910508F450C0F12C7C2DD98AC88A89898C
:103510000E94D418E2EAF1E086E0DF011D928A956C
:10352000E9F70E941419A0C0751314C0341312C017
:10353000611110C08091A701F8018583C8010E9424
:103540007A1586E0E2EAF1E0DF011D928A95E9F75B
:10355000FE2C8AC04D875E878D859E856A8B0E9472
:10356000AE186A89882309F4BECF662309F4BBCF5D
:103570002091A701822F82958F7090E002970CF422
:103580008ECF8091A2019091A3019A8389831B829F
:10359000DD82CC822E83CE0101967FCF80959095DF
:1035A0008C0D9D1DACCFF62E662309F49CCF7513B0
:1035B0002EC034132CC02091A70120FD1FC0822FE4
:1035C00082958F70D9F0D80115962C9315978F306E
:1035D00049F08F5F982F9295907F822F8F70892B63
:1035E00015968C93C8010E947A1586E0F801A2EA2C
:1035F000B1E001900D928A95E1F793CF86E0F80152
:10360000A2EAB1E001900D928A95E1F72DC04D87B5
:103610005E878D859E850E94AE18811140CF809176
:10362000A70181608093A701C8010E947A151CC080
:10363000662309F458CF4D875E878D859E850E944D
:10364000AE18882309F44FCF2ACF811148CF0CC080
:10365000243031050CF047CF9F7009F440CFF801BA
:103660009581907F09F03BCF8F2D62960FB6F8942D
:10367000DEBF0FBECDBFDF91CF911F910F91FF90A5
:10368000EF90DF90CF9008951F93CF93DF93CDB746
:10369000DEB72C970FB6F894DEBF0FBECDBF4F83B9
:1036A000588769877A878B879C87CE0107960E9407
:1036B0007D19882369F08F8198852A853B85232B86
:1036C000F1F19F3F09F063C08F3F09F060C037C040
:1036D00086E0FE013796DE01119601900D928A95E3
:1036E000E1F76F817885EA85FB85309741F17F3F6F
:1036F00011F46F3F21F12091710130E0C901019671
:10370000877099274091700150E08417950709F45C
:1037100047C069837A83FD83EC8396E0929FD00152
:10372000939FB00D1124AE58BE4FFE01319601900B
:103730000D929A95E1F7809371010E94F31816E0BB
:1037400080917001909171018917C1F1189FC0019A
:1037500011248E589E4F0E947D19882379F1E091A3
:1037600070011E9FF0011124EE58FE4F40815181DF
:1037700062817381848195810E94E3188091700138
:1037800090E001968770992780937001D9CF4F817F
:10379000588569857A858B859C850E94E318CFCFF3
:1037A0000E94AA181092710110927001E2EAF1E0F1
:1037B00086E0DF011D928A95E9F7C1CF2C960FB6FE
:1037C000F894DEBF0FBECDBFDF91CF911F9108955A
:1037D000EF92FF920F931F93CF93DF938C01892B6E
:1037E00009F46AC0F12CEE24E394E8012196F80173
:1037F0008491843740F4843008F04FC0813081F0E8
:10380000823019F159C0853709F442C098F19CE71C
:10381000980F903708F050C08F770E9444153FC032
:103820000E5F1F4FFE01C49180E28C0F883048F478
:10383000C7708E2D01C0880FCA95EAF70E948C1EB2
:103840002FC08C2F0E94A5142BC00E5F1F4FFE01AE
:10385000C49180E28C0F883048F4C7708E2D01C06F
:10386000880FCA95EAF70E94921E1AC08C2F0E94F8
:10387000441516C00E5F1F4FFE01C491CC2381F08A
:103880008FE99FE00197F1F700C00000C150F6CF2B
:103890000E5F1F4FFE01F49003C00E94A5148E011D
:1038A0008F2D882309F4A1CFEFE9FFE03197F1F7DD
:1038B00000C000008150F5CFDF91CF911F910F9193
:1038C000FF90EF90089508956093AC017093AD015F
:1038D0008093AE019093AF010C9498180F931F93AF
:1038E0000091AC011091AD012091AE013091AF017A
:1038F000DC01CB01802B912BA22BB32B8093AC014D
:103900009093AD01A093AE01B093AF011F910F91C1
:103910000C9498180F931F930091AC011091AD0176
:103920002091AE013091AF01DC01CB0180239123C6
:10393000A223B3238093AC019093AD01A093AE0179
:10394000B093AF011F910F910C9498180F931F9390
:103950000091AC011091AD012091AE013091AF0109
:10396000DC01CB0180279127A227B3278093AC01EC
:103970009093AD01A093AE01B093AF011F910F9151
:103980000C9498181092A8011092A9011092AA0103
:103990001092AB010C94981841E050E060E070E0A8
:1039A00004C0440F551F661F771F8A95D2F74093B6
:1039B000A8015093A9016093AA017093AB010C94E4
:1039C000981841E050E060E070E004C0440F551FDB
:1039D000661F771F8A95D2F78091A8019091A9015F
:1039E000A091AA01B091AB01482B592B6A2B7B2BDC
:1039F0004093A8015093A9016093AA017093AB0171
:103A00000C94981841E050E060E070E004C0440F6E
:103A1000551F661F771F8A95D2F740955095609580
:103A200070958091A8019091A901A091AA01B091EF
:103A3000AB01482359236A237B234093A801509369
:103A4000A9016093AA017093AB010C94981841E00E
:103A500050E060E070E004C0440F551F661F771F00
:103A60008A95D2F78091A8019091A901A091AA010D
:103A7000B091AB01482759276A277B274093A801BB
:103A80005093A9016093AA017093AB010C9498180C
:103A90000F931F930091A8011091A9012091AA01F1
:103AA0003091AB01DC01CB01802B912BA22BB32BEE
:103AB0008093A8019093A901A093AA01B093AB01B0
:103AC0001F910F910C9498180F931F930091A801C8
:103AD0001091A9012091AA013091AB01DC01CB0129
:103AE00080239123A223B3238093A8019093A9015B
:103AF000A093AA01B093AB011F910F910C94981859
:103B00000F931F930091A8011091A9012091AA0180
:103B10003091AB01DC01CB0180279127A227B3278D
:103B20008093A8019093A901A093AA01B093AB013F
:103B30001F910F910C9498180895CF92DF92EF92F5
:103B4000FF920F931F93CF93DF938C01C090AC0132
:103B5000D090AD01E090AE01F090AF014091A8018E
:103B60005091A9016091AA017091AB01C42AD52A94
:103B7000E62AF72ACFE1D0E0D701C6010C2E04C017
:103B8000B695A795979587950A94D2F780FF07C0B9
:103B9000B8018C2F0E94871F8130910531F4219745
:103BA00058F7B80180E00E94871FDF91CF911F91E5
:103BB0000F91FF90EF90DF90CF90089590910C01BE
:103BC000992359F1982F9695969596959F30A0F444
:103BD000E0910D01F0910E01E90FF11D877021E0D8
:103BE00030E0A90102C0440F551F8A95E2F7CA01CF
:103BF0009181892B818308959091C30190FF29C001
:103C00001F928F938CE295E09F938F930E944D09B2
:103C10000F900F900F900F90089520910D0130910B
:103C20000E01F90132969FEF40E05191581789F04B
:103C30009F3F19F4511101C0942F4F5F4E30A9F7E7
:103C40009F3F39F0F901E90FF11D97FDFA95828345
:103C50000895089590910C01992361F1982F9695FC
:103C6000969596959F30A8F4E0910D01F0910E0184
:103C7000E90FF11D877021E030E0A90102C0440F77
:103C8000551F8A95E2F7CA01809591818923818326
:103C900008959091C30190FF1DC01F928F938EE0F5
:103CA00095E09F938F930E944D090F900F900F9076
:103CB0000F90089520910D0130910E01F901329677
:103CC000205F3F4F9081981301C010823196E21718
:103CD000F307C1F7089581E090E0E0910D01F091C4
:103CE0000E01E80FF91F1082019680319105A9F7A6
:103CF00008958091C20108959091C201892B80930B
:103D0000C201089580959091C20189238093C201D8
:103D100008951092C20108959091C101892B80935A
:103D2000C101089580959091C10189238093C101BB
:103D300008951092C10108958093B00108951092E2
:103D4000B001089580910D0190910E01FC01319612
:103D50009C01205F3F4F80E0919191118F5FE217AE
:103D6000F307D1F70895E0910D01F0910E018091D4
:103D7000C2018083E0910D01F0910E01908180914C
:103D8000C101892B80838091B001882361F0E0918B
:103D90000D01F0910E019081892B80830E94A21E5B
:103DA00081111092B00180910D0190910E010C943F
:103DB00010138D3B50F4883AE8F4853A90F484303F
:103DC00070F4813009F45BC007C0803E28F0883E63
:103DD00030F0803F08F050C080E090E0089590E01F
:103DE0000895853A09F44EC0863A09F44EC083E836
:103DF00090E40895883A09F44BC0893A09F44BC01D
:103E00008A3A09F44BC08B3A09F44BC08C3A09F456
:103E10004BC08B3B09F44BC08C3B09F44BC08D3A33
:103E200009F44BC0803B09F44BC08E3A09F44BC0F7
:103E30008F3A09F44BC0813B09F44BC0823B09F433
:103E40004BC0833B09F44BC0843B09F44BC0853B1A
:103E500009F44BC0863B09F44BC0873B09F44BC0C7
:103E6000883B09F44BC0893B09F44BC08A3B09F4F9
:103E70004BC080E094E4089590E09065089581E05F
:103E800090E0089581E890E4089582E890E4089530
:103E900082EE94E4089589EE94E408958AEE94E421
:103EA000089585EB94E4089586EB94E4089583EBFC
:103EB00094E4089584EB94E4089587EB94E40895E2
:103EC0008CEC94E408958DEC94E4089583E895E4F3
:103ED00008958AE895E4089582E995E4089584E9CF
:103EE00095E4089581E296E4089583E296E40895C6
:103EF00084E296E4089585E296E4089586E296E4E5
:103F0000089587E296E408958AE296E408950E946F
:103F1000AF09803EA8F4803C00F5813309F45CC011
:103F200038F4893209F452C08A3209F45BC05FC0A8
:103F30008933B1F08238A1F0853309F441C057C00C
:103F4000833E41F128F4803E99F0823EB9F04FC0A3
:103F5000863E31F1873E71F14AC00E94BE09089544
:103F60009091DA0190FD02C091FF41C080EE3FC008
:103F70008091DA0180FFFACF89E339C08091DA01BC
:103F800082FF0CC08091DA0184FF02C080E02FC064
:103F900083EE2DC08091DA0182FFF4CF82EE27C03C
:103FA0008091DA0183FF0AC08091DA0184FDEECFAF
:103FB00087EE1DC08091DA0183FFF6CF86EE17C031
:103FC0008091DA0185FF06C089E211C08091DA0193
:103FD00085FFFACF85E30BC08091DA0186FF06C02A
:103FE0008AE205C08091DA0186FFFACF81E30E9460
:103FF000D91E089580E090E008959093C6018093C3
:10400000C5010895CF92DF92EF92FF926C01EE24EA
:10401000FF24C114D104E104F10421F0C701B60169
:1040200020E101C020E0C72ED82EE92EFF24C114C4
:10403000D104E104F10419F0285FC701B6016B0156
:104040007C0154E0F694E794D794C7945A95D1F73D
:10405000C114D104E104F10419F02C5FC701B601C9
:104060006B017C0142E0F694E794D794C7944A959B
:10407000D1F7C114D104E104F10419F02E5FC70196
:10408000B601DC01CB01B695A79597958795892B4D
:104090008A2B8B2B09F02F5F822FFF90EF90DF9000
:1040A000CF9008958295982F9C7C392F3695369520
:1040B000282F237344E0249FC0011124932F982BB1
:1040C000292F2A7A2695892F8575880F822B0895A6
:1040D0001F93CF93DF931F92CDB7DEB799830E94D2
:1040E0005220182F9981892F0E945220212F30E0D1
:1040F000322F2227A901482BCA010F90DF91CF91BF
:104100001F9108958091DF01843021F11092C40144
:1041100020E488E190E00FB6F894A89580936000C1
:104120000FBE2093600083B7817F846083BF83B715
:10413000816083BF7894889583B78E7F83BF0FB6E5
:10414000F894A89580916000886180936000109237
:1041500060000FBE0895CF930E9456090E94EC099B
:104160000E945709C0E08C2F0E94140B892B29F460
:10417000CF5FC530C1F780E001C081E0CF910895E5
:104180000C94AA1882E084BD93E095BD9AEF97BD88
:1041900080936E0008952FB7F8948091C701909195
:1041A000C801A091C901B091CA012FBF0895CF9253
:1041B000DF92EF92FF920F931F932FB7F8944091E5
:1041C000C7015091C8016091C9017091CA012FBF08
:1041D0006A017B01EE24FF248C0120E030E0C01650
:1041E000D106E206F30610F4415051099A01281B4A
:1041F000390BC9011F910F91FF90EF90DF90CF9085
:1042000008951F920F920FB60F9211248F939F93D0
:10421000AF93BF938091C7019091C801A091C9014C
:10422000B091CA010196A11DB11D8093C701909361
:10423000C801A093C901B093CA01BF91AF919F91EA
:104240008F910F900FBE0F901F9018950E9418101D
:10425000F8942FEF87EA91E6215080409040E1F7F3
:1042600000C0000087E090EBDC018093E8019093B0
:10427000E901A093EA01B093EB019CE088E10FB65D
:10428000F894A895809360000FBE90936000FFCFD4
:10429000CF92DF92EF92FF920F931F93CF93DF9312
:1042A000D82FC0E0EE24E394F12C8C2F0E94140B45
:1042B0006C0100E010E09701002E02C0220F331FB6
:1042C0000A94E2F72C213D21232B31F40F5F1F4F7D
:1042D0000F30110581F709C0602F7C2F80E00E940C
:1042E000AF09D813F3CF81E004C0CF5FC530E9F642
:1042F00080E0DF91CF911F910F91FF90EF90DF90C1
:10430000CF900895CF93C82F8CE20E944821882334
:1043100021F08C2FCF910C94482180E0CF9108950B
:10432000CF930E94DF22811102C00E94C52281E545
:1043300095E00E94B408C5E6C15049F00E94EC091E
:104340008FE39CE90197F1F700C00000F5CF8AE404
:1043500095E00E94B40889E20E948221811113C174
:104360008AE20E94822181110E94C52285E00E947A
:10437000822181110E9426210E94EA228093C3019A
:1043800087E00E9482218823A9F18BE10E9482218B
:10439000882351F08091C30181FB222720F991E00D
:1043A000922790FB81F90EC08EE00E948221882323
:1043B00061F08091C30182FB222720F991E09227CE
:1043C00090FB82F98093C30115C080E10E94822195
:1043D0009091C301882341F093FB222720F981E0CB
:1043E000822780FB93F904C0892F809580FB90F988
:1043F0009093C3018091C3010E94EE220E94FC228F
:104400008093DA0180EE0E948221882341F080911E
:10441000DA01982F909590FB80F98093DA0189E377
:104420000E948221882359F08091DA0181FB2227A2
:1044300020F991E0922790FB81F98093DA0182EED6
:104440000E948221882359F08091DA0182FB222781
:1044500020F991E0922790FB82F98093DA0186EEB1
:104460000E948221882359F08091DA0183FB222760
:1044700020F991E0922790FB83F98093DA0183EE93
:104480000E948221882359F08091DA0184FB22273F
:1044900020F991E0922790FB84F98093DA0185E37B
:1044A0000E948221882359F08091DA0185FB22271E
:1044B00020F991E0922790FB85F98093DA0181E35E
:1044C0000E948221882359F08091DA0186FB2227FD
:1044D00020F991E0922790FB86F98093DA0181E13F
:1044E0000E948221882359F08091DA0187FB2227DC
:1044F00020F991E0922790FB87F98093DA0180916F
:10450000DA010E9400238091DA0187FB882780F975
:1045100080930C0187E20E948221C82F8EE10E94C5
:1045200082218111C2608FE10E9482218111C460C9
:1045300080E20E9482218111C86081E20E94822172
:104540008111C06182E20E9482218111C06283E2F6
:104550000E9482218111C06484E20E94822188230A
:1045600011F0C06802C0CC2329F08C2F0E94F722E2
:104570006C2F03C00E94F322682F70E080E090E06F
:10458000CF910C94641CCF9108956DEE7EEF80E086
:1045900090E00E944B2E60E082E090E00E943D2E71
:1045A00060E083E090E00E943D2E60E084E090E0D7
:1045B0000E943D2E60E085E090E00C943D2E80E06E
:1045C00090E00E94372E21E08D3E9E4F09F020E0C2
:1045D000822F089582E090E00C942F2E682F82E0C5
:1045E00090E00C943D2E83E090E00C942F2E682FE9
:1045F00083E090E00C943D2E84E090E00C942F2E0C
:10460000682F84E090E00C943D2E8091CD0180FFD6
:104610000BC06091120185E0689FB001112475956F
:104620006795759567952BC081FF09C06091120150
:1046300085E0689FB00111247595679520C082FFC1
:1046400007C06091120185E0689FB001112417C076
:104650009091CE019923D1F060911101961788F7BE
:104660002091120185E0289F90011124929FA001C2
:10467000939F500D112470E0CA010E94012E6038F2
:10468000710540F46115710539F002C065E070E014
:10469000862F08958FE7089581E008958091CD01D8
:1046A00080FF08C06091100170E075956795759561
:1046B000679521C081FF06C06091100170E075957B
:1046C000679519C082FF04C06091100170E010C0AE
:1046D0009091CE019923C1F060910F019617A0F738
:1046E00080911001899FC001112470E00E94012E69
:1046F0006038710528F46115710521F0862F089541
:104700008FE7089581E0089561E070E0F4CF803F85
:1047100021F40E940523819504C0813F29F40E9461
:1047200005238093D1010895823F21F40E9405233F
:10473000819504C0833F29F40E9405238093D00112
:104740000895893F19F40E944E2305C08A3F31F431
:104750000E944E2381958093D20108958B3F21F4CE
:104760000E944E23819504C08C3F29F40E944E2361
:104770008093D3010895843F21F48091CF0181601B
:1047800017C0853F21F48091CF01826011C0863F20
:1047900021F48091CF0184600BC0873F21F4809188
:1047A000CF01886005C0883F31F48091CF018061DE
:1047B0008093CF0108958D3F21F48091CD018160D8
:1047C0000BC08E3F21F48091CD01826005C08F3FE8
:1047D00029F48091CD0184608093CD010895803FBC
:1047E00039F48091D10187FF6CC01092D10169C06A
:1047F000813F29F48091D1011816BCF362C09091D9
:10480000D001823F29F497FF5CC01092D00159C0BB
:10481000833F19F41916CCF354C0893F41F48091B9
:10482000D20118160CF04DC01092D2014AC08A3F36
:1048300029F48091D20187FF44C0F6CF8B3F39F431
:104840008091D30187FF3DC01092D3013AC08C3FC5
:1048500029F48091D3011816BCF333C0843F21F4AE
:104860008091CF018E7F17C0853F21F48091CF01C9
:104870008D7F11C0863F21F48091CF018B7F0BC0CB
:10488000873F21F48091CF01877F05C0883F31F4B5
:104890008091CF018F7E8093CF0113C08D3F21F493
:1048A0008091CD018E7F0BC08E3F21F48091CD0190
:1048B0008D7F05C08F3F29F48091CD018B7F809340
:1048C000CD018091D00181110EC08091D101811163
:1048D0000AC08091D201811106C08091D30181115B
:1048E00002C01092CE0108958091C30183FF7EC063
:1048F0008DE895E00E94B4088091CF011F928F93BC
:1049000088E895E09F938F930E944D0986E895E093
:104910000E94B4088091D001282F082E000C330B80
:104920003F938F9383E895E09F938F930E944D0967
:1049300081E895E00E94B4088091D101282F082ECB
:10494000000C330B3F938F938EE795E09F938F93EB
:104950000E944D098CE795E00E94B4088091D20135
:10496000282F082E000C330B3F938F9389E795E097
:104970009F938F930E944D0987E795E00E94B408AA
:104980008091D301282F082E000C330B3F938F9377
:1049900084E795E09F938F930E944D0981E795E00E
:1049A0000E94B4088091CE011F928F938EE695E00D
:1049B0009F938F930E944D098CE695E00E94B40866
:1049C0008091CD011F928F9389E695E09F938F93FD
:1049D0000E944D0986E695E00E94B4088DB79EB707
:1049E0004C960FB6F8949EBF0FBE8DBF8FEC91E032
:1049F0000E9459130E94CB209093CC018093CB014D
:104A000008951F93CF93DF938091CB019091CC01B8
:104A10000E94D720AC019091CE01992321F02091E2
:104A2000130130E006C0209114018AE0289F900114
:104A300011244217530708F485C08091D001C0911A
:104A4000D101D091D2011091D301811107C0C111C0
:104A500075C0D11173C0111171C074C09F3F19F09E
:104A60009F5F9093CE01181624F40E940523809333
:104A7000D0018091D00187FF05C00E940523819558
:104A80008093D0011C1624F40E9405238093D10149
:104A90008091D10187FF05C00E94052381958093F5
:104AA000D1016091D001662331F1C091D101CC23B5
:104AB00011F1062E000C770B880B990B0E94082D24
:104AC00023E333E343E35FE30E946C2D0E94D02C89
:104AD0006093D0016C2FCC0F770B880B990B0E9441
:104AE000082D23E333E343E35FE30E946C2D0E9430
:104AF000D02C6093D1011D1624F40E944E23809384
:104B0000D2018091D20187FF05C00E944E2381957A
:104B10008093D201111624F40E944E238093D30176
:104B20008091D30187FF05C00E944E238195809319
:104B3000D301DF91CF911F910C9474249F3F09F012
:104B40008FCF97CFDF91CF911F910895EFECF1E0D8
:104B500085E0DF011D928A95E9F71092CE0110924F
:104B6000CD0108958CE59AE00E94B4088FE49AE0A4
:104B70000E94B40882E49AE00C94B4088FEB99E0A8
:104B80000E94B40882EB99E00E94B40887E999E09A
:104B90000E94B4088CE799E00E94B40884E699E08A
:104BA0000E94B4088AE499E00E94B4088CE299E07B
:104BB0000E94B4088CE099E00E94B40887EF98E066
:104BC0000E94B40880EE98E00E94B40883EC98E05C
:104BD0000E94B40884EA98E00E94B40884E898E04F
:104BE0000E94B40882E698E00E94B4088DE298E042
:104BF0000E94B40888E198E00E94B4081F9285E002
:104C00008F9385E198E09F938F930E944D098CE0EC
:104C100098E00E94B4081F9281E08F9389E098E0A9
:104C20009F938F930E944D0987E098E00E94B408FB
:104C30008DB79EB708960FB6F8949EBF0FBE8DBF76
:104C40008AED97E00C94B408833009F459C028F435
:104C5000813061F0823079F10895853009F49AC08D
:104C600008F473C0863009F4BAC008958091140125
:104C7000262F30E0280F311D2F3F310524F4680F17
:104C80006093140103C08FEF8093140186EB96E0CC
:104C90000E94B408809114011F928F9383EB96E0D9
:104CA0009F938F930E944D090F900F900F900F903C
:104CB00081EB96E0B8C080911301262F30E0280FD9
:104CC000311D2F3F310524F4680F6093130103C099
:104CD0008FEF8093130182EA96E00E94B4088091DE
:104CE00013011F928F938FE996E09F938F930E94F9
:104CF0004D090F900F900F900F908DE996E093C0A3
:104D000080911201262F30E0280F311D2F3F3105F1
:104D100024F4680F6093120103C08FEF8093120197
:104D20008DE896E00E94B408809112011F928F9343
:104D30008AE896E09F938F930E944D090F900F9001
:104D40000F900F9088E896E06EC080911101262F99
:104D500030E0280F311D2F3F310524F4680F609398
:104D6000110103C08FEF8093110186E796E00E9446
:104D7000B408809111011F928F9383E796E09F936F
:104D80008F930E944D090F900F900F900F9081E725
:104D900096E049C080911001262F30E0280F311D88
:104DA0002F3F310524F4680F6093100103C08FEF8B
:104DB000809310018BE596E00E94B4088091100169
:104DC0001F928F9388E596E09F938F930E944D09E1
:104DD0000F900F900F900F9086E596E024C0809181
:104DE0000F01262F30E0280F311D2F3F310524F40D
:104DF000680F60930F0103C08FEF80930F018EE364
:104E000096E00E94B40880910F011F928F938BE36C
:104E100096E09F938F930E944D090F900F900F90F3
:104E20000F9089E396E00C94B408833009F44DC0E8
:104E300028F4813061F0823049F10895853009F419
:104E400082C008F461C0863009F49CC00895809146
:104E50001401681720F4861B8093140102C010927D
:104E600014018DE296E00E94B408809114011F9213
:104E70008F938AE296E09F938F930E944D090F9043
:104E80000F900F900F9088E296E09AC080911301E6
:104E9000681720F4861B8093130102C0109213013F
:104EA00089E196E00E94B408809113011F928F93CC
:104EB00086E196E09F938F930E944D090F900F908B
:104EC0000F900F9084E196E07BC0809112016817EB
:104ED00020F4861B8093120102C01092120184E01C
:104EE00096E00E94B408809112011F928F9381E096
:104EF00096E09F938F930E944D090F900F900F9013
:104F00000F908FEF95E05CC080911101681720F43D
:104F1000861B8093110102C0109211018DEE95E065
:104F20000E94B408809111011F928F938AEE95E040
:104F30009F938F930E944D090F900F900F900F90A9
:104F400088EE95E03DC080911001681720F4861B23
:104F50008093100102C01092100182ED95E00E9432
:104F6000B408809110011F928F938FEC95E09F936E
:104F70008F930E944D090F900F900F900F908DEC22
:104F800095E01EC080910F01681720F4861B809366
:104F90000F0102C010920F0185EB95E00E94B4084A
:104FA00080910F011F928F9382EB95E09F938F93D7
:104FB0000E944D090F900F900F900F9080EB95E09D
:104FC0000C94B408CF93C82F8BE29AE00E94B408E7
:104FD0006091AC017091AD018091AE019091AF01F3
:104FE0000E9402201F928F9388E29AE09F938F93F2
:104FF0000E944D0983E29AE00E94B4081F92CF9369
:1050000080E29AE09F938F930E944D098EE19AE08F
:105010000E94B40881E090E0A0E0B0E0BC01CD01C6
:1050200004C0660F771F881F991FCA95D2F70E9488
:10503000641C8DB79EB708960FB6F8949EBF0FBE3E
:105040008DBFCF910C94AA18CF93482F50E0FA014E
:105050003697E334F10508F0C0C2E059FF4F0C94D5
:10506000152E8DE690E10E94B4080E948A2C0E94C1
:1050700004130E94640B43C182E690E10E94B408CD
:1050800083EA9DE00E94B4080E94F3221F928F934E
:1050900080EA9DE09F938F930E944D098EE99DE0E9
:1050A0000E94B4080E94EA22C82F8BE89DE00E946B
:1050B000B4081F92CF9386E89DE09F938F930E9440
:1050C0004D0984E89DE00E94B4088AE79DE00E94B3
:1050D000B4088C2F81701F928F9387E79DE09F9378
:1050E0008F930E944D0985E79DE00E94B4088BE6EE
:1050F0009DE00E94B408C1FB882780F91F928F931E
:1051000088E69DE09F938F930E944D0986E69DE07F
:105110000E94B4088AE59DE00E94B408C2FB88277B
:1051200080F91F928F9387E59DE09F938F930E9454
:105130004D0985E59DE00E94B4088CE49DE00E9445
:10514000B408C3FBCC27C0F91F92CF9389E49DE03C
:105150009F938F930E944D0987E49DE00E94B408BD
:105160000E94FC22C82F83E39DE00E94B4081F9296
:10517000CF938EE29DE09F938F930E944D098CE226
:105180009DE00E94B40883E19DE00E94B4088C2F4A
:1051900081701F928F9380E19DE09F938F930E9477
:1051A0004D098DB79EB780960FB6F8949EBF0FBE7F
:1051B0008DBF8EE09DE00E94B40887EF9CE00E94C6
:1051C000B408C1FB882780F91F928F9384EF9CE07D
:1051D0009F938F930E944D0982EF9CE00E94B40838
:1051E00080EE9CE00E94B408C2FB882780F91F92E1
:1051F0008F938DED9CE09F938F930E944D098BEDD3
:105200009CE00E94B40889EC9CE00E94B408C3FBB7
:10521000882780F91F928F9386EC9CE09F938F9351
:105220000E944D0984EC9CE00E94B4088AEB9CE04B
:105230000E94B408C4FB882780F91F928F9387EBE4
:105240009CE09F938F930E944D0985EB9CE00E9408
:10525000B40883EA9CE00E94B408C5FB882780F963
:105260001F928F9380EA9CE09F938F930E944D0939
:105270008EE99CE00E94B40882E89CE00E94B40899
:10528000C6FB882780F91F928F938FE79CE09F933E
:105290008F930E944D098DE79CE00E94B40885E73A
:1052A0009CE00E94B408C7FBCC27C0F91F92CF93A3
:1052B00082E79CE09F938F930E944D0980E79CE0DA
:1052C0000E94B4088DB79EB74C960FB6F8949EBF57
:1052D0000FBE8DBF14C00E94FF12892B91F00E9457
:1052E000FF129093D6018093D5010E94AA1880E006
:1052F00090E00E94FA1289E590E10E94B408C1E0B2
:1053000071C18091D5019091D6010E94FA128EE46C
:1053100090E1F3CF84E59CE00E94B4088DE39CE02B
:105320000E94B40885E29CE00E94B4088DE09CE0F5
:105330000E94B40883EF9BE00E94B4088CED9BE0D0
:105340000E94B40882EC9BE00E94B40882EA9BE0D1
:105350000E94B4088CE89BE00E94B4088BE79BE0B5
:105360000E94B40883E69BE00E94B40883E59BE0BA
:105370000E94B40889E39BE00E94B40880E29BE0AD
:105380000E94B40887E09BE00E94B4088EEE9AE089
:105390000E94B40885ED9AE00E94B40884EB9AE07C
:1053A0000E94B40882E99AE00E94B40888E79AE073
:1053B000A4CF8091C301817F8E7F8093C3010E941F
:1053C000B22589E390E10E94B40885E390E10E9450
:1053D000B40881E08093D40192CF0E94AA188CE196
:1053E00090E10E94B4089FEF23ED80E391502040AC
:1053F0008040E1F700C000000E9426218CE090E18F
:105400007CCF8091C301C82FC17080FF09C089EF94
:105410009FE00E94B4088091C301817F8E7F47C0C6
:1054200087EE9FE00E94B4088091C3018160809361
:10543000C30165CF9091C30191FBCC27C0F981E0F6
:10544000C827892FC0FB81F98093C301CC2319F0B1
:105450008EEC9FE027C084EB9FE04FCF9091C3017B
:1054600092FBCC27C0F981E0C827892FC0FB82F9C5
:105470008093C301CC2319F089E99FE013C08DE725
:105480009FE03BCF9091C30193FBCC27C0F981E013
:10549000C827892FC0FB83F98093C301CC2351F027
:1054A00085E69FE00E94B4088091C30181608093EB
:1054B000C30198C08CE49FE020CF85E39FE00E9469
:1054C000B40882E19FE00E94B4088FED9EE00E9444
:1054D000B40882EB9EE00E94B4088DE69EE00E9434
:1054E000B40882E49EE009CF8091C7019091C80181
:1054F000A091C901B091CA01BF93AF939F938F93BD
:105500008EE29EE09F938F930E944D090F900F9023
:105510000F900F900F900F90F2CE88E19EE00E94C6
:10552000B4080E9404131F928F938EEF9DE09F9307
:105530008F930E944D0980910B011F928F9387EEEC
:105540009DE09F938F930E944D0980914C011F9283
:105550008F9384ED9DE09F938F930E944D098DB7AB
:105560009EB70C960FB6F8949EBF0FBE8DBFC7CEE8
:105570000E94AA18C0910C0181E0C827C0930C01B9
:10558000CC2329F085EC9DE00E94B4082BC085EB6C
:105590009DE0B3CE81E890E00E9464139FEF21EE7E
:1055A00084E0915020408040E1F700C0000080E09E
:1055B00090E00E9464139FEF29E688E1915020401B
:1055C0008040E1F700C000009ACE80E003C08D511A
:1055D00001C089530E94E22792CE83EB9DE00E9496
:1055E000B408C0E08C2FCF91089580E0089580E04A
:1055F0000895CF93C82F8091D401813071F020F0AD
:10560000823009F451C060C1E0910D01F0910E01AA
:105610008081823209F05AC107C0E0910D01F091FA
:105620000E018081823261F48C2F0E94F52A811153
:1056300004C08C2F0E94242835C081E090E032C045
:105640008C2F0E94F72A81112CC0C431F1F090F404
:10565000CB30A1F0C03101F50E94BE258DEE99E05E
:105660000E94B40889EE99E00E94B40882E0809319
:10567000D40117C0C93249F0C83371F40E94B22571
:105680008AE19AE00E94B4080CC086E09AE00E9489
:10569000B4081092D4011CC187EE99E00E94B408AE
:1056A00017C181E0817016C1C83228F5CE3108F0EB
:1056B000C0C0CB30A1F1D0F4C73009F0E8C08EE112
:1056C0008093140182E3809313018AE08093120196
:1056D00084E18093110188E08093100188E2809337
:1056E0000F018FE897E00E94B408D6C0C33141F1A2
:1056F000C431C1F0CCC0CB3409F4BEC028F4C932E7
:1057000089F0C83361F0C3C0C13509F4B3C0C235F4
:1057100009F4AEC0CE3409F0BAC06AE0B3C00E944A
:10572000BE25BAC01092D70182EC97E00E94B4085F
:105730008EEB97E00E94B40881E08093D401CAC048
:1057400082E697E00E94B4088DE497E00E94B408D6
:10575000809114011F928F938AE497E09F938F9317
:105760000E944D0988E497E00E94B40883E397E023
:105770000E94B408809113011F928F9380E397E0F9
:105780009F938F930E944D098EE297E00E94B40888
:105790008CE197E00E94B408809112011F928F93D0
:1057A00089E197E09F938F930E944D0987E197E0ED
:1057B0000E94B40883E097E00E94B4088091110130
:1057C0001F928F9380E097E09F938F930E944D09E3
:1057D0008EEF96E00E94B40886EE96E00E94B40830
:1057E000809110011F928F9383EE96E09F938F9389
:1057F0000E944D0981EE96E00E94B40887EC96E085
:105800000E94B40880910F011F928F9384EC96E060
:105810009F938F930E944D0982EC96E00E94B408FA
:105820008DB79EB748960FB6F8949EBF0FBE8DBF3A
:1058300033C0CE51EC2FF0E0E25DFE4F80818093CB
:10584000D70189EA97E00E94B4088091D7011F929E
:105850008F9386EA97E09F938F930E944D0984EA85
:1058600097E00E94B4080F900F900F900F9014C013
:1058700061E003C061E006C06AE08091D7010E9448
:1058800024260AC08091D7010E94152705C08DE803
:1058900097E00E94B40816C08BE897E00E94B40815
:1058A0008091D7011F928F9388E897E09F938F9301
:1058B0000E944D0985E897E00E94B4080F900F9070
:1058C0000F900F9081E006C01092D40180E002C0DA
:1058D00080E0E8CECF910895E1E8F0E08081886033
:1058E00080838081816080838FB7F89493E0909368
:1058F000890090ED909388008FBF0895EFE6F0E067
:105900008081826080830895EFE6F0E080818D7F62
:1059100080830895EFE6F0E0908182E0892780831C
:1059200008951F920F920FB60F9211242F933F9359
:105930004F935F936F937F938F939F93AF93BF9397
:10594000EF93FF938091D8019091D90101969093A4
:10595000D9018093D801811103C082E00E94640BB9
:10596000E091D901E695E695F0E0E358FF4EE49129
:105970008091D8018E1303C080E00E94640BFF91D8
:10598000EF91BF91AF919F918F917F916F915F91B7
:105990004F913F912F910F900FBE0F901F90189530
:1059A0000E94D72C6894B1110C94662D08950E9422
:1059B0004B2D88F09F5798F0B92F9927B751B0F029
:1059C000E1F0660F771F881F991F1AF0BA95C9F783
:1059D00014C0B13091F00E94652DB1E008950C948F
:1059E000652D672F782F8827B85F39F0B93FCCF342
:1059F000869577956795B395D9F73EF49095809500
:105A0000709561957F4F8F4F9F4F0895E89409C01F
:105A100097FB3EF490958095709561957F4F8F4FE1
:105A20009F4F9923A9F0F92F96E9BB279395F695F7
:105A3000879577956795B795F111F8CFFAF4BB0F75
:105A400011F460FF1BC06F5F7F4F8F4F9F4F16C0D9
:105A5000882311F096E911C0772321F09EE8872F63
:105A6000762F05C0662371F096E8862F70E060E01F
:105A70002AF09A95660F771F881FDAF7880F969598
:105A8000879597F9089557FD9058440F551F59F081
:105A90005F3F71F04795880F97FB991F61F09F3F1B
:105AA00079F087950895121613061406551FF2CF44
:105AB0004695F1DF08C0161617061806991FF1CF94
:105AC00086957105610508940895E894BB276627BB
:105AD0007727CB0197F908950E947F2D0C94F02D24
