:100000000C943A080C9481080C9481080C94810893
:100010000C9481080C9481080C9481080C9481083C
:100020000C9481080C9481080C9417100C94E9101E
:100030000C9481080C9481080C9481080C9481081C
:100040000C9481080C94132C0C9481080C94810856
:100050000C9481080C9483200C9481080C948108E2
:100060000C9481080C9481080C9481080C948108EC
:100070000C9481080C9481080C9481080C948108DC
:100080000C9481080C9481080C9481080C948108CC
:100090000C9481080C9481080C9481080C948108BC
:1000A0000C9481080C9481080C94810856117811E5
:1000B000661278116612BD11E011661235124812EF
:1000C0003C153C156B156B15C51503160C180C1853
:1000D0001C160C181D171D17E0170C180C18F71715
:1000E0005B298329BE276F2A6F2A0C296F2A6F2A62
:1000F000B0296F2AC4293A2A6F2A6F2A6F2A6F2AD9
:100100000F2AF6296F2ADF296F2A9C296F2AB32725
:10011000692A692A692A692A692A692A692A692A47
:10012000692A672A6F2A672A6F2A6F2A6F2A6F2A1D
:100130006F2A6F2A6F2A6F2A6F2A6F2A6F2A672AFF
:100140006F2A6F2A0C29ED286B2A6B2A6B2A6B2ADF
:100150006B2A6B2A6B2A6B2A6B2A6B2A6B2A6B2AF7
:100160004C2A6F2A6F290000F1A1291E1F2021228D
:1001700023242526272D2E2A352B141A0815171C63
:10018000180C12132F30003139041607090A0B0D11
:100190000E0F3334002800E11D1B0619051110361F
:1001A0003738E5520000E0E2E3C1002C00C1E7006F
:1001B0000050514F00353A3B3C3D3E3F40414243A9
:1001C0004445010101010152010101010101010147
:1001D000010001010150514F0101494A4B2A010020
:1001E0000100010101010101014C4D4E010101001D
:1001F00000010101010001000101000001010100F5
:10020000353A3B3C3D3E3F404142434445010101BC
:10021000010152010101010101010101000101017E
:1002200050514F0101494A4B2A01000100010101CF
:10023000010101014C4D4E010101000001010101CC
:1002400000010001010000010101000A0025303118
:100250003662003A200025303258000A722F63209F
:1002600030313233343536373839414243444546EC
:100270000A000A002530325800626F756E636521EE
:100280003A20005B735D004B6579626F6172642098
:1002900073746172742E0A0055534220636F6E6648
:1002A0006967757265642E0A005B575D005B535D7C
:1002B000005B525D005B445D005B435D000A034DE3
:1002C000004C003600350000000E036A006800692B
:1002D0000067006700730000000403090409028D31
:1002E00000050100A032090400000103010100091A
:1002F0002111010001223F000705810308000A09BE
:100300000401000103010200092111010001224D35
:10031000000705820308000A090402000103000027
:10032000000921110100012236000705830308009E
:100330000A09040300020300000009211101000161
:100340002220000705840320000107050403200084
:10035000010904040001030000000921110100014A
:100360002239000705850310000112011001000069
:100370000008EDFE626001000102000105010906AE
:10038000A101050719E029E7150025019508750168
:10039000810205081901290595057501910295014C
:1003A0007503910105071900297715002501957836
:1003B00075018102C00631FF0974A101097515009C
:1003C00025FF9520750881020976150025FF9520E7
:1003D00075089102C005010980A10185021601007E
:1003E00026B7001A01002AB700751095018100C0D8
:1003F000050C0901A1018503160100269C021A01C2
:10040000002A9C02751095018100C005010902A116
:10041000010901A10005091901290515002501950A
:1004200005750181029501750381010501093009F6
:10043000311581257F9502750881060938158125BA
:100440007F950175088106050C0A38021581257F04
:10045000950175088106C0C005010906A1010507BF
:1004600019E029E71500250195087501810295011C
:100470007508810105081901290595057501910285
:100480009501750391010507190029FF150025FF46
:10049000950675088100C00A002530325820006B8F
:1004A0006579626F6172645F7265706F72743A2011
:1004B000000A0025303258006B6579626F61726402
:1004C0005F7365745F6C65643A200064656C5F6B94
:1004D00065795F6269743A2063616E277420646590
:1004E0006C3A20253032580A006164645F6B65798C
:1004F0005F6269743A2063616E2774206164643AB4
:1005000020253032580A00646F6E652E0A00626F33
:100510006F676D61676963207363616E3A202E2E89
:100520002E2000290A002575002F002575005D2862
:1005300000256400200025640020002564002000C0
:100540002564007C0025303258006D6F7573656B33
:100550006579205B62746E7C782079207620685DF6
:10056000287265702F61636C293A205B000A0025B0
:1005700075006D6B5F776865656C5F74696D655F4D
:10058000746F5F6D6178203D20000A002575006D55
:100590006B5F776865656C5F6D61785F73706565CB
:1005A00064203D20000A002575006D6B5F74696D45
:1005B000655F746F5F6D6178203D20000A002575CE
:1005C000006D6B5F6D61785F7370656564203D20C1
:1005D000000A002575006D6B5F696E746572766147
:1005E0006C203D20000A002575006D6B5F64656C12
:1005F0006179203D20000A002575006D6B5F7768EA
:1006000065656C5F74696D655F746F5F6D6178209F
:100610003D20000A002575006D6B5F776865656C8D
:100620005F6D61785F7370656564203D20000A002E
:100630002575006D6B5F74696D655F746F5F6D61CB
:1006400078203D20000A002575006D6B5F6D617894
:100650005F7370656564203D20000A002575006D9C
:100660006B5F696E74657276616C203D20000A00D4
:100670002575006D6B5F64656C6179203D20000A13
:1006800000257500363A206D6B5F776865656C5F95
:1006900074696D655F746F5F6D61783A20000A0060
:1006A000257500353A206D6B5F776865656C5F6D09
:1006B00061785F73706565643A20000A00257500F3
:1006C000343A206D6B5F74696D655F746F5F6D6147
:1006D000783A20000A00257500333A206D6B5F6D73
:1006E00061785F73706565643A20000A00257500C3
:1006F000323A206D6B5F696E74657276616C286D3D
:1007000073293A20000A00257500313A206D6B5F8D
:1007100064656C6179282A31306D73293A20000AAA
:100720000A2D2D2D2D2D204D6F7573656B6579204C
:10073000506172616D6574657273202D2D2D2D2DA4
:100740000A003E20002575004D003F0073657420AF
:1007500064656661756C742076616C7565732E0ACC
:10076000000A0025750073656C656374656420700C
:100770006172616D657465723A2000433E20000A23
:1007800051756974204D6F7573656B657920436F82
:100790006E736F6C650A0053656520687474703AF7
:1007A0002F2F656E2E77696B6970656469612E6F96
:1007B00072672F77696B692F4D6F7573655F6B6516
:1007C00079730A000A002575002C20776865656C2E
:1007D0003D0025750077686572652064656C7461FD
:1007E0003A20637572736F723D000A7370656564B9
:1007F000203D2064656C7461202A206D61785F73F0
:1008000070656564202A2028726570656174202FE8
:100810002074696D655F746F5F6D6178290A00707F
:1008200067646F776E3A096465637265617365200A
:10083000706172616D6574657273282D3130290A9B
:1008400000706775703A09696E637265617365203F
:10085000706172616D6574657273282B3130290A7D
:1008600000646F776E3A0964656372656173652031
:10087000706172616D6574657273282D31290A008B
:1008800075703A09696E6372656173652070617293
:10089000616D6574657273282B31290A00643A0909
:1008A0007365742064656661756C742076616C751F
:1008B00065730A00703A097072696E742070617213
:1008C000616D65746572730A00363A0973656C650B
:1008D0006374206D6B5F776865656C5F74696D65C7
:1008E0005F746F5F6D61780A00353A0973656C65F6
:1008F0006374206D6B5F776865656C5F6D61785FB1
:1009000073706565640A00343A0973656C656374D5
:10091000206D6B5F74696D655F746F5F6D61780AE0
:1009200000333A0973656C656374206D6B5F6D61AC
:10093000785F73706565640A00323A0973656C65A7
:100940006374206D6B5F696E74657276616C286D7F
:1009500073290A00313A0973656C656374206D6B05
:100960005F64656C6179282A31306D73290A00450E
:1009700053432F713A09717569740A000A0A2D2DC3
:100980002D2D2D204D6F7573656B6579205061722B
:10099000616D65746572732048656C70202D2D2D16
:1009A0002D2D0A003F004D303E000A456E746572E1
:1009B000204D6F7573656B657920436F6E736F6C37
:1009C000650A000A5175697420436F6E736F6C6518
:1009D000204D6F64650A00433E20000A0025750023
:1009E00020746F20002575007377697463685F64F5
:1009F000656661756C745F6C617965723A20006D33
:100A00003A096D6F7573656B65790A004553432F1D
:100A1000713A09717569740A000A0A2D2D2D2D2D60
:100A200020436F6E736F6C652048656C70202D2DB0
:100A30002D2D2D0A00506175733A096A756D70206D
:100A4000746F20626F6F746C6F616465720A00432B
:100A50006170733A094C6F636B204B6579626F610B
:100A60007264284368696C642050726F6F66290A4B
:100A700000505363723A09706F77657220646F7724
:100A80006E2F72656D6F74652077616B652D757063
:100A90000A00342F46343A09737769746368207406
:100AA0006F204C6179657234200A00332F46333A47
:100AB0000973776974636820746F204C617965727B
:100AC00033200A00322F46323A097377697463681B
:100AD00020746F204C6179657232200A00312F46F4
:100AE000313A0973776974636820746F204C6179B7
:100AF000657231200A00302F4631303A0973776928
:100B000074636820746F204C6179657230200A002C
:100B10006E3A09746F67676C65204E4B524F0A003E
:100B2000653A097072696E7420656570726F6D2028
:100B3000636F6E6669670A00733A097072696E7452
:100B4000207374617475730A00743A097072696E67
:100B5000742074696D657220636F756E740A007617
:100B60003A097072696E74206465766963652076EF
:100B7000657273696F6E202620696E666F0A007A4F
:100B80003A09746F67676C6520736C656570204CFB
:100B9000454420746573740A006D3A09746F676781
:100BA0006C65206D6F7573652064656275670A00FA
:100BB0006B3A09746F67676C65206B6579626F616A
:100BC00072642064656275670A00783A09746F6719
:100BD000676C65206D617472697820646562756701
:100BE0000A00643A09746F67676C65206465627512
:100BF0006720656E61626C650A00633A09656E7410
:100C0000657220636F6E736F6C65206D6F64650A2B
:100C1000000A0A2D2D2D2D2D20436F6D6D616E6400
:100C20002048656C70202D2D2D2D2D0A000A0025E1
:100C300075002E6E6B726F3A20000A002575002E2B
:100C4000737761705F6261636B736C6173685F621D
:100C500061636B73706163653A20000A002575005B
:100C60002E737761705F67726176655F6573633A53
:100C700020000A002575002E6E6F5F6775693A20A7
:100C8000000A002575002E737761705F72616C74C5
:100C90005F726775693A20000A002575002E737728
:100CA00061705F6C616C745F6C6775693A20000AF3
:100CB000002575002E636170736C6F636B5F746FDA
:100CC0005F636F6E74726F6C3A20000A00257500C6
:100CD0002E737761705F636F6E74726F6C5F6361A8
:100CE00070736C6F636B3A20000A00253032580035
:100CF0006B65796D61705F636F6E6669672E726197
:100D0000773A20000A002575002E6D6F7573653ADD
:100D100020000A002575002E6B6579626F61726490
:100D20003A20000A002575002E6D61747269783AC8
:100D300020000A002575002E656E61626C653A2000
:100D4000000A00253032580064656275675F636F82
:100D50006E6669672E7261773A20000A0025750079
:100D600064656661756C745F6C617965723A2000C8
:100D70003F004E4B524F3A2064697361626C656468
:100D80000A004E4B524F3A20656E61626C65640AF0
:100D9000006B6579626F6172645F69646C653A20AB
:100DA00025580A006B6579626F6172645F70726FBB
:100DB000746F636F6C3A2025580A00686F73745F14
:100DC0006B6579626F6172645F6C65647328293A40
:100DD0002025580A000A0A2D2D2D2D2D205374612F
:100DE000747573202D2D2D2D2D0A0074696D65727B
:100DF0005F636F756E743A202530346C580A004773
:100E000043433A20342E392E32204156522D4C493C
:100E100042433A20322E302E30204156525F41520A
:100E200043483A20617672350A004F5054494F4E7C
:100E3000533A204C55464120424F4F544D4147496B
:100E400043204D4F5553454B455920455854524129
:100E50004B455920434F4E534F4C4520434F4D4D2A
:100E6000414E44204E4B524F20343039360A004216
:100E700055494C443A20363266666437362028316C
:100E8000343A30343A3539204170722032372032CA
:100E9000303139290A005649443A203078464545D0
:100EA00044286A686967677329205049443A2030AA
:100EB0007836303632284D4C363529205645523A50
:100EC000203078303030310A00444553433A2054C2
:100ED0002E4D2E4B2E204861636B65642046696C55
:100EE000636F204D696E696C612E0A000A0A2D2D10
:100EF0002D2D2D2056657273696F6E202D2D2D2D91
:100F00002D0A000A44454255473A206D6F757365B6
:100F10002064697361626C65642E0A000A4445426C
:100F200055473A206D6F75736520656E61626C651B
:100F3000642E0A000A44454255473A206B6579629F
:100F40006F6172642064697361626C65642E0A006B
:100F50000A44454255473A206B6579626F61726475
:100F600020656E61626C65642E0A000A4445425534
:100F7000473A206D61747269782064697361626CAC
:100F800065642E0A000A44454255473A206D617453
:100F900072697820656E61626C65642E0A000A448D
:100FA000454255473A20656E61626C65642E0A00C1
:100FB0000A44454255473A2064697361626C65642E
:100FC0002E0A006E6F7420737570706F7274656492
:100FD0002E0A000A0A4A756D7020746F20626F6FC6
:100FE000746C6F616465722E2E2E2000433E2000CB
:100FF0000A456E74657220436F6E736F6C65204D89
:101000006F64650A00556E6C6F636B65642E0A0031
:101010004C6F636B65642E0A006565636F6E66696D
:10102000673A0A00536C656570204C45442074652E
:1010300073740A00000000000000000000000001BE
:101040000204060A0F17202C3A4A5D71879DB3C728
:10105000DAE9F5FCFFFCF5E9DAC7B39D87715D4A73
:101060003A2C20170F0A06040201000000000000BD
:101070000000000011241FBECFEFDAE0DEBFCDBFBD
:1010800004B603FE27C08091E8019091E901A09188
:10109000EA01B091EB018730904BA740B04BD1F4FF
:1010A0001092E8011092E9011092EA011092EB010E
:1010B00014BE84B7877F84BF0FB6F894A89580913B
:1010C0006000886180936000109260000FBEE0E0D5
:1010D000F8E3099511E0A0E0B1E0E8ECFBE502C01F
:1010E00005900D92A833B107D9F721E0A8E3B1E04C
:1010F00001C01D92A83EB207E1F70E94480D0C9472
:10110000E22D0C940000FF93EF93E091C501F09164
:10111000C601309709F00995EF91FF910895FC0100
:101120008591803011F0EFDFFBCF0895FF27E0E2DB
:1011300030E247FF0CC0419597FF09C0EDE2609592
:10114000709580959095611D711D811D911D27FFE2
:1011500002C0219530E350E2AA27660F771F881F4F
:10116000991FAA1FA41710F0A41B63955A95A9F7FD
:10117000AA3008F0A95FA05DAF93F39561157105E2
:101180008105910541F7ED3211F4EF93F395F217D4
:1011900018F43F93F395FBCF8F91B5DFFA95E1F704
:1011A0000895E991F9918591803021F0853219F007
:1011B000AADFF9CF089520E0E89455915532C1F3A4
:1011C000503311F4689455915A3348F4505390F3C6
:1011D000220F022E220F220F200D250FF4CF0EF426
:1011E000219589919991533619F3533729F1533544
:1011F00059F1BC0188279927E8945C3621F489913C
:10120000999168945591543639F446EF7EF077FF02
:101210000DC08FEF9FEF0AC055374AE039F05835BF
:1012200040E121F0523642E009F00895FF93EF9338
:101230007DDFEF91FF91B7CFFF93EF93FC01819199
:101240008030B9F360DFFBCFFF93EF9368DFF1CF1E
:10125000DF93CF93CDB7DEB72596A3DFCF91DF9194
:101260000895089508959FE0799FF00111249BE46B
:10127000899FE00DF11D1124E60FF11DE659FE4F87
:1012800084910895E82FF0E0EE0FFF1FEA51F0403F
:1012900085919491089580B38C7880BB81B38C78CC
:1012A00081BB08950E944B0984B114B885B18FEFBA
:1012B00085B98AB180778AB98BB18F688BB93E982E
:1012C000469A87988F9AE2E4F1E0A8E3B1E01192A0
:1012D00011921D921D9281E0EC34F807C1F7089538
:1012E000CF92DF92EF92FF920F931F93CF93DF93F2
:1012F00008E311E0E801C12CE5E0DE2EF4E7EF2E73
:10130000F2E0FF2E82E0C81691F08C1520F091E0FB
:10131000C91651F006C0A3E0CA1661F0B4E0CB16BE
:1013200061F0809A88980BC0819A899808C0849A45
:101330008C9805C0859A8D9802C0869A8E9880EA0E
:101340008A95F1F729B1022E000C330B20953095C8
:10135000832F881F8827881F90E01C9903C022E0F4
:1013600030E002C020E030E0822B932B1D9903C0B7
:1013700024E030E002C020E030E0822B932B1E9965
:1013800003C028E030E002C020E030E0AC01422B96
:10139000532B2FB1022E000C330B20953095C90131
:1013A0008827990F881F992774E0880F991F7A95CD
:1013B000E1F7842B952B369903C020E230E002C080
:1013C00020E030E0822B932B4B9903C020E430E0E7
:1013D00002C020E030E0822B932B4A9903C0E0E862
:1013E000F0E002C0E0E0F0E08E2B9F2B499903C0B3
:1013F00060E071E002C060E070E0862B972B4899B6
:1014000003C020E032E002C020E030E0AC01422B1B
:10141000532B23B1022E000C330B20953095C901BC
:101420008827990F881F9927982F8827990F990F38
:10143000842B952B1B9903C040E058E002C040E08C
:1014400050E0842B952B1A9903C040E050E102C074
:1014500040E050E0842B952B199903C020E030E246
:1014600002C020E030E0822B932B189903C020E0CB
:1014700030E402C020E030E0822B932B28813981B8
:101480002817390741F199838883809100018823C7
:1014900001F18091C30180FF04C089E792E00E94BE
:1014A0008F088091C30180FF0CC0809100011F92C2
:1014B0008F93FF92EF920E9428090F900F900F9048
:1014C0000F908091C30180FF04C082E792E00E94E8
:1014D0008F08D09200010E944B09C394229695E098
:1014E000C91210CF809100018823C1F081508093F0
:1014F0000001882339F0AFE9BFE01197F1F700C090
:1015000000000CC0E2E4F1E0D8018D919D918D01C5
:1015100081939193B1E002341B07B1F781E0DF9131
:10152000CF911F910F91FF90EF90DF90CF90089592
:10153000E82FF0E0EE0FFF1FEE5BFE4F8081918100
:101540000895CF92DF92EF92FF920F931F93CF9364
:10155000DF938BE592E00E948F0882E4E82E81E021
:10156000F82EC0E0D0E096E5C92E92E0D92E0DE429
:1015700012E0DF93CF93DF92CF920E94280983E598
:1015800092E00E948F08F701819191917F010E9462
:10159000EA1F9F938F931F930F930E9428098BE458
:1015A00092E00E948F0821968DB79EB708960FB6DD
:1015B000F8949EBF0FBE8DBFC530D105D1F6DF9127
:1015C000CF911F910F91FF90EF90DF90CF900895F2
:1015D000089580915E0108959091DF01943009F0A3
:1015E0004CC09091E9009F703091EC00232F217046
:1015F00030FD20E8922B24E02093E9002091EB00BD
:1016000020FF38C02091EE0027FF34C020914D010B
:10161000222321F02091E80025FF2CC010924D01DB
:1016200026E03091E80035FD15C03091DF013430FF
:1016300009F53091EB0035FD1DC0215021F481E00A
:1016400080934D0117C0EFE9FFE03197F1F700C03B
:101650000000E7CF8093F1008091E80085FD05C090
:101660008091E8008E778093E8009F709093E90066
:1016700080E008959F709093E9008FEF0895CF93D5
:10168000DF9300D01F92CDB7DEB79C018091DF01C0
:10169000843019F593E099833B832A839093E90082
:1016A0008FEF9091E800815095FD06C095ED9A95D9
:1016B000F1F700008111F5CF8091E80085FF0DC0A2
:1016C00040E050E063E070E0CE0101960E94070E1A
:1016D0008091E8008E778093E8000F900F900F9034
:1016E000DF91CF910895CF93DF9300D01F92CDB7B4
:1016F000DEB72091DF01243021F522E029839B838E
:101700008A8383E08093E9008FEF9091E800815015
:1017100095FD06C095ED9A95F1F700008111F5CF82
:101720008091E80085FF0DC040E050E063E070E08C
:10173000CE0101960E94070E8091E8008E7780937B
:10174000E8000F900F900F90DF91CF9108952091B6
:10175000DF012430F1F422E02093E9002FEF3091F3
:10176000E800215035FD06C035ED3A95F1F700004F
:101770002111F5CF2091E80025FF0BC040E050E09B
:1017800065E070E00E94070E8091E8008E778093FC
:10179000E8000895CF93DF932091DF01243009F012
:1017A00044C0EC0180910C018823C1F085E0809356
:1017B000E9008FEF9091E800815095FD06C095E11A
:1017C0009A95F1F700008111F5CF8091E80085FF2F
:1017D0002CC040E050E060E170E017C081E08093F1
:1017E000E9008FEF9091E800815095FD06C095EDDE
:1017F0009A95F1F700008111F5CF8091E80085FFFF
:1018000014C040E050E068E070E0CE010E94070E96
:101810008091E8008E778093E80080E1FE01AEE4DD
:10182000B1E001900D928A95E1F7DF91CF91089593
:1018300089EB92E00E948F088091DE01811109C03E
:101840000E949C0F0E94F90F8091E20084608093B7
:10185000E200089585EB92E00E948F081092DE016D
:10186000089581EB92E00C948F088DEA92E00E943B
:101870008F080E9432090C94002C89EA92E00E94A1
:101880008F080E9442200E94062C0E9488120C940D
:10189000E80A8091DF01843041F58091E9008F7082
:1018A0002091EC00922F917020FD90E8892B94E01C
:1018B0009093E9009091EB0090FF14C09091EE009E
:1018C00097FF10C09091E80095FF03C01092F100BF
:1018D000F9CF9091E80090FF05C09091E8009E77C5
:1018E0009093E8008F708093E900089542E061ECE6
:1018F00081E00E94160F42E061EC82E00E94160F28
:1019000042E061EC83E00E94160F46E261EC84E065
:101910000E94160F42E161EC85E00C94160F809155
:10192000E101833009F455C030F4813071F0823028
:1019300009F495C008958A3009F481C08B3009F408
:1019400060C0893009F0A3C020C08091E001813AD5
:1019500009F09DC08091E800877F8093E800809126
:10196000E4019091E501892B21F460E18EE491E09E
:1019700003C060E080E090E070E00E94520E809131
:10198000E8008B778093E80008958091E001813230
:1019900009F07DC08091E4019091E501009719F074
:1019A000049709F074C08091E800877F8093E80075
:1019B0008091E80082FD05C08091DF018111F8CFA0
:1019C00066C08091F10080935E018091E8008B7782
:1019D0005AC08091E001813A09F059C08091E40138
:1019E0009091E501892B09F052C08091E800877F32
:1019F0008093E8008091E80080FFFCCF80910B018C
:101A00003DC08091E001813209F041C08091E40144
:101A10009091E501892BD9F58091E800877F80932B
:101A2000E8000E944B0F9091E20181E0911101C00A
:101A300080E080930B0180930C010C942E18809110
:101A4000E001813221F58091E800877F8093E800F2
:101A50000E944B0F8091E30180934C010895809187
:101A6000E001813AA1F48091E800877F8093E8004B
:101A70008091E80080FFFCCF80914C018093F100C1
:101A80008091E8008E778093E8000C944B0F0895C6
:101A900084B7877F84BF0FB6F894A89580916000C3
:101AA000886180936000109260000FBE90E080E833
:101AB0000FB6F89480936100909361000FBE0E946E
:101AC0009C0F0E94F90F8091E20084608093E200F5
:101AD0008CEE9AE00E947F1F78948091DF01843021
:101AE000E1F788E992E00E948F080E94141381E0D8
:101AF00091E00E947E120E94EE2B87E892E00E9405
:101B00008F088091DF01853089F483E892E00E949C
:101B10008F080E9404208091DD01882391F30E94A8
:101B20002D20882371F30E94F10DEBCF0E94421308
:101B3000E8CF292F332723303105C9F064F4213051
:101B4000310581F02230310509F043C08DE890E085
:101B50002DED32E042C021323105F1F02232310563
:101B600041F137C082E190E02AE633E036C09927A0
:101B70008130910541F08230910541F0892B49F582
:101B8000E9EDF2E005C0E9ECF2E002C0EDEBF2E0D5
:101B9000849190E09F0121C06530D8F4E62FF0E0F9
:101BA000EE0FFF1FEC5DFE4F2081318189E090E058
:101BB00014C0653070F470E0FB01EE0FFF1FE65EAD
:101BC000FE4F20813181FB01EB5EFE4F808190E072
:101BD00004C080E090E020E030E0FA01318320830F
:101BE000089580E189BD82E189BD09B400FEFDCF81
:101BF0008091D8008F7D8093D8008091E000826032
:101C00008093E0008091E00081FDFCCF0895CF92A9
:101C1000DF92EF92FF920F931F93CF93DF93EC012C
:101C20008B016A010E946A0F811133C0C114D10473
:101C300039F0F60180819181081B190BC80FD91F5B
:101C4000E12CF12C0115110519F18091E80085FDB9
:101C500016C08091E8008E778093E800C114D1040B
:101C600049F0F60180819181E80EF91EF182E0824F
:101C700085E00FC00E946A0F882321F30AC0899172
:101C80008093F10001501109FFEFEF1AFF0ADACF3C
:101C900080E0DF91CF911F910F91FF90EF90DF9047
:101CA000CF9008952091E6013091E701261737077C
:101CB00048F06115710539F42091E8002E772093E2
:101CC000E80001C0B90140E061157105A9F120915A
:101CD000DF01222309F443C0253009F442C02091DA
:101CE000E80023FD40C02091E80022FD32C0209191
:101CF000E80020FFE9CF4091F3002091F20030E0AE
:101D0000342BFC01CF016115710559F028303105E4
:101D100040F481918093F100615071092F5F3F4F32
:101D2000F1CF41E02830310509F040E02091E80092
:101D30002E772093E800C8CF4111C9CF0AC0809107
:101D4000DF01882361F0853061F08091E80083FD38
:101D50000AC08091E80082FFF2CF80E0089582E01F
:101D6000089583E0089581E008952091E60130917F
:101D7000E7012617370748F06115710539F42091FE
:101D8000E8002E772093E80001C0B901FC0120E0B3
:101D90006115710591F18091DF01882309F440C03C
:101DA000853009F43FC08091E80083FD3DC08091FB
:101DB000E80082FD2FC08091E80080FFE9CF2091EC
:101DC000F3008091F20090E0922B6115710559F0BB
:101DD0008830910540F424912093F10031966150B0
:101DE00071090196F2CF21E0089709F020E0809177
:101DF000E8008E778093E800CBCF2111CCCF0AC0CA
:101E00008091DF01882361F0853061F08091E800E6
:101E100083FD0AC08091E80082FFF2CF80E0089540
:101E200082E0089583E0089581E00895982F973027
:101E300058F59093E900981739F07091EC002091D3
:101E4000ED005091F00003C0242F762F50E021FFC9
:101E500019C03091EB003E7F3093EB003091ED00E4
:101E60003D7F3093ED003091EB0031603093EB001B
:101E70007093EC002093ED005093F0002091EE0061
:101E800027FF07C09F5FD3CF8F708093E90081E069
:101E9000089580E008958091E00187FF11C080914E
:101EA000E80082FD05C08091DF018111F8CF11C0EB
:101EB0008091E8008B770BC08091DF01882349F087
:101EC0008091E80080FFF8CF8091E8008E778093C2
:101ED000E80008952091E4003091E50095E64091F6
:101EE000EC00842F817040FF22C08091E80080FDCB
:101EF0001CC08091DF01882391F0853091F08091A2
:101F0000EB0085FD10C04091E4005091E5004217C0
:101F1000530729F39A01915011F784E0089582E064
:101F2000089583E0089581E0089580E00895409148
:101F3000E80042FFDECF08950E940A100E941210AE
:101F4000E0EEF0E0808181608083E8EDF0E0808168
:101F50008F77808319BCA7EDB0E08C918E7F8C9336
:101F600080818F7E80831092DE0108950F931F93EE
:101F7000CF93DF930E940A100E941210C8EDD0E0A8
:101F800088818F77888388818068888388818F7D26
:101F9000888319BC1092DF011092DB011092DD01E1
:101FA0001092DC0100EE10E0F80180818B7F8083CD
:101FB00088818160888342E060E080E00E94160FA3
:101FC000E1EEF0E080818E7F8083E2EEF0E08081C0
:101FD00081608083808188608083F80180818E7F2A
:101FE0008083888180618883DF91CF911F910F91D9
:101FF0000895E8EDF0E080818F7E8083E7EDF0E0EA
:1020000080818160808384E082BF81E08093DE01F3
:102010000C94B60FE8EDF0E080818E7F8083109203
:10202000E20008951092DA001092E10008951F92E4
:102030000F920FB60F9211242F933F934F935F93FC
:102040006F937F938F939F93AF93BF93EF93FF9380
:102050008091E10082FF0BC08091E20082FF07C007
:102060008091E1008B7F8093E1000E94490C809178
:10207000DA0080FF1FC08091D80080FF1BC08091D4
:10208000DA008E7F8093DA008091D90080FF0DC046
:1020900080E189BD82E189BD09B400FEFDCF81E008
:1020A0008093DF010E94180C05C019BC1092DF015B
:1020B0000E942A0C8091E10080FF19C08091E2000B
:1020C00080FF15C08091E2008E7F8093E2008091B6
:1020D000E20080618093E2008091D800806280936A
:1020E000D80019BC85E08093DF010E94350C8091F7
:1020F000E10084FF30C08091E20084FF2CC080E1C9
:1021000089BD82E189BD09B400FEFDCF8091D80070
:102110008F7D8093D8008091E1008F7E8093E100D5
:102120008091E2008F7E8093E2008091E2008160E6
:102130008093E2008091DB01882311F084E007C0E6
:102140008091E30087FD02C081E001C083E08093BD
:10215000DF010E943D0C8091E10083FF29C0809146
:10216000E20083FF25C08091E100877F8093E1003A
:1021700082E08093DF011092DB018091E1008E7F8D
:102180008093E1008091E2008E7F8093E200809155
:10219000E20080618093E20042E060E080E00E9423
:1021A000160F8091F00088608093F0000E94310C3F
:1021B000FF91EF91BF91AF919F918F917F916F911F
:1021C0005F914F913F912F910F900FBE0F901F90F5
:1021D00018951F920F920FB60F9211242F933F93D1
:1021E0004F935F936F937F938F939F93AF93BF931F
:1021F000CF93DF93EF93FF93C091E900CF7080916D
:10220000EC00D82FD17080FDD0E81092E9008091C9
:10221000F000877F8093F00078940E942D11109237
:10222000E9008091F00088608093F000CD2BCF70A2
:10223000C093E900FF91EF91DF91CF91BF91AF91F2
:102240009F918F917F916F915F914F913F912F91CE
:102250000F900FBE0F901F9018951F93CF93DF9391
:10226000CDB7DEB7AA970FB6F894DEBF0FBECDBFCD
:10227000E0EEF1E088E08E0F9091F10091938E13E3
:10228000FBCF0E948F0C8091E80083FF1FC18091DB
:10229000E0019091E101492F50E04A30510508F0EA
:1022A00015C1FA01EA5AFF4F0C94972D803881F03E
:1022B000823809F00BC18091E4018F708093E900AE
:1022C0008091EB0085FB882780F91092E90006C019
:1022D0008091DC019091DD01911182609091E80084
:1022E000977F9093E8008093F1001092F100C8C0AE
:1022F000282F2D7F09F0EAC0882319F0823061F081
:10230000E5C08091E201813009F0E0C0933009F02E
:1023100080E08093DD012BC08091E201811127C014
:102320008091E4018F7009F4D1C08093E90020917D
:10233000EB0020FF1CC0933021F48091EB00806201
:1023400014C09091EB0090619093EB0021E030E09D
:10235000A90102C0440F551F8A95E2F74093EA0095
:102360001092EA008091EB0088608093EB0010925D
:10237000E9008091E800877F86C08111A7C0109195
:10238000E2011F778091E3008078812B8093E30046
:102390008091E800877F8093E8000E944B0F809136
:1023A000E80080FFFCCF8091E30080688093E30029
:1023B000111102C082E001C083E08093DF0186C07A
:1023C0008058823008F082C08091E2019091E30150
:1023D0008C3D53E0950779F583E08A838AE289830F
:1023E0004FB7F894DE01139620E03EE051E2E32F70
:1023F000F0E050935700E49120FF03C0E295EF70A6
:102400003F5FEF708E2F90E0EA3010F0C79601C06A
:10241000C0968D939D932F5F243149F74FBF8091D4
:10242000E800877F8093E8006AE270E0CE010196C1
:102430000E94520E14C0AE014F5F5F4F6091E401E5
:102440000E94990DBC01892B09F440C09091E800CD
:10245000977F9093E80089819A810E94B50E8091C0
:10246000E8008B778093E80031C0803879F580915F
:10247000E800877F8093E8008091DB018093F10082
:102480008091E8008E778093E8000E944B0F1EC079
:1024900081111CC09091E2019230C0F48091E8005B
:1024A000877F8093E8009093DB010E944B0F80911F
:1024B000DB01811106C08091E30087FD02C081E04D
:1024C00001C084E08093DF010E94760C8091E800D7
:1024D00083FF0AC08091E800877F8093E8008091A5
:1024E000EB0080628093EB00AA960FB6F894DEBFF3
:1024F0000FBECDBFDF91CF911F91089590936401DE
:10250000809363010895809163019091640108951F
:10251000E0916301F0916401309721F00190F08126
:10252000E02D099480E00895EF92FF920F931F939E
:10253000CF93DF93E0916301F09164013097B1F1A3
:102540008C010280F381E02D09958091C30182FF07
:102550002DC080FF04C08FE994E00E948F08E8013D
:1025600010E189E9E82E84E0F82E8091C30180FF14
:102570000BC088811F928F93FF92EF920E942809CF
:102580000F900F900F900F90115021961111EDCFD9
:102590008091C30180FF0AC087E994E0DF91CF9169
:1025A0001F910F91FF90EF900C948F08DF91CF91C6
:1025B0001F910F91FF90EF900895E0916301F091CA
:1025C0006401309721F00480F581E02D099408958D
:1025D00020916101309162018217930771F090930D
:1025E000620180936101E0916301F0916401309791
:1025F00021F00680F781E02D0994089520915F0174
:10260000309160018217930771F09093600180937D
:102610005F01E0916301F0916401309721F0008443
:10262000F185E02D099408950E9444200E945209EA
:102630000C941221CF93C82F8091C30182FF1EC03A
:1026400080FF04C088EB94E00E948F088091C30152
:1026500080FF0CC01F92CF9383EB94E09F938F93E6
:102660000E9428090F900F900F900F908091C30146
:1026700080FF04C081EB94E00E948F088C2FCF91E3
:102680000C94E80A4F925F927F928F929F92AF9242
:10269000BF92CF92DF92EF92FF920F931F93CF934F
:1026A000DF93CDB7DEB72A970FB6F894DEBF0FBE23
:1026B000CDBF0E94700996E6C92E91E0D92E00E0A8
:1026C00010E0AA24A394B12C702E802F0E94980AA7
:1026D0004C01F601419051906F0148265926411452
:1026E0005104B1F40F5F1F4F0530110569F78FEFEB
:1026F00089838A831B820E944D208160782F9D836D
:102700008C8349815A816B818D810E94FB133AC071
:102710008091C30181FD0E94A10A20E030E0750193
:10272000022E02C0EE0CFF1C0A94E2F7C7018421BE
:102730009521892B09F12E837F828E209F2091E0A5
:10274000892809F490E098870E944D208160782FB5
:102750009A8789874E815F8168858A850E94FB13ED
:10276000000F111FF801EA59FE4F80819181E82680
:10277000F926F182E08206C02F5F3F4F2F303105EE
:1027800071F6B0CF0E948324109165010E948812D7
:102790001817D9F00E948812809365012A960FB607
:1027A000F894DEBF0FBECDBFDF91CF911F910F9187
:1027B000FF90EF90DF90CF90BF90AF909F908F9061
:1027C0007F905F904F900C941A132A960FB6F8944E
:1027D000DEBF0FBECDBFDF91CF911F910F91FF9054
:1027E000EF90DF90CF90BF90AF909F908F907F90B1
:1027F0005F904F900895CF93DF93CDB7DEB72B97BF
:102800000FB6F894DEBF0FBECDBF4F8358876987E0
:102810007A878B87DE01119686E0FD0111928A95F9
:10282000E9F785E0FE01379601900D928A95E1F770
:1028300049815A816B817C818D819E810E94C81A59
:102840002B960FB6F894DEBF0FBECDBFDF91CF91B0
:102850000895CF93882309F499C0C82F8CEF8C0F6B
:10286000813A48F48C2F0E947B2A81118FC08C2FD3
:102870000E94621D0CC080E28C0F883058F4C77033
:1028800081E001C0880FCA95EAF70E94FD1DCF9133
:102890000C94341E8BE58C0F833078F4C53A29F004
:1028A000C63A31F083E890E005C081E890E002C0CC
:1028B00082E890E0CF910C94E81288E58C0F833188
:1028C00008F064C0C83A39F1C93A41F1CA3A49F14D
:1028D000CB3A51F1CC3A59F1CD3A61F1C03B69F1B3
:1028E000CE3A71F1CF3A79F1C13B81F1C23B89F126
:1028F000C33B91F1C43B99F1C53BA1F1C63BA9F1A2
:10290000C73BB1F1C83BB9F1C93BC1F1CA3BC9F101
:1029100080E090E038C082EE90E035C089EE90E033
:1029200032C08AEE90E02FC085EB90E02CC086EBA1
:1029300090E029C087EB90E026C08CEC90E023C0AB
:102940008DEC90E020C083E891E01DC08AE891E022
:102950001AC082E991E017C084E991E014C081E2D5
:1029600092E011C083E292E00EC084E292E00BC0DC
:1029700085E292E008C086E292E005C087E292E03C
:1029800002C08AE292E0CF910C94FE12CF9108959A
:10299000882329F19CEF980F913A18F40E94AE1DFC
:1029A0000DC090E2980F983058F4877091E001C004
:1029B000990F8A95EAF7892F0E94031E0C94341E02
:1029C0009BE5980F933020F480E090E00C94E8129F
:1029D000885A833120F480E090E00C94FE12089530
:1029E000882321F00E94FD1D0C94341E0895882335
:1029F00021F00E94031E0C94341E0895BF92CF92C2
:102A0000DF92EF92FF920F931F93CF93DF9300D04B
:102A100000D000D0CDB7DEB725E0FC01DE01119675
:102A200001900D922A95E1F7FC01408131810281EC
:102A3000258122952F7063817481672B09F4ECC284
:102A40003F3F19F44F3F09F4E7C27C0149833A83C1
:102A500089819A812E830E94211D182FB92E0E94F0
:102A6000201D0E94E71BEB2DE295EF70F0E0E05A8D
:102A7000FF4F2E810C94972D8B2D807F9B2D9F7067
:102A8000F92E882319F0F29480EFF822002349F000
:102A9000FF2009F46EC28F2D0E940D1E0E94341E6D
:102AA00068C2812F0E94C814FF2009F4B5C28F2D7F
:102AB0000E94131E26960FB6F894DEBF0FBECDBF40
:102AC000DF91CF911F910F91FF90EF90DF90CF900A
:102AD000BF900C94341E8B2D807F9B2D9F70803275
:102AE00011F4892F03C0892F8295807F112319F05B
:102AF000113011F12BC00023A9F0222389F12130DC
:102B000079F526960FB6F894DEBF0FBECDBFDF91E4
:102B1000CF911F910F91FF90EF90DF90CF90BF90DA
:102B20000C941D1E222319F0213009F475C28E83E6
:102B30000E94201E8E819BC1002321F0233008F0CB
:102B40006BC20EC0223008F067C291C10023C9F0E9
:102B5000222331F0F701958190FF0BC29F7095837E
:102B600026960FB6F894DEBF0FBECDBFDF91CF9192
:102B70001F910F91FF90EF90DF90CF90BF900C943A
:102B8000F014222309F473C109C22B2D2695269532
:102B9000237030E02115310521F021303105D1F0CD
:102BA0003BC2002321F0812F9B2D937002C080E057
:102BB00090E026960FB6F894DEBF0FBECDBFDF9132
:102BC000CF911F910F91FF90EF90DF90CF90BF902A
:102BD0000C94E812002321F0812F9B2D937002C0EA
:102BE00080E090E026960FB6F894DEBF0FBECDBF12
:102BF000DF91CF911F910F91FF90EF90DF90CF90D9
:102C0000BF900C94FE12812F002319F00E9409231B
:102C100002C00E94712326960FB6F894DEBF0FBE45
:102C2000CDBFDF91CF911F910F91FF90EF90DF907B
:102C3000CF90BF900C94F6238B2D837009F07BC04E
:102C40000111EAC1812F829586958770880F880FC0
:102C5000912F9F70C92ED12CE12CF12C082E04C08D
:102C6000CC0CDD1CEE1CFF1C0A94D2F714FF12C022
:102C70004FE050E060E070E004C0440F551F661F55
:102C8000771F8A95D2F7CB01BA0160957095809530
:102C9000909503C060E070E0CB012B2D2695269522
:102CA0002370422F50E042305105D9F04330510596
:102CB00069F16C297D298E299F294130510551F1F7
:102CC00026960FB6F894DEBF0FBECDBFDF91CF9131
:102CD0001F910F91FF90EF90DF90CF90BF900C94D9
:102CE0000E1C6C297D298E299F2926960FB6F894F3
:102CF000DEBF0FBECDBFDF91CF911F910F91FF902F
:102D0000EF90DF90CF90BF900C942A1C0E940E1C75
:102D1000C701B60126960FB6F894DEBF0FBECDBF31
:102D2000DF91CF911F910F91FF90EF90DF90CF90A7
:102D3000BF900C94F21B002319F08B2D817001C001
:102D40008695882309F468C1812F829586958770BE
:102D5000880F880F912F9F70C92ED12CE12CF12C58
:102D6000082E04C0CC0CDD1CEE1CFF1C0A94D2F70C
:102D700014FF12C04FE050E060E070E004C0440F68
:102D8000551F661F771F8A95D2F7CB01BA01609550
:102D900070958095909503C060E070E0CB012B2D7D
:102DA000269526952370422F50E042305105D9F0E8
:102DB0004330510569F16C297D298E299F294130C5
:102DC000510551F126960FB6F894DEBF0FBECDBF68
:102DD000DF91CF911F910F91FF90EF90DF90CF90F7
:102DE000BF900C94E81C6C297D298E299F2926967A
:102DF0000FB6F894DEBF0FBECDBFDF91CF911F910C
:102E00000F91FF90EF90DF90CF90BF900C94041D36
:102E10000E94E81CC701B60126960FB6F894DEBFE3
:102E20000FBECDBFDF91CF911F910F91FF90EF901B
:102E3000DF90CF90BF900C94CC1C103F49F118F458
:102E4000103E48F491C0123F09F453C0E8F1133F1B
:102E500009F464C089C01F708B2D8F71002321F08D
:102E60000E94651C812F7CCE0E94861C812F269695
:102E70000FB6F894DEBF0FBECDBFDF91CF911F918B
:102E80000F91FF90EF90DF90CF90BF900C94F714CC
:102E90000023B1F0223008F0BFC08B2D8F71269631
:102EA0000FB6F894DEBF0FBECDBFDF91CF911F915B
:102EB0000F91FF90EF90DF90CF90BF900C94AB1CE0
:102EC000233008F0A9C0E9CF0023A9F08B2D8F7122
:102ED00026960FB6F894DEBF0FBECDBFDF91CF911F
:102EE0001F910F91FF90EF90DF90CF90BF900C94C7
:102EF000651C002359F38B2D8F7126960FB6F8941D
:102F0000DEBF0FBECDBFDF91CF911F910F91FF901C
:102F1000EF90DF90CF90BF900C94861C002399F027
:102F20008B2D8F7126960FB6F894DEBF0FBECDBFE6
:102F3000DF91CF911F910F91FF90EF90DF90CF9095
:102F4000BF900C94501C26960FB6F894DEBF0FBEAF
:102F5000CDBFDF91CF911F910F91FF90EF90DF9048
:102F6000CF90BF900C94461C0023A9F0222309F4B3
:102F7000ADCF812F26960FB6F894DEBF0FBECDBF22
:102F8000DF91CF911F910F91FF90EF90DF90CF9045
:102F9000BF900C942914222309F4ADCF812F2696DB
:102FA0000FB6F894DEBF0FBECDBFDF91CF911F915A
:102FB0000F91FF90EF90DF90CF90BF900C94C814CA
:102FC0004B2D4F70612FC7010E947B1F26960FB6B5
:102FD000F894DEBF0FBECDBFDF91CF911F910F914F
:102FE000FF90EF90DF90CF90BF900C946C1B4B2D17
:102FF0004F70612FC70126960FB6F894DEBF0FBE43
:10300000CDBFDF91CF911F910F91FF90EF90DF9097
:10301000CF90BF900C947E1F26960FB6F894DEBF1B
:103020000FBECDBFDF91CF911F910F91FF90EF9019
:10303000DF90CF90BF9008950E941A1E0E94EF1D4E
:103040000E94341E0E9428250E94F62380E090E012
:103050000E94E81280E090E00C94FE120E940A1E8A
:103060000C941C180E94211D292F22952F7030E0EE
:103070002C3031054CF42A3031056CF422503109E2
:103080002230310588F407C02C30310549F02F304B
:10309000310531F009C0803E48F0803F29F406C078
:1030A00093FB882780F9089580E0089581E00895D2
:1030B000CF93DF9300D000D01F92CDB7DEB70F9033
:1030C0000F900F900F900F90DF91CF910895CF93B5
:1030D000DF9300D000D000D0CDB7DEB726960FB674
:1030E000F894DEBF0FBECDBFDF91CF9108951F933F
:1030F000CF93DF93C091700116E080917101C817E2
:1031000099F0D0E01C9FF0011D9FF00D1124EE58A6
:10311000FE4F4081518162817381848195810E943B
:1031200067182196C770E9CFDF91CF911F9108955D
:103130004091A2015091A3016091A4017091A50159
:103140008091A6019091A7010C9467188091A70126
:1031500082958F7009F054C08091A401882309F4EE
:103160004FC080917001A09171016091A201709196
:10317000A3014091A5015091A601B6E08A1709F478
:103180003FC090E041155105C1F17F3F11F46F3F01
:10319000A1F1B89FF001B99FF00D1124EE58FE4F38
:1031A000218172132AC02081621327C0228121113C
:1031B00024C0238134812417350710F421503109AC
:1031C000241B350B26393105C0F42091A7012F703F
:1031D00020612093A70126E0289FF001299FF00D90
:1031E0001124E958FE4F80818F708061808382EACC
:1031F00091E00E94FE140C94771801968770BECF60
:103200000895CF92DF92EF92FF920F931F93CF9387
:10321000DF93CDB7DEB762970FB6F894DEBF0FBE6F
:10322000CDBF8C0185E0F801DE011D9601900D9265
:103230008A95E1F7D8014C9111965C9111971296FD
:103240006C9112971396CD90DC9014973091A20157
:103250007091A3018091A5019091A601009709F4B6
:103260006BC17F3F19F43F3F09F466C1E090A401B0
:10327000EE2009F4C0C02091A701C816D90628F095
:10328000F601E81BF90BCF0104C0809590958C0DD9
:103290009D1DFF24F3948639910578F0F12C207F51
:1032A00009F0C6C07C2DD98AC88A89890E9458181D
:1032B00082EA91E00E94FE14B1C0822F807F09F063
:1032C00046C0751314C0341312C0611110C02F70A2
:1032D00020612093A7010E94981882EA91E00E9441
:1032E000FE148091A701D80115968C932EC0CD288D
:1032F00019F15F3F11F44F3FF9F0F62E61111CC038
:10330000809170012091710136E0821709F45AC052
:1033100090E0389FF001399FF00D1124EE58FE4FD8
:103320007181571306C07081471303C072817111F8
:1033300003C001968770E9CFF62E662309F418C101
:103340008091A70181608093A701F12C11C17513B1
:1033500008C0341306C0611104C08091A701D801D0
:10336000C3C04D875E878D859E856A8B0E9432180B
:103370006A898823E1F16623D1F12091A701822F88
:1033800082958F7090E0029774F08091A2019091E5
:10339000A30198878F831986DB86CA862C87CE0186
:1033A00007960E94FE1486E0F801A2EAB1E00190BF
:1033B0000D928A95E1F70E94A6180E949818FF24A2
:1033C000F394D6C04D875E878D859E850E94211D12
:1033D000292F22952F7030E0223031050CF0BCC02F
:1033E0009F7009F0B6C0805E883008F4C1C0C80183
:1033F0000E94FE14E4CFC816D90608F453C0F601A3
:10340000E81BF90BCF018639910508F450C0F12C67
:103410007C2DD98AC88A89890E945818E2EAF1E08D
:1034200086E0DF011D928A95E9F70E949818A0C0F6
:10343000751314C0341312C0611110C08091A7011C
:10344000F8018583C8010E94FE1486E0E2EAF1E0FB
:10345000DF011D928A95E9F7FE2C8AC04D875E87B1
:103460008D859E856A8B0E9432186A89882309F4AB
:10347000BECF662309F4BBCF2091A701822F82958E
:103480008F7090E002970CF48ECF8091A201909102
:10349000A3019A8389831B82DD82CC822E83CE0195
:1034A00001967FCF809590958C0D9D1DACCFF62E0B
:1034B000662309F49CCF75132EC034132CC02091C1
:1034C000A70120FD1FC0822F82958F70D9F0D801EF
:1034D00015962C9315978F3049F08F5F982F929502
:1034E000907F822F8F70892B15968C93C8010E9434
:1034F000FE1486E0F801A2EAB1E001900D928A95EF
:10350000E1F793CF86E0F801A2EAB1E001900D92D5
:103510008A95E1F72DC04D875E878D859E850E9437
:103520003218811140CF8091A70181608093A7015B
:10353000C8010E94FE141CC0662309F458CF4D87B1
:103540005E878D859E850E943218882309F44FCFAF
:103550002ACF811148CF0CC0243031050CF047CF61
:103560009F7009F440CFF8019581907F09F03BCF1F
:103570008F2D62960FB6F894DEBF0FBECDBFDF91E0
:10358000CF911F910F91FF90EF90DF90CF90089512
:103590001F93CF93DF93CDB7DEB72C970FB6F89478
:1035A000DEBF0FBECDBF4F83588769877A878B8771
:1035B0009C87CE0107960E940119882369F08F81AC
:1035C00098852A853B85232BF1F19F3F09F063C045
:1035D0008F3F09F060C037C086E0FE013796DE01FC
:1035E000119601900D928A95E1F76F817885EA85B1
:1035F000FB85309741F17F3F11F46F3F21F120911E
:10360000710130E0C90101968770992740917001DE
:1036100050E08417950709F447C069837A83FD83D6
:10362000EC8396E0929FD001939FB00D1124AE5889
:10363000BE4FFE01319601900D929A95E1F780936D
:1036400071010E94771816E08091700190917101CC
:103650008917C1F1189FC00111248E589E4F0E94F6
:103660000119882379F1E09170011E9FF001112466
:10367000EE58FE4F40815181628173818481958132
:103680000E9467188091700190E0019687709927D9
:1036900080937001D9CF4F81588569857A858B8554
:1036A0009C850E946718CFCF0E942E18109271013E
:1036B00010927001E2EAF1E086E0DF011D928A9546
:1036C000E9F7C1CF2C960FB6F894DEBF0FBECDBF81
:1036D000DF91CF911F910895EF92FF920F931F9367
:1036E000CF93DF938C01892B09F46AC0F12CEE246F
:1036F000E394E8012196F8018491843740F4843002
:1037000008F04FC0813081F0823019F159C08537FF
:1037100009F442C098F19CE7980F903708F050C028
:103720008F770E94C8143FC00E5F1F4FFE01C491E7
:1037300080E28C0F883048F4C7708E2D01C0880F4E
:10374000CA95EAF70E940D1E2FC08C2F0E942914E3
:103750002BC00E5F1F4FFE01C49180E28C0F88309A
:1037600048F4C7708E2D01C0880FCA95EAF70E94F1
:10377000131E1AC08C2F0E94C81416C00E5F1F4F54
:10378000FE01C491CC2381F08FE99FE00197F1F70E
:1037900000C00000C150F6CF0E5F1F4FFE01F49035
:1037A00003C00E9429148E018F2D882309F4A1CF14
:1037B000EFE9FFE03197F1F700C000008150F5CF4D
:1037C000DF91CF911F910F91FF90EF900895089591
:1037D0006093AC017093AD018093AE019093AF0103
:1037E0000C941C180F931F930091AC011091AD0124
:1037F0002091AE013091AF01DC01CB01802B912BE8
:10380000A22BB32B8093AC019093AD01A093AE019A
:10381000B093AF011F910F910C941C180F931F933D
:103820000091AC011091AD012091AE013091AF013A
:10383000DC01CB0180239123A223B3238093AC012D
:103840009093AD01A093AE01B093AF011F910F9182
:103850000C941C180F931F930091AC011091AD01B3
:103860002091AE013091AF01DC01CB01802791277F
:10387000A227B3278093AC019093AD01A093AE0132
:10388000B093AF011F910F910C941C181092A801D6
:103890001092A9011092AA011092AB010C941C186D
:1038A00041E050E060E070E004C0440F551F661F27
:1038B000771F8A95D2F74093A8015093A90160938E
:1038C000AA017093AB010C941C1841E050E060E039
:1038D00070E004C0440F551F661F771F8A95D2F70A
:1038E0008091A8019091A901A091AA01B091AB018A
:1038F000482B592B6A2B7B2B4093A8015093A9018D
:103900006093AA017093AB010C941C1841E050E045
:1039100060E070E004C0440F551F661F771F8A9552
:10392000D2F740955095609570958091A80190913F
:10393000A901A091AA01B091AB01482359236A23A0
:103940007B234093A8015093A9016093AA0170932F
:10395000AB010C941C1841E050E060E070E004C042
:10396000440F551F661F771F8A95D2F78091A801D3
:103970009091A901A091AA01B091AB0148275927C4
:103980006A277B274093A8015093A9016093AA015D
:103990007093AB010C941C180F931F930091A80116
:1039A0001091A9012091AA013091AB01DC01CB015A
:1039B000802B912BA22BB32B8093A8019093A9016C
:1039C000A093AA01B093AB011F910F910C941C1806
:1039D0000F931F930091A8011091A9012091AA01B2
:1039E0003091AB01DC01CB0180239123A223B323CF
:1039F0008093A8019093A901A093AA01B093AB0171
:103A00001F910F910C941C180F931F930091A80104
:103A10001091A9012091AA013091AB01DC01CB01E9
:103A200080279127A227B3278093A8019093A9010B
:103A3000A093AA01B093AB011F910F910C941C1895
:103A40000895CF92DF92EF92FF920F931F93CF933F
:103A5000DF938C01C090AC01D090AD01E090AE013D
:103A6000F090AF014091A8015091A9016091AA0185
:103A70007091AB01C42AD52AE62AF72ACFE1D0E01B
:103A8000D701C6010C2E04C0B695A79597958795CA
:103A90000A94D2F780FF07C0B8018C2F0E94081F3C
:103AA0008130910531F4219758F7B80180E00E94E8
:103AB000081FDF91CF911F910F91FF90EF90DF9042
:103AC000CF90089590910C01992359F1982F9695D4
:103AD000969596959F30A0F4E0910D01F0910E011E
:103AE000E90FF11D877021E030E0A90102C0440F09
:103AF000551F8A95E2F7CA019181892B8183089528
:103B00009091C30190FF29C01F928F9389EE94E09A
:103B10009F938F930E9428090F900F900F900F9002
:103B2000089520910D0130910E01F90132969FEF19
:103B300040E05191581789F09F3F19F4511101C08D
:103B4000942F4F5F4E30A9F79F3F39F0F901E90FED
:103B5000F11D97FDFA9582830895089590910C01C7
:103B6000992361F1982F9695969596959F30A8F494
:103B7000E0910D01F0910E01E90FF11D877021E038
:103B800030E0A90102C0440F551F8A95E2F7CA012F
:103B9000809591818923818308959091C30190FF3D
:103BA0001DC01F928F938BEC94E09F938F930E9484
:103BB00028090F900F900F900F90089520910D01FC
:103BC00030910E01F9013296205F3F4F908198139A
:103BD00001C010823196E217F307C1F7089581E022
:103BE00090E0E0910D01F0910E01E80FF91F1082B5
:103BF000019680319105A9F708959091C201892B12
:103C00008093C201089580959091C2018923809389
:103C1000C20108951092C20108959091C101892BAB
:103C20008093C101089580959091C101892380936B
:103C3000C10108951092C10108958093B0010895C3
:103C40001092B001089580910D0190910E01FC0138
:103C500031969C01205F3F4F80E0919191118F5FE1
:103C6000E217F307D1F70895E0910D01F0910E01ED
:103C70008091C2018083E0910D01F0910E0190814D
:103C80008091C101892B80838091B001882361F0EC
:103C9000E0910D01F0910E019081892B80830E94AB
:103CA000231E81111092B00180910D0190910E019F
:103CB0000C9494128D3B50F4883AE8F4853A90F4D1
:103CC000843070F4813009F45BC007C0803E28F076
:103CD000883E30F0803F08F050C080E090E00895CA
:103CE00090E00895853A09F44EC0863A09F44EC032
:103CF00083E890E40895883A09F44BC0893A09F4BE
:103D00004BC08A3A09F44BC08B3A09F44BC08C3A49
:103D100009F44BC08B3B09F44BC08C3B09F44BC0FE
:103D20008D3A09F44BC0803B09F44BC08E3A09F43C
:103D30004BC08F3A09F44BC0813B09F44BC0823B26
:103D400009F44BC0833B09F44BC0843B09F44BC0DE
:103D5000853B09F44BC0863B09F44BC0873B09F413
:103D60004BC0883B09F44BC0893B09F44BC08A3BEC
:103D700009F44BC080E094E4089590E090650895C4
:103D800081E090E0089581E890E4089582E890E46D
:103D9000089582EE94E4089589EE94E408958AEEFD
:103DA00094E4089585EB94E4089586EB94E40895F3
:103DB00083EB94E4089584EB94E4089587EB94E412
:103DC00008958CEC94E408958DEC94E4089583E8D0
:103DD00095E408958AE895E4089582E995E40895C4
:103DE00084E995E4089581E296E4089583E296E4F7
:103DF000089584E296E4089585E296E4089586E2C3
:103E000096E4089587E296E408958AE296E4089598
:103E10000E943309803EA8F4803C00F5813309F408
:103E20005CC038F4893209F452C08A3209F45BC0AC
:103E30005FC08933B1F08238A1F0853309F441C005
:103E400057C0833E41F128F4803E99F0823EB9F09C
:103E50004FC0863E31F1873E71F14AC00E9442094F
:103E600008959091DA0190FD02C091FF41C080EE6B
:103E70003FC08091DA0180FFFACF89E339C0809199
:103E8000DA0182FF0CC08091DA0184FF02C080E079
:103E90002FC083EE2DC08091DA0182FFF4CF82EE35
:103EA00027C08091DA0183FF0AC08091DA0184FD86
:103EB000EECF87EE1DC08091DA0183FFF6CF86EE4C
:103EC00017C08091DA0185FF06C089E211C0809198
:103ED000DA0185FFFACF85E30BC08091DA0186FF16
:103EE00006C08AE205C08091DA0186FFFACF81E33D
:103EF0000E945A1E089580E090E0089508959093DE
:103F0000C6018093C5010895CF92DF92EF92FF9290
:103F10006C01EE24FF24C114D104E104F10421F06A
:103F2000C701B60120E101C020E0C72ED82EE92E3E
:103F3000FF24C114D104E104F10419F0285FC70182
:103F4000B6016B017C0154E0F694E794D794C794D2
:103F50005A95D1F7C114D104E104F10419F02C5F92
:103F6000C701B6016B017C0142E0F694E794D79457
:103F7000C7944A95D1F7C114D104E104F10419F0B2
:103F80002E5FC701B601DC01CB01B695A7959795C9
:103F90008795892B8A2B8B2B09F02F5F822FFF901F
:103FA000EF90DF90CF9008958295982F9C7C392FC9
:103FB00036953695282F237344E0249FC0011124A1
:103FC000932F982B292F2A7A2695892F8575880F6C
:103FD000822B08951F93CF93DF931F92CDB7DEB747
:103FE00099830E94D41F182F9981892F0E94D41F72
:103FF000212F30E0322F2227A901482BCA010F9030
:10400000DF91CF911F9108958091DF01843021F1DC
:104010001092C40120E488E190E00FB6F894A895CE
:10402000809360000FBE2093600083B7817F84601F
:1040300083BF83B7816083BF7894889583B78E7F71
:1040400083BF0FB6F894A895809160008861809333
:104050006000109260000FBE0895CF930E94310956
:104060000E9470090E943209C0E08C2F0E94980AB9
:10407000892B29F4CF5FC530C1F780E001C081E012
:10408000CF9108950C942E1882E084BD93E095BDE5
:104090009AEF97BD80936E0008952FB7F8948091A2
:1040A000C7019091C801A091C901B091CA012FBF69
:1040B0000895CF92DF92EF92FF920F931F932FB745
:1040C000F8944091C7015091C8016091C901709165
:1040D000CA012FBF6A017B01EE24FF248C0120E07E
:1040E00030E0C016D106E206F30610F44150510943
:1040F0009A01281B390BC9011F910F91FF90EF9076
:10410000DF90CF9008951F920F920FB60F92112457
:104110008F939F93AF93BF938091C7019091C801F4
:10412000A091C901B091CA010196A11DB11D809352
:10413000C7019093C801A093C901B093CA01BF9170
:10414000AF919F918F910F900FBE0F901F90189578
:104150000E949C0FF8942FEF87EA91E6215080404F
:104160009040E1F700C0000087E090EBDC01809315
:10417000E8019093E901A093EA01B093EB019CE080
:1041800088E10FB6F894A895809360000FBE9093D5
:104190006000FFCFCF92DF92EF92FF920F931F93B9
:1041A000CF93DF93D82FC0E0EE24E394F12C8C2F33
:1041B0000E94980A6C0100E010E09701002E02C0F6
:1041C000220F331F0A94E2F72C213D21232B31F4D7
:1041D0000F5F1F4F0F30110581F709C0602F7C2F33
:1041E00080E00E943309D813F3CF81E004C0CF5F91
:1041F000C530E9F680E0DF91CF911F910F91FF90DC
:10420000EF90DF90CF900895CF93C82F8CE20E945B
:10421000CA20882321F08C2FCF910C94CA2080E0F3
:10422000CF910895CF930E946122811102C00E9414
:1042300047228EE095E00E948F08C5E6C15049F004
:104240000E9470098FE39CE90197F1F700C000001C
:10425000F5CF87E095E00E948F0889E20E94042153
:10426000811113C18AE20E94042181110E94472218
:1042700085E00E94042181110E94A8200E946C22E6
:104280008093C30187E00E9404218823A9F18BE178
:104290000E940421882351F08091C30181FB2227D1
:1042A00020F991E0922790FB81F90EC08EE00E94E8
:1042B0000421882361F08091C30182FB222720F929
:1042C00091E0922790FB82F98093C30115C080E1B1
:1042D0000E9404219091C301882341F093FB22277F
:1042E00020F981E0822780FB93F904C0892F809513
:1042F00080FB90F99093C3018091C3010E947022CA
:104300000E947E228093DA0180EE0E94042188239D
:1043100041F08091DA01982F909590FB80F980937D
:10432000DA0189E30E940421882359F08091DA019F
:1043300081FB222720F991E0922790FB81F980935D
:10434000DA0182EE0E940421882359F08091DA017B
:1043500082FB222720F991E0922790FB82F980933B
:10436000DA0186EE0E940421882359F08091DA0157
:1043700083FB222720F991E0922790FB83F9809319
:10438000DA0183EE0E940421882359F08091DA013A
:1043900084FB222720F991E0922790FB84F98093F7
:1043A000DA0185E30E940421882359F08091DA0123
:1043B00085FB222720F991E0922790FB85F98093D5
:1043C000DA0181E30E940421882359F08091DA0107
:1043D00086FB222720F991E0922790FB86F98093B3
:1043E000DA0181E10E940421882359F08091DA01E9
:1043F00087FB222720F991E0922790FB87F9809391
:10440000DA018091DA010E9482228091DA0187FB31
:10441000882780F980930C0187E20E940421C82F2D
:104420008EE10E9404218111C2608FE10E9404216B
:104430008111C46080E20E9404218111C86081E280
:104440000E9404218111C06182E20E940421811135
:10445000C06283E20E9404218111C06484E20E9450
:104460000421882311F0C06802C0CC2329F08C2FCE
:104470000E9479226C2F03C00E947522682F70E081
:1044800080E090E0CF910C94E81BCF9108956DEE01
:104490007EEF80E090E00E94CD2D60E082E090E031
:1044A0000E94BF2D60E083E090E00E94BF2D60E09D
:1044B00084E090E00E94BF2D60E085E090E00C94E5
:1044C000BF2D80E090E00E94B92D21E08D3E9E4FEF
:1044D00009F020E0822F089582E090E00C94B12D45
:1044E000682F82E090E00C94BF2D83E090E00C9464
:1044F000B12D682F83E090E00C94BF2D84E090E014
:104500000C94B12D682F84E090E00C94BF2D809125
:10451000CD0180FF0BC06091120185E0689FB00162
:10452000112475956795759567952BC081FF09C016
:104530006091120185E0689FB0011124759567951F
:1045400020C082FF07C06091120185E0689FB00122
:10455000112417C09091CE019923D1F060911101DF
:10456000961788F72091120185E0289F9001112469
:10457000929FA001939F500D112470E0CA010E94E8
:10458000832D6038710540F46115710539F002C062
:1045900065E070E0862F08958FE7089581E0089523
:1045A0008091CD0180FF08C06091100170E0759589
:1045B00067957595679521C081FF06C060911001D0
:1045C00070E07595679519C082FF04C06091100175
:1045D00070E010C09091CE019923C1F060910F015D
:1045E0009617A0F780911001899FC001112470E0F7
:1045F0000E94832D6038710528F46115710521F042
:10460000862F08958FE7089581E0089561E070E0B6
:10461000F4CF803F21F40E948722819504C0813F1E
:1046200029F40E9487228093D1010895823F21F4CA
:104630000E948722819504C0833F29F40E9487222B
:104640008093D0010895893F19F40E94D02205C0BB
:104650008A3F31F40E94D02281958093D20108953F
:104660008B3F21F40E94D022819504C08C3F29F415
:104670000E94D0228093D3010895843F21F4809139
:10468000CF01816017C0853F21F48091CF01826006
:1046900011C0863F21F48091CF0184600BC0873F19
:1046A00021F48091CF01886005C0883F31F480916A
:1046B000CF0180618093CF0108958D3F21F48091D7
:1046C000CD0181600BC08E3F21F48091CD018260CD
:1046D00005C08F3F29F48091CD0184608093CD0186
:1046E0000895803F39F48091D10187FF6CC010920A
:1046F000D10169C0813F29F48091D1011816BCF322
:1047000062C09091D001823F29F497FF5CC0109263
:10471000D00159C0833F19F41916CCF354C0893F16
:1047200041F48091D20118160CF04DC01092D201C4
:104730004AC08A3F29F48091D20187FF44C0F6CF56
:104740008B3F39F48091D30187FF3DC01092D30194
:104750003AC08C3F29F48091D3011816BCF333C0C2
:10476000843F21F48091CF018E7F17C0853F21F4D3
:104770008091CF018D7F11C0863F21F48091CF01C0
:104780008B7F0BC0873F21F48091CF01877F05C0CD
:10479000883F31F48091CF018F7E8093CF0113C089
:1047A0008D3F21F48091CD018E7F0BC08E3F21F48F
:1047B0008091CD018D7F05C08F3F29F48091CD017F
:1047C0008B7F8093CD018091D00181110EC08091AB
:1047D000D10181110AC08091D201811106C080915E
:1047E000D301811102C01092CE0108958091C301BE
:1047F00083FF7EC08AE495E00E948F088091CF01FC
:104800001F928F9385E495E09F938F930E942809D0
:1048100083E495E00E948F088091D001282F082E14
:10482000000C330B3F938F9380E495E09F938F931D
:104830000E9428098EE395E00E948F088091D101A3
:10484000282F082E000C330B3F938F938BE395E0BA
:104850009F938F930E94280989E395E00E948F0817
:104860008091D201282F082E000C330B3F938F9399
:1048700086E395E09F938F930E94280984E395E057
:104880000E948F088091D301282F082E000C330B33
:104890003F938F9381E395E09F938F930E94280924
:1048A0008EE295E00E948F088091CE011F928F9337
:1048B0008BE295E09F938F930E94280989E295E00F
:1048C0000E948F088091CD011F928F9386E295E020
:1048D0009F938F930E94280983E295E00E948F089E
:1048E0008DB79EB74C960FB6F8949EBF0FBE8DBF86
:1048F0008FEC91E00E94DD120E944D209093CC013C
:104900008093CB0108951F93CF93DF938091CB01C8
:104910009091CC010E945920AC019091CE01992335
:1049200021F02091130130E006C0209114018AE0AB
:10493000289F900111244217530708F485C08091E5
:10494000D001C091D101D091D2011091D301811138
:1049500007C0C11175C0D11173C0111171C074C0ED
:104960009F3F19F09F5F9093CE01181624F40E9488
:1049700087228093D0018091D00187FF05C00E94DB
:10498000872281958093D0011C1624F40E948722EF
:104990008093D1018091D10187FF05C00E948722B9
:1049A00081958093D1016091D001662331F1C0914E
:1049B000D101CC2311F1062E000C770B880B990B3B
:1049C0000E948A2C23E333E343E35FE30E94EE2C4F
:1049D0000E94522C6093D0016C2FCC0F770B880B68
:1049E000990B0E948A2C23E333E343E35FE30E94A5
:1049F000EE2C0E94522C6093D1011D1624F40E94CB
:104A0000D0228093D2018091D20187FF05C00E94FD
:104A1000D02281958093D201111624F40E94D022D5
:104A20008093D3018091D30187FF05C00E94D022DB
:104A300081958093D301DF91CF911F910C94F62340
:104A40009F3F09F08FCF97CFDF91CF911F910895AE
:104A5000EFECF1E085E0DF011D928A95E9F7109215
:104A6000CE011092CD01089589E19AE00E948F084D
:104A70008CE09AE00E948F088FEF99E00C948F08E9
:104A80008CE799E00E948F088FE699E00E948F08DA
:104A900084E599E00E948F0889E399E00E948F08DD
:104AA00081E299E00E948F0887E099E00E948F08D8
:104AB00089EE98E00E948F0889EC98E00E948F08A8
:104AC00084EB98E00E948F088DE998E00E948F089F
:104AD00080E898E00E948F0881E698E00E948F08A5
:104AE00081E498E00E948F088FE198E00E948F088F
:104AF0008AEE97E00E948F0885ED97E00E948F086C
:104B00001F9285E08F9382ED97E09F938F930E9491
:104B1000280989EC97E00E948F081F9281E08F930B
:104B200086EC97E09F938F930E94280984EC97E08E
:104B30000E948F088DB79EB708960FB6F8949EBF57
:104B40000FBE8DBF87E997E00C948F08833009F47E
:104B500059C028F4813061F0823079F108958530B0
:104B600009F49AC008F473C0863009F4BAC00895F5
:104B700080911401262F30E0280F311D2F3F310581
:104B800024F4680F6093140103C08FEF8093140125
:104B900083E796E00E948F08809114011F928F9303
:104BA00080E796E09F938F930E9428090F900F90C3
:104BB0000F900F908EE696E0B8C080911301262FDB
:104BC00030E0280F311D2F3F310524F4680F60932A
:104BD000130103C08FEF809313018FE596E00E94CD
:104BE0008F08809113011F928F938CE596E09F931D
:104BF0008F930E9428090F900F900F900F908AE5D5
:104C000096E093C080911201262F30E0280F311DCD
:104C10002F3F310524F4680F6093120103C08FEF1A
:104C2000809312018AE496E00E948F08809112011D
:104C30001F928F9387E496E09F938F930E94280999
:104C40000F900F900F900F9085E496E06EC08091CA
:104C50001101262F30E0280F311D2F3F310524F49C
:104C6000680F6093110103C08FEF8093110183E3FC
:104C700096E00E948F08809111011F928F9380E32C
:104C800096E09F938F930E9428090F900F900F90AA
:104C90000F908EE296E049C080911001262F30E0FF
:104CA000280F311D2F3F310524F4680F6093100148
:104CB00003C08FEF8093100188E196E00E948F0877
:104CC000809110011F928F9385E196E09F938F93BF
:104CD0000E9428090F900F900F900F9083E196E0AB
:104CE00024C080910F01262F30E0280F311D2F3F67
:104CF000310524F4680F60930F0103C08FEF809398
:104D00000F018BEF95E00E948F0880910F011F9299
:104D10008F9388EF95E09F938F930E9428090F90BF
:104D20000F900F900F9086EF95E00C948F088330D2
:104D300009F44DC028F4813061F0823049F10895C2
:104D4000853009F482C008F461C0863009F49CC043
:104D5000089580911401681720F4861B8093140134
:104D600002C0109214018AEE95E00E948F08809193
:104D700014011F928F9387EE95E09F938F930E946B
:104D800028090F900F900F900F9085EE95E09AC034
:104D900080911301681720F4861B8093130102C0D1
:104DA0001092130186ED95E00E948F088091130107
:104DB0001F928F9383ED95E09F938F930E94280914
:104DC0000F900F900F900F9081ED95E07BC0809138
:104DD0001201681720F4861B8093120102C0109202
:104DE000120181EC95E00E948F08809112011F92C0
:104DF0008F938EEB95E09F938F930E9428090F90DD
:104E00000F900F900F908CEB95E05CC0809111019A
:104E1000681720F4861B8093110102C010921101C3
:104E20008AEA95E00E948F08809111011F928F936A
:104E300087EA95E09F938F930E9428090F900F9027
:104E40000F900F9085EA95E03DC0809110016817A2
:104E500020F4861B8093100102C0109210018FE88D
:104E600095E00E948F08809110011F928F938CE82B
:104E700095E09F938F930E9428090F900F900F90B9
:104E80000F908AE895E01EC080910F01681720F40A
:104E9000861B80930F0102C010920F0182E795E0FC
:104EA0000E948F0880910F011F928F938FE695E0EB
:104EB0009F938F930E9428090F900F900F900F904F
:104EC0008DE695E00C948F08CF93C82F88EE99E07B
:104ED0000E948F086091AC017091AD018091AE018C
:104EE0009091AF010E94841F1F928F9385EE99E0ED
:104EF0009F938F930E94280980EE99E00E948F086B
:104F00001F92CF938DED99E09F938F930E94280974
:104F10008BED99E00E948F0881E090E0A0E0B0E086
:104F2000BC01CD0104C0660F771F881F991FCA9569
:104F3000D2F70E94E81B8DB79EB708960FB6F8947B
:104F40009EBF0FBE8DBFCF910C942E18CF93482FCC
:104F500050E0FA013697E334F10508F0C0C2E05999
:104F6000FF4F0C94972D84E290E10E948F080E94DD
:104F70000C2C0E9488120E94E80A43C189E190E14A
:104F80000E948F0880E69DE00E948F080E94752293
:104F90001F928F938DE59DE09F938F930E94280928
:104FA0008BE59DE00E948F080E946C22C82F88E448
:104FB0009DE00E948F081F92CF9383E49DE09F9312
:104FC0008F930E94280981E49DE00E948F0887E367
:104FD0009DE00E948F088C2F81701F928F9384E335
:104FE0009DE09F938F930E94280982E39DE00E9499
:104FF0008F0888E29DE00E948F08C1FB882780F916
:105000001F928F9385E29DE09F938F930E942809C2
:1050100083E29DE00E948F0887E19DE00E948F0857
:10502000C2FB882780F91F928F9384E19DE09F93B4
:105030008F930E94280982E19DE00E948F0889E0F9
:105040009DE00E948F08C3FBCC27C0F91F92CF932D
:1050500086E09DE09F938F930E94280984E09DE065
:105060000E948F080E947E22C82F80EF9CE00E9441
:105070008F081F92CF938BEE9CE09F938F930E949B
:10508000280989EE9CE00E948F0880ED9CE00E9438
:105090008F088C2F81701F928F938DEC9CE09F93D3
:1050A0008F930E9428098DB79EB780960FB6F8940B
:1050B0009EBF0FBE8DBF8BEC9CE00E948F0884EBDF
:1050C0009CE00E948F08C1FB882780F91F928F9374
:1050D00081EB9CE09F938F930E9428098FEA9CE0CC
:1050E0000E948F088DE99CE00E948F08C2FB8827F0
:1050F00080F91F928F938AE99CE09F938F930E947F
:10510000280988E99CE00E948F0886E89CE00E94BC
:105110008F08C3FB882780F91F928F9383E89CE058
:105120009F938F930E94280981E89CE00E948F083A
:1051300087E79CE00E948F08C4FB882780F91F92B4
:105140008F9384E79CE09F938F930E94280982E7C6
:105150009CE00E948F0880E69CE00E948F08C5FBBF
:10516000882780F91F928F938DE59CE09F938F9302
:105170000E9428098BE59CE00E948F088FE39CE049
:105180000E948F08C6FB882780F91F928F938CE3BB
:105190009CE09F938F930E9428098AE39CE00E94E1
:1051A0008F0882E39CE00E948F08C7FBCC27C0F9E0
:1051B0001F92CF938FE29CE09F938F930E942809C8
:1051C0008DE29CE00E948F088DB79EB74C960FB67B
:1051D000F8949EBF0FBE8DBF14C00E948312892B0E
:1051E00091F00E9483129093D6018093D5010E9482
:1051F0002E1880E090E00E947E1280E190E10E94F3
:105200008F08C1E071C18091D5019091D6010E94B3
:105210007E1285E090E1F3CF81E19CE00E948F084F
:105220008AEF9BE00E948F0882EE9BE00E948F082D
:105230008AEC9BE00E948F0880EB9BE00E948F0825
:1052400089E99BE00E948F088FE79BE00E948F080E
:105250008FE59BE00E948F0889E49BE00E948F0805
:1052600088E39BE00E948F0880E29BE00E948F0809
:1052700080E19BE00E948F0886EF9AE00E948F08F1
:105280008DED9AE00E948F0884EC9AE00E948F08CE
:105290008BEA9AE00E948F0882E99AE00E948F08C8
:1052A00081E79AE00E948F088FE49AE00E948F08BD
:1052B00085E39AE0A4CF8091C301817F8E7F8093A4
:1052C000C3010E94342580EF9FE00E948F088CEE7E
:1052D0009FE00E948F0881E08093D40192CF0E94CA
:1052E0002E1883ED9FE00E948F089FEF23ED80E34F
:1052F000915020408040E1F700C000000E94A820AB
:1053000083EC9FE07CCF8091C301C82FC17080FFE8
:1053100009C080EB9FE00E948F088091C301817FCC
:105320008E7F47C08EE99FE00E948F088091C30165
:1053300081608093C30165CF9091C30191FBCC271D
:10534000C0F981E0C827892FC0FB81F98093C30190
:10535000CC2319F085E89FE027C08BE69FE04FCF74
:105360009091C30192FBCC27C0F981E0C827892F17
:10537000C0FB82F98093C301CC2319F080E59FE044
:1053800013C084E39FE03BCF9091C30193FBCC27F4
:10539000C0F981E0C827892FC0FB83F98093C3013E
:1053A000CC2351F08CE19FE00E948F088091C301D3
:1053B00081608093C30198C083E09FE020CF8CEE92
:1053C0009EE00E948F0889EC9EE00E948F0886E98B
:1053D0009EE00E948F088FE69EE00E948F088AE27E
:1053E0009EE00E948F088FEF9DE009CF8091C7015A
:1053F0009091C801A091C901B091CA01BF93AF9328
:105400009F938F938BEE9DE09F938F930E9428092B
:105410000F900F900F900F900F900F90F2CE85EDA0
:105420009DE00E948F080E9488121F928F938BEB41
:105430009DE09F938F930E94280980910B011F92FA
:105440008F9384EA9DE09F938F930E942809809117
:105450004C011F928F9381E99DE09F938F930E944F
:1054600028098DB79EB70C960FB6F8949EBF0FBE55
:105470008DBFC7CE0E942E18C0910C0181E0C827B5
:10548000C0930C01CC2329F082E89DE00E948F0894
:105490002BC082E79DE0B3CE81E890E00E94E81245
:1054A0009FEF21EE84E0915020408040E1F700C062
:1054B000000080E090E00E94E8129FEF29E688E17A
:1054C000915020408040E1F700C000009ACE80E07B
:1054D00003C08D5101C089530E94642792CE80E79A
:1054E0009DE00E948F08C0E08C2FCF91089580E04E
:1054F000089580E00895CF93C82F8091D401813022
:1055000071F020F0823009F451C060C1E0910D01CA
:10551000F0910E018081823209F05AC107C0E091FA
:105520000D01F0910E018081823261F48C2F0E9476
:10553000772A811104C08C2F0E94A62735C081E0F4
:1055400090E032C08C2F0E94792A81112CC0C43186
:10555000F1F090F4CB30A1F0C03101F50E9440256C
:105560008AEA99E00E948F0886EA99E00E948F08F3
:1055700082E08093D40117C0C93249F0C83371F476
:105580000E94342587ED99E00E948F080CC083ECBF
:1055900099E00E948F081092D4011CC184EA99E01E
:1055A0000E948F0817C181E0817016C1C83228F5AA
:1055B000CE3108F0C0C0CB30A1F1D0F4C73009F033
:1055C000E8C08EE18093140182E3809313018AE0A6
:1055D0008093120184E18093110188E0809310018F
:1055E00088E280930F018CE497E00E948F08D6C078
:1055F000C33141F1C431C1F0CCC0CB3409F4BEC0D9
:1056000028F4C93289F0C83361F0C3C0C13509F448
:10561000B3C0C23509F4AEC0CE3409F0BAC06AE0F6
:10562000B3C00E944025BAC01092D7018FE797E01F
:105630000E948F088BE797E00E948F0881E080939B
:10564000D401CAC08FE197E00E948F088AE097E0FA
:105650000E948F08809114011F928F9387E097E03A
:105660009F938F930E94280985E097E00E948F08FE
:1056700080EF96E00E948F08809113011F928F9314
:105680008DEE96E09F938F930E9428098BEE96E013
:105690000E948F0889ED96E00E948F088091120188
:1056A0001F928F9386ED96E09F938F930E94280917
:1056B00084ED96E00E948F0880EC96E00E948F08AF
:1056C000809111011F928F938DEB96E09F938F93A2
:1056D0000E9428098BEB96E00E948F0883EA96E0EF
:1056E0000E948F08809110011F928F9380EA96E0AC
:1056F0009F938F930E9428098EE996E00E948F085D
:1057000084E896E00E948F0880910F011F928F938A
:1057100081E896E09F938F930E9428098FE796E097
:105720000E948F088DB79EB748960FB6F8949EBF1B
:105730000FBE8DBF33C0CE51EC2FF0E0E25DFE4FC7
:1057400080818093D70186E697E00E948F08809140
:10575000D7011F928F9383E697E09F938F930E94C8
:10576000280981E697E00E948F080F900F900F9014
:105770000F9014C061E003C061E006C06AE0809150
:10578000D7010E94A6250AC08091D7010E949726C2
:1057900005C08AE497E00E948F0816C088E497E06D
:1057A0000E948F088091D7011F928F9385E497E024
:1057B0009F938F930E94280982E497E00E948F08AC
:1057C0000F900F900F900F9081E006C01092D401BF
:1057D00080E002C080E0E8CECF910895E1E8F0E0FB
:1057E0008081886080838081816080838FB7F89416
:1057F00093E09093890090ED909388008FBF089577
:10580000EFE6F0E08081826080830895EFE6F0E0CB
:1058100080818D7F80830895EFE6F0E0908182E0C3
:105820008927808308951F920F920FB60F9211243B
:105830002F933F934F935F936F937F938F939F9398
:10584000AF93BF93EF93FF938091D8019091D901CB
:1058500001969093D9018093D801811103C082E011
:105860000E94E80AE091D901E695E695F0E0EC5C4B
:10587000FF4EE4918091D8018E1303C080E00E9416
:10588000E80AFF91EF91BF91AF919F918F917F9126
:105890006F915F914F913F912F910F900FBE0F909D
:1058A0001F9018950E94592C6894B1110C94E82C03
:1058B00008950E94CD2C88F09F5798F0B92F992712
:1058C000B751B0F0E1F0660F771F881F991F1AF0EB
:1058D000BA95C9F714C0B13091F00E94E72CB1E03D
:1058E00008950C94E72C672F782F8827B85F39F03C
:1058F000B93FCCF3869577956795B395D9F73EF484
:1059000090958095709561957F4F8F4F9F4F08952B
:10591000E89409C097FB3EF4909580957095619549
:105920007F4F8F4F9F4F9923A9F0F92F96E9BB27FF
:105930009395F695879577956795B795F111F8CF7B
:10594000FAF4BB0F11F460FF1BC06F5F7F4F8F4FE6
:105950009F4F16C0882311F096E911C0772321F0DC
:105960009EE8872F762F05C0662371F096E8862F74
:1059700070E060E02AF09A95660F771F881FDAF7CB
:10598000880F9695879597F9089557FD9058440F7D
:10599000551F59F05F3F71F04795880F97FB991F8E
:1059A00061F09F3F79F0879508951216130614064B
:1059B000551FF2CF4695F1DF08C0161617061806D8
:1059C000991FF1CF86957105610508940895E894B3
:1059D000BB2766277727CB0197F908950E94012DF1
:1059E0000C94722D0E94642D38F00E946B2D20F0D3
:1059F000952311F00C945B2D0C94612D11240C94C3
:105A0000E82C0E94C52C70F3959FC1F3950F50E0D0
:105A1000551F629FF001729FBB27F00DB11D639F60
:105A2000AA27F00DB11DAA1F649F6627B00DA11D06
:105A3000661F829F2227B00DA11D621F739FB00DAC
:105A4000A11D621F839FA00D611D221F749F33271C
:105A5000A00D611D231F849F600D211D822F762FB5
:105A60006A2F11249F5750409AF0F1F088234AF092
:105A7000EE0FFF1FBB1F661F771F881F91505040FE
:105A8000A9F79E3F510580F00C945B2D0C94E82CF7
:105A90005F3FE4F3983ED4F3869577956795B79585
:105AA000F795E7959F5FC1F7FE2B880F911D96959F
:105AB000879597F9089597F99F6780E870E060E00F
:105AC00008959FEF80EC089500240A941616170697
:105AD00018060906089500240A94121613061406DF
