:100000000C9452050C9499050C9499050C9499053F
:100010000C9499050C9499050C9499050C949905E8
:100020000C9499050C9499050C940D0F0C9499055A
:100030000C9499050C9499050C9499050C949905C8
:100040000C9499050C9435210C9499050C94990500
:100050000C9499050C94801E0C9499050C949905A8
:100060000C9499050C9499050C9499050C94990598
:100070000C9499050C9499050C9499050C94990588
:100080000C9499050C9499050C9499050C94990578
:100090000C9499050C9499050C9499050C94990568
:1000A0000C9499050C9499050C9499056E6F742025
:1000B000737570706F727465642E0A004A756D7086
:1000C00020746F20626F6F746C6F616465722E2E86
:1000D0002E20000000028AF0A2F1A3F1A10000008E
:1000E0000000000000000000000000000000F0021E
:1000F000F001F000000000000006F003F005F00041
:100100000004F008F009F00AF007F0142B04CD1DEC
:100110004F311E001AE016521B50001F0008000746
:100120000006003D20001517090A190522210018B4
:100130001C0D0B10112324000C300E0036002E2550
:100140000012C20F003700002600132F333400388E
:100150002D2700E600E36800C300000000352A00F8
:1001600028000000000000002C005100000000E109
:10017000E50000000000000000000000000000C4D6
:100180000000000000000000C4140104011D010172
:100190001E00D90116011B01001F000800D7000630
:1001A000000120001517D50A19D4222100D8DA0D34
:1001B000D310112324000C01DB00010001250012E3
:1001C000010F0001010026001301010100010127B8
:1001D0000001000101000100000000010100010018
:1001E000010000000000010001000000000101000A
:1001F00000000000000000000000000000010000FE
:100200000000000000000100014A0100009A3A00CD
:10021000000100000000003B004D004E0000000106
:100220003C000000000000003E3D004B005150002B
:10023000003F400000005200000045410000014F17
:1002400000000000420000000000000044430001E4
:10025000000101000100000000004C00000000004F
:10026000000000002C000000000000010100000060
:10027000000000000000000000000001000000007D
:100280000000000001000100CF0000006900000133
:1002900000000000006A00520000000000010000A1
:1002A0000000D1000000000000000049004C0000E8
:1002B000AC0000004A004D00A9AE0000014B004E0A
:1002C0000000AB0000002A000000AAA80001000105
:1002D00001000100000000B000000000000000006C
:1002E00000002C00000000000039010000000000A8
:1002F00000000000000000000001000000000000FD
:100300000000010A002530313662003A2000253015
:100310003258000A722F6320303132333435363789
:1003200038394142434445460A000A0025303258D4
:1003300000626F756E6365213A20005B735D004B50
:100340006579626F6172642073746172742E0A0041
:1003500055534220636F6E666967757265642E0A35
:10036000005B575D005B535D005B525D005B445D6D
:10037000005B435D000A034D004C0036003700006F
:10038000000E036A006800690067006700730000E0
:10039000000403090409027400040100A0320904E6
:1003A00000000103010100092111010001223F00A9
:1003B0000705810308000A09040100010300000089
:1003C0000921110100012236000705820308000AF5
:1003D00009040200020300000009211101000122AA
:1003E0002000070583032000010705030320000107
:1003F000090403000103000000092111010001228A
:1004000039000705840310000112011001000000EB
:1004100008EDFE616001000102000105010906A16D
:1004200001050719E029E7150025019508750181E7
:1004300002050819012905950575019102950175B7
:100440000391010507190029771500250195787595
:10045000018102C00631FF0974A10109751500254B
:10046000FF9520750881020976150025FF952075F6
:10047000089102C005010980A1018502160100262C
:10048000B7001A01002AB700751095018100C00558
:100490000C0901A1018503160100269C021A010026
:1004A0002A9C02751095018100C005010906A10171
:1004B000050719E029E71500250195087501810256
:1004C0009501750881010508190129059505750132
:1004D00091029501750391010507190029FF150087
:1004E00025FF950675088100C00A00253032582086
:1004F000006B6579626F6172645F7265706F7274B0
:100500003A20000A0025303258006B6579626F612D
:1005100072645F7365745F6C65643A200064656C37
:100520005F6B65795F6269743A2063616E2774203E
:1005300064656C3A20253032580A006164645F6B50
:1005400065795F6269743A2063616E277420616423
:10055000643A20253032580A003F000A5175697408
:1005600020436F6E736F6C65204D6F64650A0043A6
:100570003E20000A0025750020746F2000257500BC
:100580007377697463685F64656661756C745F6CCA
:10059000617965723A20004553432F713A097175AC
:1005A00069740A000A0A2D2D2D2D2D20436F6E73BC
:1005B0006F6C652048656C70202D2D2D2D2D0A0047
:1005C000506175733A096A756D7020746F20626F9F
:1005D0006F746C6F616465720A00436170733A09ED
:1005E0004C6F636B204B6579626F6172642843685E
:1005F000696C642050726F6F66290A0050536372F1
:100600003A09706F77657220646F776E2F72656D2F
:100610006F74652077616B652D75700A00342F4605
:10062000343A0973776974636820746F204C617978
:10063000657234200A00332F46333A0973776974A0
:10064000636820746F204C6179657233200A003230
:100650002F46323A0973776974636820746F204CAF
:100660006179657232200A00312F46313A09737779
:100670006974636820746F204C6179657231200A57
:1006800000302F4631303A097377697463682074FB
:100690006F204C6179657230200A006E3A09746FE0
:1006A00067676C65204E4B524F0A00653A097072BD
:1006B000696E7420656570726F6D20636F6E666918
:1006C000670A00733A097072696E742073746174FA
:1006D00075730A00743A097072696E742074696DDA
:1006E000657220636F756E740A00763A09707269DC
:1006F0006E74206465766963652076657273696FD0
:100700006E202620696E666F0A007A3A09746F6758
:10071000676C6520736C656570204C45442074657A
:1007200073740A006D3A09746F67676C65206D6FAA
:100730007573652064656275670A006B3A09746FAA
:1007400067676C65206B6579626F617264206465B0
:100750006275670A00783A09746F67676C65206D87
:1007600061747269782064656275670A00643A0989
:10077000746F67676C6520646562756720656E617C
:10078000626C650A00633A09656E74657220636F76
:100790006E736F6C65206D6F64650A000A0A2D2DFB
:1007A0002D2D2D20436F6D6D616E642048656C703A
:1007B000202D2D2D2D2D0A003F004E4B524F3A205B
:1007C00064697361626C65640A004E4B524F3A2053
:1007D000656E61626C65640A006B6579626F617257
:1007E000645F69646C653A2025580A006B6579621C
:1007F0006F6172645F70726F746F636F6C3A202503
:10080000580A00686F73745F6B6579626F61726418
:100810005F6C65647328293A2025580A000A0A2D5E
:100820002D2D2D2D20537461747573202D2D2D2D9C
:100830002D0A0074696D65725F636F756E743A207E
:100840002530346C580A004743433A20392E312E64
:1008500030204156522D4C4942433A20322E302E00
:1008600030204156525F415243483A2061767235FA
:100870000A004F5054494F4E533A204C55464120A0
:1008800045585452414B455920434F4E534F4C45C8
:1008900020434F4D4D414E44204E4B524F20353159
:1008A000320A004255494C443A20333437366533D6
:1008B000302D6469727479202830383A35303A34F2
:1008C00038204A756C2020382032303139290A000E
:1008D0005649443A20307846454544286A68696755
:1008E000677329205049443A203078363036312811
:1008F0004D4C363729205645523A2030783030302A
:10090000310A00444553433A20542E4D2E4B2E209D
:100910004861636B65642046696C636F204D696E46
:10092000696C612E0A000A0A2D2D2D2D2D20566589
:100930007273696F6E202D2D2D2D2D0A000A4445EE
:100940004255473A206D6F75736520646973616223
:100950006C65642E0A000A44454255473A206D6F83
:1009600075736520656E61626C65642E0A000A44C9
:10097000454255473A206B6579626F617264206425
:10098000697361626C65642E0A000A4445425547EA
:100990003A206B6579626F61726420656E61626C8A
:1009A00065642E0A000A44454255473A206D617439
:1009B0007269782064697361626C65642E0A000A4A
:1009C00044454255473A206D617472697820656EDE
:1009D00061626C65642E0A000A44454255473A201C
:1009E000656E61626C65642E0A000A444542554793
:1009F0003A2064697361626C65642E0A006E6F74DC
:100A000020737570706F727465642E0A000A0A4A4A
:100A1000756D7020746F20626F6F746C6F616465A8
:100A2000722E2E2E2000433E20000A456E74657201
:100A300020436F6E736F6C65204D6F64650A0055BF
:100A40006E6C6F636B65642E0A004C6F636B65643C
:100A50002E0A00536C656570204C45442074657304
:100A6000740A000000000000000000000000010205
:100A700004060A0F17202C3A4A5D71879DB3C7DA26
:100A8000E9F5FCFFFCF5E9DAC7B39D87715D4A3AE9
:100A90002C20170F0A0604020100000000000000CD
:100AA0000000000011241FBECFEFDAE0DEBFCDBF93
:100AB00004B603FE27C08091FE019091FF01A09132
:100AC0000002B09101028730904BA740B04BD1F4A7
:100AD0001092FE011092FF0110920002109201028A
:100AE00014BE84B7877F84BF0FB6F894A895809111
:100AF0006000886180936000109260000FBEE0E0AB
:100B0000FFE3099511E0A0E0B1E0ECEBF3E402C0F3
:100B100005900D92A432B107D9F721E0A4E2B1E02B
:100B200001C01D92AE3FB207E1F70E94460C0C9443
:100B30007A210C940000FF93EF93E091E601F0918D
:100B4000E701309709F00995EF91FF910895FC01B5
:100B50008591803011F0EFDFFBCF0895FF27E0E2B1
:100B600030E247FF0CC0419597FF09C0EDE2609568
:100B7000709580959095611D711D811D911D27FFB8
:100B800002C0219530E350E2AA27660F771F881F25
:100B9000991FAA1FA41710F0A41B63955A95A9F7D3
:100BA000AA3008F0A95FA05DAF93F39561157105B8
:100BB0008105910541F7ED3211F4EF93F395F217AA
:100BC00018F43F93F395FBCF8F91B5DFFA95E1F7DA
:100BD0000895E991F9918591803021F0853219F0DD
:100BE000AADFF9CF089520E0E89455915532C1F37A
:100BF000503311F4689455915A3348F4505390F39C
:100C0000220F022E220F220F200D250FF4CF0EF4FB
:100C1000219589919991533619F3533729F1533519
:100C200059F1BC0188279927E8945C3621F4899111
:100C3000999168945591543639F446EF7EF077FFD8
:100C40000DC08FEF9FEF0AC055374AE039F0583595
:100C500040E121F0523642E009F00895FF93EF930E
:100C60007DDFEF91FF91B7CFFF93EF93FC0181916F
:100C70008030B9F360DFFBCFFF93EF9368DFF1CFF4
:100C8000DF93CF93CDB7DEB72596A3DFCF91DF916A
:100C9000089508950895CF930E94C21CC82F0E9402
:100CA000D31C88E00E94C51C8BE10E94271C0E9477
:100CB000FD1C0E94D31C8C2FCF910C94C51CCF938C
:100CC0000E94C21CC82F0E94D31C88E00E94C51C31
:100CD00089E10E94271C0E94FD1C0E94D31C8C2FBE
:100CE000CF910C94C51CCF930E94C21CC82F0E94A8
:100CF000D31C84E00E94C51C80E50E94271C0E9432
:100D0000FD1C0E94D31C8C2FCF910C94C51CCF933B
:100D10000E94C21CC82F0E94D31C84E00E94C51CE4
:100D20008FE40E94271C0E94FD1C0E94D31C8C2F64
:100D3000CF910C94C51CCF930E94C21CC82F0E9457
:100D4000D31C8CE40E94271C0E94FD1C8C2FCF9189
:100D50000C94C51CCF930E94C21CC82F0E94D31CA8
:100D600080E40E94C51C82E00E94C51C8FE40E94A2
:100D7000271C0E94FD1C0E94D31C0E944B060E944F
:100D8000FD1C8C2FCF910C94C51CCF930E94C21CCC
:100D9000C82F0E94D31C82E00E94C51C88E00E94DC
:100DA000C51C8FE40E94271C0E94FD1C0E94D31CBE
:100DB0000E944B060E94FD1C8C2FCF910C94C51CE9
:100DC000CF930E94C21CC82F0E94D31C82E00E94B5
:100DD000C51C88E00E94C51C80E50E94271C0E945B
:100DE000FD1C0E94D31C0E944B060E94FD1C8C2FF0
:100DF000CF910C94C51CCF930E94C21CC82F0E9497
:100E0000D31C82E00E94C51C84E00E94C51C80E5C2
:100E10000E94271C0E94FD1C0E94D31C0E944B06AE
:100E20000E94FD1C8C2FCF910C94C51C0E94C21CEB
:100E300080FD06C00E94C21C829581708170089559
:100E400081E0FCCF0E94C21C81FD07C00E94C21C31
:100E500085FB882780F98170089581E0FCCF0E948E
:100E6000C21C82FD07C00E94C21C86FB882780F935
:100E70008170089581E0FCCF0E94C21C83FD0AC0EE
:100E80000E94C21C082E000C990B892F881F8827EE
:100E9000881F089581E00895882351F084E00E941E
:100EA000C51C86E30E94271C0E94FD1C0C94C516DD
:100EB0000895882379F00E942207882329F085E38A
:100EC0000E94271C0C94FD1C0E943C078111F7CF47
:100ED00089E2F6CF0C94B716882361F00E942F07A1
:100EE000882321F00E9473060C94FD1C85E00E946B
:100EF000271CFACF0C94B716882361F00E942F07A5
:100F0000882321F00E9487060C94FD1C89E00E9432
:100F1000271CFACF0C94B716CF93DF93D82F0E94DB
:100F2000C21CC82FDD23C1F00E941607882349F098
:100F30000E949B060E94FD1C8C2FDF91CF910C9488
:100F4000C51C0E942F07882319F00E94AA06F2CF21
:100F500087E00E94271CEECF0E94B716EDCFCF93FB
:100F6000DF93D82F0E94C21CC82FDD2389F00E9476
:100F70001607882349F00E94E0060E94FD1C8C2F72
:100F8000DF91CF910C94C51C88E10E94271CF5CFFE
:100F90000E94B716F4CFCF93DF93D82F0E94C21CC4
:100FA000C82FDD2389F00E941607882349F00E948C
:100FB000FB060E94FD1C8C2FDF91CF910C94C51C69
:100FC0008AE10E94271CF5CF0E94B716F4CFCF9379
:100FD000DF93D82F0E94C21CC82FDD2389F00E9406
:100FE0001607882349F00E94C5060E94FD1C8C2F1D
:100FF000DF91CF910C94C51C8EE00E94271CF5CF89
:101000000E94B716F4CFCF93DF93D82F0E94C21C53
:10101000C82FDD2389F00E941607882349F00E941B
:101020005F060E94FD1C8C2FDF91CF910C94C51C94
:101030008CE10E94271CF5CF0E94B716F4CFCF9306
:10104000DF93D82F0E94C21CC82FDD23C9F00E9455
:101050001607882389F00E94D31C8AE20E94271C6D
:101060000E94FD1C8C2F0E94C51C0E94FD1C8C2F11
:10107000DF91CF910C94C51C8BE00E94271CF5CF0B
:101080000E94B716F4CFFC0182816B30B8F5E62FD1
:10109000F0E0E458FE4D0C9474210C9459070C9424
:1010A0004C070E94C5168091E50180FF04C08CEBBF
:1010B00090E00E94A705FFEF20E782E0F15020407A
:1010C0008040E1F700C000000E94A31E8091E5016E
:1010D00080FF14C08CEA90E00C94A7050C946C0778
:1010E0000C948C070C947C070C941F080C94E70755
:1010F0000C94AF070C94CB070C9403080895972F1A
:1011000070E029E0929F600D711D11249EE7899F78
:10111000600D711D1124FB01E55FFE4F8491089560
:10112000282F205C330BF901EE0FFF1FED52FF4F0C
:1011300085919491089584B1807784B985B1807741
:1011400085B96E9876988AB1807D8AB98BB1807D99
:101150008BB987B18F7387B988B18F7388B90895B8
:101160000E949B0880B38C7080BB81B3836F81BB6E
:1011700084B18F7984B985B1806685B954985C9AB9
:10118000E0E4F1E0A4E2B1E0119211921D921D920F
:1011900081E0EC35F807C1F70895AF92BF92CF9286
:1011A000DF92EF92FF920F931F93CF93DF93C4E2EE
:1011B000D1E08E01B12C85E0A82E9CE2C92E93E0EF
:1011C000D92E8CE08B1540F0EB2DF0E0E957FE4D69
:1011D0000C947421209A289890EA9A95F1F78FB18F
:1011E000809580FBEE24E0F8F12C7999A4C082E090
:1011F00090E08E299F297C99A1C024E030E0822BC9
:10120000932B7D999EC028E030E0822B932B7E9912
:101210009BC020E130E0822B932B7F9998C020E285
:1012200030E0822B932B1E9995C020E430E0822B76
:10123000932B1D9992C020E830E0822B932B4C9980
:101240008FC020E031E0822B932BF8012191319166
:101250008F012817390749F1329791838083809154
:101260000001882301F18091E50180FF1CC081E32A
:1012700093E00E94A7058091E50180FF14C0809152
:1012800000011F928F93DF92CF920E9440068091BF
:10129000E5010F900F900F900F9080FF04C08AE23D
:1012A00093E00E94A705A09200010E949B08B394BE
:1012B000FEE0BF1286CF80910001882361F081504B
:1012C00080930001882309F44EC08FE99FE00197C5
:1012D000F1F700C0000081E0DF91CF911F910F91E5
:1012E000FF90EF90DF90CF90BF90AF900895219A3C
:1012F000299872CF229A2A986FCF239A2B986CCF75
:10130000279A2F9869CF509A589866CF519A599832
:1013100063CF529A5A9860CF539A5B985DCF3E9AAA
:1013200046985ACF3F9A479857CF559A5D9854CFD1
:101330006E9A769851CF90E080E05BCF30E020E06D
:101340005ECF30E020E061CF30E020E064CF30E0DD
:1013500020E067CF30E020E06ACF30E020E06DCFC2
:1013600030E020E070CFE0E4F1E089919991819341
:10137000919391E0C034D907C1F7ADCFE82FF0E0E9
:10138000EE0FFF1FE05CFE4F808191810895CF92A8
:10139000DF92EF92FF920F931F93CF93DF9383E13E
:1013A00093E00E94A70580E4E82E81E0F82ED0E0CB
:1013B000C0E09EE0C92E93E0D92E05E013E0DF9354
:1013C000CF93DF92CF920E9440068BE093E00E9481
:1013D000A705F701819191917F010E94201E9F93A3
:1013E0008F931F930F930E94400683E093E00E9427
:1013F000A70521968DB79EB708960FB6F8949EBFA5
:101400000FBE8DBFCE30D105D1F6DF91CF911F91A8
:101410000F91FF90EF90DF90CF900895569A81FF43
:1014200002C05E9A08955E98089580916E010895B5
:1014300008959091F501943009F044C02091E9009D
:101440002F703091EC00932F917030FD90E8922B2B
:1014500023E02093E9002091EB0020FF30C0209191
:10146000EE0027FF2CC020915D01222321F0209166
:10147000E80025FF24C010925D0126E03091E800CD
:1014800035FF10C08093F1008091E80085FD05C014
:101490008091E8008E778093E8009F709093E90038
:1014A00080E008953091F501343049F43091EB003B
:1014B00035FD05C0215041F481E080935D019F70AE
:1014C0009093E9008FEF0895EFE9FFE03197F1F78E
:1014D00000C00000D3CFCF93DF9300D00F92CDB7E1
:1014E000DEB72091F501243021F523E029838A839A
:1014F0009B8382E08093E9008FEF9091E800815018
:1015000095FD06C095ED9A95F1F700008111F5CF94
:101510008091E80085FF0DC050E040E063E070E09E
:10152000CE0101960E94080D8091E8008E7780938D
:10153000E8000F900F900F90DF91CF910895CF9317
:10154000DF9300D00F92CDB7DEB72091F5012430A4
:1015500019F522E029838A839B832093E9008FEF8A
:101560009091E800815095FD06C095ED9A95F1F7B0
:1015700000008111F5CF8091E80085FF0DC050E09B
:1015800040E063E070E0CE0101960E94080D80917A
:10159000E8008E778093E8000F900F900F90DF9116
:1015A000CF910895CF93DF93D82FC92F8091F50164
:1015B0008430D1F490910C019923C9F08093E90013
:1015C0008FEF9091E800815095FD06C095E19A95C6
:1015D000F1F700008111F5CF8091E80050E040E084
:1015E00060E170E085FD1AC0DF91CF91089581E040
:1015F0008093E9008FEF9091E800815095FD06C03F
:1016000095ED9A95F1F700008111F5CF8091E800F2
:1016100085FFEACF50E040E068E070E08D2F9C2F1E
:101620000E94080D8091E8008E778093E80080E1A9
:10163000ED2FFC2FAEE5B1E001900D928A95E1F718
:10164000D3CF81E793E00E94A7058091F401811137
:1016500009C00E94920E0E94EF0E8091E200846009
:101660008093E20008958DE693E00E94A705109212
:10167000F401089589E693E00C94A70585E693E0CC
:101680000E94A7050E944A060C94222181E693E05D
:101690000E94A7050E94691E0E9428210E944A11EB
:1016A0000C940E0A8091F5018430C1F49091E90008
:1016B0009F702091EC00822F817020FD80E8892BA3
:1016C00093E09093E9009091EB0090FF04C090911B
:1016D000EE0097FD06C08F708093E9000895109288
:1016E000F1009091E80095FDFACF9091E80090FF0D
:1016F000F2CF9091E8009E779093E800ECCF42E023
:1017000061EC81E00E940E0E42E061EC82E00E94FA
:101710000E0E46E261EC83E00E940E0E42E161ECA7
:1017200084E00C940E0E8091F701893089F148F421
:10173000823009F49AC0833009F44FC0813041F0FF
:1017400008958A3009F481C08B3009F461C008958E
:101750008091F601813A09F03FC08091E800877FCF
:101760008093E8008091FA019091FB01892B61F44C
:1017700060E18EE591E070E00E94590D8091E800F3
:101780008B778093E800089560E090E080E0F3CFED
:101790008091F601813201F58091FA019091FB016F
:1017A000009711F00397C1F48091E800877F809340
:1017B000E8008091E80082FF0BC08091F1008093E7
:1017C0006E018091E8008B778093E8000C94420EC4
:1017D0008091F5018111EDCF08958091F601813A54
:1017E000D9F78091FA019091FB01892BA9F780919B
:1017F000E800877F8093E8008091E80080FFFCCFBD
:1018000080910B018093F1008091E8008E77DCCF0E
:101810008091F601813201F78091FA019091FB01EC
:10182000892BD1F68091E800877F8093E8000E94A1
:10183000420E9091F80181E0911101C080E0809307
:101840000B0180930C010C94C5168091F601813236
:1018500019F68091E800877F8093E8000E94420E8D
:101860008091F90180935C0108958091F601813A9D
:1018700009F0B2CF8091E800877F8093E8008091E3
:10188000E80080FFFCCF80915C01BCCF84B7877FEC
:1018900084BF0FB6F894A89580916000886180930A
:1018A0006000109260000FBE80E890E00FB6F894E0
:1018B00080936100909361000FBE0E94920E0E947F
:1018C000EF0E8091E20084608093E20089E19AE06B
:1018D0000E94BC1D78948091F5018430C9F480E5A4
:1018E00093E00E94A7050E94CE1181E091E00E9442
:1018F00040110E9410218FE393E00E94A705809180
:10190000F501853041F00E94FA110E942511F7CFB0
:101910000E942511E0CF8BE393E00E94A7050E946F
:101920002D1E8091F301882351F30E94541E8823B9
:1019300031F30E94F20CE3CF9C01DA01892F992741
:1019400083309105C1F068F48130910509F445C0F8
:10195000029761F484E790E025E933E02D933C930E
:10196000089581329105E1F0829739F190E080E0AD
:1019700030E020E0F3CFC9019927213059F08230BF
:10198000910559F0E1E9F3E0892B81F7849190E02A
:101990009F01E4CFE1E8F3E0F9CFE5E7F3E0F6CF2C
:1019A000643020F7E62FF0E0EE0FFF1FE55EFE4FFC
:1019B0002081318189E090E0D1CF6430B8F670E0C9
:1019C000FB01EE0FFF1FED5EFE4F20813181615F55
:1019D0007E4FFB01808190E0C1CF82E190E029E061
:1019E00034E0BCCF80E189BD82E189BD09B400FE4D
:1019F000FDCF8091D8008F7D8093D8008091E0004A
:101A000082608093E0008091E00081FDFCCF08952A
:101A1000AF92BF92CF92DF92FF920F931F93CF931B
:101A2000DF936C01EB018A010E94610EF82E811197
:101A300025C00115110539F0F80180819181C81B7D
:101A4000D90BC80ED91EB12CA12C2097B9F08091CA
:101A5000E80085FD24C08091E8008E778093E8003F
:101A60000E94251101151105A1F0F80180819181D5
:101A7000A80EB91EB182A08285E0F82E8F2DDF91CD
:101A8000CF911F910F91FF90DF90CF90BF90AF90BB
:101A900008950E94610E8823C1F2F82EEFCFF6015F
:101AA00081916F018093F1002197FFEFAF1ABF0A78
:101AB000CCCFFC01CB012091FC013091FD01261718
:101AC000370790F0009729F42091E8002E772093B3
:101AD000E80040E0009751F4411108C08091E8000F
:101AE00082FF31C080E00895C901F3CF2091F50154
:101AF0002223A9F12530A9F12091E80023FD2DC072
:101B00002091E80022FDEACF2091E80020FFE2CFFB
:101B10003091F3002091F200009719F02830310540
:101B200058F041E02830310509F040E02091E8000C
:101B30002E772093E800CECF41914093F10001979A
:101B40002F5F3F4FE9CF8091F501882341F0853029
:101B500041F08091E80083FFC1CF81E0089582E0E9
:101B6000089583E00895FC01CB012091FC013091A0
:101B7000FD012617370790F0009729F42091E8001F
:101B80002E772093E80040E0009751F4411108C0FF
:101B90008091E80082FF32C080E00895C901F3CF50
:101BA0002091F5012223B1F12530B1F12091E80017
:101BB00023FD2EC02091E80022FDEACF2091E8000D
:101BC00020FFE2CF3091F3002091F200009719F04E
:101BD0002830310558F041E02830310509F040E067
:101BE0002091E8002E772093E800CECF44914093D7
:101BF000F100319601972F5F3F4FE8CF8091F501BB
:101C0000882341F0853041F08091E80083FFC0CF08
:101C100081E0089582E0089583E00895982F973039
:101C200028F08F708093E90081E008959093E90097
:101C3000242F762F50E0981731F07091EC0020910E
:101C4000ED005091F00021FD02C09F5FE8CF309180
:101C5000EB003E7F3093EB003091ED003D7F309301
:101C6000ED003091EB0031603093EB007093EC00AD
:101C70002093ED005093F0002091EE0027FDE5CF7A
:101C800080E008958091F60187FF13C08091E800FD
:101C900082FF06C08091E8008B778093E80004C043
:101CA0008091F5018111F2CF08958091F50188238B
:101CB000D9F38091E80080FFF8CF8091E8008E771B
:101CC000ECCF2091E4003091E50095E6A901209148
:101CD000EC00822F817020FF06C08091E80080FF19
:101CE00006C080E008952091E80022FD1AC080918E
:101CF000F501882389F0853089F08091EB0085FD1E
:101D00000FC02091E4003091E50042175307F9F22B
:101D10009150E1F684E0089582E0089583E008950B
:101D200081E008950E94000F0E94080FE0EEF0E0AD
:101D3000808181608083E8EDF0E080818F7780830F
:101D400019BCA7EDB0E08C918E7F8C9380818F7E43
:101D500080831092F40108950F931F93CF93DF9324
:101D60000E94000F0E94080FC8EDD0E088818F7795
:101D7000888388818068888388818F7D888319BC67
:101D80001092F5011092F1011092F3011092F201FC
:101D900000EE10E0F80180818B7F80838881816074
:101DA000888342E060E080E00E940E0EE1EEF0E009
:101DB00080818E7F8083E2EEF0E08081816080838D
:101DC000808188608083F80180818E7F8083888114
:101DD00080618883DF91CF911F910F910895E8ED85
:101DE000F0E080818F7E8083E7EDF0E0808181608C
:101DF000808384E082BF81E08093F4010C94AC0E78
:101E0000E8EDF0E080818E7F80831092E2000895FB
:101E10001092DA001092E10008951F920F920FB60F
:101E20000F9211242F933F934F935F936F937F9360
:101E30008F939F93AF93BF93EF93FF938091E100B4
:101E400082FF0BC08091E20082FF07C08091E10019
:101E50008B7F8093E1000E94520B8091DA0080FF1B
:101E600019C08091D80080FF15C08091DA008E7F64
:101E70008093DA008091D90080FF8FC080E189BD16
:101E800082E189BD09B400FEFDCF81E08093F501B8
:101E90000E94210B8091E10080FF19C08091E20037
:101EA00080FF15C08091E2008E7F8093E2008091D8
:101EB000E20080618093E2008091D800806280938C
:101EC000D80019BC85E08093F5010E943E0B8091FB
:101ED000E10084FF29C08091E20084FF25C080E1F9
:101EE00089BD82E189BD09B400FEFDCF8091D80093
:101EF0008F7D8093D8008091E1008F7E8093E100F8
:101F00008091E2008F7E8093E2008091E200816008
:101F10008093E2008091F101882309F444C084E0B9
:101F20008093F5010E94460B8091E10083FF24C05D
:101F30008091E20083FF20C08091E100877F809341
:101F4000E10082E08093F5011092F1018091E100BF
:101F50008E7F8093E1008091E2008E7F8093E2008B
:101F60008091E20080618093E20042E060E080E0E6
:101F70000E940E0E0E943A0BFF91EF91BF91AF911C
:101F80009F918F917F916F915F914F913F912F9191
:101F90000F900FBE0F901F90189519BC1092F5016D
:101FA0000E94330B77CF8091E30087FD02C081E070
:101FB000B7CF83E0B5CF1F93CF93DF93CDB7DEB715
:101FC000AA970FB6F894DEBF0FBECDBF86EF91E0A3
:101FD000FC0101962091F100208321E08E3F9207C1
:101FE000B9F70E94930B8091E80083FF16C180919E
:101FF000F6019091F7019A3008F00FC1E92FF0E057
:10200000EC56FE4D0C947421803881F0823809F032
:1020100004C18091FA018F708093E9008091EB00F8
:1020200085FB882780F91092E90006C08091F201B3
:102030009091F301911182609091E800977F9093C5
:10204000E8008093F1001092F1008091E8008E7713
:10205000E0C0882309F4CEC0823009F0DEC0809150
:10206000F8018111D1C08091FA018F7009F4D5C0B7
:102070008093E9002091EB0020FFC6C0933031F43B
:102080008091EB0080628093EB00BEC09091EB00EA
:1020900090619093EB0021E030E001C0220F8A951F
:1020A000EAF72093EA001092EA008091EB00886042
:1020B000EACF8111B2C01091F8011F778091E3003F
:1020C0008078812B8093E3008091E800877F809364
:1020D000E8000E94420E8091E80080FFFCCF8091D2
:1020E000E30080688093E30082E0111183E0809335
:1020F000F50193C08058823008F08FC08091F801BC
:102100009091F9018C3D23E09207A1F583E08A8349
:102110008AE289834FB7F894DE01139620E03EE00F
:1021200051E2E32FF0E050935700E49120FF03C009
:10213000E295EF703F5FEF708E2F90E0EA30C0F0D5
:10214000C7968D939D932F5F243159F74FBF809190
:10215000E800877F8093E8006AE270E0CE01019694
:102160000E94590D8091E8008B778093E80055C05C
:10217000C096E7CFAE014F5F5F4F6091FA010E94BA
:102180009C0CBC01892B09F448C08091E800877F32
:102190008093E80089819A810E94B30DE3CF803853
:1021A000E1F58091E800877F8093E8008091F1015C
:1021B0008093F1004ACF811130C09091F8019230A4
:1021C00060F58091E800877F8093E8009093F101AB
:1021D0000E94420E8091F101882311F084E005C035
:1021E0008091E30087FDFACF81E08093F5010E94A2
:1021F0007F0B13C08091F801813079F481E0933036
:1022000009F080E08093F3011092E9008091E800EA
:10221000877F8093E8000E94420E8091E80083FF50
:102220000AC08091E800877F8093E8008091EB00EE
:1022300080628093EB00AA960FB6F894DEBF0FBEC3
:10224000CDBFDF91CF911F910895CF938091F5017C
:102250008823A1F0C091E900CF709091EC00892F04
:10226000817090FD80E8C82B1092E9008091E80011
:1022700083FD0E94DB0FCF70C093E900CF910895DA
:1022800090937401809373010895809173019091EC
:1022900074010895E0917301F0917401309721F079
:1022A0000190F081E02D099480E00895EF92FF9273
:1022B0000F931F93CF93DF938C01E0917301F09103
:1022C00074013097C1F10280F381E02D099580916E
:1022D000E50182FF30C080FF04C081EF94E00E94DE
:1022E000A705D0E0C0E08BEEE82E84E0F82E8091C8
:1022F000E50180FF0EC0F801EC0FFD1F80811F92E9
:102300008F93FF92EF920E9440060F900F900F90D4
:102310000F902196C031D10551F78091E50180FFE2
:102320000AC089EE94E0DF91CF911F910F91FF9049
:10233000EF900C94A705DF91CF911F910F91FF9023
:10234000EF9008952091710130917201281739079B
:1023500071F09093720180937101E0917301F0919B
:102360007401309721F00680F781E02D09940895DB
:1023700020916F01309170012817390771F0909307
:10238000700180936F01E0917301F09174013097B7
:1023900021F00084F185E02D099408950E946B1EC0
:1023A0000C94B008CF93C82F8091E50182FF1EC026
:1023B00080FF1CC08AE095E00E94A7058091E5019E
:1023C00080FF14C01F92CF9385E095E09F938F9379
:1023D0000E9440068091E5010F900F900F900F90A2
:1023E00080FF04C083E095E00E94A7058C2FCF9169
:1023F0000C940E0A5F926F927F928F929F92AF928F
:10240000BF92CF92DF92EF92FF920F931F93CF93E1
:10241000DF9300D000D00F92CDB7DEB70E94CD0879
:1024200096E7A92E91E0B92E10E000E0882483946D
:10243000912C502E802F0E94BE097C01F501C19085
:10244000D1905F01C816D90609F45BC08091E501FF
:1024500081FD0E94C70990E080E0CE24DF24340192
:10246000082E02C0660C771C0A94E2F7960126211A
:102470003721232B09F440C089835A82E620F720B4
:1024800081E0EF2809F480E08B830E94741E816054
:10249000782F9D838C8349815A816B818D810E9425
:1024A000AD12000F111FF801EA58FE4F8081918193
:1024B00068267926718260820E944A119091750186
:1024C0008917B1F10E944A11809375010F900F9006
:1024D0000F900F900F90DF91CF911F910F91FF9070
:1024E000EF90DF90CF90BF90AF909F908F907F90B4
:1024F0006F905F900C94D21101968930910509F08C
:10250000AECF0F5F1F4F0E30110509F092CF8FEF46
:1025100089838A831B820E94741E8160782F9D8329
:102520008C8349815A816B818D810E94AD12C4CF09
:102530000F900F900F900F900F90DF91CF911F9100
:102540000F91FF90EF90DF90CF90BF90AF909F9052
:102550008F907F906F905F900895CF93DF93CDB76A
:10256000DEB72B970FB6F894DEBF0FBECDBF4F83FB
:10257000588769877A878B871E8285E0FE013796A8
:10258000DE01119601900D928A95E1F749815A81F9
:102590006B817C818D819E812B960FB6F894DEBF76
:1025A0000FBECDBFDF91CF910C944119CF93C82FAF
:1025B000882309F486C08CEF8C0F813A58F48C2F55
:1025C0000E94BF2081117DC08C2F0E94271CCF91BB
:1025D0000C94FD1C80E28C0F883048F4C77081E0B9
:1025E00001C0880FCA95EAF70E94C51CF0CF8BE5A1
:1025F0008C0F833068F481E890E0C53A31F083E8CD
:1026000090E0C63A11F482E890E0CF910C94A211C8
:1026100088E58C0F833108F054C082EE90E0C83A10
:1026200009F44CC089EE90E0C93A09F447C08AEE3B
:1026300090E0CA3A09F442C085EB90E0CB3AF1F160
:1026400086EB90E0CC3AD1F187EB90E0CD3AB1F156
:102650008CEC90E0C03B91F18DEC90E0CE3A71F1C2
:1026600083E891E0CF3A51F18AE891E0C13B31F142
:1026700082E991E0C23B11F184E991E0C33BF1F0C2
:1026800081E292E0C43BD1F083E292E0C53BB1F03D
:1026900084E292E0C63B91F085E292E0C73B71F0A4
:1026A00086E292E0C83B51F087E292E0C93B31F00C
:1026B00090E080E0CA3B11F48AE292E0CF910C9462
:1026C000B811CF910895882329F19CEF980F913A82
:1026D00020F40E94711C0C94FD1C90E2980F98301D
:1026E00050F4877091E001C0990F8A95EAF7892F1D
:1026F0000E94CB1CF0CF9BE5980F933020F490E024
:1027000080E00C94A211885A833120F490E080E09C
:102710000C94B8110895882321F00E94C51C0C94D4
:10272000FD1C0895882321F00E94CB1C0C94FD1CF5
:102730000895BF92CF92DF92EF92FF920F931F9373
:10274000CF93DF93CDB7DEB729970FB6F894DEBFEE
:102750000FBECDBF6C0185E0F601DE011196019040
:102760000D928A95E1F7F60183819481892B39F0E6
:1027700090818181292F28232F3F09F0E0C22996DB
:102780000FB6F894DEBF0FBECDBFDF91CF911F9182
:102790000F91FF90EF90DF90CF90BF900895F12FB1
:1027A000FF70FF2E107F19F0F29440EFF422EE201C
:1027B000C9F0FF2029F08F2D0E94D61C0E94FD1C1D
:1027C000802F29960FB6F894DEBF0FBECDBFDF91E4
:1027D000CF911F910F91FF90EF90DF90CF90BF901E
:1027E0000C94D612802F0E946313FF2041F28F2D8C
:1027F0000E94DC1C29960FB6F894DEBF0FBECDBF39
:10280000DF91CF911F910F91FF90EF90DF90CF90CC
:10281000BF900C94FD1C212F2F70B22E107F103210
:1028200019F0B29430EFB322002379F0013009F4AB
:1028300052C0EE2009F45BC0FF2059F0F6018581FB
:1028400080FFBECF8F70858304C0EE2049F1F11068
:1028500012C08B2D29960FB6F894DEBF0FBECDBFE8
:10286000DF91CF911F910F91FF90EF90DF90CF906C
:10287000BF900C948B1331E08B2DF312EBCF299684
:102880000FB6F894DEBF0FBECDBFDF91CF911F9181
:102890000F91FF90EF90DF90CF90BF900C94E71CCA
:1028A000F11014C00E94EA1C8B2D29960FB6F894E3
:1028B000DEBF0FBECDBFDF91CF911F910F91FF9073
:1028C000EF90DF90CF90BF900C94921341E0F416FC
:1028D00009F455CFE7CFEE2029F052E05F1508F458
:1028E0004ECFB7CF81E08F1508F449CFDDCFFF2061
:1028F000D9F2802F29960FB6F894DEBF0FBECDBF58
:10290000DF91CF911F910F91FF90EF90DF90CF90CB
:10291000BF900C946313812F869586958370D1F0B8
:10292000813009F02CCFC8019370E11002C090E013
:1029300080E029960FB6F894DEBF0FBECDBFDF91C1
:10294000CF911F910F91FF90EF90DF90CF90BF90AC
:102950000C94B811C8019370E11002C090E080E0BF
:1029600029960FB6F894DEBF0FBECDBFDF91CF9191
:102970001F910F91FF90EF90DF90CF90BF900C943C
:10298000A211812F837009F089C0E110F8CE202FA9
:10299000229526952770220F220F802F8F7090E0AE
:1029A000B0E0A0E06C017D01022E04C0CC0CDD1C67
:1029B000EE1CFF1C0A94D2F760E070E0CB0104FF2C
:1029C0000FC06FE070E080E090E004C0660F771FFA
:1029D000881F991F2A95D2F76095709580959095DC
:1029E0001695169513701230B9F1133009F451C0D1
:1029F0009B01AC012C293D294E295F292E833F8361
:102A000048875987113099F0CA01B90129960FB644
:102A1000F894DEBF0FBECDBFDF91CF911F910F9114
:102A2000FF90EF90DF90CF90BF900C948A1A6E8148
:102A30007F818885998529960FB6F894DEBF0FBEF1
:102A4000CDBFDF91CF911F910F91FF90EF90DF905D
:102A5000CF90BF900C94601A9B01AC012C293D29AA
:102A60004E295F292E833F8348875987CA01B901C0
:102A700029960FB6F894DEBF0FBECDBFDF91CF9180
:102A80001F910F91FF90EF90DF90CF90BF900C942B
:102A9000B41A0E948A1AC701B601CDCF8695EE20DE
:102AA00011F0812F8170882309F469CE202F22959F
:102AB00026952770220F220F802F8F7090E0B0E0B4
:102AC000A0E06C017D01022E04C0CC0CDD1CEE1CCC
:102AD000FF1C0A94D2F760E070E0CB0104FF0FC046
:102AE0006FE070E080E090E004C0660F771F881F01
:102AF000991F2A95D2F760957095809590951695B7
:102B0000169513701230B9F1133009F451C09B01BE
:102B1000AC012C293D294E295F292E833F8348870C
:102B20005987113099F0CA01B90129960FB6F89466
:102B3000DEBF0FBECDBFDF91CF911F910F91FF90F0
:102B4000EF90DF90CF90BF900C94901B6E817F81AF
:102B50008885998529960FB6F894DEBF0FBECDBF44
:102B6000DF91CF911F910F91FF90EF90DF90CF9069
:102B7000BF900C94661B9B01AC012C293D294E296A
:102B80005F292E833F8348875987CA01B901299657
:102B90000FB6F894DEBF0FBECDBFDF91CF911F916E
:102BA0000F91FF90EF90DF90CF90BF900C94BA1BE5
:102BB0000E94901BC701B601CDCF013F09F43EC072
:102BC00068F4003FE9F0003E78F00F70812F8F71BC
:102BD000EE2091F00E94FD1A802F3CCE023F09F4B6
:102BE00042C0033F09F454C0EE2009F477C0F1104D
:102BF000E7CD812F8F7126C00E941F1B802F55CEDD
:102C0000EE20B9F031E03F1508F4B9CD812F8F7176
:102C100029960FB6F894DEBF0FBECDBFDF91CF91DE
:102C20001F910F91FF90EF90DF90CF90BF900C9489
:102C3000441B42E04F1508F4A2CDE8CF812F8F71DD
:102C4000EE20A9F029960FB6F894DEBF0FBECDBFD7
:102C5000DF91CF911F910F91FF90EF90DF90CF9078
:102C6000BF900C94FD1A812F8F71EE2059F3299695
:102C70000FB6F894DEBF0FBECDBFDF91CF911F918D
:102C80000F91FF90EF90DF90CF90BF900C941F1B9F
:102C9000EE2099F0812F8F7129960FB6F894DEBF40
:102CA0000FBECDBFDF91CF911F910F91FF90EF909D
:102CB000DF90CF90BF900C94E81A29960FB6F89445
:102CC000DEBF0FBECDBFDF91CF911F910F91FF905F
:102CD000EF90DF90CF90BF900C94DE1AF11009CEE8
:102CE000812F8F71C4CF412F4F70602FC6010E947A
:102CF000B91D29960FB6F894DEBF0FBECDBFDF9188
:102D0000CF911F910F91FF90EF90DF90CF90BF90E8
:102D10000C94DB19412F4F70602FC60129960FB616
:102D2000F894DEBF0FBECDBFDF91CF911F910F9101
:102D3000FF90EF90DF90CF90BF900C944308E2801B
:102D4000F580F2942FE0F22299838A8389819A8117
:102D50000E94E51B8C010E94E41B0E94551AE12F82
:102D6000E295EF70F0E0E256FE4D0C9474210E9463
:102D7000E41C0E94B41C0E94FD1C90E080E00E94B4
:102D8000A21190E080E00C94B8110E94D31C0C9426
:102D9000B7160E94E51B382F292F22952F702C3053
:102DA00099F080F4243020F4223030F480E008954B
:102DB0002A5F2F702230D0F781E0303E10F0303F94
:102DC000A9F708952F3091F793FB882780F908958C
:102DD000CF93DF9300D000D00F92CDB7DEB70F9026
:102DE0000F900F900F900F90DF91CF910895CF9398
:102DF000DF9300D000D000D0CDB7DEB726960FB657
:102E0000F894DEBF0FBECDBFDF91CF9108951F9321
:102E1000CF93DF93E091920116E0809193018E139E
:102E200004C0DF91CF911F910895CE2FD0E01E9F57
:102E3000F0011124EC56FE4F408151816281738173
:102E4000848195810E94F716FE013196E770E5CFE7
:102E50004091C4015091C5016091C6017091C701B4
:102E60008091C8019091C9010C94F7161F93CF93DC
:102E7000DF938091C901807FC1F48091C6018823CE
:102E8000A1F080919201C09193016091C401709171
:102E9000C5014091C7015091C801D62FD723DA014F
:102EA000A095B09516E0C81304C0DF91CF911F9193
:102EB000089590E04115510511F0DF3F31F401967E
:102EC0008770F1CF2A0F3B1F17C0189FF001199F81
:102ED000F00D1124EC56FE4F21812713F0CF2081F5
:102EE0002613EDCF22812111EACF238134812417CB
:102EF000350740F3241B350B2639310500F72091A7
:102F0000C9012F7020612093C90126E0289FF0019C
:102F1000299FF00D1124E756FE4F80818F7080614C
:102F2000808384EC91E00E949913DF91CF911F91EF
:102F30000C9407179F92AF92BF92CF92DF92EF92BD
:102F4000FF920F931F93CF93DF93CDB7DEB72B97ED
:102F50000FB6F894DEBF0FBECDBF8C0185E0F8013F
:102F6000DE01179601900D928A95E1F7D8014C91F8
:102F700011965C9111971296EC9012978091C7016F
:102F80009091C801009709F46BC12091C401309160
:102F9000C501632F62236F3F09F462C11396CD9080
:102FA000DC909090C601992009F4F8C0C816D906A3
:102FB00008F43FC0F601E81BF90BCF01FF24F3949E
:102FC0008639910508F0F12C84ECA82E81E0B82E0A
:102FD0008091C901982F907FFF2009F4B7C091110B
:102FE00080C0FE2C35132AC0241328C0E11026C04F
:102FF0008F7080618093C9010E942817C5010E94CB
:1030000099138091C901D80115968C938F2D2B9619
:103010000FB6F894DEBF0FBECDBFDF91CF911F91E9
:103020000F91FF90EF90DF90CF90BF90AF909F9067
:103030000895809590958C0D9D1DC0CFCD2829F0C9
:10304000842F85238F3F09F019C180E0B82FB1701C
:10305000DB2EE09192012091930136E080FD1CC0AF
:10306000EE20A1F28091C90181608093C901F12C09
:10307000CDCF8E2F90E03E9FF0011124EC56FE4FF5
:103080006181651306C06081641303C062816E11A3
:10309000E7CFFC013196E770E213EBCF4F835887FF
:1030A0008F8198850E94E51B292F22952F709032E1
:1030B00060F0225F2F70223078F49F7051F0F80199
:1030C0009581907F31F4D12C0AC09F7011F0882334
:1030D000D1F3805E8830B8F3C8010E949913FD2CAB
:1030E00095CF351306C0241304C0D801EE2009F48F
:1030F0007BC04F8358878F8198850E94C91688238B
:1031000009F4B8C0EE2009F4B5C08091C90180323D
:1031100070F02091C4013091C5013A8329831B824C
:10312000DD82CC828E83CE0101960E94991386E0C7
:10313000F801A4ECB1E001900D928A95E1F70E94AC
:1031400036170E942817FF24F39460CF911113C003
:103150007C2DDB86CA866E2D8B850E94E81684EC5A
:1031600091E00E94991386E0F50111928A95E9F7A2
:103170000E9428174BCF3513BCCF2413BACFE110D0
:10318000B8CFD80115968C93C8010E94991386E098
:10319000F50111928A95E9F7F92C38CFC816D906AE
:1031A00088F1B601681B790BCB01F12C86399105AA
:1031B00008F047C0FE2CEE2009F45CC0351330C087
:1031C00024132EC08091C90180FD21C0982F907FCB
:1031D000F1F0D80115968C931597903F39F0982F00
:1031E000907F905F8F70892B15968C93C8010E94F9
:1031F000991386E0F801A4ECB1E001900D928A9554
:10320000E1F7B6CF809590958C0D9D1DCECF86E0D1
:10321000F801A4ECB1E001900D928A95E1F7F6CEA9
:103220004F8358878F8198850E94C91681117FCF5F
:103230008091C90181608093C901C8010E949913DE
:10324000E5CE7C2DDB86CA866E2D8B850E94E81626
:1032500086E0E4ECF1E0DF011D928A95E9F788CF82
:10326000EE2041F04F8358878F8198850E94C916C0
:1032700081115DCFC8010E94991365CF81E08E2531
:10328000E5CE1F93CF93DF93CDB7DEB72C970FB664
:10329000F894DEBF0FBECDBF4F83588769877A870A
:1032A0008B879C87CE0107960E949A17882369F026
:1032B0008A859B85892B39F04F815885842F8523FA
:1032C0008F3F09F071C016E05FC086E0FE013796BF
:1032D000DE01119601900D928A95E1F78A859B8512
:1032E000892B89F388859F8189238F3F61F3209102
:1032F000930130E0C90101968770992740919201AE
:103300004817190671F40E94C51610929301109285
:10331000920186E0E4ECF1E0DF011D928A95E9F785
:10332000D2CF96E0929FD001939FB00D1124AC565E
:10333000BE4FFE01319601900D929A95E1F7809370
:1033400093010E940717BFCF819FC00111248C56A3
:103350009E4F0E949A178823E9F0E09192011E9FE8
:10336000F0011124EC56FE4F40815181628173813E
:10337000848195810E94F7168091920190E00196D8
:103380008770992780939201809192019091930187
:103390008913DACF2C960FB6F894DEBF0FBECDBFDF
:1033A000DF91CF911F91089569857A858B859C85E2
:1033B0000E94F71688CFEF92FF920F931F93CF933F
:1033C000DF938C01892B89F0F12CEE24E394E80142
:1033D0002196F8018491843709F455C0A0F4823015
:1033E00009F43CC048F48130D1F0DF91CF911F91B6
:1033F0000F91FF90EF9008959CEF980F9037A8F7EA
:103400000E94D6120AC0853709F44AC09CE7980F7B
:10341000903758F78F770E9463138E0111C00E5FAB
:103420001F4FFE01849190E2980F9830A0F48770AE
:10343000FE2D01C0FF0F8A95EAF78F2F0E94D61C40
:103440008F2D815008F4C3CFEFE9FFE03197F1F7FA
:1034500000C00000F6CF0E94D612F2CF0E5F1F4FC1
:10346000FE01849190E2980F983050F48770FE2D01
:1034700001C0FF0F8A95EAF78F2F0E94DC1CE0CF76
:103480000E946313DDCF0E5F1F4FFE01C491C15038
:10349000B8F28FE99FE00197F1F700C00000F7CF85
:1034A0000E5F1F4FFE01F490CBCF08956093CE01C5
:1034B0007093CF018093D0019093D1010C94B716F3
:1034C000CF93DF9300D000D0CDB7DEB769837A8386
:1034D0008B839C838091CE019091CF01A091D001EC
:1034E000B091D10129813A814B815C81822B932B50
:1034F000A42BB52B8093CE019093CF01A093D00144
:10350000B093D1010F900F900F900F90DF91CF915A
:103510000C94B716CF93DF9300D000D0CDB7DEB7B1
:1035200069837A838B839C838091CE019091CF01B4
:10353000A091D001B091D10129813A814B815C8168
:1035400082239323A423B5238093CE019093CF01AC
:10355000A093D001B093D1010F900F900F900F90D6
:10356000DF91CF910C94B716CF93DF9300D000D0AA
:10357000CDB7DEB769837A838B839C838091CE013C
:103580009091CF01A091D001B091D10129813A81D0
:103590004B815C8182279327A427B5278093CE0196
:1035A0009093CF01A093D001B093D1010F900F90D1
:1035B0000F900F90DF91CF910C94B7161092CA0123
:1035C0001092CB011092CC011092CD010C94B71641
:1035D00041E050E060E070E004C0440F551F661FFA
:1035E000771F8A95D2F74093CA015093CB0160931D
:1035F000CC017093CD010C94B716282F81E090E098
:10360000A0E0B0E004C0880F991FAA1FBB1F2A9535
:10361000D2F74091CA015091CB016091CC017091D9
:10362000CD01842B952BA62BB72B8093CA019093A9
:10363000CB01A093CC01B093CD010C94B71641E01F
:1036400050E060E070E004C0440F551F661F771F14
:103650008A95D2F740955095609570958091CA01F2
:103660009091CB01A091CC01B091CD018423952301
:10367000A623B7238093CA019093CB01A093CC01DA
:10368000B093CD010C94B716282F81E090E0A0E014
:10369000B0E004C0880F991FAA1FBB1F2A95D2F75C
:1036A0004091CA015091CB016091CC017091CD0144
:1036B00084279527A627B7278093CA019093CB012B
:1036C000A093CC01B093CD010C94B716CF93DF93A8
:1036D00000D000D0CDB7DEB769837A838B839C831B
:1036E0008091CA019091CB01A091CC01B091CD0104
:1036F00029813A814B815C81822B932BA42BB52BA2
:103700008093CA019093CB01A093CC01B093CD01DB
:103710000F900F900F900F90DF91CF910C94B716F0
:10372000CF93DF9300D000D0CDB7DEB769837A8323
:103730008B839C838091CA019091CB01A091CC0195
:10374000B091CD0129813A814B815C818223932301
:10375000A423B5238093CA019093CB01A093CC01FD
:10376000B093CD010F900F900F900F90DF91CF91FC
:103770000C94B716CF93DF9300D000D0CDB7DEB74F
:1037800069837A838B839C838091CA019091CB015A
:10379000A091CC01B091CD0129813A814B815C810E
:1037A00082279327A427B5278093CA019093CB0142
:1037B000A093CC01B093CD010F900F900F900F907C
:1037C000DF91CF910C94B7160895CF92DF92EF92CC
:1037D000FF920F931F93CF93DF938C01C090CA0188
:1037E000D090CB01E090CC01F090CD018091CE0142
:1037F0009091CF01A091D001B091D101C82AD92ACE
:10380000EA2AFB2ACFE1D0E0D701C6010C2E04C082
:10381000B695A795979587950A94D2F780FF10C023
:10382000B8018C2F0E94231D8130910549F0DF9152
:10383000CF911F910F91FF90EF90DF90CF9008955F
:10384000219710F7B80180E00E94231DF0CF9091DE
:103850000C01992349F1E82FE695E695E69588371E
:1038600090F420910D0130910E01E20FF32FF11D24
:10387000877021E030E001C0220F8A95EAF781814C
:10388000822B818308959091E50190FF22C01F92C1
:103890008F938BE395E09F938F930E9440060F9048
:1038A0000F900F900F90089520910D0130910E010F
:1038B000F90132969FEF40E05191851751F09F3FFB
:1038C00019F4511101C0942F4F5F4E30A9F79F3F5B
:1038D00009F40895290F311D97FD3A95F901828366
:1038E000089590910C01992369F1E82FE695E695EA
:1038F000E6958837B0F420910D0130910E01E20F6A
:10390000F32FF11D877021E030E0A90102C0440FC0
:10391000551F8A95E2F7CA01809591818923818399
:1039200008959091E50190FF1EC01F928F938DE145
:1039300095E09F938F930E9440060F900F900F90F9
:103940000F90089520910D0130910E01F9013296EA
:10395000205F3F4F9191891303C0DF0111971C92A3
:10396000E217F307B9F7089581E090E0E0910D01C7
:10397000F0910E01E80FF91F108201968031910538
:10398000A9F708958091E40108959091E401982B9E
:103990009093E4010895982F90958091E4018923F4
:1039A0008093E40108951092E40108959091E30159
:1039B000982B9093E3010895982F90958091E301BF
:1039C00089238093E30108951092E3010895809381
:1039D000D20108951092D201089520910D013091E5
:1039E0000E01F9013196205F3F4F80E091919111D6
:1039F0008F5FE217F307D1F70895E0910D01F09181
:103A00000E018091E4018083E0910D01F0910E019F
:103A100080819091E301892B80839091D201992339
:103A200061F0E0910D01F0910E018081892B80837E
:103A30000E94ED1C81111092D20180910D01909194
:103A40000E010C9456110E947F08282F30E0A90126
:103A5000405C51094032510510F40C9490088D3BA4
:103A6000D0F4883A18F5853A58F4843038F441E0B7
:103A700090E0813009F040E0242F392FC9010895EA
:103A800021E830E4853AD1F322E830E4863AB1F314
:103A900023E830E4F3CF883E28F4803E78F730E026
:103AA00020E0ECCF3065803F48F7F9CF22EE34E4D8
:103AB000883A21F329EE34E4893A01F32AEE34E41A
:103AC0008A3AE1F225EB34E48B3AC1F226EB34E496
:103AD0008C3AA1F223EB34E48B3B81F224EB34E407
:103AE0008C3B61F227EB34E48D3A41F22CEC34E468
:103AF000803B21F22DEC34E48E3A09F4BFCF23E869
:103B000035E48F3A09F4BACF2AE835E4813B09F469
:103B1000B5CF22E935E4823B09F4B0CF24E935E49E
:103B2000833B09F4ABCF21E236E4843B09F4A6CF12
:103B300023E236E4853B09F4A1CF24E236E4863B58
:103B400009F49CCF25E236E4873B09F497CF26E2BF
:103B500036E4883B09F492CF27E236E4893B09F446
:103B60008DCF20E034E48A3B09F088CF2AE236E4A6
:103B700085CF90E080E008959093E7018093E6017F
:103B800008950F931F93462F572FBC01CB01AA27EF
:103B9000BB270097A105B105E9F1AC01BD0180E1AA
:103BA000052F162F272F3327011511052105310564
:103BB00019F0885FB901A8018A019B01F4E03695EC
:103BC000279517950795FA95D1F701151105210548
:103BD000310519F08C5FB901A8018A019B01E2E06F
:103BE0003695279517950795EA95D1F70115110593
:103BF0002105310519F08E5FB901A8017695679509
:103C000057954795452B462B472B09F08F5F1F9102
:103C10000F91089580E0C4CF829594E0899F900130
:103C200011242C7C869586958373282B30E0C9015E
:103C3000880F991F8A7A359527952575822B0895C7
:103C4000CF93DF93D92F0E940C1EC82F8D2F0E9477
:103C50000C1E9C2FDF91CF9108958091F501843047
:103C600011F188E190E020E40FB6F894A8958093D4
:103C700060000FBE2093600083B7817F846083BFA4
:103C800083B7816083BF7894889583B78E7F83BF25
:103C90000FB6F894A89580916000886180936000C9
:103CA000109260000FBE0895CF930E9449060E94B3
:103CB000CD080E944A06C0E08C2F0E94BE09892BC5
:103CC00031F4CF5FCE30C1F780E0CF91089581E02D
:103CD000FCCF0C94C51682E084BD93E095BD9AEFAD
:103CE00097BD80936E0008952FB7F8948091E801F6
:103CF0009091E901A091EA01B091EB012FBF0895E5
:103D00001F921FB61F9211248F939F93AF93BF935F
:103D10008091E8019091E901A091EA01B091EB0155
:103D20000196A11DB11D8093E8019093E901A09334
:103D3000EA01B093EB01BF91AF919F918F911F90DA
:103D40001FBE1F9018950E94920EF8942FEF87EADD
:103D500091E6215080409040E1F700C0000087E0EC
:103D600090EBDC018093FE019093FF01A093000291
:103D7000B093010288E19CE00FB6F894A895809377
:103D800060000FBE90936000FFCFCF93DF9300D011
:103D900000D00F92CDB7DEB78D8380E895E00E940A
:103DA000A7052091CE013091CF014091D0015091D3
:103DB000D101CA01B9010E94C11D1F928F938DE7E5
:103DC00095E09F938F930E94400688E795E00E94BC
:103DD000A7051F923D813F9385E795E09F938F93C1
:103DE0000E94400683E795E00E94A70581E090E0ED
:103DF000A0E0B0E09C01AD010D8004C0220F331F94
:103E0000441F551F0A94D2F729833A834B835C835E
:103E1000CA01B9010E94561A0FB6F894DEBF0FBE50
:103E2000CDBF0F900F900F900F900F90DF91CF911B
:103E30000C94C516CF93863358F4863098F0EAEF89
:103E4000E80FE03378F4F0E0E255FE4D0C94742175
:103E5000863470F48A3308F08CC1883309F44BC07F
:103E6000893359F188EB97E00E94A705C0E05AC159
:103E7000863409F45DC18834A9F70E94C5168DE027
:103E80009AE00E94A7052FEF83ED90E32150804038
:103E90009040E1F700C000000E94A31E8DEF99E062
:103EA0001EC083E59AE00E94A7050E942E210E9471
:103EB0004A110E940E0AC1E035C10E944511892BAA
:103EC00089F00E9445119093EE018093ED010E94CC
:103ED000C51690E080E00E9440118AE49AE00E94BA
:103EE000A705E9CF8091ED019091EE010E9440116C
:103EF0008FE39AE0F4CF8CE997E00E94A70585E86C
:103F000097E00E94A7058DE697E00E94A70585E54A
:103F100097E00E94A7058BE397E00E94A70584E243
:103F200097E00E94A7058AE097E00E94A7058AEE25
:103F300096E00E94A70584ED96E00E94A70583EC19
:103F400096E00E94A7058BEA96E00E94A7058BE900
:103F500096E00E94A70581E896E00E94A70588E602
:103F600096E00E94A7058FE496E00E94A70586E3ED
:103F700096E00E94A7058DE196E00E94A7058CEFD0
:103F800095E00E94A7058AED95E00E94A70580ECC8
:103F900095E0A5CF8091E501807F8093E50184EADB
:103FA00095E00E94A70587E995E00E94A7058AE2AF
:103FB0009AE00E94A70586E29AE00E94A70581E0A8
:103FC0008093EC0178CF8091E50180FF0AC08AEEF2
:103FD00099E00E94A7058091E501807F8093E5012B
:103FE0006ACF88ED99E00E94A7058091E501816084
:103FF000F5CF9091E501892F8D7F91FF82608093AD
:10400000E50181FF03C08FEB99E0EDCF85EA99E0F0
:1040100066CF9091E501892F8B7F92FF846080931A
:10402000E50182FF03C08AE899E0DDCF8EE699E0E2
:1040300056CF9091E501892F877F93FF8860809309
:10404000E50183FF03C086E599E0CDCF8DE399E0DC
:1040500046CF86E299E00E94A70583E099E00E949E
:10406000A70580ED98E00E94A70583EA98E00E94EA
:10407000A70582E798E00E94A70587E498E02FCF84
:104080008091E8019091E901A091EA01B091EB01E2
:10409000BF93AF939F938F9383E398E09F938F9306
:1040A0000E9440060F900F900F900F900F900F906E
:1040B00002CF8DE198E00E94A7050E944A111F924D
:1040C0008F9383E098E09F938F930E9440068091A6
:1040D0000B011F928F938CEE97E09F938F930E941A
:1040E000400680915C011F928F9389ED97E09F932A
:1040F0008F930E9440068DB79EB70C960FB6F8942A
:104100009EBF0FBE8DBFD7CE0E94C516C0910C01B9
:1041100081E0C827C0930C01CC2339F08AEC97E0EA
:104120000E94A7058C2FCF9108958AEB97E0D7CEF8
:1041300081E890E00E94A2119FEF21EE84E091506F
:1041400020408040E1F700C0000090E080E00E9445
:10415000A2119FEF29E688E1915020408040E1F7CD
:1041600000C00000A8CE80E00E94C51EA4CE8D51E4
:10417000FBCF8953F9CF80E008950C94BB20CF93F7
:10418000C82F8091EC01882331F08130B1F010927A
:10419000EC0180E010C0E0910D01F0910E018081F2
:1041A0008232B9F78C2F0E94BB2081111EC08C2F48
:1041B0000E941A1F8170CF910895E0910D01F09136
:1041C0000E018081823271F38C2F0E94BD208111FB
:1041D0001DC0C932E9F060F4CB3061F0C431C1F0E8
:1041E00089E595E00E94A70519C081E090E0E2CF43
:1041F000C833B1F784EA95E00E94A70587E995E006
:104200000E94A7058FE695E00E94A70581E0D2CF26
:104210008BE595E00E94A7051092EC0180E0CACFE3
:10422000E1E8F0E080818860808380818160808324
:104230008FB7F89493E09093890090ED9093880065
:104240008FBF0895EFE6F0E080818260808308955B
:10425000EFE6F0E080818D7F80830895EFE6F0E067
:10426000808192E08927808308951F920F920FB674
:104270000F9211242F933F934F935F936F937F93EC
:104280008F939F93AF93BF93EF93FF938091EF0131
:104290009091F00101969093F0018093EF018111CC
:1042A00003C082E00E940E0AE091F001E695E695D7
:1042B000F0E0ED59F54FE4918091EF018E1303C0CA
:1042C00080E00E940E0AFF91EF91BF91AF919F9104
:1042D0008F917F916F915F914F913F912F910F90AF
:1042E0000FBE0F901F901895EE0FFF1F0590F491D1
:1042F000E02D0994F894FFCF4D0851084F086E083F
:10430000700872087408760878087A087C08EA0849
:1043100077097A097D0980098309860989098C0949
:104320008F09920995099809041029100D11291077
:104330000D1159107A100D11CF10DB10CF13CF13C0
:104340000B140B148B14BF13BF13BF13C114BF1373
:10435000DD15DD157316BF13BF138A16CA1FE31FC1
:10436000321F321F321F7B1F321F321F0920321FA4
:1043700019208420321F321F321F321F5920402043
:10438000321F2920321FF91F321F511FB720B720BB
:10439000B720B720B720B720B720B720B720B32069
:1043A000321FB320321F321F321F321F321F321F03
:0C43B000321F321F321F321F321FB32099
:1043BC0005150AD20A180A9F0A6B0A0101D3013F9C
:1043CC00362039AA04740454041B04A703C003D96F
:0443DC0003F90300DE
:00000001FF
