:100000000C94DF070C9426080C9426080C94260800
:100010000C9426080C9426080C9426080C942608A8
:100020000C9426080C9426080C94C0110C942608F5
:100030000C9426080C9426080C9426080C94260888
:100040000C9426080C94682A0C9426080C94260814
:100050000C9426080C9482210C9426080C942608F3
:100060000C9426080C9426080C9426080C94260858
:100070000C9426080C9426080C9426080C94260848
:100080000C9426080C9426080C9426080C94260838
:100090000C9426080C9426080C9426080C94260828
:1000A0000C9426080C9426080C9426086E6F742075
:1000B000737570706F727465642E0A004A756D7086
:1000C00020746F20626F6F746C6F616465722E2E86
:1000D0002E20000000028AF0A2F1A3F1A10000008E
:1000E0000000000000000000000000000000F0021E
:1000F000F001F000000000000006F003F005F00041
:100100000004F008F009F00AF007F0142B04CD1DEC
:100110004F311E001AE016521B50001F0008000746
:100120000006003D20001517090A190522210018B4
:100130001C0D0B10112324000C300E0036002E2550
:100140000012C20F003700002600132F333400388E
:100150002D2700E600E36800C300000000352A00F8
:1001600028000000000000002C005100000000E109
:10017000E50000000000000000000000000000C4D6
:100180000000000000000000C4140104011D010172
:100190001E00D90116011B01001F000800D7000630
:1001A000000120001517D50A19D4222100D8DA0D34
:1001B000D310112324000C01DB00010001250012E3
:1001C000010F0001010026001301010100010127B8
:1001D0000001000101000100000000010100010018
:1001E000010000000000010001000000000101000A
:1001F00000000000000000000000000000010000FE
:100200000000000000000100014A0100009A3A00CD
:10021000000100000000003B004D004E0000000106
:100220003C000000000000003E3D004B005150002B
:10023000003F400000005200000045410000014F17
:1002400000000000420000000000000044430001E4
:10025000000101000100000000004C00000000004F
:10026000000000002C000000000000010100000060
:10027000000000000000000000000001000000007D
:100280000000000001000100CF0000006900000133
:1002900000000000006A00520000000000010000A1
:1002A0000000D1000000000000000049004C0000E8
:1002B000AC0000004A004D00A9AE0000014B004E0A
:1002C0000000AB0000002A000000AAA80001000105
:1002D00001000100000000B000000000000000006C
:1002E00000002C00000000000039010000000000A8
:1002F00000000000000000000001000000000000FD
:100300000000010A002530313662003A2000253015
:100310003258000A722F6320303132333435363789
:1003200038394142434445460A000A0025303258D4
:1003300000626F756E6365213A20005B735D004B50
:100340006579626F6172642073746172742E0A0041
:1003500055534220636F6E666967757265642E0A35
:10036000005B575D005B535D005B525D005B445D6D
:10037000005B435D000A034D004C0036003700006F
:10038000000E036A006800690067006700730000E0
:10039000000403090409028D00050100A0320904CC
:1003A00000000103010100092111010001223F00A9
:1003B0000705810308000A09040100010301020086
:1003C000092111010001224D000705820308000ADE
:1003D00009040200010300000009211101000122AB
:1003E00036000705830308000A090403000203001E
:1003F00000000921110100012220000705840320CB
:1004000000010705040320000109040400010300A2
:1004100000000921110100012239000705850310A0
:1004200000011201100100000008EDFE61600100F2
:100430000102000105010906A101050719E029E7EC
:100440001500250195087501810205081901290586
:100450009505750191029501750391010507190034
:10046000297715002501957875018102C00631FFB5
:100470000974A1010975150025FF952075088102F1
:100480000976150025FF952075089102C005010920
:1004900080A101850216010026B7001A01002AB7C3
:1004A00000751095018100C0050C0901A1018503AB
:1004B000160100269C021A01002A9C027510950163
:1004C0008100C005010902A1010901A10005091966
:1004D0000129051500250195057501810295017514
:1004E0000381010501093009311581257F950275C8
:1004F00008810609381581257F9501750881060553
:100500000C0A38021581257F950175088106C0C047
:1005100005010906A101050719E029E715002501D4
:100520009508750181029501750881010508190179
:10053000290595057501910295017503910105073E
:10054000190029FF150025FF950675088100C00ACE
:10055000002530325820006B6579626F6172645FEC
:100560007265706F72743A20000A002530325800AC
:100570006B6579626F6172645F7365745F6C6564EB
:100580003A200064656C5F6B65795F6269743A203C
:1005900063616E27742064656C3A20253032580AF6
:1005A000006164645F6B65795F6269743A206361BE
:1005B0006E2774206164643A20253032580A00297D
:1005C0000A002575002F002575005D2800256400B0
:1005D0002000256400200025640020002564007CA4
:1005E0000025303258006D6F7573656B6579205B3F
:1005F00062746E7C782079207620685D2872657040
:100600002F61636C293A205B000A002575006D6B31
:100610005F776865656C5F74696D655F746F5F6D4A
:100620006178203D20000A002575006D6B5F7768BA
:1006300065656C5F6D61785F7370656564203D20F2
:10064000000A002575006D6B5F74696D655F746FDE
:100650005F6D6178203D20000A002575006D6B5F9D
:100660006D61785F7370656564203D20000A002528
:1006700075006D6B5F696E74657276616C203D20EC
:10068000000A002575006D6B5F64656C6179203D23
:1006900020000A002575006D6B5F776865656C5FEB
:1006A00074696D655F746F5F6D6178203D20000A2D
:1006B000002575006D6B5F776865656C5F6D6178AF
:1006C0005F7370656564203D20000A002575006D2C
:1006D0006B5F74696D655F746F5F6D6178203D203D
:1006E000000A002575006D6B5F6D61785F73706542
:1006F0006564203D20000A002575006D6B5F696E02
:1007000074657276616C203D20000A002575006DCD
:100710006B5F64656C6179203D20000A00257500DF
:10072000363A206D6B5F776865656C5F74696D65DF
:100730005F746F5F6D61783A20000A00257500359F
:100740003A206D6B5F776865656C5F6D61785F738C
:10075000706565643A20000A00257500343A206D02
:100760006B5F74696D655F746F5F6D61783A2000CF
:100770000A00257500333A206D6B5F6D61785F73F9
:10078000706565643A20000A00257500323A206DD4
:100790006B5F696E74657276616C286D73293A209F
:1007A000000A00257500313A206D6B5F64656C614D
:1007B00079282A31306D73293A20000A0A2D2D2D0F
:1007C0002D2D204D6F7573656B65792050617261B9
:1007D0006D6574657273202D2D2D2D2D0A003E2020
:1007E000002575004D003F007365742064656661E7
:1007F000756C742076616C7565732E0A000A00258D
:10080000750073656C656374656420706172616DF9
:10081000657465723A2000433E20000A5175697480
:10082000204D6F7573656B657920436F6E736F6CC8
:10083000650A0053656520687474703A2F2F656EE1
:100840002E77696B6970656469612E6F72672F77A7
:10085000696B692F4D6F7573655F6B6579730A00FE
:100860000A002575002C20776865656C3D002575AC
:100870000077686572652064656C74613A20637501
:1008800072736F723D000A7370656564203D206469
:10089000656C7461202A206D61785F737065656492
:1008A000202A2028726570656174202F2074696D7C
:1008B000655F746F5F6D6178290A007067646F7798
:1008C0006E3A096465637265617365207061726177
:1008D0006D6574657273282D3130290A0070677553
:1008E000703A09696E637265617365207061726147
:1008F0006D6574657273282B3130290A00646F7737
:100900006E3A096465637265617365207061726136
:100910006D6574657273282D31290A0075703A0966
:10092000696E63726561736520706172616D657473
:10093000657273282B31290A00643A0973657420A3
:1009400064656661756C742076616C7565730A0008
:10095000703A097072696E7420706172616D6574AD
:100960006572730A00363A0973656C656374206DAD
:100970006B5F776865656C5F74696D655F746F5FE9
:100980006D61780A00353A0973656C656374206D92
:100990006B5F776865656C5F6D61785F73706565C7
:1009A000640A00343A0973656C656374206D6B5F8B
:1009B00074696D655F746F5F6D61780A00333A0921
:1009C00073656C656374206D6B5F6D61785F7370C8
:1009D0006565640A00323A0973656C656374206D5D
:1009E0006B5F696E74657276616C286D73290A009D
:1009F000313A0973656C656374206D6B5F64656C77
:100A00006179282A31306D73290A004553432F71CB
:100A10003A09717569740A000A0A2D2D2D2D2D20B1
:100A20004D6F7573656B657920506172616D65748A
:100A30006572732048656C70202D2D2D2D2D0A00B8
:100A40003F004D303E000A456E746572204D6F7553
:100A500073656B657920436F6E736F6C650A000A6E
:100A60005175697420436F6E736F6C65204D6F64B0
:100A7000650A00433E20000A0025750020746F209F
:100A8000002575007377697463685F6465666175D6
:100A90006C745F6C617965723A20006D3A096D6F14
:100AA0007573656B65790A004553432F713A097177
:100AB0007569740A000A0A2D2D2D2D2D20436F6EA5
:100AC000736F6C652048656C70202D2D2D2D2D0ABF
:100AD00000506175733A096A756D7020746F2062F9
:100AE0006F6F746C6F616465720A00436170733A72
:100AF000094C6F636B204B6579626F6172642843A8
:100B000068696C642050726F6F66290A00505363E5
:100B1000723A09706F77657220646F776E2F726515
:100B20006D6F74652077616B652D75700A00342FC9
:100B300046343A0973776974636820746F204C6196
:100B400079657234200A00332F46333A0973776986
:100B500074636820746F204C6179657233200A00D9
:100B6000322F46323A0973776974636820746F20B4
:100B70004C6179657232200A00312F46313A09738F
:100B8000776974636820746F204C617965723120D5
:100B90000A00302F4631303A097377697463682050
:100BA000746F204C6179657230200A006E3A0974C6
:100BB0006F67676C65204E4B524F0A00653A0970AB
:100BC00072696E7420656570726F6D20636F6E66FA
:100BD00069670A00733A097072696E7420737461F0
:100BE0007475730A00743A097072696E74207469BE
:100BF0006D657220636F756E740A00763A097072C3
:100C0000696E7420646576696365207665727369C0
:100C10006F6E202620696E666F0A007A3A09746F3B
:100C200067676C6520736C656570204C4544207463
:100C30006573740A006D3A09746F67676C65206D9F
:100C40006F7573652064656275670A006B3A097495
:100C50006F67676C65206B6579626F617264206491
:100C6000656275670A00783A09746F67676C65207A
:100C70006D61747269782064656275670A00643A10
:100C800009746F67676C6520646562756720656EBF
:100C900061626C650A00633A09656E74657220636F
:100CA0006F6E736F6C65206D6F64650A000A0A2DA4
:100CB0002D2D2D2D20436F6D6D616E642048656C68
:100CC00070202D2D2D2D2D0A003F004E4B524F3AF6
:100CD0002064697361626C65640A004E4B524F3A3E
:100CE00020656E61626C65640A006B6579626F6194
:100CF00072645F69646C653A2025580A006B6579F7
:100D0000626F6172645F70726F746F636F6C3A20B0
:100D100025580A00686F73745F6B6579626F617242
:100D2000645F6C65647328293A2025580A000A0A12
:100D30002D2D2D2D2D20537461747573202D2D2D87
:100D40002D2D0A0074696D65725F636F756E743A5C
:100D5000202530346C580A004743433A20392E315D
:100D60002E30204156522D4C4942433A20322E30EB
:100D70002E30204156525F415243483A20617672EC
:100D8000350A004F5054494F4E533A204C55464176
:100D9000204D4F5553454B45592045585452414BD2
:100DA000455920434F4E534F4C4520434F4D4D41E5
:100DB0004E44204E4B524F203531320A00425549A5
:100DC0004C443A20383231353765312D64697274BC
:100DD00079202831343A35353A3437204A756C2039
:100DE00020372032303139290A005649443A203020
:100DF0007846454544286A686967677329205049E1
:100E0000443A20307836303631284D4C3637292058
:100E10005645523A203078303030310A004445533C
:100E2000433A20542E4D2E4B2E204861636B65644F
:100E30002046696C636F204D696E696C612E0A00F3
:100E40000A0A2D2D2D2D2D2056657273696F6E2087
:100E50002D2D2D2D2D0A000A44454255473A206D6F
:100E60006F7573652064697361626C65642E0A0036
:100E70000A44454255473A206D6F75736520656E8B
:100E800061626C65642E0A000A44454255473A2067
:100E90006B6579626F6172642064697361626C650D
:100EA000642E0A000A44454255473A206B65796230
:100EB0006F61726420656E61626C65642E0A000A5F
:100EC00044454255473A206D6174726978206469DF
:100ED0007361626C65642E0A000A44454255473AC4
:100EE000206D617472697820656E61626C65642E34
:100EF0000A000A44454255473A20656E61626C65B6
:100F0000642E0A000A44454255473A2064697361D9
:100F1000626C65642E0A006E6F7420737570706F5A
:100F2000727465642E0A000A0A4A756D7020746F27
:100F300020626F6F746C6F616465722E2E2E2000BC
:100F4000433E20000A456E74657220436F6E736FD6
:100F50006C65204D6F64650A00556E6C6F636B6540
:100F6000642E0A004C6F636B65642E0A00536C6537
:100F70006570204C454420746573740A00000000BD
:100F80000000000000000000010204060A0F172004
:100F90002C3A4A5D71879DB3C7DAE9F5FCFFFCF591
:100FA000E9DAC7B39D87715D4A3A2C20170F0A060C
:100FB00004020100000000000000000000001124F5
:100FC0001FBECFEFDAE0DEBFCDBF04B603FE27C001
:100FD00080911C0290911D02A0911E02B0911F02EF
:100FE0008730904BA740B04BD1F410921C02109266
:100FF0001D0210921E0210921F0214BE84B7877F3A
:1010000084BF0FB6F894A8958091600088618093A2
:101010006000109260000FBEE0E0FFE3099511E070
:10102000A0E0B1E0E4EDF8E502C005900D92A83330
:10103000B107D9F722E0A8E3B1E001C01D92AC31BD
:10104000B207E1F70E94F90E0C94062C0C940000F4
:10105000FF93EF93E091FA01F091FB01309709F0D3
:101060000995EF91FF910895FC018591803011F071
:10107000EFDFFBCF0895FF27E0E230E247FF0CC02F
:10108000419597FF09C0EDE2609570958095909528
:10109000611D711D811D911D27FF02C0219530E347
:1010A00050E2AA27660F771F881F991FAA1FA4174F
:1010B00010F0A41B63955A95A9F7AA3008F0A95F10
:1010C000A05DAF93F395611571058105910541F719
:1010D000ED3211F4EF93F395F21718F43F93F39573
:1010E000FBCF8F91B5DFFA95E1F70895E991F9917A
:1010F0008591803021F0853219F0AADFF9CF08956B
:1011000020E0E89455915532C1F3503311F46894BE
:1011100055915A3348F4505390F3220F022E220F68
:10112000220F200D250FF4CF0EF42195899199916E
:10113000533619F3533729F1533559F1BC01882738
:101140009927E8945C3621F4899199916894559196
:10115000543639F446EF7EF077FF0DC08FEF9FEFE6
:101160000AC055374AE039F0583540E121F052368F
:1011700042E009F00895FF93EF937DDFEF91FF9137
:10118000B7CFFF93EF93FC0181918030B9F360DF1B
:10119000FBCFFF93EF9368DFF1CFDF93CF93CDB712
:1011A000DEB72596A3DFCF91DF91089508950895C6
:1011B000CF930E949F1FC82F0E94B01F88E00E94FB
:1011C000A21F8BE10E94041F0E94DA1F0E94B01F21
:1011D0008C2FCF910C94A21FCF930E949F1FC82FDA
:1011E0000E94B01F88E00E94A21F89E10E94041F94
:1011F0000E94DA1F0E94B01F8C2FCF910C94A21F67
:10120000CF930E949F1FC82F0E94B01F84E00E94AE
:10121000A21F80E50E94041F0E94DA1F0E94B01FD7
:101220008C2FCF910C94A21FCF930E949F1FC82F89
:101230000E94B01F84E00E94A21F8FE40E94041F3E
:101240000E94DA1F0E94B01F8C2FCF910C94A21F16
:10125000CF930E949F1FC82F0E94B01F8CE40E9452
:10126000041F0E94DA1F8C2FCF910C94A21FCF93E2
:101270000E949F1FC82F0E94B01F80E40E94A21FDF
:1012800082E00E94A21F8FE40E94041F0E94DA1FC6
:101290000E94B01F0E94D8080E94DA1F8C2FCF91A5
:1012A0000C94A21FCF930E949F1FC82F0E94B01FB3
:1012B00082E00E94A21F88E00E94A21F8FE40E9489
:1012C000041F0E94DA1F0E94B01F0E94D8080E94CB
:1012D000DA1F8C2FCF910C94A21FCF930E949F1FD7
:1012E000C82F0E94B01F82E00E94A21F88E00E94C7
:1012F000A21F80E50E94041F0E94DA1F0E94B01FF7
:101300000E94D8080E94DA1F8C2FCF910C94A21F44
:10131000CF930E949F1FC82F0E94B01F82E00E949F
:10132000A21F84E00E94A21F80E50E94041F0E9469
:10133000DA1F0E94B01F0E94D8080E94DA1F8C2F6B
:10134000CF910C94A21F0E949F1F80FD06C00E9497
:101350009F1F829581708170089581E0FCCF0E946B
:101360009F1F81FD07C00E949F1F85FB882780F972
:101370008170089581E0FCCF0E949F1F82FD07C00D
:101380000E949F1F86FB882780F98170089581E065
:10139000FCCF0E949F1F83FD0AC00E949F1F082E42
:1013A000000C990B892F881F8827881F089581E0DA
:1013B0000895882351F084E00E94A21F86E30E94D2
:1013C000041F0E94DA1F0C94A2190895882379F053
:1013D0000E94AF09882329F085E30E94041F0C9422
:1013E000DA1F0E94C9098111F7CF89E2F6CF0C9468
:1013F0009019882361F00E94BC09882321F00E9483
:1014000000090C94DA1F85E00E94041FFACF0C94A7
:101410009019882361F00E94BC09882321F00E9462
:1014200014090C94DA1F89E00E94041FFACF0C946F
:101430009019CF93DF93D82F0E949F1FC82FDD23D1
:10144000C1F00E94A309882349F00E9428090E9444
:10145000DA1F8C2FDF91CF910C94A21F0E94BC0940
:10146000882319F00E943709F2CF87E00E94041FF9
:10147000EECF0E949019EDCFCF93DF93D82F0E942B
:101480009F1FC82FDD2389F00E94A309882349F0FC
:101490000E946D090E94DA1F8C2FDF91CF910C946E
:1014A000A21F88E10E94041FF5CF0E949019F4CF7B
:1014B000CF93DF93D82F0E949F1FC82FDD2389F081
:1014C0000E94A309882349F00E9488090E94DA1F1C
:1014D0008C2FDF91CF910C94A21F8AE10E94041FF0
:1014E000F5CF0E949019F4CFCF93DF93D82F0E94AD
:1014F0009F1FC82FDD2389F00E94A309882349F08C
:101500000E9452090E94DA1F8C2FDF91CF910C9418
:10151000A21F8EE00E94041FF5CF0E949019F4CF05
:10152000CF93DF93D82F0E949F1FC82FDD2389F010
:101530000E94A309882349F00E94EC080E94DA1F48
:101540008C2FDF91CF910C94A21F8CE10E94041F7D
:10155000F5CF0E949019F4CFCF93DF93D82F0E943C
:101560009F1FC82FDD23C9F00E94A309882389F09B
:101570000E94B01F8AE20E94041F0E94DA1F8C2F73
:101580000E94A21F0E94DA1F8C2FDF91CF910C9432
:10159000A21F8BE00E94041FF5CF0E949019F4CF88
:1015A000FC0182816B30B8F5E62FF0E0E85FF34D87
:1015B0000C94EC2B0C94E6090C94D9090E94A21906
:1015C0008091F90180FF04C08CEB90E00E94340808
:1015D000FFEF20E782E0F15020408040E1F700C0BB
:1015E00000000E94A5218091F90180FF14C08CEABF
:1015F00090E00C9434080C94F9090C94190A0C949A
:10160000090A0C94AC0A0C94740A0C943C0A0C94CD
:10161000580A0C94900A0895972F70E029E0929F41
:10162000600D711D11249EE7899F600D711D1124AD
:10163000FB01E55FFE4F84910895282F205C330B5A
:10164000F901EE0FFF1FED52FF4F85919491089520
:1016500084B1807784B985B1807785B96E987698A2
:101660008AB1807D8AB98BB1807D8BB987B18F7348
:1016700087B988B18F7388B908950E94280B80B309
:101680008C7080BB81B3836F81BB84B18F7984B947
:1016900085B1806685B954985C9AE4E5F1E0A8E3E9
:1016A000B1E0119211921D921D9281E0E037F8078E
:1016B000C1F70895AF92BF92CF92DF92EF92FF925F
:1016C0000F931F93CF93DF93C8E3D1E08E01B12C2A
:1016D00085E0A82E9CE2C92E93E0D92E8CE08B15D4
:1016E00040F0EB2DF0E0ED5EF34D0C94EC2B209AE6
:1016F000289890EA9A95F1F78FB1809580FBEE24B7
:10170000E0F8F12C7999A4C082E090E08E299F291D
:101710007C99A1C024E030E0822B932B7D999EC060
:1017200028E030E0822B932B7E999BC020E130E0B3
:10173000822B932B7F9998C020E230E0822B932B51
:101740001E9995C020E430E0822B932B1D9992C006
:1017500020E830E0822B932B4C998FC020E031E0C1
:10176000822B932BF801219131918F012817390792
:1017700049F132979183808380910001882301F1A0
:101780008091F90180FF1CC081E393E00E9434083E
:101790008091F90180FF14C0809100011F928F9306
:1017A000DF92CF920E94CD088091F9010F900F90A7
:1017B0000F900F9080FF04C08AE293E00E943408EB
:1017C000A09200010E94280BB394FEE0BF1286CFC6
:1017D00080910001882361F081508093000188236B
:1017E00009F44EC08FE99FE00197F1F700C00000B7
:1017F00081E0DF91CF911F910F91FF90EF90DF90EB
:10180000CF90BF90AF900895219A299872CF229AD5
:101810002A986FCF239A2B986CCF279A2F9869CF4D
:10182000509A589866CF519A599863CF529A5A98BD
:1018300060CF539A5B985DCF3E9A46985ACF3F9AB5
:10184000479857CF559A5D9854CF6E9A769851CF56
:1018500090E080E05BCF30E020E05ECF30E020E041
:1018600061CF30E020E064CF30E020E067CF30E0AF
:1018700020E06ACF30E020E06DCF30E020E070CF94
:10188000E4E5F1E0899199918193919391E0C435D8
:10189000D907C1F7ADCFE82FF0E0EE0FFF1FEC5AEC
:1018A000FE4F808191810895CF92DF92EF92FF9257
:1018B0000F931F93CF93DF9383E193E00E9434084B
:1018C00084E5E82E81E0F82ED0E0C0E09EE0C92E4D
:1018D00093E0D92E05E013E0DF93CF93DF92CF9210
:1018E0000E94CD088BE093E00E943408F7018191BB
:1018F00091917F010E94FD209F938F931F930F93DF
:101900000E94CD0883E093E00E94340821968DB7B1
:101910009EB708960FB6F8949EBF0FBE8DBFCE300F
:10192000D105D1F6DF91CF911F910F91FF90EF90EC
:10193000DF90CF900895569A81FF02C05E9A089575
:101940005E980895809182010895909113029430D9
:1019500009F044C02091E9002F703091EC00932FE2
:10196000917030FD90E8922B24E02093E9002091C3
:10197000EB0020FF30C02091EE0027FF2CC020910B
:101980007101222321F02091E80025FF24C010924C
:10199000710126E03091E80035FF10C08093F1001E
:1019A0008091E80085FD05C08091E8008E778093E6
:1019B000E8009F709093E90080E008953091130251
:1019C000343049F43091EB0035FD05C0215041F42D
:1019D00081E0809371019F709093E9008FEF0895EB
:1019E000EFE9FFE03197F1F700C00000D3CFCF93CC
:1019F000DF9300D00F92CDB7DEB7209113022430D1
:101A000019F523E029838A839B832093E9008FEFD4
:101A10009091E800815095FD06C095ED9A95F1F7FB
:101A200000008111F5CF8091E80085FF0DC050E0E6
:101A300040E063E070E0CE0101960E94BB0F809110
:101A4000E8008E778093E8000F900F900F90DF9161
:101A5000CF910895CF93DF9300D00F92CDB7DEB72B
:101A600020911302243021F522E029838A839B836D
:101A700083E08093E9008FEF9091E800815095FD1D
:101A800006C095ED9A95F1F700008111F5CF809190
:101A9000E80085FF0DC050E040E063E070E0CE015B
:101AA00001960E94BB0F8091E8008E778093E8003A
:101AB0000F900F900F90DF91CF9108952091130216
:101AC0002430F1F422E02093E9002FEF3091E80078
:101AD000215035FD06C035ED3A95F1F70000211192
:101AE000F5CF2091E80025FF0BC050E040E065E015
:101AF00070E00E94BB0F8091E8008E778093E80031
:101B00000895CF93DF93D82FC92F8091130284308B
:101B1000D9F480910C018823D1F085E08093E9000D
:101B20008FEF9091E800815095FD06C095E19A9560
:101B3000F1F700008111F5CF8091E80050E040E01E
:101B400060E170E085FD1AC0DF91CF91089581E0DA
:101B50008093E9008FEF9091E800815095FD06C0D9
:101B600095ED9A95F1F700008111F5CF8091E8008D
:101B700085FFEACF50E040E068E070E08D2F9C2FB9
:101B80000E94BB0F8091E8008E778093E80080E18F
:101B9000ED2FFC2FA2E7B1E001900D928A95E1F7BD
:101BA000D3CF81E793E00E94340880911202811123
:101BB00009C00E9445110E94A2118091E200846038
:101BC0008093E20008958DE693E00E94340810921D
:101BD0001202089589E693E00C94340885E693E0B8
:101BE0000E9434080E94D7080C94552A81E693E09D
:101BF0000E9434080E9446210E945B2A0E94FD1325
:101C00000C949B0C809113028430C1F49091E900F4
:101C10009F702091EC00822F817020FD80E8892B3D
:101C200094E09093E9009091EB0090FF04C09091B4
:101C3000EE0097FD06C08F708093E9000895109222
:101C4000F1009091E80095FDFACF9091E80090FFA7
:101C5000F2CF9091E8009E779093E800ECCF42E0BD
:101C600061EC81E00E94C11042E061EC82E00E94E0
:101C7000C11042E061EC83E00E94C11046E261ECD9
:101C800084E00E94C11042E161EC85E00C94C11037
:101C900080911502893081F148F4823009F498C0AE
:101CA000833009F44DC0813041F008958A3009F441
:101CB0007FC08B3009F45FC0089580911402813A8F
:101CC000F1F58091E800877F8093E8008091180209
:101CD00090911902892B61F460E182E791E070E054
:101CE0000E940C108091E8008B778093E8000895A3
:101CF00060E090E080E0F3CF809114028132F9F44B
:101D000080911802909119028B7F892BC1F48091E8
:101D1000E800877F8093E8008091E80082FF0BC095
:101D20008091F100809382018091E8008B7780930D
:101D3000E8000C94F510809113028111EDCF089505
:101D400080911402813AD9F780911802909119027A
:101D5000892BA9F78091E800877F8093E800809124
:101D6000E80080FFFCCF80910B018093F10080910F
:101D7000E8008E77DCCF80911402813201F78091E8
:101D8000180290911902892BD1F68091E800877F83
:101D90008093E8000E94F5109091160281E0911165
:101DA00001C080E080930B0180930C010C94A21978
:101DB00080911402813219F68091E800877F809328
:101DC000E8000E94F5108091170280937001089539
:101DD00080911402813A09F0B2CF8091E800877FA8
:101DE0008093E8008091E80080FFFCCF8091700133
:101DF000BCCF84B7877F84BF0FB6F894A895809135
:101E00006000886180936000109260000FBE80E8DF
:101E100090E00FB6F89480936100909361000FBE3C
:101E20000E9445110E94A2118091E200846080937B
:101E3000E20085EA9CE00E94992078948091130248
:101E40008430C9F480E593E00E9434080E948C1429
:101E500081E091E00E94F3130E94432A8FE393E014
:101E60000E94340880911302853041F00E94B8141A
:101E70000E94D813F7CF0E94D813E0CF8BE393E0F2
:101E80000E9434080E940A2180911102882351F394
:101E90000E943121882331F30E94A50FE3CF9C01DA
:101EA000DA01892F992783309105C1F068F48130D8
:101EB000910509F445C0029761F48DE890E025E9A9
:101EC00033E02D933C93089581329105E1F08297A0
:101ED00039F190E080E030E020E0F3CFC9019927AC
:101EE000213059F08230910559F0E1E9F3E0892B76
:101EF00081F7849190E09F01E4CFE1E8F3E0F9CF2E
:101F0000E5E7F3E0F6CF653020F7E62FF0E0EE0FDF
:101F1000FF1FEC5DFE4F2081318189E090E0D1CF41
:101F20006530B8F670E0FB01EE0FFF1FE65EFE4F76
:101F3000208131816B5E7E4FFB01808190E0C1CFBB
:101F400082E190E022E234E0BCCF80E189BD82E111
:101F500089BD09B400FEFDCF8091D8008F7D8093AC
:101F6000D8008091E00082608093E0008091E000E2
:101F700081FDFCCF0895AF92BF92CF92DF92FF9286
:101F80000F931F93CF93DF936C01EB018A010E94A3
:101F90001411F82E811125C00115110539F0F80131
:101FA00080819181C81BD90BC80ED91EB12CA12CE0
:101FB0002097B9F08091E80085FD24C08091E80069
:101FC0008E778093E8000E94D81301151105A1F0C7
:101FD000F80180819181A80EB91EB182A08285E0AE
:101FE000F82E8F2DDF91CF911F910F91FF90DF90F1
:101FF000CF90BF90AF9008950E9414118823C1F232
:10200000F82EEFCFF60181916F018093F1002197B7
:10201000FFEFAF1ABF0ACCCFFC01CB0120911A020F
:1020200030911B022617370790F0009729F4209172
:10203000E8002E772093E80040E0009751F441112A
:1020400008C08091E80082FF31C080E00895C90196
:10205000F3CF209113022223A9F12530A9F1209179
:10206000E80023FD2DC02091E80022FDEACF209159
:10207000E80020FFE2CF3091F3002091F2000097BA
:1020800019F02830310558F041E02830310509F0C9
:1020900040E02091E8002E772093E800CECF4191D8
:1020A0004093F10001972F5F3F4FE9CF80911302DA
:1020B000882341F0853041F08091E80083FFC1CF53
:1020C00081E0089582E0089583E00895FC01CB014A
:1020D00020911A0230911B022617370790F00097C3
:1020E00029F42091E8002E772093E80040E0009743
:1020F00051F4411108C08091E80082FF32C080E0B5
:102100000895C901F3CF209113022223B1F12530A4
:10211000B1F12091E80023FD2EC02091E80022FDBE
:10212000EACF2091E80020FFE2CF3091F300209128
:10213000F200009719F02830310558F041E02830BE
:10214000310509F040E02091E8002E772093E80067
:10215000CECF44914093F100319601972F5F3F4FCE
:10216000E8CF80911302882341F0853041F08091BF
:10217000E80083FFC0CF81E0089582E0089583E006
:102180000895982F973028F08F708093E90081E0B0
:1021900008959093E900242F762F50E0981731F09E
:1021A0007091EC002091ED005091F00021FD02C0F3
:1021B0009F5FE8CF3091EB003E7F3093EB00309192
:1021C000ED003D7F3093ED003091EB0031603093B6
:1021D000EB007093EC002093ED005093F000209101
:1021E000EE0027FDE5CF80E008958091140287FF7F
:1021F00013C08091E80082FF06C08091E8008B77D1
:102200008093E80004C0809113028111F2CF0895F9
:10221000809113028823D9F38091E80080FFF8CFE2
:102220008091E8008E77ECCF2091E4003091E500BA
:1022300095E6A9012091EC00822F817020FF06C055
:102240008091E80080FF06C080E008952091E800BA
:1022500022FD1AC080911302882389F0853089F00D
:102260008091EB0085FD0FC02091E4003091E500E6
:1022700042175307F9F29150E1F684E0089582E0A5
:10228000089583E0089581E008950E94B3110E94AB
:10229000BB11E0EEF0E0808181608083E8EDF0E04A
:1022A00080818F77808319BCA7EDB0E08C918E7F01
:1022B0008C9380818F7E80831092120208950F93F9
:1022C0001F93CF93DF930E94B3110E94BB11C8EDFF
:1022D000D0E088818F77888388818068888388812F
:1022E0008F7D888319BC1092130210920F021092F6
:1022F00011021092100200EE10E0F80180818B7F35
:10230000808388818160888342E060E080E00E9471
:10231000C110E1EEF0E080818E7F8083E2EEF0E09C
:10232000808181608083808188608083F8018081E2
:102330008E7F8083888180618883DF91CF911F9118
:102340000F910895E8EDF0E080818F7E8083E7EDC6
:10235000F0E080818160808384E082BF81E08093AF
:1023600012020C945F11E8EDF0E080818E7F808393
:102370001092E20008951092DA001092E1000895A0
:102380001F920F920FB60F9211242F933F934F93EA
:102390005F936F937F938F939F93AF93BF93EF93CD
:1023A000FF938091E10082FF0BC08091E20082FFE9
:1023B00007C08091E1008B7F8093E1000E94020EB4
:1023C0008091DA0080FF19C08091D80080FF15C08D
:1023D0008091DA008E7F8093DA008091D90080FFAF
:1023E0008FC080E189BD82E189BD09B400FEFDCFC7
:1023F00081E0809313020E94D10D8091E10080FF63
:1024000019C08091E20080FF15C08091E2008E7FAC
:102410008093E2008091E20080618093E2008091ED
:10242000D80080628093D80019BC85E080931302A5
:102430000E94EE0D8091E10084FF29C08091E200AE
:1024400084FF25C080E189BD82E189BD09B400FE19
:10245000FDCF8091D8008F7D8093D8008091E100DE
:102460008F7E8093E1008091E2008F7E8093E20076
:102470008091E20081608093E20080910F028823C6
:1024800009F444C084E0809313020E94F60D809109
:10249000E10083FF24C08091E20083FF20C080918F
:1024A000E100877F8093E10082E080931302109225
:1024B0000F028091E1008E7F8093E1008091E20025
:1024C0008E7F8093E2008091E20080618093E20041
:1024D00042E060E080E00E94C1100E94EA0DFF919E
:1024E000EF91BF91AF919F918F917F916F915F918C
:1024F0004F913F912F910F900FBE0F901F90189505
:1025000019BC109213020E94E30D77CF8091E30073
:1025100087FD02C081E0B7CF83E0B5CF1F93CF9393
:10252000DF93CDB7DEB7AA970FB6F894DEBF0FBE24
:10253000CDBF84E192E0FC0101962091F10020835F
:1025400022E08C319207B9F70E94480E8091E80092
:1025500083FF16C180911402909115029A3008F001
:102560000FC1E92FF0E0E05EF34D0C94EC2B8038C6
:1025700081F0823809F004C1809118028F70809335
:10258000E9008091EB0085FB882780F91092E90033
:1025900006C0809110029091110291118260909179
:1025A000E800977F9093E8008093F1001092F1008B
:1025B0008091E8008E77E0C0882309F4CEC0823095
:1025C00009F0DEC0809116028111D1C080911802FD
:1025D0008F7009F4D5C08093E9002091EB0020FFB3
:1025E000C6C0933031F48091EB0080628093EB00A1
:1025F000BEC09091EB0090619093EB0021E030E041
:1026000001C0220F8A95EAF72093EA001092EA00AF
:102610008091EB008860EACF8111B2C01091160260
:102620001F778091E3008078812B8093E300809175
:10263000E800877F8093E8000E94F5108091E80011
:1026400080FFFCCF8091E30080688093E30082E00C
:10265000111183E08093130293C08058823008F0F8
:102660008FC080911602909117028C3D23E0920753
:10267000A1F583E08A838AE289834FB7F894DE016B
:10268000139620E03EE051E2E32FF0E05093570034
:10269000E49120FF03C0E295EF703F5FEF708E2F53
:1026A00090E0EA30C0F0C7968D939D932F5F243160
:1026B00059F74FBF8091E800877F8093E8006AE276
:1026C00070E0CE0101960E940C108091E8008B779B
:1026D0008093E80055C0C096E7CFAE014F5F5F4FD3
:1026E000609118020E944F0FBC01892B09F448C069
:1026F0008091E800877F8093E80089819A810E9419
:102700006610E3CF8038E1F58091E800877F809301
:10271000E80080910F028093F1004ACF811130C010
:1027200090911602923060F58091E800877F809347
:10273000E80090930F020E94F51080910F02882309
:1027400011F084E005C08091E30087FDFACF81E0BD
:10275000809313020E942F0E13C0809116028130C5
:1027600079F481E0933009F080E0809311021092B7
:10277000E9008091E800877F8093E8000E94F510CF
:102780008091E80083FF0AC08091E800877F8093F2
:10279000E8008091EB0080628093EB00AA960FB670
:1027A000F894DEBF0FBECDBFDF91CF911F9108958A
:1027B000CF93809113028823A1F0C091E900CF70DC
:1027C0009091EC00892F817090FD80E8C82B1092C9
:1027D000E9008091E80083FD0E948E12CF70C093C3
:1027E000E900CF910895909388018093870108951F
:1027F00080918701909188010895E0918701F0917F
:102800008801309721F00190F081E02D099480E05B
:102810000895EF92FF920F931F93CF93DF938C0154
:10282000E0918701F09188013097C1F10280F38136
:10283000E02D09958091F90182FF30C080FF04C02E
:1028400087E595E00E943408D0E0C0E081E5E82EFD
:1028500085E0F82E8091F90180FF0EC0F801EC0FA1
:10286000FD1F80811F928F93FF92EF920E94CD08EF
:102870000F900F900F900F902196C031D10551F716
:102880008091F90180FF0AC08FE495E0DF91CF913C
:102890001F910F91FF90EF900C943408DF91CF912E
:1028A0001F910F91FF90EF900895E0918701F091B3
:1028B0008801309721F00480F581E02D0994089576
:1028C00020918501309186012817390771F0909386
:1028D000860180938501E0918701F091880130970E
:1028E00021F00680F781E02D09940895209183015D
:1028F000309184012817390771F0909384018093F7
:102900008301E0918701F0918801309721F00084E4
:10291000F185E02D099408950E9448210C943D0B07
:10292000CF93C82F8091F90182FF1EC080FF1CC089
:1029300080E795E00E9434088091F90180FF14C07F
:102940001F92CF938BE695E09F938F930E94CD08C3
:102950008091F9010F900F900F900F9080FF04C0AD
:1029600089E695E00E9434088C2FCF910C949B0C43
:102970005F926F927F928F929F92AF92BF92CF920F
:10298000DF92EF92FF920F931F93CF93DF9300D0CC
:1029900000D00F92CDB7DEB70E945A0B9AE8A92E4D
:1029A00091E0B92E10E000E088248394912C502E01
:1029B000802F0E944B0C7C01F501C190D1905F01EA
:1029C000C816D90609F45DC08091F90181FD0E9405
:1029D000540C90E080E0CE24DF243401082E02C0A5
:1029E000660C771C0A94E2F7960126213721232BE7
:1029F00009F442C089835A82E620F72081E0EF285B
:102A000009F480E08B830E9451218160782F9D839F
:102A10008C8349815A816B818D810E946D15000FD5
:102A2000111FF801E657FE4F8081918168267926B3
:102A3000718260820E94BE230E94FD1390918901E1
:102A40008917B1F10E94FD13809389010F900F90B7
:102A50000F900F900F90DF91CF911F910F91FF90EA
:102A6000EF90DF90CF90BF90AF909F908F907F902E
:102A70006F905F900C94901401968930910509F045
:102A8000ACCF0F5F1F4F0E30110509F090CF8FEFC5
:102A900089838A831B820E9451218160782F9D83C4
:102AA0008C8349815A816B818D810E946D15C2CFC3
:102AB0000F900F900F900F900F90DF91CF911F917B
:102AC0000F91FF90EF90DF90CF90BF90AF909F90CD
:102AD0008F907F906F905F900895CF93DF93CDB7E5
:102AE000DEB72B970FB6F894DEBF0FBECDBF4F8376
:102AF000588769877A878B871E8285E0FE01379623
:102B0000DE01119601900D928A95E1F749815A8173
:102B10006B817C818D819E812B960FB6F894DEBFF0
:102B20000FBECDBFDF91CF910C941E1CCF93C82F49
:102B3000882309F486C08CEF8C0F813A58F48C2FCF
:102B40000E94D62881117DC08C2F0E94041FCF9136
:102B50000C94DA1F80E28C0F883048F4C77081E053
:102B600001C0880FCA95EAF70E94A21FF0CF8BE53B
:102B70008C0F833068F481E890E0C53A31F083E847
:102B800090E0C63A11F482E890E0CF910C94601482
:102B900088E58C0F833108F054C082EE90E0C83A8B
:102BA00009F44CC089EE90E0C93A09F447C08AEEB6
:102BB00090E0CA3A09F442C085EB90E0CB3AF1F1DB
:102BC00086EB90E0CC3AD1F187EB90E0CD3AB1F1D1
:102BD0008CEC90E0C03B91F18DEC90E0CE3A71F13D
:102BE00083E891E0CF3A51F18AE891E0C13B31F1BD
:102BF00082E991E0C23B11F184E991E0C33BF1F03D
:102C000081E292E0C43BD1F083E292E0C53BB1F0B7
:102C100084E292E0C63B91F085E292E0C73B71F01E
:102C200086E292E0C83B51F087E292E0C93B31F086
:102C300090E080E0CA3B11F48AE292E0CF910C94DC
:102C40007614CF910895882329F19CEF980F913A3B
:102C500020F40E944E1F0C94DA1F90E2980F9830D7
:102C600050F4877091E001C0990F8A95EAF7892F97
:102C70000E94A81FF0CF9BE5980F933020F490E0BE
:102C800080E00C946014885A833120F490E080E056
:102C90000C9476140895882321F00E94A21F0C94AE
:102CA000DA1F0895882321F00E94A81F0C94DA1FD0
:102CB0000895BF92CF92DF92EF92FF920F931F93EE
:102CC000CF93DF93CDB7DEB729970FB6F894DEBF69
:102CD0000FBECDBF6C0185E0F601DE0111960190BB
:102CE0000D928A95E1F7F60183819481892B39F061
:102CF00090818181292F28232F3F09F0F9C229963D
:102D00000FB6F894DEBF0FBECDBFDF91CF911F91FC
:102D10000F91FF90EF90DF90CF90BF900895F12F2B
:102D2000FF70EF2E107F19F0E29440EFE422FF20B5
:102D3000C9F0EE2029F08E2D0E94B31F0E94DA1FE9
:102D4000802F29960FB6F894DEBF0FBECDBFDF915E
:102D5000CF911F910F91FF90EF90DF90CF90BF9098
:102D60000C949615802F0E942316EE2041F28E2D92
:102D70000E94B91F29960FB6F894DEBF0FBECDBFD3
:102D8000DF91CF911F910F91FF90EF90DF90CF9047
:102D9000BF900C94DA1F212F2F70B22E107F1032AB
:102DA00019F0B29430EFB322002379F0013009F426
:102DB00052C0FF2009F45BC0EE2059F0F601858176
:102DC00080FFBECF8F70858304C0FF2049F1E110E2
:102DD00012C08B2D29960FB6F894DEBF0FBECDBF63
:102DE000DF91CF911F910F91FF90EF90DF90CF90E7
:102DF000BF900C944B1631E08B2DE312EBCF29964C
:102E00000FB6F894DEBF0FBECDBFDF91CF911F91FB
:102E10000F91FF90EF90DF90CF90BF900C94C41F64
:102E2000E11014C00E94C71F8B2D29960FB6F8948D
:102E3000DEBF0FBECDBFDF91CF911F910F91FF90ED
:102E4000EF90DF90CF90BF900C94521641E0E416C3
:102E500009F455CFE7CFFF2029F052E05E1508F4C2
:102E60004ECFB7CF81E08E1508F449CFDDCFEE20ED
:102E7000D9F2802F29960FB6F894DEBF0FBECDBFD2
:102E8000DF91CF911F910F91FF90EF90DF90CF9046
:102E9000BF900C942316812F869586958370D1F070
:102EA000813009F02CCFC8019370F11002C090E07E
:102EB00080E029960FB6F894DEBF0FBECDBFDF913C
:102EC000CF911F910F91FF90EF90DF90CF90BF9027
:102ED0000C947614C8019370F11002C090E080E069
:102EE00029960FB6F894DEBF0FBECDBFDF91CF910C
:102EF0001F910F91FF90EF90DF90CF90BF900C94B7
:102F00006014802FFF2099F00E944A2229960FB664
:102F1000F894DEBF0FBECDBFDF91CF911F910F910F
:102F2000FF90EF90DF90CF90BF900C9431230E94E0
:102F3000B222ECCF812F837009F089C0F110DFCE6F
:102F4000202F229526952770220F220F802F8F7019
:102F500090E0B0E0A0E06C017D01022E04C0CC0C3A
:102F6000DD1CEE1CFF1C0A94D2F760E070E0CB0180
:102F700004FF0FC06FE070E080E090E004C0660FD7
:102F8000771F881F991F2A95D2F7609570958095B5
:102F900090951695169513701230B9F1133009F407
:102FA00051C09B01AC012C293D294E295F292E835C
:102FB0003F8348875987113099F0CA01B901299692
:102FC0000FB6F894DEBF0FBECDBFDF91CF911F913A
:102FD0000F91FF90EF90DF90CF90BF900C94671D02
:102FE0006E817F818885998529960FB6F894DEBF1A
:102FF0000FBECDBFDF91CF911F910F91FF90EF904A
:10300000DF90CF90BF900C943D1D9B01AC012C290B
:103010003D294E295F292E833F8348875987CA015E
:10302000B90129960FB6F894DEBF0FBECDBFDF9170
:10303000CF911F910F91FF90EF90DF90CF90BF90B5
:103040000C94911D0E94671DC701B601CDCF8695D6
:10305000FF2011F0812F8170882309F450CE202F9A
:10306000229526952770220F220F802F8F7090E0D7
:10307000B0E0A0E06C017D01022E04C0CC0CDD1C90
:10308000EE1CFF1C0A94D2F760E070E0CB0104FF55
:103090000FC06FE070E080E090E004C0660F771F23
:1030A000881F991F2A95D2F7609570958095909505
:1030B0001695169513701230B9F1133009F451C0FA
:1030C0009B01AC012C293D294E295F292E833F838A
:1030D00048875987113099F0CA01B90129960FB66E
:1030E000F894DEBF0FBECDBFDF91CF911F910F913E
:1030F000FF90EF90DF90CF90BF900C946D1E6E818B
:103100007F818885998529960FB6F894DEBF0FBE1A
:10311000CDBFDF91CF911F910F91FF90EF90DF9086
:10312000CF90BF900C94431E9B01AC012C293D29EC
:103130004E295F292E833F8348875987CA01B901E9
:1031400029960FB6F894DEBF0FBECDBFDF91CF91A9
:103150001F910F91FF90EF90DF90CF90BF900C9454
:10316000971E0E946D1EC701B601CDCF013F09F425
:103170003EC068F4003FE9F0003E78F00F70812F08
:103180008F71FF2091F00E94DA1D802F23CE023F25
:1031900009F442C0033F09F454C0FF2009F477C08A
:1031A000E110CECD812F8F7126C00E94FC1D802F93
:1031B0003CCEFF20B9F031E03E1508F4A0CD812FC0
:1031C0008F7129960FB6F894DEBF0FBECDBFDF9189
:1031D000CF911F910F91FF90EF90DF90CF90BF9014
:1031E0000C94211E42E04E1508F489CDE8CF812FC2
:1031F0008F71FF20A9F029960FB6F894DEBF0FBE9D
:10320000CDBFDF91CF911F910F91FF90EF90DF9095
:10321000CF90BF900C94DA1D812F8F71FF2059F34E
:1032200029960FB6F894DEBF0FBECDBFDF91CF91C8
:103230001F910F91FF90EF90DF90CF90BF900C9473
:10324000FC1DFF2099F0812F8F7129960FB6F894FD
:10325000DEBF0FBECDBFDF91CF911F910F91FF90C9
:10326000EF90DF90CF90BF900C94C51D29960FB6BC
:10327000F894DEBF0FBECDBFDF91CF911F910F91AC
:10328000FF90EF90DF90CF90BF900C94BB1DE110AA
:10329000F0CD812F8F71C4CF412F4F70602FC601A9
:1032A0000E94962029960FB6F894DEBF0FBECDBFC0
:1032B000DF91CF911F910F91FF90EF90DF90CF9012
:1032C000BF900C94B81C412F4F70602FC6012996F7
:1032D0000FB6F894DEBF0FBECDBFDF91CF911F9127
:1032E0000F91FF90EF90DF90CF90BF900C94D00A99
:1032F000F280E580E2942FE0E22299838A8389813B
:103300009A810E94C21E8C010E94C11E0E94321D21
:10331000E12FE295EF70F0E0E65DF34D0C94EC2BBD
:103320000E94C11F0E94911F0E94DA1F0E94A424C4
:103330000E94312390E080E00E94601490E080E0E1
:103340000C9476140E94B01F0C9490190E94C21E17
:10335000382F292F22952F702C3099F080F42430AB
:1033600020F4223030F480E008952A5F2F7022305C
:10337000D0F781E0303E10F0303FA9F708952F30AC
:1033800091F793FB882780F90895CF93DF9300D0BE
:1033900000D00F92CDB7DEB70F900F900F900F9027
:1033A0000F90DF91CF910895CF93DF9300D000D09D
:1033B00000D0CDB7DEB726960FB6F894DEBF0FBEAD
:1033C000CDBFDF91CF9108951F93CF93DF93E0910D
:1033D000A60116E08091A7018E1304C0DF91CF9162
:1033E0001F910895CE2FD0E01E9FF0011124E855C3
:1033F000FE4F4081518162817381848195810E9459
:10340000D419FE013196E770E5CF4091D801509173
:10341000D9016091DA017091DB018091DC0190911A
:10342000DD010C94D4191F93CF93DF938091DD01BC
:10343000807FC1F48091DA018823A1F08091A601F8
:10344000C091A7016091D8017091D9014091DB0131
:103450005091DC01D62FD723DA01A095B09516E064
:10346000C81304C0DF91CF911F91089590E04115DA
:10347000510511F0DF3F31F401968770F1CF2A0F2B
:103480003B1F17C0189FF001199FF00D1124E8553C
:10349000FE4F21812713F0CF20812613EDCF22810B
:1034A0002111EACF238134812417350740F3241BEF
:1034B000350B2639310500F72091DD012F70206191
:1034C0002093DD0126E0289FF001299FF00D1124B3
:1034D000E355FE4F80818F708061808388ED91E09D
:1034E0000E945916DF91CF911F910C94E4199F927D
:1034F000AF92BF92CF92DF92EF92FF920F931F9302
:10350000CF93DF93CDB7DEB72B970FB6F894DEBF1E
:103510000FBECDBF8C0185E0F801DE01179601904A
:103520000D928A95E1F7D8014C9111965C91119713
:103530001296EC9012978091DB019091DC0100973C
:1035400009F46BC12091D8013091D901632F622316
:103550006F3F09F462C11396CD90DC909090DA0130
:10356000992009F4F8C0C816D90608F43FC0F6013E
:10357000E81BF90BCF01FF24F3948639910508F07D
:10358000F12C88EDA82E81E0B82E8091DD01982FD6
:10359000907FFF2009F4B7C0911180C0FE2C351335
:1035A0002AC0241328C0E11026C08F708061809348
:1035B000DD010E94051AC5010E9459168091DD01A6
:1035C000D80115968C938F2D2B960FB6F894DEBFED
:1035D0000FBECDBFDF91CF911F910F91FF90EF9064
:1035E000DF90CF90BF90AF909F9008958095909579
:1035F0008C0D9D1DC0CFCD2829F0842F85238F3FB2
:1036000009F019C180E0B82FB170DB2EE091A6015E
:103610002091A70136E080FD1CC0EE20A1F2809130
:10362000DD0181608093DD01F12CCDCF8E2F90E004
:103630003E9FF0011124E855FE4F6181651306C0DD
:103640006081641303C062816E11E7CFFC01319683
:10365000E770E213EBCF4F8358878F8198850E94E4
:10366000C21E292F22952F70903260F0225F2F709A
:10367000223078F49F7051F0F8019581907F31F4F9
:10368000D12C0AC09F7011F08823D1F3805E88305E
:10369000B8F3C8010E945916FD2C95CF351306C00A
:1036A000241304C0D801EE2009F47BC04F8358874F
:1036B0008F8198850E94A619882309F4B8C0EE204E
:1036C00009F4B5C08091DD01803270F02091D801FD
:1036D0003091D9013A8329831B82DD82CC828E838B
:1036E000CE0101960E94591686E0F801A8EDB1E0DE
:1036F00001900D928A95E1F70E94131A0E94051A13
:10370000FF24F39460CF911113C07C2DDB86CA8611
:103710006E2D8B850E94C51988ED91E00E94591687
:1037200086E0F50111928A95E9F70E94051A4BCFC0
:103730003513BCCF2413BACFE110B8CFD8011596FA
:103740008C93C8010E94591686E0F50111928A9562
:10375000E9F7F92C38CFC816D90688F1B601681BED
:10376000790BCB01F12C8639910508F047C0FE2C6E
:10377000EE2009F45CC0351330C024132EC08091B4
:10378000DD0180FD21C0982F907FF1F0D8011596C2
:103790008C931597903F39F0982F907F905F8F70A2
:1037A000892B15968C93C8010E94591686E0F80162
:1037B000A8EDB1E001900D928A95E1F7B6CF809522
:1037C00090958C0D9D1DCECF86E0F801A8EDB1E05F
:1037D00001900D928A95E1F7F6CE4F8358878F813D
:1037E00098850E94A61981117FCF8091DD018160AB
:1037F0008093DD01C8010E945916E5CE7C2DDB8641
:10380000CA866E2D8B850E94C51986E0E8EDF1E031
:10381000DF011D928A95E9F788CFEE2041F04F83B2
:1038200058878F8198850E94A61981115DCFC801A4
:103830000E94591665CF81E08E25E5CE1F93CF9368
:10384000DF93CDB7DEB72C970FB6F894DEBF0FBE6F
:10385000CDBF4F83588769877A878B879C87CE0136
:1038600007960E94771A882369F08A859B85892BA1
:1038700039F04F815885842F85238F3F09F071C01F
:1038800016E05FC086E0FE013796DE0111960190DA
:103890000D928A95E1F78A859B85892B89F3888526
:1038A0009F8189238F3F61F32091A70130E0C901F7
:1038B0000196877099274091A6014817190671F45F
:1038C0000E94A2191092A7011092A60186E0E8EDCD
:1038D000F1E0DF011D928A95E9F7D2CF96E0929F41
:1038E000D001939FB00D1124A855BE4FFE01319613
:1038F00001900D929A95E1F78093A7010E94E41937
:10390000BFCF819FC001112488559E4F0E94771A16
:103910008823E9F0E091A6011E9FF0011124E855EB
:10392000FE4F4081518162817381848195810E9423
:10393000D4198091A60190E0019687709927809311
:10394000A6018091A6019091A7018913DACF2C9648
:103950000FB6F894DEBF0FBECDBFDF91CF911F91A0
:10396000089569857A858B859C850E94D41988CFB6
:10397000EF92FF920F931F93CF93DF938C01892BCC
:1039800089F0F12CEE24E394E8012196F80184916A
:10399000843709F455C0A0F4823009F43CC048F4DF
:1039A0008130D1F0DF91CF911F910F91FF90EF9077
:1039B00008959CEF980F9037A8F70E9496150AC0BB
:1039C000853709F44AC09CE7980F903758F78F77EE
:1039D0000E9423168E0111C00E5F1F4FFE018491BD
:1039E00090E2980F9830A0F48770FE2D01C0FF0F71
:1039F0008A95EAF78F2F0E94B31F8F2D815008F40C
:103A0000C3CFEFE9FFE03197F1F700C00000F6CF38
:103A10000E949615F2CF0E5F1F4FFE01849190E237
:103A2000980F983050F48770FE2D01C0FF0F8A95D3
:103A3000EAF78F2F0E94B91FE0CF0E942316DDCF37
:103A40000E5F1F4FFE01C491C150B8F28FE99FE095
:103A50000197F1F700C00000F7CF0E5F1F4FFE0186
:103A6000F490CBCF08956093E2017093E3018093CB
:103A7000E4019093E5010C949019CF93DF9300D06B
:103A800000D0CDB7DEB769837A838B839C83809126
:103A9000E2019091E301A091E401B091E501298157
:103AA0003A814B815C81822B932BA42BB52B809385
:103AB000E2019093E301A093E401B093E5010F903C
:103AC0000F900F900F90DF91CF910C949019CF939E
:103AD000DF9300D000D0CDB7DEB769837A838B83C4
:103AE0009C838091E2019091E301A091E401B09167
:103AF000E50129813A814B815C8182239323A423B0
:103B0000B5238093E2019093E301A093E401B09385
:103B1000E5010F900F900F900F90DF91CF910C94D3
:103B20009019CF93DF9300D000D0CDB7DEB7698373
:103B30007A838B839C838091E2019091E301A09131
:103B4000E401B091E50129813A814B815C818227B2
:103B50009327A427B5278093E2019093E301A093D4
:103B6000E401B093E5010F900F900F900F90DF915B
:103B7000CF910C9490191092DE011092DF011092F7
:103B8000E0011092E1010C94901941E050E060E0F6
:103B900070E004C0440F551F661F771F8A95D2F747
:103BA0004093DE015093DF016093E0017093E101E7
:103BB0000C949019282F81E090E0A0E0B0E004C0C0
:103BC000880F991FAA1FBB1F2A95D2F74091DE01CB
:103BD0005091DF016091E0017091E101842B952B00
:103BE000A62BB72B8093DE019093DF01A093E00119
:103BF000B093E1010C94901941E050E060E070E076
:103C000004C0440F551F661F771F8A95D2F7409551
:103C10005095609570958091DE019091DF01A091A3
:103C2000E001B091E10184239523A623B72380937B
:103C3000DE019093DF01A093E001B093E1010C94C9
:103C40009019282F81E090E0A0E0B0E004C0880F38
:103C5000991FAA1FBB1F2A95D2F74091DE015091F0
:103C6000DF016091E0017091E10184279527A6278B
:103C7000B7278093DE019093DF01A093E001B0931A
:103C8000E1010C949019CF93DF9300D000D0CDB711
:103C9000DEB769837A838B839C838091DE01909168
:103CA000DF01A091E001B091E10129813A814B81CE
:103CB0005C81822B932BA42BB52B8093DE019093F8
:103CC000DF01A093E001B093E1010F900F900F90FE
:103CD0000F90DF91CF910C949019CF93DF9300D088
:103CE00000D0CDB7DEB769837A838B839C838091C4
:103CF000DE019091DF01A091E001B091E101298105
:103D00003A814B815C8182239323A423B523809342
:103D1000DE019093DF01A093E001B093E1010F90E9
:103D20000F900F900F90DF91CF910C949019CF933B
:103D3000DF9300D000D0CDB7DEB769837A838B8361
:103D40009C838091DE019091DF01A091E001B09110
:103D5000E10129813A814B815C8182279327A42745
:103D6000B5278093DE019093DF01A093E001B0932B
:103D7000E1010F900F900F900F90DF91CF910C9475
:103D800090190895CF92DF92EF92FF920F931F93B5
:103D9000CF93DF938C01C090DE01D090DF01E090E3
:103DA000E001F090E1018091E2019091E301A091A6
:103DB000E401B091E501C82AD92AEA2AFB2ACFE119
:103DC000D0E0D701C6010C2E04C0B695A7959795F3
:103DD00087950A94D2F780FF10C0B8018C2F0E94FB
:103DE00000208130910549F0DF91CF911F910F9113
:103DF000FF90EF90DF90CF900895219710F7B801D2
:103E000080E00E940020F0CF90910C01992349F1AD
:103E1000E82FE695E695E695883790F420910D0118
:103E200030910E01E20FF32FF11D877021E030E099
:103E300001C0220F8A95EAF78181822B8183089540
:103E40009091F90190FF22C01F928F9381EA95E033
:103E50009F938F930E94CD080F900F900F900F901B
:103E6000089520910D0130910E01F90132969FEFD6
:103E700040E05191851751F09F3F19F4511101C055
:103E8000942F4F5F4E30A9F79F3F09F40895290FF3
:103E9000311D97FD3A95F9018283089590910C01A7
:103EA000992369F1E82FE695E695E6958837B0F411
:103EB00020910D0130910E01E20FF32FF11D87705B
:103EC00021E030E0A90102C0440F551F8A95E2F7B6
:103ED000CA01809591818923818308959091F90188
:103EE00090FF1EC01F928F9383E895E09F938F935E
:103EF0000E94CD080F900F900F900F900895209181
:103F00000D0130910E01F9013296205F3F4F9191E2
:103F1000891303C0DF0111971C92E217F307B9F769
:103F2000089581E090E0E0910D01F0910E01E80F1D
:103F3000F91F1082019680319105A9F708958091AB
:103F4000F80108959091F801982B9093F801089545
:103F5000982F90958091F80189238093F801089516
:103F60001092F80108959091F701982B9093F70122
:103F70000895982F90958091F70189238093F701F8
:103F800008951092F70108958093E6010895109224
:103F9000E601089520910D0130910E01F90131964D
:103FA000205F3F4F80E0919191118F5FE217F307FF
:103FB000D1F70895E0910D01F0910E018091F80183
:103FC0008083E0910D01F0910E0180819091F701C5
:103FD000892B80839091E601992361F0E0910D0196
:103FE000F0910E018081892B80830E94CA1F81116C
:103FF0001092E60180910D0190910E010C9409142C
:104000000E940C0B282F30E0A901405C510940327E
:10401000510510F40C941D0B8D3BD0F4883A18F523
:10402000853A58F4843038F441E090E0813009F06A
:1040300040E0242F392FC901089521E830E4853A62
:10404000D1F322E830E4863AB1F323E830E4F3CF49
:10405000883E28F4803E78F730E020E0ECCF3065F1
:10406000803F48F7F9CF22EE34E4883A21F329EE75
:1040700034E4893A01F32AEE34E48A3AE1F225EB9A
:1040800034E48B3AC1F226EB34E48C3AA1F223EB10
:1040900034E48B3B81F224EB34E48C3B61F227EB7C
:1040A00034E48D3A41F22CEC34E4803B21F22DECE7
:1040B00034E48E3A09F4BFCF23E835E48F3A09F4AB
:1040C000BACF2AE835E4813B09F4B5CF22E935E4DB
:1040D000823B09F4B0CF24E935E4833B09F4ABCF4C
:1040E00021E236E4843B09F4A6CF23E236E4853BA3
:1040F00009F4A1CF24E236E4863B09F49CCF25E203
:1041000036E4873B09F497CF26E236E4883B09F48E
:1041100092CF27E236E4893B09F48DCF20E034E4E6
:104120008A3B09F088CF2AE236E485CF90E080E030
:1041300008959093FB018093FA0108950F931F93C4
:10414000462F572FBC01CB01AA27BB270097A105FB
:10415000B105E9F1AC01BD0180E1052F162F272F34
:104160003327011511052105310519F0885FB901C3
:10417000A8018A019B01F4E03695279517950795CC
:10418000FA95D1F7011511052105310519F08C5F5C
:10419000B901A8018A019B01E2E0369527951795A0
:1041A0000795EA95D1F7011511052105310519F09B
:1041B0008E5FB901A8017695679557954795452B70
:1041C000462B472B09F08F5F1F910F91089580E0D8
:1041D000C4CF829594E0899F900111242C7C869510
:1041E00086958373282B30E0C901880F991F8A7A3E
:1041F000359527952575822B0895CF93DF93D92F79
:104200000E94E920C82F8D2F0E94E9209C2FDF916A
:10421000CF91089580911302843011F188E190E0EC
:1042200020E40FB6F894A895809360000FBE209309
:10423000600083B7817F846083BF83B7816083BF61
:104240007894889583B78E7F83BF0FB6F894A8952E
:1042500080916000886180936000109260000FBEC2
:104260000895CF930E94D6080E945A0B0E94D70847
:10427000C0E08C2F0E944B0C892B31F4CF5FCE30E5
:10428000C1F780E0CF91089581E0FCCF0C94A21992
:1042900082E084BD93E095BD9AEF97BD80936E0058
:1042A00008952FB7F8948091FC019091FD01A091A1
:1042B000FE01B091FF012FBF0895CF92DF92EF92E0
:1042C000FF929C014FB7F8948091FC019091FD0101
:1042D000A091FE01B091FF014FBF6C017D01EE2462
:1042E000FF24A90170E060E0C416D506E606F706D3
:1042F00038F0821B930BFF90EF90DF90CF900895E2
:104300000197F7CF1F921FB61F9211248F939F938F
:10431000AF93BF938091FC019091FD01A091FE01AC
:10432000B091FF010196A11DB11D8093FC019093F6
:10433000FD01A093FE01B093FF01BF91AF919F914A
:104340008F911F901FBE1F9018950E944511F894E1
:104350002FEF87EA91E6215080409040E1F700C0BE
:10436000000087E090EBDC0180931C0290931D021B
:10437000A0931E02B0931F0288E19CE00FB6F89450
:10438000A895809360000FBE90936000FFCF80914E
:10439000020280FF12C06091120185E0689FB001A7
:1043A0001124759567957595679560387105A8F521
:1043B00061157105A1F1862F089581FF09C06091F3
:1043C000120185E0689FB001112475956795EDCFC6
:1043D0006091120182FD0AC0809103028823D1F00E
:1043E0009091110160911201891728F085E0689F72
:1043F000B0011124DACF869FB001112485E0869F99
:104400009001879F300D1124692F70E0C9010E942F
:10441000D82BCBCF65E070E0CECF8FE7089581E059
:1044200008958091020280FF0CC06091100170E03D
:1044300075956795759567956115710549F1862F95
:10444000089581FF06C06091100170E07595679531
:10445000F3CF6091100182FD0BC09091030299236C
:10446000A1F060910F0180911001961738F0682F2C
:1044700070E06038710500F38FE70895899FC001EF
:10448000112470E00E94D82BF4CF61E070E0D7CF08
:1044900081E00895803F31F40E94C7218195809387
:1044A00006020895813F19F40E94C721F8CF823F88
:1044B00031F40E94C7218195809305020895833FBE
:1044C00019F40E94C721F8CF893F29F40E941122D4
:1044D0008093070208958A3F21F40E94112281955A
:1044E000F7CF8B3F31F40E9411228195809308020F
:1044F00008958C3F19F40E941122F8CF843F31F4C3
:10450000809104028160809304020895853F21F424
:10451000809104028260F7CF863F21F480910402EB
:104520008460F1CF873F21F4809104028860EBCF53
:10453000883F21F4809104028061E5CF8D3F31F402
:104540008091020281608093020208958E3F21F4DF
:10455000809102028260F7CF8F3FB9F7809102020B
:104560008460F1CF90910502803F41F48091060272
:1045700087FD10920602992371F00895813F29F476
:10458000809106021816ACF3F6CF823F81F497FFB4
:10459000F2CF109205028091060290910702892BBA
:1045A00090910802892B49F7109203020895833FE6
:1045B00019F4191674F3DFCF893F39F4809107029B
:1045C0001816CCF610920702D6CF8A3F29F48091B4
:1045D000070287FFD0CFF6CF8B3F39F480910802D6
:1045E00087FFC9CF10920802C6CF8C3F29F4809173
:1045F00008021816BCF3BFCF843F31F48091040247
:104600008E7F80930402B7CF853F21F4809104020E
:104610008D7FF7CF863F21F4809104028B7FF1CF0D
:10462000873F21F480910402877FEBCF883F21F4FC
:10463000809104028F7EE5CF8D3F31F4809102029C
:104640008E7F8093020297CF8E3F21F480910202E9
:104650008D7FF7CF8F3F09F08ECF809102028B7F45
:10466000F0CF8091F90183FF7EC086EE95E00E9435
:104670003408809104021F928F9381EE95E09F93FE
:104680008F930E94CD088FED95E00E9434088091B1
:104690000502282F082E000C330B3F938F938CEDCF
:1046A00095E09F938F930E94CD088AED95E00E943C
:1046B000340880910602282F082E000C330B3F93FC
:1046C0008F9387ED95E09F938F930E94CD0885EDA2
:1046D00095E00E94340880910702282F082E000CD4
:1046E000330B3F938F9382ED95E09F938F930E94BE
:1046F000CD0880ED95E00E94340880910802282FB3
:10470000082E000C330B3F938F938DEC95E09F9315
:104710008F930E94CD088AEC95E00E943408809126
:1047200003021F928F9387EC95E09F938F930E94D3
:10473000CD0885EC95E00E943408809102021F921A
:104740008F9382EC95E09F938F930E94CD088FEB1F
:1047500095E00E9434088DB79EB74C960FB6F8943A
:104760009EBF0FBE8DBF84E092E00E9455140E9450
:104770005121909301028093000208951F93CF93DB
:10478000DF9300D000D000D0CDB7DEB7809100021B
:10479000909101020E945D21AC0180910302209161
:1047A000130130E0811106C0209114019AE0299F85
:1047B000900111244217530788F020910502A0911F
:1047C0000602A98310910702B0910802BE8321114D
:1047D0000FC09A2F912B9B2B09F0B2C026960FB6D3
:1047E000F894DEBF0FBECDBFDF91CF911F9108952A
:1047F0008F3F19F08F5F80930302121624F40E94FA
:10480000C721809305028091050287FF05C00E94A1
:10481000C7218195809305022981121624F40E94F4
:10482000C721809306028091060287FF05C00E947F
:10483000C72181958093060280910502882309F49F
:1048400055C0309106023D83332309F44FC0282F11
:10485000880F330B440B550B29833A834B835C83BE
:10486000CA01B9010E94DF2A23E333E343E35FE394
:1048700069837A838B839C8369817A818B819C8114
:104880000E94432B69837A838B839C8369817A811D
:104890008B819C810E94A72A609305028D81082E3E
:1048A000000C990BAA0BBB0B89839A83AB83BC8347
:1048B000BC01CD010E94DF2A23E333E343E35FE33E
:1048C00069837A838B839C8369817A818B819C81C4
:1048D0000E94432B69837A838B839C8369817A81CD
:1048E0008B819C810E94A72A60930602111624F4F2
:1048F0000E941122809307028091070287FF05C062
:104900000E9411228195809307029E81191624F43A
:104910000E941122809308028091080287FF05C03F
:104920000E94112281958093080226960FB6F89472
:10493000DEBF0FBECDBFDF91CF911F910C9431230D
:104940008F3F09F057CF68CF85E0E4E0F2E0DF0168
:104950001D928A95E9F710920302109202020895BF
:1049600085EB9AE00E94340888EA9AE00E943408B5
:104970008BE99AE00C94340888E19AE00E943408AC
:104980008BE09AE00E94340880EF99E00E9434089E
:1049900085ED99E00E9434088DEB99E00E9434087F
:1049A00083EA99E00E94340885E899E00E9434087F
:1049B00085E699E00E94340880E599E00E94340879
:1049C00089E399E00E9434088CE199E00E94340860
:1049D0008DEF98E00E9434088DED98E00E94340835
:1049E0008BEB98E00E94340886E898E00E94340837
:1049F00081E798E00E9434081F9285E08F938EE64D
:104A000098E09F938F930E94CD0885E698E00E94DE
:104A100034081F9281E08F9382E698E09F938F93F2
:104A20000E94CD0880E698E00E9434088DB79EB7BA
:104A300008960FB6F8949EBF0FBE8DBF83E398E033
:104A40000C943408843009F480C040F4823099F129
:104A5000833009F455C0813041F00895853009F460
:104A600099C0863009F4BBC0089580911401482F85
:104A7000460F5527551F4F3F5105CCF4680F6093E3
:104A800014018FE097E00E943408809114011F9276
:104A90008F938CE097E09F938F930E94CD080F90A7
:104AA0000F900F900F908AE097E00C9434088FEFEE
:104AB00080931401E6CF80911301482F460F5527AC
:104AC000551F4F3F5105C4F4680F609313018BEFDE
:104AD00096E00E943408809113011F928F9388EF13
:104AE00096E09F938F930E94CD080F900F900F90A8
:104AF0000F9086EF96E0D9CF8FEF80931301E7CF29
:104B000080911201482F460F5527551F4F3F5105E1
:104B1000C4F4680F6093120186EE96E00E94340898
:104B2000809112011F928F9383EE96E09F938F9353
:104B30000E94CD080F900F900F900F9081EE96E09D
:104B4000B4CF8FEF80931201E7CF80911101482FEE
:104B5000460F5527551F4F3F5105C4F4680F60930A
:104B600011018FEC96E00E943408809111011F9290
:104B70008F938CEC96E09F938F930E94CD080F90BB
:104B80000F900F900F908AEC96E08FCF8FEF80936D
:104B90001101E7CF80911001482F460F5527551F6F
:104BA0004F3F5105C4F4680F6093100184EB96E009
:104BB0000E943408809110011F928F9381EB96E040
:104BC0009F938F930E94CD080F900F900F900F909E
:104BD0008FEA96E06ACF8FEF80931001E7CF809144
:104BE0000F01482F460F5527551F4F3F5105C4F45D
:104BF000680F60930F0187E996E00E943408809166
:104C00000F011F928F9384E996E09F938F930E94E8
:104C1000CD080F900F900F900F9082E996E045CF4E
:104C20008FEF80930F01E7CF843009F46EC040F41A
:104C3000823069F1833009F449C0813041F0089530
:104C4000853009F481C0863009F49DC008958091B3
:104C500014016817C8F4861B8093140186E896E057
:104C60000E943408809114011F928F9383E896E08C
:104C70009F938F930E94CD080F900F900F900F90ED
:104C800081E896E00C94340810921401E7CF8091EB
:104C900013016817C0F4861B8093130182E796E026
:104CA0000E943408809113011F928F938FE696E043
:104CB0009F938F930E94CD080F900F900F900F90AD
:104CC0008DE696E0DFCF10921301E8CF80911201BC
:104CD0006817C0F4861B809312018DE596E00E9450
:104CE0003408809112011F928F938AE596E09F937A
:104CF0008F930E94CD080F900F900F900F9088E532
:104D000096E0C0CF10921201E8CF80911101681790
:104D1000C0F4861B8093110186E496E00E9434085B
:104D2000809111011F928F9383E496E09F938F935C
:104D30000E94CD080F900F900F900F9081E496E0A5
:104D4000A1CF10921101E8CF809110016817C0F433
:104D5000861B809310018BE296E00E9434088091BC
:104D600010011F928F9388E296E09F938F930E9489
:104D7000CD080F900F900F900F9086E296E082CFB3
:104D800010921001E8CF80910F016817C0F4861BC4
:104D900080930F018EE096E00E94340880910F010D
:104DA0001F928F938BE096E09F938F930E94CD0884
:104DB0000F900F900F900F9089E096E063CF1092C4
:104DC0000F01E8CFCF93DF9300D000D00F92CDB783
:104DD000DEB78D8384E89AE00E9434082091E201D6
:104DE0003091E3014091E4015091E501CA01B9011C
:104DF0000E949E201F928F9381E89AE09F938F9349
:104E00000E94CD088CE79AE00E9434081F923D81F1
:104E10003F9389E79AE09F938F930E94CD0887E79D
:104E20009AE00E94340881E090E0A0E0B0E09C01AC
:104E3000AD010D8004C0220F331F441F551F0A947B
:104E4000D2F729833A834B835C83CA01B9010E945C
:104E5000331D0FB6F894DEBF0FBECDBF0F900F907D
:104E60000F900F900F90DF91CF910C94A219CF93D8
:104E7000863358F4863098F0EAEFE80FE03378F4A0
:104E8000F0E0E65CF34D0C94EC2B863470F48A333E
:104E900008F086C1883309F44BC0893359F189EC95
:104EA0009CE00E943408C0E054C1863409F457C124
:104EB0008834A9F70E94A21987E29FE00E94340873
:104EC0002FEF83ED90E3215080409040E1F700C048
:104ED00000000E94A52187E19FE01EC08DE69FE0B3
:104EE0000E9434080E94612A0E94FD130E949B0CBC
:104EF000C1E02FC10E94F813892B89F00E94F8139A
:104F000090930B0280930A020E94A21990E080E025
:104F10000E94F31384E69FE00E943408E9CF809159
:104F20000A0290910B020E94F31389E59FE0F4CFEF
:104F30008DEA9CE00E94340886E99CE00E943408D7
:104F40008EE79CE00E94340886E69CE00E943408CC
:104F50008CE49CE00E94340885E39CE00E943408C5
:104F60008BE19CE00E9434088BEF9BE00E943408A8
:104F700085EE9BE00E94340884ED9BE00E9434089B
:104F80008CEB9BE00E9434088CEA9BE00E94340882
:104F900082E99BE00E94340889E79BE00E94340884
:104FA00080E69BE00E94340887E49BE00E9434087E
:104FB0008EE29BE00E9434088DE09BE00E94340862
:104FC0008BEE9AE00E94340881ED9AE0A5CF8091A3
:104FD000F901807F8093F9010E94B02484E49FE06E
:104FE0000E94340880E49FE00E94340881E08093AE
:104FF00009027ECF8091F90180FF0AC084E09FE022
:105000000E9434088091F901807F8093F90170CF6C
:1050100082EF9EE00E9434088091F9018160F5CF13
:105020009091F901892F8D7F91FF82608093F90122
:1050300081FF03C089ED9EE0EDCF8FEB9EE06CCF4A
:105040009091F901892F8B7F92FF84608093F90101
:1050500082FF03C084EA9EE0DDCF88E89EE05CCF5B
:105060009091F901892F877F93FF88608093F901E0
:1050700083FF03C080E79EE0CDCF87E59EE04CCF65
:1050800080E49EE00E9434088DE19EE00E94340896
:105090008AEE9DE00E9434088DEB9DE00E9434086A
:1050A00083E89DE00E94340888E59DE035CF80913B
:1050B000FC019091FD01A091FE01B091FF01BF9311
:1050C000AF939F938F9384E49DE09F938F930E946F
:1050D000CD080F900F900F900F900F900F9008CF6A
:1050E0008EE29DE00E9434080E94FD131F928F9370
:1050F00084E19DE09F938F930E94CD0880910B01E6
:105100001F928F938DEF9CE09F938F930E94CD0809
:10511000809170011F928F938AEE9CE09F938F93F2
:105120000E94CD088DB79EB70C960FB6F8949EBF1F
:105130000FBE8DBFDDCE0E94A219C0910C0181E08F
:10514000C827C0930C01CC2339F08BED9CE00E9462
:1051500034088C2FCF9108958BEC9CE0DDCE81E854
:1051600090E00E9460149FEF21EE84E09150204077
:105170008040E1F700C0000090E080E00E946014F1
:105180009FEF29E688E1915020408040E1F700C080
:105190000000AECE80E00E94E226AACE8D51FBCF69
:1051A0008953F9CF80E008950C94D228CF93C82F6B
:1051B000809109028130C1F0823009F452C081111E
:1051C0005EC1E0910D01F0910E018081823209F003
:1051D00058C18C2F0E94D22881111EC08C2F0E9492
:1051E00037278170CF910895E0910D01F0910E0164
:1051F0008081823271F38C2F0E94D428811119C0D2
:10520000C431C9F060F4CB3071F0C031E1F080E41A
:105210009AE00E94340815C081E090E0E2CFC932E4
:1052200051F0C833A1F70E94B02483E79AE00E94AE
:10523000340881E0D6CF8FE59AE00E9434081092BE
:10524000090280E0CECF0E94BC2486E49AE00E944E
:10525000340882E49AE00E94340882E080930902D4
:10526000E8CFC93209F465C008F04AC0C33109F477
:105270006EC060F4C73009F4EBC0CB3009F456C0FF
:1052800086EE97E00E94340881E0ACCFC43109F487
:1052900050C0CE51CA30A0F7EC2FF0E0E25DFE4FD7
:1052A000808180930C0282E098E00E943408809113
:1052B0000C021F928F938FEF97E09F938F930E9422
:1052C000CD088DEF97E00E9434080F900F900F905B
:1052D0000F9084EE97E00E94340880910C021F9298
:1052E0008F9381EE97E09F938F930E94CD088EED70
:1052F00097E00E9434080F900F900F900F90C4CF4A
:10530000CE3409F4A3C058F4C83381F06AE0CB343A
:1053100009F0B6CF80910C020E942225DACFC13568
:1053200009F48EC061E0C235A9F3AACF0E94BC2463
:10533000D0CF10920C028BE198E00E94340887E1F4
:1053400098E00E94340881E0809309024BCF8BEBF8
:1053500097E00E94340886EA97E00E943408809122
:1053600014011F928F9383EA97E09F938F930E947B
:10537000CD0881EA97E00E9434088CE897E00E940B
:105380003408809113011F928F9389E897E09F93CF
:105390008F930E94CD0887E897E00E94340885E744
:1053A00097E00E943408809112011F928F9382E748
:1053B00097E09F938F930E94CD0880E797E00E942B
:1053C00034088CE597E00E943408809111011F9207
:1053D0008F9389E597E09F938F930E94CD0887E58F
:1053E00097E00E9434088FE397E00E943408809190
:1053F00010011F928F938CE397E09F938F930E94ED
:10540000CD088AE397E00E94340880E297E00E948A
:10541000340880910F011F928F938DE197E09F9345
:105420008F930E94CD088BE197E00E9434088DB7DE
:105430009EB748960FB6F8949EBF0FBE8DBF49CF5A
:1054400061E080910C020E94142643CF6AE0F9CFFC
:105450008EE18093140182E3809313018AE08093AC
:10546000120184E18093110188E08093100188E2A9
:1054700080930F0188EE97E00E9434082ACF1092A3
:10548000090280E0AFCEE1E8F0E0808188608083AF
:105490008081816080838FB7F89493E09093890036
:1054A00090ED909388008FBF0895EFE6F0E0808143
:1054B000826080830895EFE6F0E080818D7F8083B5
:1054C0000895EFE6F0E0808192E0892780830895D7
:1054D0001F920F920FB60F9211242F933F934F9369
:1054E0005F936F937F938F939F93AF93BF93EF934C
:1054F000FF9380910D0290910E02019690930E02FF
:1055000080930D02811103C082E00E949B0CE09108
:105510000E02E695E695F0E0E358F04FE4918091B5
:105520000D028E1303C080E00E949B0CFF91EF914F
:10553000BF91AF919F918F917F916F915F914F91AB
:105540003F912F910F900FBE0F901F9018950E94C2
:10555000AE2A6894B1110C943D2B08950E94222B21
:1055600088F09F5798F0B92F9927B751B0F0E1F024
:10557000660F771F881F991F1AF0BA95C9F714C0D4
:10558000B13091F00E943C2BB1E008950C943C2B7B
:10559000672F782F8827B85F39F0B93FCCF386950D
:1055A00077956795B395D9F73EF49095809570956A
:1055B00061957F4F8F4F9F4F0895E89409C097FBE7
:1055C0003EF490958095709561957F4F8F4F9F4FDA
:1055D0009923A9F0F92F96E9BB279395F69587951E
:1055E00077956795B795F111F8CFFAF4BB0F11F4E1
:1055F00060FF1BC06F5F7F4F8F4F9F4F16C0882388
:1056000011F096E911C0772321F09EE8872F762FBD
:1056100005C0662371F096E8862F70E060E02AF0FE
:105620009A95660F771F881FDAF7880F96958795EA
:1056300097F9089557FD9058440F551F59F05F3F53
:1056400071F04795880F97FB991F61F09F3F79F0A4
:1056500087950895121613061406551FF2CF469526
:10566000F1DF08C0161617061806991FF1CF8695A8
:105670007105610508940895E894BB27662777278C
:10568000CB0197F908950E94562B0C94C72B0E94CA
:10569000B92B38F00E94C02B20F0952311F00C9408
:1056A000B02B0C94B62B11240C943D2B0E941A2B7A
:1056B00070F3959FC1F3950F50E0551F629FF00165
:1056C000729FBB27F00DB11D639FAA27F00DB11D7E
:1056D000AA1F649F6627B00DA11D661F829F222707
:1056E000B00DA11D621F739FB00DA11D621F839F8E
:1056F000A00D611D221F749F3327A00D611D231F64
:10570000849F600D211D822F762F6A2F11249F57B1
:1057100050409AF0F1F088234AF0EE0FFF1FBB1FB4
:10572000661F771F881F91505040A9F79E3F510573
:1057300080F00C94B02B0C943D2B5F3FE4F3983E2B
:10574000D4F3869577956795B795F795E7959F5F1D
:10575000C1F7FE2B880F911D9695879597F90895AF
:1057600097F99F6780E870E060E008959FEF80EC14
:10577000089500240A9416161706180609060895B7
:1057800000240A9412161306140605060895092E1D
:105790000394000C11F4882352F0BB0F40F4BF2B8C
:1057A00011F460FF04C06F5F7F4F8F4F9F4F0895CC
:1057B00097FB072E16F4009407D077FD09D00E94BE
:1057C000F22B07FC05D03EF4909581959F4F0895EC
:1057D000709561957F4F0895EE0FFF1F0590F4912E
:1057E000E02D0994AA1BBB1B51E107C0AA1FBB1FD8
:1057F000A617B70710F0A61BB70B881F991F5A955D
:10580000A9F780959095BC01CD010895F894FFCF3C
:10581000DA0ADE0ADC0AFB0AFD0AFF0A010B030BA7
:10582000050B070B090B770B040C070C0A0C0D0C6E
:10583000100C130C160C190C1C0C1F0C220C250C34
:10584000B712DC12C013DC12C0130C132D13C013DB
:1058500082138E138F168F16CB16CB164B1781170C
:105860007F167F169A177F16B618B6184C197F1632
:105870007F166319E727FA274F274F274F279827C7
:105880004F274F2720284F2730289B284F274F2767
:105890004F274F27702857284F2740284F27102879
:1058A0004F276E27CE28CE28CE28CE28CE28CE2829
:1058B000CE28CE28CE28CA284F27CA284F274F27C0
:1058C0004F274F274F274F274F274F274F274F2728
:0458D0004F27CA286C
:1058D40005A20C810D5E0D2A0DF70C0101E70128CC
:1058E40008140A321E3F4D3620391005C3048D04B6
:1058F4006D043404A703C003D903F20312040102A4
:08590400030405060708090071
:00000001FF
