:100000000C9454080C949B080C949B080C949B082B
:100010000C949B080C949B080C949B080C949B08D4
:100020000C949B080C949B080C9452120C949B0803
:100030000C949B080C949B080C949B080C949B08B4
:100040000C949B080C94CD2A0C949B080C949B0850
:100050000C949B080C9429220C949B080C949B08EC
:100060000C949B080C949B080C949B080C949B0884
:100070000C949B080C949B080C949B080C949B0874
:100080000C949B080C949B080C949B080C949B0864
:100090000C949B080C949B080C949B080C949B0854
:1000A0000C949B080C949B080C949B08510B550BCB
:1000B000530B720B740B760B780B7A0B7C0B7E0B4D
:1000C000800BEC0BEF0BF20BF50BF80BFB0BFE0BA5
:1000D000010C040C070C0A0C0D0C100C48136A13CD
:1000E00058146A135814AF13D213581427143A141F
:1000F0004717471776177617D0170E18171A171ABB
:100100002718171A28192819EB19171A171A021A7B
:1001100015283D28292929292929C62729292929B6
:100120006A2829297E28F4282929292929292929E1
:10013000C928B028292999282929562829299C27FE
:10014000232923292329232923292329232923294F
:100150002329212929292129292929292929292925
:100160002929292929292929292929292929212907
:1001700029292929C627A7272529252925292529E8
:1001800025292529252925292529252925292529FF
:100190000629292929286E6F7420737570706F7273
:1001A0007465642E0A004A756D7020746F20626F4A
:1001B0006F746C6F616465722E2E2E200000000239
:1001C0008AF0A2F1A3F1A1000000000000000000ED
:1001D0000000000000000000F002F001F00000004C
:1001E00000000006F003F005F0000004F008F0093C
:1001F000F00AF007F0142B04CD1D4F311E001AE059
:1002000016521B50001F000800070006003D20008A
:100210001517090A1905222100181C0D0B101123AE
:1002200024000C300E0036002E250012000F00377F
:1002300000002600132F333400382D2700E600E39A
:10024000C200C300000000352A00280000000000A2
:1002500000002C005100000000E1E500000000005B
:10026000000000000000000000C4000000000000CA
:100270000000C4140104011D01011E00D901160172
:100280001B01001F000800D7000600012000151701
:10029000D50A19D4222100D8DA0DD3101123240055
:1002A0000C01DB00010001250012010F000101001B
:1002B00026001301010100010127000100010100D6
:1002C0000100000000010100010001000000000029
:1002D000010001000000000101000000000000001A
:1002E000000000000000000100000000000000000D
:1002F0000100014A0100009A3A00000100000000DC
:10030000003B004D004E000000013C0000000000DA
:1003100000003E3D004B00515000003F40000000F7
:100320005200000045410000014F00000000420063
:100330000000000000004443000100010100010032
:10034000000000004C0000000000000000002C0035
:10035000000000000001010000000000000000009B
:10036000000000000001000000000000000001008B
:100370000100CF0000006900000100000000006AD9
:10038000005200000000000100000000D100000049
:10039000000000000049004C0000AC0000004A00D2
:1003A0004D00A9AE0000014B004E0000AB00000064
:1003B0002A000000AAA800010001010001000000BD
:1003C00000B0000000000000000000002C00000051
:1003D00000000039010000000000000000000000E3
:1003E000000000010000000000000000010A0025DC
:1003F00030313662003A200025303258000A722F20
:100400006320303132333435363738394142434452
:1004100045460A000A002530325800626F756E6347
:1004200065213A20005B735D004B6579626F6172F4
:10043000642073746172742E0A0055534220636FF6
:100440006E666967757265642E0A005B575D005BB6
:10045000535D005B525D005B445D005B435D000AE1
:10046000034D004C003600370000000E036A0068A0
:1004700000690067006700730000000403090409B5
:10048000028D00050100A0320904000001030101F2
:1004900000092111010001223F0007058103080026
:1004A0000A090401000103010200092111010001F0
:1004B000224D000705820308000A09040200010317
:1004C0000000000921110100012236000705830305
:1004D00008000A09040300020300000009211101B9
:1004E0000001222000070584032000010705040302
:1004F000200001090404000103000000092111018A
:1005000000012239000705850310000112011001C6
:1005100000000008EDFE616001000102000105011C
:100520000906A101050719E029E71500250195082D
:1005300075018102050819012905950575019102CA
:10054000950175039101050719002977150025010B
:10055000957875018102C00631FF0974A101097502
:10056000150025FF9520750881020976150025FFE5
:10057000952075089102C005010980A10185021628
:10058000010026B7001A01002AB7007510950181F5
:1005900000C0050C0901A1018503160100269C027B
:1005A0001A01002A9C02751095018100C0050109FD
:1005B00002A1010901A1000509190129051500255C
:1005C00001950575018102950175038101050109F8
:1005D0003009311581257F95027508810609381586
:1005E00081257F950175088106050C0A3802158161
:1005F000257F950175088106C0C005010906A10186
:10060000050719E029E71500250195087501810204
:1006100095017508810105081901290595057501E0
:1006200091029501750391010507190029FF150035
:1006300025FF950675088100C00A00253032582034
:10064000006B6579626F6172645F7265706F72745E
:100650003A20000A0025303258006B6579626F61DC
:1006600072645F7365745F6C65643A200064656CE6
:100670005F6B65795F6269743A2063616E277420ED
:1006800064656C3A20253032580A006164645F6BFF
:1006900065795F6269743A2063616E2774206164D2
:1006A000643A20253032580A00290A002575002FA7
:1006B000002575005D2800256400200025640020C9
:1006C0000025640020002564007C0025303258009D
:1006D0006D6F7573656B6579205B62746E7C7820D5
:1006E00079207620685D287265702F61636C293AE5
:1006F000205B000A002575006D6B5F776865656C8F
:100700005F74696D655F746F5F6D6178203D200077
:100710000A002575006D6B5F776865656C5F6D61BC
:10072000785F7370656564203D20000A00257500C0
:100730006D6B5F74696D655F746F5F6D6178203D8F
:1007400020000A002575006D6B5F6D61785F737026
:10075000656564203D20000A002575006D6B5F69AA
:100760006E74657276616C203D20000A002575006C
:100770006D6B5F64656C6179203D20000A00257512
:10078000006D6B5F776865656C5F74696D655F743C
:100790006F5F6D6178203D20000A002575006D6B4C
:1007A0005F776865656C5F6D61785F7370656564C0
:1007B000203D20000A002575006D6B5F74696D6532
:1007C0005F746F5F6D6178203D20000A0025750021
:1007D0006D6B5F6D61785F7370656564203D2000AF
:1007E0000A002575006D6B5F696E74657276616CC9
:1007F000203D20000A002575006D6B5F64656C610B
:1008000079203D20000A00257500363A206D6B5F87
:10081000776865656C5F74696D655F746F5F6D6146
:10082000783A20000A00257500353A206D6B5F7715
:100830006865656C5F6D61785F73706565643A20AB
:10084000000A00257500343A206D6B5F74696D6590
:100850005F746F5F6D61783A20000A002575003380
:100860003A206D6B5F6D61785F73706565643A20E7
:10087000000A00257500323A206D6B5F696E746561
:100880007276616C286D73293A20000A0025750084
:10089000313A206D6B5F64656C6179282A31306D67
:1008A00073293A20000A0A2D2D2D2D2D204D6F750C
:1008B00073656B657920506172616D6574657273E3
:1008C000202D2D2D2D2D0A003E20002575004D00D8
:1008D0003F007365742064656661756C7420766191
:1008E0006C7565732E0A000A0025750073656C65CA
:1008F0006374656420706172616D657465723A201D
:1009000000433E20000A51756974204D6F75736570
:100910006B657920436F6E736F6C650A0053656574
:1009200020687474703A2F2F656E2E77696B69702A
:10093000656469612E6F72672F77696B692F4D6FE0
:100940007573655F6B6579730A000A002575002C65
:1009500020776865656C3D00257500776865726570
:100960002064656C74613A20637572736F723D0028
:100970000A7370656564203D2064656C7461202A8B
:10098000206D61785F7370656564202A2028726528
:1009900070656174202F2074696D655F746F5F6D81
:1009A0006178290A007067646F776E3A096465633D
:1009B000726561736520706172616D6574657273D3
:1009C000282D3130290A00706775703A09696E6305
:1009D000726561736520706172616D6574657273B3
:1009E000282B3130290A00646F776E3A09646563F9
:1009F000726561736520706172616D657465727393
:100A0000282D31290A0075703A09696E6372656193
:100A1000736520706172616D6574657273282B3126
:100A2000290A00643A097365742064656661756C0F
:100A3000742076616C7565730A00703A097072698A
:100A40006E7420706172616D65746572730A003630
:100A50003A0973656C656374206D6B5F77686565D3
:100A60006C5F74696D655F746F5F6D61780A0035E6
:100A70003A0973656C656374206D6B5F77686565B3
:100A80006C5F6D61785F73706565640A00343A0964
:100A900073656C656374206D6B5F74696D655F74FD
:100AA0006F5F6D61780A00333A0973656C65637432
:100AB000206D6B5F6D61785F73706565640A0032ED
:100AC0003A0973656C656374206D6B5F696E74655C
:100AD0007276616C286D73290A00313A0973656C6E
:100AE000656374206D6B5F64656C6179282A3130B1
:100AF0006D73290A004553432F713A097175697462
:100B00000A000A0A2D2D2D2D2D204D6F7573656B52
:100B1000657920506172616D6574657273204865F6
:100B20006C70202D2D2D2D2D0A003F004D303E00E4
:100B30000A456E746572204D6F7573656B6579201B
:100B4000436F6E736F6C650A000A517569742043B8
:100B50006F6E736F6C65204D6F64650A00433E20B5
:100B6000000A0025750020746F200025750073773A
:100B7000697463685F64656661756C745F6C6179E4
:100B800065723A20006D3A096D6F7573656B657912
:100B90000A004553432F713A09717569740A000AB6
:100BA0000A2D2D2D2D2D20436F6E736F6C652048FF
:100BB000656C70202D2D2D2D2D0A00506175733A16
:100BC000096A756D7020746F20626F6F746C6F614D
:100BD0006465720A00436170733A094C6F636B205D
:100BE0004B6579626F617264284368696C64205058
:100BF000726F6F66290A00505363723A09706F77FB
:100C0000657220646F776E2F72656D6F74652077E3
:100C1000616B652D75700A00342F46343A0973777D
:100C20006974636820746F204C6179657234200A9E
:100C300000332F46333A0973776974636820746F01
:100C4000204C6179657233200A00322F46323A090E
:100C500073776974636820746F204C6179657232B0
:100C6000200A00312F46313A09737769746368208E
:100C7000746F204C6179657231200A00302F463143
:100C8000303A0973776974636820746F204C617916
:100C9000657230200A006E3A09746F67676C6520D0
:100CA0004E4B524F0A00653A097072696E742065A6
:100CB0006570726F6D20636F6E6669670A00733AC4
:100CC000097072696E74207374617475730A0074AC
:100CD0003A097072696E742074696D657220636F71
:100CE000756E740A00763A097072696E74206465D4
:100CF000766963652076657273696F6E2026206958
:100D00006E666F0A007A3A09746F67676C652073C4
:100D10006C656570204C454420746573740A006DE1
:100D20003A09746F67676C65206D6F757365206431
:100D3000656275670A006B3A09746F67676C6520B6
:100D40006B6579626F6172642064656275670A0021
:100D5000783A09746F67676C65206D6174726978A1
:100D60002064656275670A00643A09746F67676C8E
:100D70006520646562756720656E61626C650A0056
:100D8000633A09656E74657220636F6E736F6C658C
:100D9000206D6F64650A000A0A2D2D2D2D2D20432C
:100DA0006F6D6D616E642048656C70202D2D2D2D4A
:100DB0002D0A003F004E4B524F3A20646973616226
:100DC0006C65640A004E4B524F3A20656E61626C4E
:100DD00065640A006B6579626F6172645F69646C57
:100DE000653A2025580A006B6579626F6172645F0D
:100DF00070726F746F636F6C3A2025580A00686FC9
:100E000073745F6B6579626F6172645F6C65647344
:100E100028293A2025580A000A0A2D2D2D2D2D208B
:100E2000537461747573202D2D2D2D2D0A00746956
:100E30006D65725F636F756E743A202530346C583F
:100E40000A004743433A20342E392E32204156526D
:100E50002D4C4942433A20322E302E3020415652FA
:100E60005F415243483A20617672350A004F505430
:100E7000494F4E533A204C554641204D4F5553450E
:100E80004B45592045585452414B455920434F4EEC
:100E9000534F4C4520434F4D4D414E44204E4B52F5
:100EA0004F203531320A004255494C443A203632FF
:100EB00066666437362D6469727479202831333A56
:100EC00035393A3238204170722032372032303191
:100ED00039290A005649443A203078464545442885
:100EE0006A686967677329205049443A2030783628
:100EF000303631284D4C363729205645523A20306D
:100F000078303030310A00444553433A20542E4D56
:100F10002E4B2E204861636B65642046696C636FBD
:100F2000204D696E696C612E0A000A0A2D2D2D2D47
:100F30002D2056657273696F6E202D2D2D2D2D0A73
:100F4000000A44454255473A206D6F757365206429
:100F5000697361626C65642E0A000A444542554714
:100F60003A206D6F75736520656E61626C65642EE5
:100F70000A000A44454255473A206B6579626F6121
:100F800072642064697361626C65642E0A000A44AD
:100F9000454255473A206B6579626F6172642065FE
:100FA0006E61626C65642E0A000A44454255473AF8
:100FB000206D61747269782064697361626C656424
:100FC0002E0A000A44454255473A206D6174726901
:100FD0007820656E61626C65642E0A000A444542A1
:100FE00055473A20656E61626C65642E0A000A44BA
:100FF000454255473A2064697361626C65642E0A04
:10100000006E6F7420737570706F727465642E0A51
:10101000000A0A4A756D7020746F20626F6F746CDD
:101020006F616465722E2E2E2000433E20000A451B
:101030006E74657220436F6E736F6C65204D6F64C4
:10104000650A00556E6C6F636B65642E0A004C6F09
:10105000636B65642E0A00536C656570204C4544D3
:1010600020746573740A0000000000000000000096
:101070000000010204060A0F17202C3A4A5D71870E
:101080009DB3C7DAE9F5FCFFFCF5E9DAC7B39D8744
:10109000715D4A3A2C20170F0A0604020100000075
:1010A000000000000000000011241FBECFEFDAE0B6
:1010B000DEBFCDBF04B603FE27C080911D02909114
:1010C0001E02A0911F02B09120028730904BA740D2
:1010D000B04BD1F410921D0210921E0210921F020A
:1010E0001092200214BE84B7877F84BF0FB6F89495
:1010F000A8958091600088618093600010926000E4
:101100000FBEE0E0FFE3099511E0A0E0B1E0EAEDF9
:10111000F8E502C005900D92A833B107D9F722E097
:10112000A8E3B1E001C01D92AD31B207E1F70E9422
:101130007C0F0C946B2C0C940000FF93EF93E091C8
:10114000FB01F091FC01309709F00995EF91FF91B7
:101150000895FC018591803011F0EFDFFBCF0895F9
:10116000FF27E0E230E247FF0CC0419597FF09C03E
:10117000EDE26095709580959095611D711D811DC2
:10118000911D27FF02C0219530E350E2AA27660F88
:10119000771F881F991FAA1FA41710F0A41B63951F
:1011A0005A95A9F7AA3008F0A95FA05DAF93F3950F
:1011B000611571058105910541F7ED3211F4EF9349
:1011C000F395F21718F43F93F395FBCF8F91B5DFAA
:1011D000FA95E1F70895E991F9918591803021F030
:1011E000853219F0AADFF9CF089520E0E8945591EF
:1011F0005532C1F3503311F4689455915A3348F481
:10120000505390F3220F022E220F220F200D250F94
:10121000F4CF0EF4219589919991533619F35337F0
:1012200029F1533559F1BC0188279927E8945C3698
:1012300021F48991999168945591543639F446EF87
:101240007EF077FF0DC08FEF9FEF0AC055374AE061
:1012500039F0583540E121F0523642E009F0089566
:10126000FF93EF937DDFEF91FF91B7CFFF93EF9364
:10127000FC0181918030B9F360DFFBCFFF93EF93E6
:1012800068DFF1CFDF93CF93CDB7DEB72596A3DF2D
:10129000CF91DF91089508950895CF930E9408207B
:1012A000C82F0E94182088E00E940B208BE10E942A
:1012B0006D1F0E9442200E9418208C2FCF910C9409
:1012C0000B20CF930E940820C82F0E94182088E08E
:1012D0000E940B2089E10E946D1F0E9442200E9403
:1012E00018208C2FCF910C940B20CF930E940820B4
:1012F000C82F0E94182084E00E940B2080E50E94E5
:101300006D1F0E9442200E9418208C2FCF910C94B8
:101310000B20CF930E940820C82F0E94182084E041
:101320000E940B208FE40E946D1F0E9442200E94A9
:1013300018208C2FCF910C940B20CF930E94082063
:10134000C82F0E9418208CE40E946D1F0E9442202A
:101350008C2FCF910C940B20CF930E940820C82F84
:101360000E94182080E40E940B2082E00E940B2043
:101370008FE40E946D1F0E9442200E9418200E944C
:101380004D090E9442208C2FCF910C940B20CF93BB
:101390000E940820C82F0E94182082E00E940B2083
:1013A00088E00E940B208FE40E946D1F0E94422063
:1013B0000E9418200E944D090E9442208C2FCF913C
:1013C0000C940B20CF930E940820C82F0E94182055
:1013D00082E00E940B2084E00E940B2080E50E94A6
:1013E0006D1F0E9442200E9418200E944D090E94F9
:1013F00042208C2FCF910C940B20CF930E94082079
:10140000C82F0E94182082E00E940B2088E00E94D2
:101410000B2080E50E946D1F0E9442200E94182030
:101420000E944D090E9442208C2FCF910C940B20DA
:101430000E94082080FD05C00E94082082958170CE
:1014400001C081E0817008950E94082081FD06C0DE
:101450000E94082085FB882780F901C081E0817007
:1014600008950E94082082FD06C00E94082086FB85
:10147000882780F901C081E0817008950E940820CA
:1014800083FD0AC00E940820082E000C990B892FAA
:10149000881F8827881F089581E00895882351F0C8
:1014A00084E00E940B2086E30E946D1F0E94422070
:1014B0000C94391A0895882379F00E94240A88230D
:1014C00011F085E305C00E943E0A8111FACF89E23E
:1014D0000E946D1F0C9442200C94271A882361F0FF
:1014E0000E94310A882319F00E94750903C085E023
:1014F0000E946D1F0C9442200C94271A882361F0DF
:101500000E94310A882319F00E94890903C089E0EA
:101510000E946D1F0C9442200C94271ACF93DF93E6
:10152000D82F0E940820C82FDD23A1F00E94180A9E
:10153000882319F00E949D090AC00E94310A88235D
:1015400019F00E94AC0903C087E00E946D1F0E9441
:10155000422002C00E94271A8C2FDF91CF910C9459
:101560000B20CF93DF93D82F0E940820C82FDD23B4
:1015700069F00E94180A882319F00E94FD0903C02F
:1015800088E10E946D1F0E94422002C00E94271A1B
:101590008C2FDF91CF910C940B20CF93DF93D82F1A
:1015A0000E940820C82FDD2369F00E94180A8823B2
:1015B00019F00E94E20903C08AE10E946D1F0E9497
:1015C000422002C00E94271A8C2FDF91CF910C94E9
:1015D0000B20CF93DF93D82F0E940820C82FDD2344
:1015E00069F00E94180A882319F00E94C70903C0F5
:1015F0008EE00E946D1F0E94422002C00E94271AA6
:101600008C2FDF91CF910C940B20CF93DF93D82FA9
:101610000E940820C82FDD2369F00E94180A882341
:1016200019F00E94610903C08CE10E946D1F0E94A5
:10163000422002C00E94271A8C2FDF91CF910C9478
:101640000B20CF93DF93D82F0E940820C82FDD23D3
:10165000A9F00E94180A882359F00E9418208AE2F3
:101660000E946D1F0E9442208C2F0E940B2003C0FD
:101670008BE00E946D1F0E94422002C00E94271A28
:101680008C2FDF91CF910C940B20FC018281462F8F
:1016900050E04B305105B0F5FA01EA5AFF4F0C9477
:1016A000512C0C945B0A0C944E0A0E94391A8091BA
:1016B000F90180FF04C086EA91E00E94A908FFEFCB
:1016C00020E782E0F15020408040E1F700C00000B8
:1016D0000E944E228091F90180FF14C086E991E0BA
:1016E0000C94A9080C946E0A0C948E0A0C947E0A31
:1016F0000C94210B0C94E90A0C94B10A0C94CD0AB9
:101700000C94050B089599E0799FF00111249EE750
:10171000899FE00DF11D1124E60FF11DEB50FE4FE6
:1017200084910895E82FF0E0EE0FFF1FE35CFF4F78
:1017300085919491089584B1807784B985B180773B
:1017400085B96E9876988AB1807D8AB98BB1807D93
:101750008BB987B18F7387B988B18F7388B90895B2
:101760000E949B0B80B38C7080BB81B3836F81BB65
:1017700084B18F7984B985B1806685B954985C9AB3
:10178000E4E5F1E0A8E3B1E0119211921D921D92FF
:1017900081E0E037F807C1F70895BF92CF92DF925A
:1017A000EF92FF920F931F93CF93DF9308E311E023
:1017B000E801D12CCC24C39445E0B42E56E1E52EAB
:1017C00054E0F52E8D2D90E08D30910558F5FC01FB
:1017D000EF59FF4F0C94512C209A289823C0219A3E
:1017E000299820C0229A2A981DC0239A2B981AC0A3
:1017F000279A2F9817C0509A589814C0519A599800
:1018000011C0529A5A980EC0539A5B980BC03E9AD8
:10181000469808C03F9A479805C0559A5D9802C0FF
:101820006E9A769880EA8A95F1F78FB181708C254F
:1018300090E0799903C022E030E002C020E030E07F
:10184000822B932B7C9903C064E070E002C060E0BF
:1018500070E0862B972B7D9903C068E070E002C092
:1018600060E070E0862B972B7E9903C020E130E08A
:1018700002C020E030E0AC01422B532B2FB1022EEE
:10188000000C330B20953095C9018827990F881FCC
:10189000992735E0880F991F3A95E1F7842B952B0E
:1018A0001E9903C020E430E002C020E030E0822B2B
:1018B000932B1D9903C020E830E002C020E030E007
:1018C000822B932B4C9903C020E031E002C020E032
:1018D00030E0822B932B288139812817390741F179
:1018E0009983888380910001882301F18091F90117
:1018F00080FF04C08BE194E00E94A9088091F90167
:1019000080FF0CC0809100011F928F93FF92EF9295
:101910000E9442090F900F900F900F908091F90153
:1019200080FF04C084E194E00E94A908B092000105
:101930000E949B0BD39422969EE0D91243CF8091B4
:1019400000018823C1F0815080930001882339F081
:10195000AFE9BFE01197F1F700C000000CC0E4E56B
:10196000F1E0D8018D919D918D0181939193B1E02A
:1019700004351B07B1F781E0DF91CF911F910F91E3
:10198000FF90EF90DF90CF90BF900895E82FF0E0A8
:10199000EE0FFF1FEC5AFE4F808191810895CF9288
:1019A000DF92EF92FF920F931F93CF93DF938DEF10
:1019B00093E00E94A90884E5E82E81E0F82EC0E0BB
:1019C000D0E098EFC92E93E0D92E0FEE13E0DF930D
:1019D000CF93DF92CF920E94420985EF93E00E945D
:1019E000A908F701819191917F010E9490219F9315
:1019F0008F931F930F930E9442098DEE93E00E94F4
:101A0000A90821968DB79EB708960FB6F8949EBF89
:101A10000FBE8DBFCE30D105D1F6DF91CF911F9192
:101A20000F91FF90EF90DF90CF900895569A81FF2D
:101A300002C05E9A08955E9808958091820108958B
:101A400090911402943009F04CC09091E9009F707D
:101A50003091EC00232F217030FD20E8922B24E000
:101A60002093E9002091EB0020FF38C02091EE0088
:101A700027FF34C020917101222321F02091E8003A
:101A800025FF2CC01092710126E03091E80035FD51
:101A900015C030911402343009F53091EB0035FD5A
:101AA0001DC0215021F481E08093710117C0EFE93E
:101AB000FFE03197F1F700C00000E7CF8093F1001D
:101AC0008091E80085FD05C08091E8008E778093C5
:101AD000E8009F709093E90080E008959F709093D4
:101AE000E9008FEF0895CF93DF9300D01F92CDB719
:101AF000DEB79C0180911402843019F593E099833C
:101B00003B832A839093E9008FEF9091E800815006
:101B100095FD06C095ED9A95F1F700008111F5CF7E
:101B20008091E80085FF0DC040E050E063E070E088
:101B3000CE0101960E9440108091E8008E7780933C
:101B4000E8000F900F900F90DF91CF910895CF9301
:101B5000DF9300D01F92CDB7DEB72091140224305E
:101B600021F522E029839B838A8383E08093E90027
:101B70008FEF9091E800815095FD06C095ED9A9504
:101B8000F1F700008111F5CF8091E80085FF0DC0CD
:101B900040E050E063E070E0CE0101960E9440100A
:101BA0008091E8008E778093E8000F900F900F905F
:101BB000DF91CF910895209114022430F1F422E0B6
:101BC0002093E9002FEF3091E800215035FD06C049
:101BD00035ED3A95F1F700002111F5CF2091E8009D
:101BE00025FF0BC040E050E065E070E00E9440102F
:101BF0008091E8008E778093E8000895CF93DF937B
:101C000020911402243009F044C0EC0180910C01B1
:101C10008823C1F085E08093E9008FEF9091E80080
:101C2000815095FD06C095E19A95F1F7000081116C
:101C3000F5CF8091E80085FF2CC040E050E060E1E6
:101C400070E017C081E08093E9008FEF9091E80089
:101C5000815095FD06C095ED9A95F1F70000811130
:101C6000F5CF8091E80085FF14C040E050E068E0C7
:101C700070E0CE010E9440108091E8008E77809342
:101C8000E80080E1FE01A2E7B1E001900D928A95A3
:101C9000E1F7DF91CF9108958BE594E00E94A908C8
:101CA00080911302811109C00E94D7110E94341241
:101CB0008091E20084608093E200089587E594E0DB
:101CC0000E94A90810921302089583E594E00C94F1
:101CD000A9088FE494E00E94A9080E944C090C9482
:101CE000BA2A8BE494E00E94A9080E94E8210E948D
:101CF000C02A0E9495140C94160D80911402843011
:101D000041F58091E9008F702091EC00922F917045
:101D100020FD90E8892B94E09093E9009091EB00EE
:101D200090FF14C09091EE0097FF10C09091E800D2
:101D300095FF03C01092F100F9CF9091E80090FF59
:101D400005C09091E8009E779093E8008F70809393
:101D5000E900089542E061EC81E00E94511142E007
:101D600061EC82E00E94511142E061EC83E00E944C
:101D7000511146E261EC84E00E94511142E161ECB4
:101D800085E00C94511180911602833009F455C0FE
:101D900030F4813071F0823009F495C008958A30B2
:101DA00009F481C08B3009F460C0893009F0A3C008
:101DB00020C080911502813A09F09DC08091E80011
:101DC000877F8093E8008091190290911A02892BF5
:101DD00021F460E182E791E003C060E080E090E000
:101DE00070E00E948D108091E8008B778093E8006E
:101DF000089580911502813209F07DC08091190209
:101E000090911A02009719F0049709F074C080911C
:101E1000E800877F8093E8008091E80082FD05C09C
:101E2000809114028111F8CF66C08091F1008093F7
:101E300082018091E8008B775AC080911502813A27
:101E400009F059C08091190290911A02892B09F06A
:101E500052C08091E800877F8093E8008091E8007D
:101E600080FFFCCF80910B013DC080911502813233
:101E700009F041C08091190290911A02892BD9F57D
:101E80008091E800877F8093E8000E9486119091FE
:101E9000170281E0911101C080E080930B018093D3
:101EA0000C010C94391A80911502813221F5809130
:101EB000E800877F8093E8000E94861180911802D5
:101EC00080937001089580911502813AA1F4809168
:101ED000E800877F8093E8008091E80080FFFCCFD6
:101EE000809170018093F1008091E8008E7780935B
:101EF000E8000C948611089584B7877F84BF0FB6DD
:101F0000F894A89580916000886180936000109299
:101F100060000FBE90E080E80FB6F89480936100F7
:101F2000909361000FBE0E94D7110E9434128091DD
:101F3000E20084608093E20080E29DE00E9425211F
:101F4000789480911402843019F00E947014F9CFB3
:101F50008AE394E00E94A9080E94211581E091E0A3
:101F60000E948B140E94A82A89E294E00E94A9088A
:101F700080911402853089F485E294E00E94A908DA
:101F80000E94AA2180911202882391F30E94D321FA
:101F9000882371F30E942A10EBCF0E944D150E94F6
:101FA0007014E6CF292F332723303105C9F064F4AC
:101FB0002130310581F02230310509F043C08DE830
:101FC00090E02FE734E042C021323105F1F02232B7
:101FD000310541F137C082E190E02CE035E036C0B8
:101FE00099278130910541F08230910541F0892B8C
:101FF00049F5EBE7F4E005C0EBE6F4E002C0EFE5FD
:10200000F4E0849190E09F0121C06530D8F4E62F80
:10201000F0E0EE0FFF1FEC5DFE4F2081318189E083
:1020200090E014C0653070F470E0FB01EE0FFF1F0C
:10203000E65EFE4F20813181FB01EB5EFE4F808129
:1020400090E004C080E090E020E030E0FA013183CD
:102050002083089580E189BD82E189BD09B400FE35
:10206000FDCF8091D8008F7D8093D8008091E000D3
:1020700082608093E0008091E00081FDFCCF0895B4
:10208000CF92DF92EF92FF920F931F93CF93DF9344
:10209000EC018B017A010E94A511811135C0E11478
:1020A000F10439F0F70180819181081B190BC80FE9
:1020B000D91FC12CD12C0115110529F18091E800FF
:1020C00085FD18C08091E8008E778093E8000E941B
:1020D0007014E114F10449F0F70180819181C80E78
:1020E000D91ED182C08285E00FC00E94A51188232D
:1020F00011F30AC089918093F10001501109FFEF9B
:10210000CF1ADF0AD8CF80E0DF91CF911F910F91D6
:10211000FF90EF90DF90CF90089520911B023091B7
:102120001C022617370748F06115710539F4209114
:10213000E8002E772093E80001C0B90140E0611566
:102140007105A9F120911402222309F443C025301E
:1021500009F442C02091E80023FD40C02091E8002E
:1021600022FD32C02091E80020FFE9CF4091F3002A
:102170002091F20030E0342BFC01CF016115710594
:1021800059F02830310540F481918093F10061507D
:1021900071092F5F3F4FF1CF41E02830310509F041
:1021A00040E02091E8002E772093E800C8CF41114D
:1021B000C9CF0AC080911402882361F0853061F094
:1021C0008091E80083FD0AC08091E80082FFF2CF91
:1021D00080E0089582E0089583E0089581E0089505
:1021E00020911B0230911C022617370748F0611519
:1021F000710539F42091E8002E772093E80001C0A2
:10220000B901FC0120E06115710591F18091140282
:10221000882309F440C0853009F43FC08091E8006C
:1022200083FD3DC08091E80082FD2FC08091E800D1
:1022300080FFE9CF2091F3008091F20090E0922B93
:102240006115710559F08830910540F4249120936F
:10225000F1003196615071090196F2CF21E00897A3
:1022600009F020E08091E8008E778093E800CBCFE2
:102270002111CCCF0AC080911402882361F08530EF
:1022800061F08091E80083FD0AC08091E80082FF40
:10229000F2CF80E0089582E0089583E0089581E020
:1022A0000895982F973058F59093E900981739F0D2
:1022B0007091EC002091ED005091F00003C0242FAC
:1022C000762F50E021FF19C03091EB003E7F309314
:1022D000EB003091ED003D7F3093ED003091EB004D
:1022E00031603093EB007093EC002093ED0050933D
:1022F000F0002091EE0027FF07C09F5FD3CF8F70C3
:102300008093E90081E0089580E0089580911502AE
:1023100087FF11C08091E80082FD05C08091140202
:102320008111F8CF11C08091E8008B770BC08091AC
:102330001402882349F08091E80080FFF8CF809153
:10234000E8008E778093E80008952091E4003091B2
:10235000E50095E64091EC00842F817040FF22C09B
:102360008091E80080FD1CC080911402882391F0C8
:10237000853091F08091EB0085FD10C04091E40024
:102380005091E5004217530729F39A01915011F734
:1023900084E0089582E0089583E0089581E008953F
:1023A00080E008954091E80042FFDECF08950E944A
:1023B00045120E944D12E0EEF0E080818160808342
:1023C000E8EDF0E080818F77808319BCA7EDB0E065
:1023D0008C918E7F8C9380818F7E808310921302EC
:1023E00008950F931F93CF93DF930E9445120E948D
:1023F0004D12C8EDD0E088818F778883888180680E
:10240000888388818F7D888319BC10921402109272
:102410001002109212021092110200EE10E0F80168
:1024200080818B7F808388818160888342E060E047
:1024300080E00E945111E1EEF0E080818E7F808388
:10244000E2EEF0E08081816080838081886080831B
:10245000F80180818E7F8083888180618883DF910D
:10246000CF911F910F910895E8EDF0E080818F7E6C
:102470008083E7EDF0E080818160808384E082BF2B
:1024800081E0809313020C94F111E8EDF0E080817B
:102490008E7F80831092E20008951092DA001092ED
:1024A000E10008951F920F920FB60F9211242F93FF
:1024B0003F934F935F936F937F938F939F93AF93CC
:1024C000BF93EF93FF938091E10082FF0BC0809157
:1024D000E20082FF07C08091E1008B7F8093E100E2
:1024E0000E947D0E8091DA0080FF1FC08091D8008D
:1024F00080FF1BC08091DA008E7F8093DA0080918C
:10250000D90080FF0DC080E189BD82E189BD09B499
:1025100000FEFDCF81E0809314020E944C0E05C0A6
:1025200019BC109214020E945E0E8091E10080FF9F
:1025300019C08091E20080FF15C08091E2008E7F7B
:102540008093E2008091E20080618093E2008091BC
:10255000D80080628093D80019BC85E08093140273
:102560000E94690E8091E10084FF30C08091E200FA
:1025700084FF2CC080E189BD82E189BD09B400FEE1
:10258000FDCF8091D8008F7D8093D8008091E100AD
:102590008F7E8093E1008091E2008F7E8093E20045
:1025A0008091E20081608093E20080911002882394
:1025B00011F084E007C08091E30087FD02C081E054
:1025C00001C083E0809314020E94710E8091E100AB
:1025D00083FF24C08091E20083FF20C08091E1004E
:1025E000877F8093E10082E08093140210921002B2
:1025F0008091E1008E7F8093E1008091E2008E7FE8
:102600008093E2008091E20080618093E20042E0EA
:1026100060E080E00E9451110E94650EFF91EF91F1
:10262000BF91AF919F918F917F916F915F914F91EA
:102630003F912F910F900FBE0F901F9018951F93F1
:10264000CF93DF93CDB7DEB7AA970FB6F894DEBF6E
:102650000FBECDBFE5E1F2E088E08E0F9091F10072
:1026600091938E13FBCF0E94C30E8091E80083FFED
:102670001FC18091150290911602492F50E04A30F7
:10268000510508F015C1FA01E259FF4F0C94512C85
:10269000803881F0823809F00BC1809119028F7067
:1026A0008093E9008091EB0085FB882780F91092E8
:1026B000E90006C08091110290911202911182608E
:1026C0009091E800977F9093E8008093F10010923A
:1026D000F100C8C0282F2D7F09F0EAC0882319F027
:1026E000823061F0E5C080911702813009F0E0C0CE
:1026F000933009F080E0809312022BC08091170282
:10270000811127C0809119028F7009F4D1C0809384
:10271000E9002091EB0020FF1CC0933021F4809150
:10272000EB00806214C09091EB0090619093EB00FD
:1027300021E030E0A90102C0440F551F8A95E2F75D
:102740004093EA001092EA008091EB008860809349
:10275000EB001092E9008091E800877F86C081112C
:10276000A7C0109117021F778091E3008078812B1A
:102770008093E3008091E800877F8093E8000E94C7
:1027800086118091E80080FFFCCF8091E300806893
:102790008093E300111102C082E001C083E08093C6
:1027A000140286C08058823008F082C080911702DF
:1027B000909118028C3D53E0950779F583E08A8368
:1027C0008AE289834FB7F894DE01139620E03EE059
:1027D00051E2E32FF0E050935700E49120FF03C053
:1027E000E295EF703F5FEF708E2F90E0EA3010F0CF
:1027F000C79601C0C0968D939D932F5F243149F7F2
:102800004FBF8091E800877F8093E8006AE270E024
:10281000CE0101960E948D1014C0AE014F5F5F4F34
:10282000609119020E94D20FBC01892B09F440C0AB
:102830009091E800977F9093E80089819A810E94A7
:10284000F0108091E8008B778093E80031C08038E9
:1028500079F58091E800877F8093E80080911002ED
:102860008093F1008091E8008E778093E8000E94C9
:1028700086111EC081111CC0909117029230C0F4C5
:102880008091E800877F8093E800909310020E9477
:10289000861180911002811106C08091E30087FDAE
:1028A00002C081E001C084E0809314020E94AA0E5D
:1028B0008091E80083FF0AC08091E800877F8093C1
:1028C000E8008091EB0080628093EB00AA960FB63F
:1028D000F894DEBF0FBECDBFDF91CF911F91089559
:1028E000CF93809114028823A1F0C091E900CF70AA
:1028F0009091EC00892F817090FD80E8C82B109298
:10290000E9008091E80083FD0E941F13CF70C093FF
:10291000E900CF91089590938801809387010895ED
:1029200080918701909188010895E0918701F0914D
:102930008801309721F00190F081E02D099480E02A
:102940000895EF92FF920F931F93CF93DF93E0913F
:102950008701F09188013097B1F18C010280F381F9
:10296000E02D09958091F90182FF2DC080FF04C000
:1029700081E496E00E94A908E80110E18BE3E82ECB
:1029800086E0F82E8091F90180FF0BC088811F92AC
:102990008F93FF92EF920E9442090F900F900F9039
:1029A0000F90115021961111EDCF8091F90180FF08
:1029B0000AC089E396E0DF91CF911F910F91FF90BC
:1029C000EF900C94A908DF91CF911F910F91FF9088
:1029D000EF900895E0918701F0918801309721F000
:1029E0000480F581E02D09940895209185013091AE
:1029F00086018217930771F0909386018093850179
:102A0000E0918701F0918801309721F00680F781ED
:102A1000E02D09940895209183013091840182175B
:102A2000930771F09093840180938301E091870173
:102A3000F0918801309721F00084F185E02D099410
:102A400008950E94EA210C94B00BCF93C82F809177
:102A5000F90182FF1EC080FF04C08AE596E00E9453
:102A6000A9088091F90180FF0CC01F92CF9385E5E2
:102A700096E09F938F930E9442090F900F900F90C2
:102A80000F908091F90180FF04C083E596E00E94D9
:102A9000A9088C2FCF910C94160D4F925F927F92C4
:102AA0008F929F92AF92BF92CF92DF92EF92FF925E
:102AB0000F931F93CF93DF93CDB7DEB72A970FB64F
:102AC000F894DEBF0FBECDBF0E94CD0B9AE8C92E91
:102AD00091E0D92E00E010E0AA24A394B12C702E2E
:102AE000802F0E94C60C4C01F601419051906F015D
:102AF0004826592641145104B1F40F5F1F4F0E3080
:102B0000110569F78FEF89838A831B820E94F32165
:102B10008160782F9D838C8349815A816B818D815F
:102B20000E9406163AC08091F90181FD0E94CF0CE7
:102B300020E030E07501022E02C0EE0CFF1C0A946A
:102B4000E2F7C70184219521892B09F12E837F8229
:102B50008E209F2091E0892809F490E098870E94B8
:102B6000F3218160782F9A8789874E815F816885FC
:102B70008A850E940616000F111FF801E657FE4FC6
:102B800080819181E826F926F182E08206C02F5FDC
:102B90003F4F2930310571F6B0CF0E946C2410915F
:102BA00089010E9495141817D9F00E9495148093FA
:102BB00089012A960FB6F894DEBF0FBECDBFDF9114
:102BC000CF911F910F91FF90EF90DF90CF90BF902A
:102BD000AF909F908F907F905F904F900C942515B1
:102BE0002A960FB6F894DEBF0FBECDBFDF91CF910E
:102BF0001F910F91FF90EF90DF90CF90BF90AF901B
:102C00009F908F907F905F904F900895CF93DF9328
:102C1000CDB7DEB72B970FB6F894DEBF0FBECDBF92
:102C20004F83588769877A878B87DE01119686E004
:102C3000FD0111928A95E9F785E0FE013796019032
:102C40000D928A95E1F749815A816B817C818D8152
:102C50009E810E94D31C2B960FB6F894DEBF0FBE48
:102C6000CDBFDF91CF910895CF93882309F499C008
:102C7000C82F8CEF8C0F813A48F48C2F0E94352995
:102C800081118FC08C2F0E946D1F0CC080E28C0FB1
:102C9000883058F4C77081E001C0880FCA95EAF700
:102CA0000E940B20CF910C9442208BE58C0F833037
:102CB00078F4C53A29F0C63A31F083E890E005C0CF
:102CC00081E890E002C082E890E0CF910C94F51486
:102CD00088E58C0F833108F064C0C83A39F1C93AED
:102CE00041F1CA3A49F1CB3A51F1CC3A59F1CD3AD6
:102CF00061F1C03B69F1CE3A71F1CF3A79F1C13B54
:102D000081F1C23B89F1C33B91F1C43B99F1C53BD1
:102D1000A1F1C63BA9F1C73BB1F1C83BB9F1C93B31
:102D2000C1F1CA3BC9F180E090E038C082EE90E08A
:102D300035C089EE90E032C08AEE90E02FC085EB7E
:102D400090E02CC086EB90E029C087EB90E026C095
:102D50008CEC90E023C08DEC90E020C083E891E003
:102D60001DC08AE891E01AC082E991E017C084E9A9
:102D700091E014C081E292E011C083E292E00EC0C3
:102D800084E292E00BC085E292E008C086E292E025
:102D900005C087E292E002C08AE292E0CF910C94F3
:102DA0000B15CF910895882329F19CEF980F913A44
:102DB00018F40E94B91F0DC090E2980F983058F493
:102DC000877091E001C0990F8A95EAF7892F0E94D8
:102DD00011200C9442209BE5980F933020F480E062
:102DE00090E00C94F514885A833120F480E090E050
:102DF0000C940B150895882321F00E940B200C944D
:102E000042200895882321F00E9411200C94422032
:102E10000895BF92CF92DF92EF92FF920F931F938C
:102E2000CF93DF9300D000D000D0CDB7DEB725E040
:102E3000FC01DE01119601900D922A95E1F7FC014B
:102E4000408131810281258122952F7063817481B7
:102E5000672B09F4ECC23F3F19F44F3F09F4E7C276
:102E60007C0149833A8389819A812E830E942C1F99
:102E7000182FB92E0E942B1F0E94F21DEB2DE295F8
:102E8000EF70F0E0E858FF4F2E810C94512C8B2D01
:102E9000807F9B2D9F70F92E882319F0F29480EF8C
:102EA000F822002349F0FF2009F46EC28F2D0E9402
:102EB0001B200E94422068C2812F0E94D316FF204F
:102EC00009F4B5C28F2D0E94212026960FB6F894E2
:102ED000DEBF0FBECDBFDF91CF911F910F91FF904D
:102EE000EF90DF90CF90BF900C9442208B2D807F8D
:102EF0009B2D9F70803211F4892F03C0892F8295FA
:102F0000807F112319F0113011F12BC00023A9F09B
:102F1000222389F1213079F526960FB6F894DEBF89
:102F20000FBECDBFDF91CF911F910F91FF90EF901A
:102F3000DF90CF90BF900C942B20222319F02130EA
:102F400009F475C28E830E942E208E819BC10023BE
:102F500021F0233008F06BC20EC0223008F067C2A7
:102F600091C10023C9F0222331F0F701958190FF30
:102F70000BC29F70958326960FB6F894DEBF0FBEE6
:102F8000CDBFDF91CF911F910F91FF90EF90DF9018
:102F9000CF90BF900C94FB16222309F473C109C291
:102FA0002B2D26952695237030E02115310521F033
:102FB00021303105D1F03BC2002321F0812F9B2D20
:102FC000937002C080E090E026960FB6F894DEBFC2
:102FD0000FBECDBFDF91CF911F910F91FF90EF906A
:102FE000DF90CF90BF900C94F514002321F0812F37
:102FF0009B2D937002C080E090E026960FB6F89467
:10300000DEBF0FBECDBFDF91CF911F910F91FF901B
:10301000EF90DF90CF90BF900C940B15812F002381
:1030200019F00E94F22202C00E945A2326960FB67F
:10303000F894DEBF0FBECDBFDF91CF911F910F91EE
:10304000FF90EF90DF90CF90BF900C94DF238B2DFB
:10305000837009F07BC00111EAC1812F82958695AA
:103060008770880F880F912F9F70C92ED12CE12C6B
:10307000F12C082E04C0CC0CDD1CEE1CFF1C0A94A5
:10308000D2F714FF12C04FE050E060E070E004C0DF
:10309000440F551F661F771F8A95D2F7CB01BA01DF
:1030A000609570958095909503C060E070E0CB01CD
:1030B0002B2D269526952370422F50E04230510546
:1030C000D9F04330510569F16C297D298E299F295A
:1030D0004130510551F126960FB6F894DEBF0FBE70
:1030E000CDBFDF91CF911F910F91FF90EF90DF90B7
:1030F000CF90BF900C94191E6C297D298E299F2991
:1031000026960FB6F894DEBF0FBECDBFDF91CF91EC
:103110001F910F91FF90EF90DF90CF90BF900C9494
:10312000351E0E94191EC701B60126960FB6F894E7
:10313000DEBF0FBECDBFDF91CF911F910F91FF90EA
:10314000EF90DF90CF90BF900C94FD1D002319F0FD
:103150008B2D817001C08695882309F468C1812F69
:10316000829586958770880F880F912F9F70C92E42
:10317000D12CE12CF12C082E04C0CC0CDD1CEE1C53
:10318000FF1C0A94D2F714FF12C04FE050E060E039
:1031900070E004C0440F551F661F771F8A95D2F751
:1031A000CB01BA01609570958095909503C060E061
:1031B00070E0CB012B2D269526952370422F50E0F1
:1031C00042305105D9F04330510569F16C297D2910
:1031D0008E299F294130510551F126960FB6F8945A
:1031E000DEBF0FBECDBFDF91CF911F910F91FF903A
:1031F000EF90DF90CF90BF900C94F31E6C297D2947
:103200008E299F2926960FB6F894DEBF0FBECDBF3C
:10321000DF91CF911F910F91FF90EF90DF90CF90B2
:10322000BF900C940F1F0E94F31EC701B601269693
:103230000FB6F894DEBF0FBECDBFDF91CF911F91C7
:103240000F91FF90EF90DF90CF90BF900C94D71E1E
:10325000103F49F118F4103E48F491C0123F09F4B0
:1032600053C0E8F1133F09F464C089C01F708B2D6F
:103270008F71002321F00E94701E812F7CCE0E944E
:10328000911E812F26960FB6F894DEBF0FBECDBFDC
:10329000DF91CF911F910F91FF90EF90DF90CF9032
:1032A000BF900C9402170023B1F0223008F0BFC089
:1032B0008B2D8F7126960FB6F894DEBF0FBECDBF53
:1032C000DF91CF911F910F91FF90EF90DF90CF9002
:1032D000BF900C94B61E233008F0A9C0E9CF00239C
:1032E000A9F08B2D8F7126960FB6F894DEBF0FBE16
:1032F000CDBFDF91CF911F910F91FF90EF90DF90A5
:10330000CF90BF900C94701E002359F38B2D8F71BA
:1033100026960FB6F894DEBF0FBECDBFDF91CF91DA
:103320001F910F91FF90EF90DF90CF90BF900C9482
:10333000911E002399F08B2D8F7126960FB6F8946D
:10334000DEBF0FBECDBFDF91CF911F910F91FF90D8
:10335000EF90DF90CF90BF900C945B1E26960FB637
:10336000F894DEBF0FBECDBFDF91CF911F910F91BB
:10337000FF90EF90DF90CF90BF900C94511E0023F0
:10338000A9F0222309F4ADCF812F26960FB6F89429
:10339000DEBF0FBECDBFDF91CF911F910F91FF9088
:1033A000EF90DF90CF90BF900C943416222309F455
:1033B000ADCF812F26960FB6F894DEBF0FBECDBFDE
:1033C000DF91CF911F910F91FF90EF90DF90CF9001
:1033D000BF900C94D3164B2D4F70612FC7010E94E4
:1033E000222126960FB6F894DEBF0FBECDBFDF9127
:1033F000CF911F910F91FF90EF90DF90CF90BF90F2
:103400000C94771D4B2D4F70612FC70126960FB678
:10341000F894DEBF0FBECDBFDF91CF911F910F910A
:10342000FF90EF90DF90CF90BF900C94450B2696C5
:103430000FB6F894DEBF0FBECDBFDF91CF911F91C5
:103440000F91FF90EF90DF90CF90BF9008950E9472
:1034500028200E94FA1F0E9442200E9411250E94EB
:10346000DF2380E090E00E94F51480E090E00C946F
:103470000B150E9418200C94271A0E942C1F292F2C
:1034800022952F7030E02C3031054CF42A30310574
:103490006CF4225031092230310588F407C02C30F9
:1034A000310549F02F30310531F009C0803E48F038
:1034B000803F29F406C093FB882780F9089580E0B7
:1034C000089581E00895CF93DF9300D000D01F923C
:1034D000CDB7DEB70F900F900F900F900F90DF9148
:1034E000CF910895CF93DF9300D000D000D0CDB717
:1034F000DEB726960FB6F894DEBF0FBECDBFDF91C4
:10350000CF9108951F93CF93DF93C091A60116E04A
:103510008091A701C81799F0D0E01C9FF0011D9F72
:10352000F00D1124E855FE4F408151816281738175
:10353000848195810E94721A2196C770E9CFDF912C
:10354000CF911F9108954091D8015091D901609178
:10355000DA017091DB018091DC019091DD010C9426
:10356000721A8091DD0182958F7009F054C08091AC
:10357000DA01882309F44FC08091A601A091A70128
:103580006091D8017091D9014091DB015091DC012B
:10359000B6E08A1709F43FC090E041155105C1F12A
:1035A0007F3F11F46F3FA1F1B89FF001B99FF00D7B
:1035B0001124E855FE4F218172132AC02081621325
:1035C00027C02281211124C023813481241735078B
:1035D00010F421503109241B350B26393105C0F474
:1035E0002091DD012F7020612093DD0126E0289FCE
:1035F000F001299FF00D1124E355FE4F80818F705B
:103600008061808388ED91E00E9409170C94821AF2
:1036100001968770BECF0895CF92DF92EF92FF920E
:103620000F931F93CF93DF93CDB7DEB762970FB69B
:10363000F894DEBF0FBECDBF8C0185E0F801DE013E
:103640001D9601900D928A95E1F7D8014C91119643
:103650005C91119712966C9112971396CD90DC9015
:1036600014973091D8017091D9018091DB0190912C
:10367000DC01009709F46BC17F3F19F43F3F09F467
:1036800066C1E090DA01EE2009F4C0C02091DD01AE
:10369000C816D90628F0F601E81BF90BCF0104C0C3
:1036A000809590958C0D9D1DFF24F394863991058E
:1036B00078F0F12C207F09F0C6C07C2DD98AC88A09
:1036C00089890E94631A88ED91E00E940917B1C0B0
:1036D000822F807F09F046C0751314C0341312C0C6
:1036E000611110C02F7020612093DD010E94A31A88
:1036F00088ED91E00E9409178091DD01D8011596AF
:103700008C932EC0CD2819F15F3F11F44F3FF9F093
:10371000F62E61111CC08091A6012091A70136E010
:10372000821709F45AC090E0389FF001399FF00DDC
:103730001124E855FE4F7181571306C0708147135D
:1037400003C07281711103C001968770E9CFF62E14
:10375000662309F418C18091DD0181608093DD0149
:10376000F12C11C1751308C0341306C0611104C0D7
:103770008091DD01D801C3C04D875E878D859E8510
:103780006A8B0E943D1A6A898823E1F16623D1F190
:103790002091DD01822F82958F7090E0029774F066
:1037A0008091D8019091D90198878F831986DB8603
:1037B000CA862C87CE0107960E94091786E0F80179
:1037C000A8EDB1E001900D928A95E1F70E94B11A3F
:1037D0000E94A31AFF24F394D6C04D875E878D857F
:1037E0009E850E942C1F292F22952F7030E02230B9
:1037F00031050CF0BCC09F7009F0B6C0805E883007
:1038000008F4C1C0C8010E940917E4CFC816D90640
:1038100008F453C0F601E81BF90BCF018639910576
:1038200008F450C0F12C7C2DD98AC88A89890E945D
:10383000631AE8EDF1E086E0DF011D928A95E9F771
:103840000E94A31AA0C0751314C0341312C06111D2
:1038500010C08091DD01F8018583C8010E9409171D
:1038600086E0E8EDF1E0DF011D928A95E9F7FE2C94
:103870008AC04D875E878D859E856A8B0E943D1A22
:103880006A89882309F4BECF662309F4BBCF20914F
:10389000DD01822F82958F7090E002970CF48ECF1D
:1038A0008091D8019091D9019A8389831B82DD820E
:1038B000CC822E83CE0101967FCF809590958C0D82
:1038C0009D1DACCFF62E662309F49CCF75132EC038
:1038D00034132CC02091DD0120FD1FC0822F829562
:1038E0008F70D9F0D80115962C9315978F3049F029
:1038F0008F5F982F9295907F822F8F70892B1596CE
:103900008C93C8010E94091786E0F801A8EDB1E088
:1039100001900D928A95E1F793CF86E0F801A8ED2A
:10392000B1E001900D928A95E1F72DC04D875E8739
:103930008D859E850E943D1A811140CF8091DD01C9
:1039400081608093DD01C8010E9409171CC06623B5
:1039500009F458CF4D875E878D859E850E943D1A5C
:10396000882309F44FCF2ACF811148CF0CC02430CF
:1039700031050CF047CF9F7009F440CFF8019581D5
:10398000907F09F03BCF8F2D62960FB6F894DEBF83
:103990000FBECDBFDF91CF911F910F91FF90EF90A0
:1039A000DF90CF9008951F93CF93DF93CDB7DEB70D
:1039B0002C970FB6F894DEBF0FBECDBF4F8358874C
:1039C00069877A878B879C87CE0107960E940C1B9C
:1039D000882369F08F8198852A853B85232BF1F117
:1039E0009F3F09F063C08F3F09F060C037C086E099
:1039F000FE013796DE01119601900D928A95E1F74E
:103A00006F817885EA85FB85309741F17F3F11F41E
:103A10006F3F21F12091A70130E0C9010196877025
:103A200099274091A60150E08417950709F447C0F3
:103A300069837A83FD83EC8396E0929FD001939F04
:103A4000B00D1124A855BE4FFE01319601900D9284
:103A50009A95E1F78093A7010E94821A16E080915F
:103A6000A6019091A7018917C1F1189FC0011124E7
:103A700088559E4F0E940C1B882379F1E091A60186
:103A80001E9FF0011124E855FE4F40815181628153
:103A90007381848195810E94721A8091A60190E0C1
:103AA0000196877099278093A601D9CF4F815885B9
:103AB00069857A858B859C850E94721ACFCF0E947A
:103AC000391A1092A7011092A601E8EDF1E086E004
:103AD000DF011D928A95E9F7C1CF2C960FB6F894B5
:103AE000DEBF0FBECDBFDF91CF911F910895EF9242
:103AF000FF920F931F93CF93DF938C01892B09F4CF
:103B00006AC0F12CEE24E394E8012196F801849137
:103B1000843740F4843008F04FC0813081F0823027
:103B200019F159C0853709F442C098F19CE7980F04
:103B3000903708F050C08F770E94D3163FC00E5FB9
:103B40001F4FFE01C49180E28C0F883048F4C7708B
:103B50008E2D01C0880FCA95EAF70E941B202FC046
:103B60008C2F0E9434162BC00E5F1F4FFE01C49194
:103B700080E28C0F883048F4C7708E2D01C0880F0A
:103B8000CA95EAF70E9421201AC08C2F0E94D316F2
:103B900016C00E5F1F4FFE01C491CC2381F08FE948
:103BA0009FE00197F1F700C00000C150F6CF0E5F13
:103BB0001F4FFE01F49003C00E9434168E018F2D1A
:103BC000882309F4A1CFEFE9FFE03197F1F700C0B6
:103BD00000008150F5CFDF91CF911F910F91FF90A1
:103BE000EF90089508956093E2017093E30180934C
:103BF000E4019093E5010C94271A0F931F93009111
:103C0000E2011091E3012091E4013091E501DC0132
:103C1000CB01802B912BA22BB32B8093E2019093AD
:103C2000E301A093E401B093E5011F910F910C947F
:103C3000271A0F931F930091E2011091E301209145
:103C4000E4013091E501DC01CB0180239123A22323
:103C5000B3238093E2019093E301A093E401B09336
:103C6000E5011F910F910C94271A0F931F93009158
:103C7000E2011091E3012091E4013091E501DC01C2
:103C8000CB0180279127A227B3278093E20190934D
:103C9000E301A093E401B093E5011F910F910C940F
:103CA000271A1092DE011092DF011092E0011092AB
:103CB000E1010C94271A41E050E060E070E004C09C
:103CC000440F551F661F771F8A95D2F74093DE0178
:103CD0005093DF016093E0017093E1010C94271A87
:103CE00041E050E060E070E004C0440F551F661FE3
:103CF000771F8A95D2F78091DE019091DF01A09124
:103D0000E001B091E101482B592B6A2B7B2B4093AA
:103D1000DE015093DF016093E0017093E1010C94A8
:103D2000271A41E050E060E070E004C0440F551FE6
:103D3000661F771F8A95D2F74095509560957095CC
:103D40008091DE019091DF01A091E001B091E1014D
:103D5000482359236A237B234093DE015093DF01DC
:103D60006093E0017093E1010C94271A41E050E068
:103D700060E070E004C0440F551F661F771F8A95EE
:103D8000D2F78091DE019091DF01A091E001B09126
:103D9000E101482759276A277B274093DE0150938A
:103DA000DF016093E0017093E1010C94271A0F93F7
:103DB0001F930091DE011091DF012091E00130910D
:103DC000E101DC01CB01802B912BA22BB32B809343
:103DD000DE019093DF01A093E001B093E1011F9118
:103DE0000F910C94271A0F931F930091DE011091ED
:103DF000DF012091E0013091E101DC01CB01802362
:103E00009123A223B3238093DE019093DF01A0933B
:103E1000E001B093E1011F910F910C94271A0F93C9
:103E20001F930091DE011091DF012091E00130919C
:103E3000E101DC01CB0180279127A227B3278093E2
:103E4000DE019093DF01A093E001B093E1011F91A7
:103E50000F910C94271A0895CF92DF92EF92FF9260
:103E60000F931F93CF93DF938C01C090E201D0900A
:103E7000E301E090E401F090E5014091DE01509112
:103E8000DF016091E0017091E101C42AD52AE62AA0
:103E9000F72ACFE1D0E0D701C6010C2E04C0B695B9
:103EA000A795979587950A94D2F780FF07C0B80128
:103EB0008C2F0E9468208130910531F4219758F7AA
:103EC000B80180E00E946820DF91CF911F910F918F
:103ED000FF90EF90DF90CF90089590910C0199237F
:103EE00059F1982F9695969596959F30A0F4E0916C
:103EF0000D01F0910E01E90FF11D877021E030E016
:103F0000A90102C0440F551F8A95E2F7CA019181A9
:103F1000892B818308959091F90190FF29C01F9208
:103F20008F938BE896E09F938F930E9442090F90A6
:103F30000F900F900F90089520910D0130910E0178
:103F4000F90132969FEF40E05191581789F09F3F59
:103F500019F4511101C0942F4F5F4E30A9F79F3FC4
:103F600039F0F901E90FF11D97FDFA958283089563
:103F7000089590910C01992361F1982F969596954B
:103F800096959F30A8F4E0910D01F0910E01E90F94
:103F9000F11D877021E030E0A90102C0440F551FD8
:103FA0008A95E2F7CA0180959181892381830895DA
:103FB0009091F90190FF1DC01F928F938DE696E0BE
:103FC0009F938F930E9442090F900F900F900F9034
:103FD000089520910D0130910E01F9013296205F74
:103FE0003F4F9081981301C010823196E217F3077A
:103FF000C1F7089581E090E0E0910D01F0910E018C
:10400000E80FF91F1082019680319105A9F70895F4
:104010008091F80108959091F801892B8093F8011F
:10402000089580959091F80189238093F80108956F
:104030001092F80108959091F701892B8093F70170
:10404000089580959091F70189238093F701089551
:104050001092F70108958093E60108951092E60109
:10406000089580910D0190910E01FC0131969C0103
:10407000205F3F4F80E0919191118F5FE217F3072E
:10408000D1F70895E0910D01F0910E018091F801B2
:104090008083E0910D01F0910E0190818091F701F4
:1040A000892B80838091E601882361F0E0910D01E6
:1040B000F0910E019081892B80830E943120811123
:1040C0001092E60180910D0190910E010C94A114C3
:1040D0000E94830B90E4980F903218F40E94920B88
:1040E00008958D3B50F4883AF0F4853A98F4843082
:1040F00070F4813009F45DC007C0803E28F0883E2E
:1041000030F0803F08F051C020E030E099C0282F07
:1041100030E096C0853A09F44FC0863A09F44FC0A2
:1041200023E830E48DC0883A09F44CC0893A09F498
:104130004CC08A3A09F44CC08B3A09F44CC08C3A12
:1041400009F44CC08B3B09F44CC08C3B09F44CC0C7
:104150008D3A09F44CC0803B09F44CC08E3A09F406
:104160004CC08F3A09F44CC0813B09F44CC0823BEF
:1041700009F44CC0833B09F44CC0843B09F44CC0A7
:10418000853B09F44CC0863B09F44CC0873B09F4DD
:104190004CC0883B09F44CC0893B09F44CC08A3BB5
:1041A00009F44CC020E034E44BC0282F30E03065E7
:1041B00047C021E030E044C021E830E441C022E8BB
:1041C00030E43EC022EE34E43BC029EE34E438C093
:1041D0002AEE34E435C025EB34E432C026EB34E477
:1041E0002FC023EB34E42CC024EB34E429C027EBAC
:1041F00034E426C02CEC34E423C02DEC34E420C09D
:1042000023E835E41DC02AE835E41AC022E935E484
:1042100017C024E935E414C021E236E411C023E2DA
:1042200036E40EC024E236E40BC025E236E408C0D2
:1042300026E236E405C027E236E402C02AE236E48C
:10424000C901089580E090E008959093FC01809367
:10425000FB010895CF92DF92EF92FF926C01EE2462
:10426000FF24C114D104E104F10421F0C701B60117
:1042700020E101C020E0C72ED82EE92EFF24C11472
:10428000D104E104F10419F0285FC701B6016B0104
:104290007C0154E0F694E794D794C7945A95D1F7EB
:1042A000C114D104E104F10419F02C5FC701B60177
:1042B0006B017C0142E0F694E794D794C7944A9549
:1042C000D1F7C114D104E104F10419F02E5FC70144
:1042D000B601DC01CB01B695A79597958795892BFB
:1042E0008A2B8B2B09F02F5F822FFF90EF90DF90AE
:1042F000CF9008958295982F9C7C392F36953695CE
:10430000282F237344E0249FC0011124932F982B5E
:10431000292F2A7A2695892F8575880F822B089553
:104320001F93CF93DF931F92CDB7DEB799830E947F
:104330007A21182F9981892F0E947A21212F30E02C
:10434000322F2227A901482BCA010F90DF91CF916C
:104350001F91089580911402843021F11092FA0186
:1043600020E488E190E00FB6F894A895809360006F
:104370000FBE2093600083B7817F846083BF83B7C3
:10438000816083BF7894889583B78E7F83BF0FB693
:10439000F894A895809160008861809360001092E5
:1043A00060000FBE0895CF930E944B090E94CD0B71
:1043B0000E944C09C0E08C2F0E94C60C892B29F466
:1043C000CF5FCE30C1F780E001C081E0CF9108958A
:1043D0000C94391A82E084BD93E095BD9AEF97BDA5
:1043E00080936E0008952FB7F8948091FD0190910D
:1043F000FE01A091FF01B09100022FBF0895CF925E
:10440000DF92EF92FF920F931F932FB7F894409192
:10441000FD015091FE016091FF01709100022FBFDC
:104420006A017B01EE24FF248C0120E030E0C016FD
:10443000D106E206F30610F4415051099A01281BF7
:10444000390BC9011F910F91FF90EF90DF90CF9032
:1044500008951F920F920FB60F9211248F939F937E
:10446000AF93BF938091FD019091FE01A091FF0158
:10447000B09100020196A11DB11D8093FD019093A2
:10448000FE01A093FF01B0930002BF91AF919F91F5
:104490008F910F900FBE0F901F9018950E94D7110B
:1044A000F8942FEF87EA91E6215080409040E1F7A1
:1044B00000C0000087E090EBDC0180931D02909328
:1044C0001E02A0931F02B09320029CE088E10FB669
:1044D000F894A895809360000FBE90936000FFCF82
:1044E0008091030280FF0BC06091120185E0689FFC
:1044F000B001112475956795759567952BC081FF5F
:1045000009C06091120185E0689FB0011124759582
:10451000679520C082FF07C06091120185E0689F07
:10452000B001112417C0909104029923D1F0609139
:104530001101961788F72091120185E0289F9001BC
:104540001124929FA001939F500D112470E0CA0185
:104550000E943D2C6038710540F46115710539F0F9
:1045600002C065E070E0862F08958FE7089581E02E
:1045700008958091030280FF08C06091100170E0EF
:10458000759567957595679521C081FF06C0609107
:10459000100170E07595679519C082FF04C06091A5
:1045A000100170E010C0909104029923C1F0609155
:1045B0000F019617A0F780911001899FC001112467
:1045C00070E00E943D2C6038710528F4611571057A
:1045D00021F0862F08958FE7089581E0089561E026
:1045E00070E0F4CF803F21F40E947022819504C0D6
:1045F000813F29F40E947022809307020895823F30
:1046000021F40E947022819504C0833F29F40E9406
:104610007022809306020895893F19F40E94B922FE
:1046200005C08A3F31F40E94B92281958093080227
:1046300008958B3F21F40E94B922819504C08C3FDC
:1046400029F40E94B922809309020895843F21F43D
:1046500080910502816017C0853F21F48091050299
:10466000826011C0863F21F48091050284600BC0F6
:10467000873F21F480910502886005C0883F31F4AE
:104680008091050280618093050208958D3F21F499
:104690008091030281600BC08E3F21F48091030260
:1046A000826005C08F3F29F480910302846080936B
:1046B00003020895803F39F48091070287FF6CC0A0
:1046C0001092070269C0813F29F4809107021816F1
:1046D000BCF362C090910602823F29F497FF5CC050
:1046E0001092060259C0833F19F41916CCF354C036
:1046F000893F41F48091080218160CF04DC01092C9
:1047000008024AC08A3F29F48091080287FF44C00A
:10471000F6CF8B3F39F48091090287FF3DC010929C
:1047200009023AC08C3F29F4809109021816BCF3A3
:1047300033C0843F21F4809105028E7F17C0853FEE
:1047400021F4809105028D7F11C0863F21F4809174
:1047500005028B7F0BC0873F21F480910502877F84
:1047600005C0883F31F4809105028F7E8093050259
:1047700013C08D3F21F4809103028E7F0BC08E3FCA
:1047800021F4809103028D7F05C08F3F29F4809131
:1047900003028B7F809303028091060281110EC079
:1047A0008091070281110AC080910802811106C020
:1047B00080910902811102C0109204020895809133
:1047C000F90183FF7EC080ED96E00E94A9088091E8
:1047D00005021F928F938BEC96E09F938F930E941C
:1047E000420989EC96E00E94A90880910602282FD0
:1047F000082E000C330B3F938F9386EC96E09F932B
:104800008F930E94420984EC96E00E94A90880914F
:104810000702282F082E000C330B3F938F9381EC57
:1048200096E09F938F930E9442098FEB96E00E943F
:10483000A90880910802282F082E000C330B3F9303
:104840008F938CEB96E09F938F930E9442098AEBA3
:1048500096E00E94A90880910902282F082E000CDA
:10486000330B3F938F9387EB96E09F938F930E9438
:10487000420984EB96E00E94A908809104021F92ED
:104880008F9381EB96E09F938F930E9442098FEA6A
:1048900096E00E94A908809103021F928F938CEAF0
:1048A00096E09F938F930E94420989EA96E00E94C6
:1048B000A9088DB79EB74C960FB6F8949EBF0FBE51
:1048C0008DBF85E092E00E94EA140E94F32190934C
:1048D00002028093010208951F93CF93DF9380918A
:1048E0000102909102020E94FF21AC01909104020A
:1048F000992321F02091130130E006C0209114018A
:104900008AE0289F900111244217530708F485C0BC
:1049100080910602C0910702D0910802109109020D
:10492000811107C0C11175C0D11173C0111171C0BF
:1049300074C09F3F19F09F5F90930402181624F4EF
:104940000E947022809306028091060287FF05C0B4
:104950000E9470228195809306021C1624F40E9406
:104960007022809307028091070287FF05C00E9492
:10497000702281958093070260910602662331F1CF
:10498000C0910702CC2311F1062E000C770B880B87
:10499000990B0E94442B23E333E343E35FE30E943C
:1049A000A82B0E940C2B609306026C2FCC0F770B68
:1049B000880B990B0E94442B23E333E343E35FE32B
:1049C0000E94A82B0E940C2B609307021D1624F452
:1049D0000E94B922809308028091080287FF05C0D7
:1049E0000E94B922819580930802111624F40E9436
:1049F000B922809309028091090287FF05C00E94B5
:104A0000B922819580930902DF91CF911F910C9477
:104A1000DF239F3F09F08FCF97CFDF91CF911F9179
:104A20000895E5E0F2E085E0DF011D928A95E9F75F
:104A3000109204021092030208958FE99BE00E94F5
:104A4000A90882E99BE00E94A90885E89BE00C94F4
:104A5000A90882E09BE00E94A90885EF9AE00E94E5
:104A6000A9088AED9AE00E94A9088FEB9AE00E94BB
:104A7000A90887EA9AE00E94A9088DE89AE00E94B6
:104A8000A9088FE69AE00E94A9088FE49AE00E94A4
:104A9000A9088AE39AE00E94A90883E29AE00E94AA
:104AA000A90886E09AE00E94A90887EE99E00E9492
:104AB000A90887EC99E00E94A90885EA99E00E947C
:104AC000A90880E799E00E94A9088BE599E00E9477
:104AD000A9081F9285E08F9388E599E09F938F93B3
:104AE0000E9442098FE499E00E94A9081F9281E088
:104AF0008F938CE499E09F938F930E9442098AE4FC
:104B000099E00E94A9088DB79EB708960FB6F89451
:104B10009EBF0FBE8DBF8DE199E00C94A908833034
:104B200009F459C028F4813061F0823079F1089598
:104B3000853009F49AC008F473C0863009F4BAC00D
:104B4000089580911401262F30E0280F311D2F3F4A
:104B5000310524F4680F6093140103C08FEF809334
:104B6000140189EF97E00E94A908809114011F9217
:104B70008F9386EF97E09F938F930E9442090F9047
:104B80000F900F900F9084EF97E0B8C080911301C1
:104B9000262F30E0280F311D2F3F310524F4680FF8
:104BA0006093130103C08FEF8093130185EE97E0AC
:104BB0000E94A908809113011F928F9382EE97E0C3
:104BC0009F938F930E9442090F900F900F900F9028
:104BD00080EE97E093C080911201262F30E0280FDD
:104BE000311D2F3F310524F4680F6093120103C07B
:104BF0008FEF8093120180ED97E00E94A9088091C9
:104C000012011F928F938DEC97E09F938F930E94D8
:104C100042090F900F900F900F908BEC97E06EC0B1
:104C200080911101262F30E0280F311D2F3F3105D3
:104C300024F4680F6093110103C08FEF809311017A
:104C400089EB97E00E94A908809111011F928F9330
:104C500086EB97E09F938F930E9442090F900F90ED
:104C60000F900F9084EB97E049C080911001262FA0
:104C700030E0280F311D2F3F310524F4680F609379
:104C8000100103C08FEF809310018EE997E00E941E
:104C9000A908809110011F928F938BE997E09F9351
:104CA0008F930E9442090F900F900F900F9089E907
:104CB00097E024C080910F01262F30E0280F311D8E
:104CC0002F3F310524F4680F60930F0103C08FEF6D
:104CD00080930F0181E897E00E94A90880910F015D
:104CE0001F928F938EE797E09F938F930E944209C4
:104CF0000F900F900F900F908CE797E00C94A908FD
:104D0000833009F44DC028F4813061F0823049F1DC
:104D10000895853009F482C008F461C0863009F432
:104D20009CC0089580911401681720F4861B80931D
:104D3000140102C01092140180E797E00E94A908B4
:104D4000809114011F928F938DE697E09F938F932C
:104D50000E9442090F900F900F900F908BE697E002
:104D60009AC080911301681720F4861B8093130169
:104D700002C0109213018CE597E00E94A90880916F
:104D800013011F928F9389E597E09F938F930E9461
:104D900042090F900F900F900F9087E597E07BC02E
:104DA00080911201681720F4861B8093120102C0C3
:104DB0001092120187E497E00E94A90880911201E5
:104DC0001F928F9384E497E09F938F930E944209F0
:104DD0000F900F900F900F9082E497E05CC080914D
:104DE0001101681720F4861B8093110102C01092F4
:104DF000110180E397E00E94A908809111011F92A0
:104E00008F938DE297E09F938F930E9442090F90BA
:104E10000F900F900F908BE297E03DC080911001B2
:104E2000681720F4861B8093100102C010921001B5
:104E300085E197E00E94A908809110011F928F934D
:104E400082E197E09F938F930E9442090F900F9009
:104E50000F900F9080E197E01EC080910F016817BE
:104E600020F4861B80930F0102C010920F0188EF7F
:104E700096E00E94A90880910F011F928F9385EF01
:104E800096E09F938F930E9442090F900F900F908E
:104E90000F9083EF96E00C94A908CF93C82F8EE66D
:104EA0009BE00E94A9086091E2017091E30180916A
:104EB000E4019091E5010E942A211F928F938BE6D5
:104EC0009BE09F938F930E94420986E69BE00E949D
:104ED000A9081F92CF9383E69BE09F938F930E9434
:104EE000420981E69BE00E94A90881E090E0A0E0F1
:104EF000B0E0BC01CD0104C0660F771F881F991F69
:104F0000CA95D2F70E94F31D8DB79EB708960FB6CB
:104F1000F8949EBF0FBE8DBFCF910C94391ACF93DA
:104F2000482F50E0FA013697E334F10508F091C1BB
:104F3000E857FF4F0C94512C87E590E10E94A90897
:104F40000E94C62A0E9495140E94160D1DC00E9440
:104F50009014892B79F00E94901490930C02809306
:104F60000B020E94391A80E090E00E948B148EE4BC
:104F700090E108C080910B0290910C020E948B146A
:104F800083E490E10E94A908C1E068C187E99DE03F
:104F90000E94A90880E89DE00E94A90888E69DE09B
:104FA0000E94A90880E59DE00E94A90886E39DE093
:104FB0000E94A9088FE19DE00E94A90885E09DE07C
:104FC0000E94A90885EE9CE00E94A9088FEC9CE055
:104FD0000E94A9088EEB9CE00E94A90886EA9CE04A
:104FE0000E94A90886E99CE00E94A9088CE79CE041
:104FF0000E94A90883E69CE00E94A9088AE49CE03C
:105000000E94A90881E39CE00E94A90888E19CE035
:105010000E94A90887EF9BE00E94A90885ED9BE00C
:105020000E94A9088BEB9BE0ADCF8091F901817FB5
:105030008E7F8093F9010E941D258EE290E10E94EF
:10504000A9088AE290E10E94A90881E080930A02FF
:105050009BCF0E94391A81E190E10E94A9082FEFAD
:1050600083ED90E3215080409040E1F700C00000C4
:105070000E944E2281E090E185CF8091F901C82FF6
:10508000C17080FF09C08EEE9FE00E94A908809148
:10509000F901817F8E7F47C08CED9FE00E94A908B7
:1050A0008091F90181608093F9016ECF9091F901AF
:1050B00091FBCC27C0F981E0C827892FC0FB81F97B
:1050C0008093F901CC2319F083EC9FE027C089EA93
:1050D0009FE058CF9091F90192FBCC27C0F981E075
:1050E000C827892FC0FB82F98093F901CC2319F0DE
:1050F0008EE89FE013C082E79FE044CF9091F901D2
:1051000093FBCC27C0F981E0C827892FC0FB83F926
:105110008093F901CC2351F08AE59FE00E94A90811
:105120008091F90181608093F90198C081E49FE04A
:1051300029CF8AE29FE00E94A90887E09FE00E94B1
:10514000A90884ED9EE00E94A90887EA9EE00E94DB
:10515000A9088DE69EE00E94A90882E49EE012CF95
:105160008091FD019091FE01A091FF01B09100029C
:10517000BF93AF939F938F938EE29EE09F938F9305
:105180000E9442090F900F900F900F900F900F9078
:10519000FBCE88E19EE00E94A9080E9495141F9210
:1051A0008F938EEF9DE09F938F930E944209809191
:1051B0000B011F928F9387EE9DE09F938F930E9428
:1051C0004209809170011F928F9384ED9DE09F931F
:1051D0008F930E9442098DB79EB70C960FB6F89434
:1051E0009EBF0FBE8DBFD0CE0E94391AC0910C0158
:1051F00081E0C827C0930C01CC2329F085EC9DE009
:105200000E94A9082BC085EB9DE0BCCE81E890E010
:105210000E94F5149FEF21EE84E0915020408040E1
:10522000E1F700C0000080E090E00E94F5149FEFDD
:1052300029E688E1915020408040E1F700C000005D
:10524000A3CE80E003C08D5101C089530E944D2739
:105250009BCE83EB9DE00E94A908C0E08C2FCF91EC
:10526000089580E0089580E00895CF93C82F80913D
:105270000A02813071F020F0823009F451C060C11F
:10528000E0910D01F0910E018081823209F05AC146
:1052900007C0E0910D01F0910E018081823261F42E
:1052A0008C2F0E943129811104C08C2F0E948F27DE
:1052B00035C081E090E032C08C2F0E9433298111EB
:1052C0002CC0C431F1F090F4CB30A1F0C03101F525
:1052D0000E94292580E39BE00E94A9088CE29BE0C4
:1052E0000E94A90882E080930A0217C0C93249F0DF
:1052F000C83371F40E941D258DE59BE00E94A9082A
:105300000CC089E49BE00E94A90810920A021CC10B
:105310008AE29BE00E94A90817C181E0817016C152
:10532000C83228F5CE3108F0C0C0CB30A1F1D0F49E
:10533000C73009F0E8C08EE18093140182E38093C6
:1053400013018AE08093120184E18093110188E0C7
:105350008093100188E280930F0182ED98E00E9413
:10536000A908D6C0C33141F1C431C1F0CCC0CB349F
:1053700009F4BEC028F4C93289F0C83361F0C3C053
:10538000C13509F4B3C0C23509F4AEC0CE3409F05A
:10539000BAC06AE0B3C00E942925BAC010920D02BB
:1053A00085E099E00E94A90881E099E00E94A9089F
:1053B00081E080930A02CAC085EA98E00E94A908A9
:1053C00080E998E00E94A908809114011F928F93B0
:1053D0008DE898E09F938F930E9442098BE898E0B4
:1053E0000E94A90886E798E00E94A908809113010D
:1053F0001F928F9383E798E09F938F930E944209B7
:1054000081E798E00E94A9088FE598E00E94A9082A
:10541000809112011F928F938CE598E09F938F9358
:105420000E9442098AE598E00E94A90886E498E073
:105430000E94A908809111011F928F9383E498E044
:105440009F938F930E94420981E498E00E94A908EB
:1054500089E298E00E94A908809110011F928F9321
:1054600086E298E09F938F930E94420984E298E03D
:105470000E94A9088AE098E00E94A90880910F0183
:105480001F928F9387E098E09F938F930E94420929
:1054900085E098E00E94A9088DB79EB748960FB6A0
:1054A000F8949EBF0FBE8DBF33C0CE51EC2FF0E0FD
:1054B000E25DFE4F808180930D028CEE98E00E94A9
:1054C000A90880910D021F928F9389EE98E09F9317
:1054D0008F930E94420987EE98E00E94A9080F90DE
:1054E0000F900F900F9014C061E003C061E006C000
:1054F0006AE080910D020E948F250AC080910D0202
:105500000E94802605C080ED98E00E94A90816C080
:105510008EEC98E00E94A90880910D021F928F9353
:105520008BEC98E09F938F930E94420988EC98E05F
:105530000E94A9080F900F900F900F9081E006C075
:1055400010920A0280E002C080E0E8CECF91089578
:10555000E1E8F0E0808188608083808181608083E1
:105560008FB7F89493E09093890090ED9093880022
:105570008FBF0895EFE6F0E0808182608083089518
:10558000EFE6F0E080818D7F80830895EFE6F0E024
:10559000908182E08927808308951F920F920FB631
:1055A0000F9211242F933F934F935F936F937F93A9
:1055B0008F939F93AF93BF93EF93FF9380910E02CE
:1055C00090910F02019690930F0280930E02811129
:1055D00003C082E00E94160DE0910F02E695E69569
:1055E000F0E0E959FF4EE49180910E028E1303C062
:1055F00080E00E94160DFF91EF91BF91AF919F91B6
:105600008F917F916F915F914F913F912F910F906B
:105610000FBE0F901F9018950E94132B6894B11124
:105620000C94A22B08950E94872B88F09F5798F026
:10563000B92F9927B751B0F0E1F0660F771F881F97
:10564000991F1AF0BA95C9F714C0B13091F00E94B1
:10565000A12BB1E008950C94A12B672F782F8827F8
:10566000B85F39F0B93FCCF3869577956795B395D8
:10567000D9F73EF490958095709561957F4F8F4F47
:105680009F4F0895E89409C097FB3EF4909580954C
:10569000709561957F4F8F4F9F4F9923A9F0F92FF8
:1056A00096E9BB279395F695879577956795B79576
:1056B000F111F8CFFAF4BB0F11F460FF1BC06F5F5C
:1056C0007F4F8F4F9F4F16C0882311F096E911C06E
:1056D000772321F09EE8872F762F05C0662371F08F
:1056E00096E8862F70E060E02AF09A95660F771FA3
:1056F000881FDAF7880F9695879597F9089557FDD3
:105700009058440F551F59F05F3F71F04795880F2F
:1057100097FB991F61F09F3F79F0879508951216C6
:1057200013061406551FF2CF4695F1DF08C0161672
:1057300017061806991FF1CF869571056105089423
:105740000895E894BB2766277727CB0197F908953A
:105750000E94BB2B0C942C2C0E941E2C38F00E9413
:10576000252C20F0952311F00C94152C0C941B2C57
:1057700011240C94A22B0E947F2B70F3959FC1F3F0
:10578000950F50E0551F629FF001729FBB27F00DEF
:10579000B11D639FAA27F00DB11DAA1F649F662744
:1057A000B00DA11D661F829F2227B00DA11D621F93
:1057B000739FB00DA11D621F839FA00D611D221F4D
:1057C000749F3327A00D611D231F849F600D211D31
:1057D000822F762F6A2F11249F5750409AF0F1F0B4
:1057E00088234AF0EE0FFF1FBB1F661F771F881F1D
:1057F00091505040A9F79E3F510580F00C94152C14
:105800000C94A22B5F3FE4F3983ED4F386957795F2
:105810006795B795F795E7959F5FC1F7FE2B880FC2
:10582000911D9695879597F9089597F99F6780E858
:1058300070E060E008959FEF80EC089500240A94E2
:105840001616170618060906089500240A9412165B
:105850001306140605060895092E0394000C11F48E
:10586000882352F0BB0F40F4BF2B11F460FF04C03B
:105870006F5F7F4F8F4F9F4F089597FB072E16F452
:10588000009407D077FD09D00E94572C07FC05D063
:105890003EF4909581959F4F0895709561957F4F47
:1058A0000895EE0FFF1F0590F491E02D0994AA1BB7
:1058B000BB1B51E107C0AA1FBB1FA617B70710F0FB
:1058C000A61BB70B881F991F5A95A9F7809590952D
:0A58D000BC01CD010895F894FFCF4C
:1058DA00051D0DFE0DDB0DA70D730D0101E7012856
:1058EA0008140A321E3F4D362039FA05AD057705F0
:1058FA0057051E059104AA04C304DC04FC04010232
:08590A0003040506070809006B
:00000001FF
